{
  "_format": "hh-sol-artifact-1",
  "contractName": "Storage",
  "sourceName": "contracts/Storage.sol",
  "abi": [
    {
      "inputs": [
        {
          "internalType": "string",
          "name": "_codeApogee",
          "type": "string"
        },
        {
          "internalType": "string",
          "name": "_studentName",
          "type": "string"
        },
        {
          "internalType": "string",
          "name": "_studentEmail",
          "type": "string"
        },
        {
          "internalType": "string",
          "name": "_diplomeTitle",
          "type": "string"
        }
      ],
      "name": "createStudent",
      "outputs": [],
      "stateMutability": "nonpayable",
      "type": "function"
    },
    {
      "inputs": [],
      "name": "deleteLastStudent",
      "outputs": [],
      "stateMutability": "nonpayable",
      "type": "function"
    },
    {
      "inputs": [
        {
          "internalType": "string",
          "name": "_codeApogee",
          "type": "string"
        }
      ],
      "name": "getStudent",
      "outputs": [
        {
          "components": [
            {
              "internalType": "string",
              "name": "codeApogee",
              "type": "string"
            },
            {
              "internalType": "string",
              "name": "studentName",
              "type": "string"
            },
            {
              "internalType": "string",
              "name": "studentEmail",
              "type": "string"
            },
            {
              "internalType": "string",
              "name": "diplomeTitle",
              "type": "string"
            }
          ],
          "internalType": "struct Storage.Student",
          "name": "",
          "type": "tuple"
        }
      ],
      "stateMutability": "view",
      "type": "function"
    },
    {
      "inputs": [],
      "name": "getStudents",
      "outputs": [
        {
          "components": [
            {
              "internalType": "string",
              "name": "codeApogee",
              "type": "string"
            },
            {
              "internalType": "string",
              "name": "studentName",
              "type": "string"
            },
            {
              "internalType": "string",
              "name": "studentEmail",
              "type": "string"
            },
            {
              "internalType": "string",
              "name": "diplomeTitle",
              "type": "string"
            }
          ],
          "internalType": "struct Storage.Student[]",
          "name": "",
          "type": "tuple[]"
        }
      ],
      "stateMutability": "view",
      "type": "function"
    },
    {
      "inputs": [
        {
          "internalType": "uint256",
          "name": "",
          "type": "uint256"
        }
      ],
      "name": "students",
      "outputs": [
        {
          "internalType": "string",
          "name": "codeApogee",
          "type": "string"
        },
        {
          "internalType": "string",
          "name": "studentName",
          "type": "string"
        },
        {
          "internalType": "string",
          "name": "studentEmail",
          "type": "string"
        },
        {
          "internalType": "string",
          "name": "diplomeTitle",
          "type": "string"
        }
      ],
      "stateMutability": "view",
      "type": "function"
    }
  ],
  "bytecode": "0x608060405234801561001057600080fd5b5061153e806100206000396000f3fe608060405234801561001057600080fd5b50600436106100575760003560e01c806306ead22e1461005c5780631d53bc091461008f578063321e266514610099578063d0296612146100b5578063f1d064b3146100e5575b600080fd5b61007660048036038101906100719190610ae8565b610103565b6040516100869493929190610ba5565b60405180910390f35b610097610363565b005b6100b360048036038101906100ae9190610d3b565b6103d0565b005b6100cf60048036038101906100ca9190610e12565b61047c565b6040516100dc9190610f1d565b60405180910390f35b6100ed610772565b6040516100fa9190611079565b60405180910390f35b6000818154811061011357600080fd5b9060005260206000209060040201600091509050806000018054610136906110ca565b80601f0160208091040260200160405190810160405280929190818152602001828054610162906110ca565b80156101af5780601f10610184576101008083540402835291602001916101af565b820191906000526020600020905b81548152906001019060200180831161019257829003601f168201915b5050505050908060010180546101c4906110ca565b80601f01602080910402602001604051908101604052809291908181526020018280546101f0906110ca565b801561023d5780601f106102125761010080835404028352916020019161023d565b820191906000526020600020905b81548152906001019060200180831161022057829003601f168201915b505050505090806002018054610252906110ca565b80601f016020809104026020016040519081016040528092919081815260200182805461027e906110ca565b80156102cb5780601f106102a0576101008083540402835291602001916102cb565b820191906000526020600020905b8154815290600101906020018083116102ae57829003601f168201915b5050505050908060030180546102e0906110ca565b80601f016020809104026020016040519081016040528092919081815260200182805461030c906110ca565b80156103595780601f1061032e57610100808354040283529160200191610359565b820191906000526020600020905b81548152906001019060200180831161033c57829003601f168201915b5050505050905084565b6000805480610375576103746110fb565b5b60019003818190600052602060002090600402016000808201600061039a9190610a19565b6001820160006103aa9190610a19565b6002820160006103ba9190610a19565b6003820160006103ca9190610a19565b50509055565b60006040518060800160405280868152602001858152602001848152602001838152509080600181540180825580915050600190039060005260206000209060040201600090919091909150600082015181600001908161043191906112d6565b50602082015181600101908161044791906112d6565b50604082015181600201908161045d91906112d6565b50606082015181600301908161047391906112d6565b50505050505050565b610484610a59565b60005b60008054905081101561076b578280519060200120600082815481106104b0576104af6113a8565b5b90600052602060002090600402016000016040516104ce919061147a565b60405180910390200361075857600081815481106104ef576104ee6113a8565b5b9060005260206000209060040201604051806080016040529081600082018054610518906110ca565b80601f0160208091040260200160405190810160405280929190818152602001828054610544906110ca565b80156105915780601f1061056657610100808354040283529160200191610591565b820191906000526020600020905b81548152906001019060200180831161057457829003601f168201915b505050505081526020016001820180546105aa906110ca565b80601f01602080910402602001604051908101604052809291908181526020018280546105d6906110ca565b80156106235780601f106105f857610100808354040283529160200191610623565b820191906000526020600020905b81548152906001019060200180831161060657829003601f168201915b5050505050815260200160028201805461063c906110ca565b80601f0160208091040260200160405190810160405280929190818152602001828054610668906110ca565b80156106b55780601f1061068a576101008083540402835291602001916106b5565b820191906000526020600020905b81548152906001019060200180831161069857829003601f168201915b505050505081526020016003820180546106ce906110ca565b80601f01602080910402602001604051908101604052809291908181526020018280546106fa906110ca565b80156107475780601f1061071c57610100808354040283529160200191610747565b820191906000526020600020905b81548152906001019060200180831161072a57829003601f168201915b50505050508152505091505061076d565b8080610763906114c0565b915050610487565b505b919050565b60606000805480602002602001604051908101604052809291908181526020016000905b82821015610a1057838290600052602060002090600402016040518060800160405290816000820180546107c9906110ca565b80601f01602080910402602001604051908101604052809291908181526020018280546107f5906110ca565b80156108425780601f1061081757610100808354040283529160200191610842565b820191906000526020600020905b81548152906001019060200180831161082557829003601f168201915b5050505050815260200160018201805461085b906110ca565b80601f0160208091040260200160405190810160405280929190818152602001828054610887906110ca565b80156108d45780601f106108a9576101008083540402835291602001916108d4565b820191906000526020600020905b8154815290600101906020018083116108b757829003601f168201915b505050505081526020016002820180546108ed906110ca565b80601f0160208091040260200160405190810160405280929190818152602001828054610919906110ca565b80156109665780601f1061093b57610100808354040283529160200191610966565b820191906000526020600020905b81548152906001019060200180831161094957829003601f168201915b5050505050815260200160038201805461097f906110ca565b80601f01602080910402602001604051908101604052809291908181526020018280546109ab906110ca565b80156109f85780601f106109cd576101008083540402835291602001916109f8565b820191906000526020600020905b8154815290600101906020018083116109db57829003601f168201915b50505050508152505081526020019060010190610796565b50505050905090565b508054610a25906110ca565b6000825580601f10610a375750610a56565b601f016020900490600052602060002090810190610a559190610a81565b5b50565b6040518060800160405280606081526020016060815260200160608152602001606081525090565b5b80821115610a9a576000816000905550600101610a82565b5090565b6000604051905090565b600080fd5b600080fd5b6000819050919050565b610ac581610ab2565b8114610ad057600080fd5b50565b600081359050610ae281610abc565b92915050565b600060208284031215610afe57610afd610aa8565b5b6000610b0c84828501610ad3565b91505092915050565b600081519050919050565b600082825260208201905092915050565b60005b83811015610b4f578082015181840152602081019050610b34565b60008484015250505050565b6000601f19601f8301169050919050565b6000610b7782610b15565b610b818185610b20565b9350610b91818560208601610b31565b610b9a81610b5b565b840191505092915050565b60006080820190508181036000830152610bbf8187610b6c565b90508181036020830152610bd38186610b6c565b90508181036040830152610be78185610b6c565b90508181036060830152610bfb8184610b6c565b905095945050505050565b600080fd5b600080fd5b7f4e487b7100000000000000000000000000000000000000000000000000000000600052604160045260246000fd5b610c4882610b5b565b810181811067ffffffffffffffff82111715610c6757610c66610c10565b5b80604052505050565b6000610c7a610a9e565b9050610c868282610c3f565b919050565b600067ffffffffffffffff821115610ca657610ca5610c10565b5b610caf82610b5b565b9050602081019050919050565b82818337600083830152505050565b6000610cde610cd984610c8b565b610c70565b905082815260208101848484011115610cfa57610cf9610c0b565b5b610d05848285610cbc565b509392505050565b600082601f830112610d2257610d21610c06565b5b8135610d32848260208601610ccb565b91505092915050565b60008060008060808587031215610d5557610d54610aa8565b5b600085013567ffffffffffffffff811115610d7357610d72610aad565b5b610d7f87828801610d0d565b945050602085013567ffffffffffffffff811115610da057610d9f610aad565b5b610dac87828801610d0d565b935050604085013567ffffffffffffffff811115610dcd57610dcc610aad565b5b610dd987828801610d0d565b925050606085013567ffffffffffffffff811115610dfa57610df9610aad565b5b610e0687828801610d0d565b91505092959194509250565b600060208284031215610e2857610e27610aa8565b5b600082013567ffffffffffffffff811115610e4657610e45610aad565b5b610e5284828501610d0d565b91505092915050565b600082825260208201905092915050565b6000610e7782610b15565b610e818185610e5b565b9350610e91818560208601610b31565b610e9a81610b5b565b840191505092915050565b60006080830160008301518482036000860152610ec28282610e6c565b91505060208301518482036020860152610edc8282610e6c565b91505060408301518482036040860152610ef68282610e6c565b91505060608301518482036060860152610f108282610e6c565b9150508091505092915050565b60006020820190508181036000830152610f378184610ea5565b905092915050565b600081519050919050565b600082825260208201905092915050565b6000819050602082019050919050565b60006080830160008301518482036000860152610f888282610e6c565b91505060208301518482036020860152610fa28282610e6c565b91505060408301518482036040860152610fbc8282610e6c565b91505060608301518482036060860152610fd68282610e6c565b9150508091505092915050565b6000610fef8383610f6b565b905092915050565b6000602082019050919050565b600061100f82610f3f565b6110198185610f4a565b93508360208202850161102b85610f5b565b8060005b8581101561106757848403895281516110488582610fe3565b945061105383610ff7565b925060208a0199505060018101905061102f565b50829750879550505050505092915050565b600060208201905081810360008301526110938184611004565b905092915050565b7f4e487b7100000000000000000000000000000000000000000000000000000000600052602260045260246000fd5b600060028204905060018216806110e257607f821691505b6020821081036110f5576110f461109b565b5b50919050565b7f4e487b7100000000000000000000000000000000000000000000000000000000600052603160045260246000fd5b60008190508160005260206000209050919050565b60006020601f8301049050919050565b600082821b905092915050565b60006008830261118c7fffffffffffffffffffffffffffffffffffffffffffffffffffffffffffffffff8261114f565b611196868361114f565b95508019841693508086168417925050509392505050565b6000819050919050565b60006111d36111ce6111c984610ab2565b6111ae565b610ab2565b9050919050565b6000819050919050565b6111ed836111b8565b6112016111f9826111da565b84845461115c565b825550505050565b600090565b611216611209565b6112218184846111e4565b505050565b5b818110156112455761123a60008261120e565b600181019050611227565b5050565b601f82111561128a5761125b8161112a565b6112648461113f565b81016020851015611273578190505b61128761127f8561113f565b830182611226565b50505b505050565b600082821c905092915050565b60006112ad6000198460080261128f565b1980831691505092915050565b60006112c6838361129c565b9150826002028217905092915050565b6112df82610b15565b67ffffffffffffffff8111156112f8576112f7610c10565b5b61130282546110ca565b61130d828285611249565b600060209050601f831160018114611340576000841561132e578287015190505b61133885826112ba565b8655506113a0565b601f19841661134e8661112a565b60005b8281101561137657848901518255600182019150602085019450602081019050611351565b86831015611393578489015161138f601f89168261129c565b8355505b6001600288020188555050505b505050505050565b7f4e487b7100000000000000000000000000000000000000000000000000000000600052603260045260246000fd5b600081905092915050565b60008190508160005260206000209050919050565b60008154611404816110ca565b61140e81866113d7565b94506001821660008114611429576001811461143e57611471565b60ff1983168652811515820286019350611471565b611447856113e2565b60005b838110156114695781548189015260018201915060208101905061144a565b838801955050505b50505092915050565b600061148682846113f7565b915081905092915050565b7f4e487b7100000000000000000000000000000000000000000000000000000000600052601160045260246000fd5b60006114cb82610ab2565b91507fffffffffffffffffffffffffffffffffffffffffffffffffffffffffffffffff82036114fd576114fc611491565b5b60018201905091905056fea26469706673582212202ae3de6c7273a3e043cc74a453c68e380c9a96271ea40e5afb54a6a533419b0564736f6c63430008110033",
  "linkReferences": {},
  "deployedLinkReferences": {}
}