{
	"Storage.sol": {
		"Storage": {
			"abi": [
				{
					"anonymous": false,
					"inputs": [
						{
							"indexed": false,
							"internalType": "string",
							"name": "_CNE",
							"type": "string"
						}
					],
					"name": "DiplomeCreated",
					"type": "event"
				},
				{
					"inputs": [
						{
							"internalType": "string[]",
							"name": "_dip",
							"type": "string[]"
						}
					],
					"name": "createDiplome",
					"outputs": [],
					"stateMutability": "nonpayable",
					"type": "function"
				},
				{
					"inputs": [],
					"name": "deleteLastDiplome",
					"outputs": [],
					"stateMutability": "nonpayable",
					"type": "function"
				},
				{
					"inputs": [
						{
							"internalType": "uint256",
							"name": "",
							"type": "uint256"
						}
					],
					"name": "diplomes",
					"outputs": [
						{
							"internalType": "string",
							"name": "CNE",
							"type": "string"
						},
						{
							"internalType": "string",
							"name": "CNI",
							"type": "string"
						},
						{
							"internalType": "string",
							"name": "firstName",
							"type": "string"
						},
						{
							"internalType": "string",
							"name": "lastName",
							"type": "string"
						},
						{
							"internalType": "string",
							"name": "birthDate",
							"type": "string"
						},
						{
							"internalType": "string",
							"name": "birthPlace",
							"type": "string"
						},
						{
							"internalType": "string",
							"name": "universityName",
							"type": "string"
						},
						{
							"internalType": "string",
							"name": "diplomeTitle",
							"type": "string"
						},
						{
							"internalType": "string",
							"name": "brancheName",
							"type": "string"
						},
						{
							"internalType": "string",
							"name": "brancheOption",
							"type": "string"
						},
						{
							"internalType": "string",
							"name": "note",
							"type": "string"
						},
						{
							"internalType": "string",
							"name": "date",
							"type": "string"
						}
					],
					"stateMutability": "view",
					"type": "function"
				},
				{
					"inputs": [
						{
							"internalType": "string",
							"name": "_date",
							"type": "string"
						}
					],
					"name": "filterDiplomes",
					"outputs": [
						{
							"components": [
								{
									"internalType": "string",
									"name": "CNE",
									"type": "string"
								},
								{
									"internalType": "string",
									"name": "CNI",
									"type": "string"
								},
								{
									"internalType": "string",
									"name": "firstName",
									"type": "string"
								},
								{
									"internalType": "string",
									"name": "lastName",
									"type": "string"
								},
								{
									"internalType": "string",
									"name": "birthDate",
									"type": "string"
								},
								{
									"internalType": "string",
									"name": "birthPlace",
									"type": "string"
								},
								{
									"internalType": "string",
									"name": "universityName",
									"type": "string"
								},
								{
									"internalType": "string",
									"name": "diplomeTitle",
									"type": "string"
								},
								{
									"internalType": "string",
									"name": "brancheName",
									"type": "string"
								},
								{
									"internalType": "string",
									"name": "brancheOption",
									"type": "string"
								},
								{
									"internalType": "string",
									"name": "note",
									"type": "string"
								},
								{
									"internalType": "string",
									"name": "date",
									"type": "string"
								}
							],
							"internalType": "struct Storage.Diplome[]",
							"name": "",
							"type": "tuple[]"
						}
					],
					"stateMutability": "view",
					"type": "function"
				},
				{
					"inputs": [
						{
							"internalType": "string",
							"name": "_CNE",
							"type": "string"
						}
					],
					"name": "getDiplome",
					"outputs": [
						{
							"components": [
								{
									"internalType": "string",
									"name": "CNE",
									"type": "string"
								},
								{
									"internalType": "string",
									"name": "CNI",
									"type": "string"
								},
								{
									"internalType": "string",
									"name": "firstName",
									"type": "string"
								},
								{
									"internalType": "string",
									"name": "lastName",
									"type": "string"
								},
								{
									"internalType": "string",
									"name": "birthDate",
									"type": "string"
								},
								{
									"internalType": "string",
									"name": "birthPlace",
									"type": "string"
								},
								{
									"internalType": "string",
									"name": "universityName",
									"type": "string"
								},
								{
									"internalType": "string",
									"name": "diplomeTitle",
									"type": "string"
								},
								{
									"internalType": "string",
									"name": "brancheName",
									"type": "string"
								},
								{
									"internalType": "string",
									"name": "brancheOption",
									"type": "string"
								},
								{
									"internalType": "string",
									"name": "note",
									"type": "string"
								},
								{
									"internalType": "string",
									"name": "date",
									"type": "string"
								}
							],
							"internalType": "struct Storage.Diplome",
							"name": "",
							"type": "tuple"
						}
					],
					"stateMutability": "view",
					"type": "function"
				},
				{
					"inputs": [],
					"name": "getDiplomes",
					"outputs": [
						{
							"components": [
								{
									"internalType": "string",
									"name": "CNE",
									"type": "string"
								},
								{
									"internalType": "string",
									"name": "CNI",
									"type": "string"
								},
								{
									"internalType": "string",
									"name": "firstName",
									"type": "string"
								},
								{
									"internalType": "string",
									"name": "lastName",
									"type": "string"
								},
								{
									"internalType": "string",
									"name": "birthDate",
									"type": "string"
								},
								{
									"internalType": "string",
									"name": "birthPlace",
									"type": "string"
								},
								{
									"internalType": "string",
									"name": "universityName",
									"type": "string"
								},
								{
									"internalType": "string",
									"name": "diplomeTitle",
									"type": "string"
								},
								{
									"internalType": "string",
									"name": "brancheName",
									"type": "string"
								},
								{
									"internalType": "string",
									"name": "brancheOption",
									"type": "string"
								},
								{
									"internalType": "string",
									"name": "note",
									"type": "string"
								},
								{
									"internalType": "string",
									"name": "date",
									"type": "string"
								}
							],
							"internalType": "struct Storage.Diplome[]",
							"name": "",
							"type": "tuple[]"
						}
					],
					"stateMutability": "view",
					"type": "function"
				}
			],
			"devdoc": {
				"kind": "dev",
				"methods": {},
				"version": 1
			},
			"evm": {
				"assembly": "    /* \"Storage.sol\":140:2842  contract Storage {... */\n  mstore(0x40, 0x80)\n  callvalue\n  dup1\n  iszero\n  tag_1\n  jumpi\n  0x00\n  dup1\n  revert\ntag_1:\n  pop\n  dataSize(sub_0)\n  dup1\n  dataOffset(sub_0)\n  0x00\n  codecopy\n  0x00\n  return\nstop\n\nsub_0: assembly {\n        /* \"Storage.sol\":140:2842  contract Storage {... */\n      mstore(0x40, 0x80)\n      callvalue\n      dup1\n      iszero\n      tag_1\n      jumpi\n      0x00\n      dup1\n      revert\n    tag_1:\n      pop\n      jumpi(tag_2, lt(calldatasize, 0x04))\n      shr(0xe0, calldataload(0x00))\n      dup1\n      0x376d83b9\n      eq\n      tag_3\n      jumpi\n      dup1\n      0x57a1cfb4\n      eq\n      tag_4\n      jumpi\n      dup1\n      0x589d157a\n      eq\n      tag_5\n      jumpi\n      dup1\n      0x6f593db5\n      eq\n      tag_6\n      jumpi\n      dup1\n      0x768ceb9a\n      eq\n      tag_7\n      jumpi\n      dup1\n      0x9e7ab31b\n      eq\n      tag_8\n      jumpi\n    tag_2:\n      0x00\n      dup1\n      revert\n        /* \"Storage.sol\":1344:1441  function getDiplomes() external view returns(Diplome[] memory) {... */\n    tag_3:\n      tag_9\n      tag_10\n      jump\t// in\n    tag_9:\n      mload(0x40)\n      tag_11\n      swap2\n      swap1\n      tag_12\n      jump\t// in\n    tag_11:\n      mload(0x40)\n      dup1\n      swap2\n      sub\n      swap1\n      return\n        /* \"Storage.sol\":624:1336  function createDiplome(string[] memory _dip) public {... */\n    tag_4:\n      tag_13\n      0x04\n      dup1\n      calldatasize\n      sub\n      dup2\n      add\n      swap1\n      tag_14\n      swap2\n      swap1\n      tag_15\n      jump\t// in\n    tag_14:\n      tag_16\n      jump\t// in\n    tag_13:\n      stop\n        /* \"Storage.sol\":2480:2551  function deleteLastDiplome() external {... */\n    tag_5:\n      tag_17\n      tag_18\n      jump\t// in\n    tag_17:\n      stop\n        /* \"Storage.sol\":2559:2839  function getDiplome(string memory _CNE ) public view returns (Diplome memory) {... */\n    tag_6:\n      tag_19\n      0x04\n      dup1\n      calldatasize\n      sub\n      dup2\n      add\n      swap1\n      tag_20\n      swap2\n      swap1\n      tag_21\n      jump\t// in\n    tag_20:\n      tag_22\n      jump\t// in\n    tag_19:\n      mload(0x40)\n      tag_23\n      swap2\n      swap1\n      tag_24\n      jump\t// in\n    tag_23:\n      mload(0x40)\n      dup1\n      swap2\n      sub\n      swap1\n      return\n        /* \"Storage.sol\":550:575  Diplome[] public diplomes */\n    tag_7:\n      tag_25\n      0x04\n      dup1\n      calldatasize\n      sub\n      dup2\n      add\n      swap1\n      tag_26\n      swap2\n      swap1\n      tag_27\n      jump\t// in\n    tag_26:\n      tag_28\n      jump\t// in\n    tag_25:\n      mload(0x40)\n      tag_29\n      swap13\n      swap12\n      swap11\n      swap10\n      swap9\n      swap8\n      swap7\n      swap6\n      swap5\n      swap4\n      swap3\n      swap2\n      swap1\n      tag_30\n      jump\t// in\n    tag_29:\n      mload(0x40)\n      dup1\n      swap2\n      sub\n      swap1\n      return\n        /* \"Storage.sol\":1449:2472  function filterDiplomes(string memory _date) external view returns(Diplome[] memory) {... */\n    tag_8:\n      tag_31\n      0x04\n      dup1\n      calldatasize\n      sub\n      dup2\n      add\n      swap1\n      tag_32\n      swap2\n      swap1\n      tag_21\n      jump\t// in\n    tag_32:\n      tag_33\n      jump\t// in\n    tag_31:\n      mload(0x40)\n      tag_34\n      swap2\n      swap1\n      tag_12\n      jump\t// in\n    tag_34:\n      mload(0x40)\n      dup1\n      swap2\n      sub\n      swap1\n      return\n        /* \"Storage.sol\":1344:1441  function getDiplomes() external view returns(Diplome[] memory) {... */\n    tag_10:\n        /* \"Storage.sol\":1389:1405  Diplome[] memory */\n      0x60\n        /* \"Storage.sol\":1425:1433  diplomes */\n      0x00\n        /* \"Storage.sol\":1418:1433  return diplomes */\n      dup1\n      sload\n      dup1\n      0x20\n      mul\n      0x20\n      add\n      mload(0x40)\n      swap1\n      dup2\n      add\n      0x40\n      mstore\n      dup1\n      swap3\n      swap2\n      swap1\n      dup2\n      dup2\n      mstore\n      0x20\n      add\n      0x00\n      swap1\n    tag_36:\n      dup3\n      dup3\n      lt\n      iszero\n      tag_37\n      jumpi\n      dup4\n      dup3\n      swap1\n      0x00\n      mstore\n      keccak256(0x00, 0x20)\n      swap1\n      0x0c\n      mul\n      add\n      mload(0x40)\n      dup1\n      0x0180\n      add\n      0x40\n      mstore\n      swap1\n      dup2\n      0x00\n      dup3\n      add\n      dup1\n      sload\n      tag_39\n      swap1\n      tag_40\n      jump\t// in\n    tag_39:\n      dup1\n      0x1f\n      add\n      0x20\n      dup1\n      swap2\n      div\n      mul\n      0x20\n      add\n      mload(0x40)\n      swap1\n      dup2\n      add\n      0x40\n      mstore\n      dup1\n      swap3\n      swap2\n      swap1\n      dup2\n      dup2\n      mstore\n      0x20\n      add\n      dup3\n      dup1\n      sload\n      tag_41\n      swap1\n      tag_40\n      jump\t// in\n    tag_41:\n      dup1\n      iszero\n      tag_42\n      jumpi\n      dup1\n      0x1f\n      lt\n      tag_43\n      jumpi\n      0x0100\n      dup1\n      dup4\n      sload\n      div\n      mul\n      dup4\n      mstore\n      swap2\n      0x20\n      add\n      swap2\n      jump(tag_42)\n    tag_43:\n      dup3\n      add\n      swap2\n      swap1\n      0x00\n      mstore\n      keccak256(0x00, 0x20)\n      swap1\n    tag_44:\n      dup2\n      sload\n      dup2\n      mstore\n      swap1\n      0x01\n      add\n      swap1\n      0x20\n      add\n      dup1\n      dup4\n      gt\n      tag_44\n      jumpi\n      dup3\n      swap1\n      sub\n      0x1f\n      and\n      dup3\n      add\n      swap2\n    tag_42:\n      pop\n      pop\n      pop\n      pop\n      pop\n      dup2\n      mstore\n      0x20\n      add\n      0x01\n      dup3\n      add\n      dup1\n      sload\n      tag_45\n      swap1\n      tag_40\n      jump\t// in\n    tag_45:\n      dup1\n      0x1f\n      add\n      0x20\n      dup1\n      swap2\n      div\n      mul\n      0x20\n      add\n      mload(0x40)\n      swap1\n      dup2\n      add\n      0x40\n      mstore\n      dup1\n      swap3\n      swap2\n      swap1\n      dup2\n      dup2\n      mstore\n      0x20\n      add\n      dup3\n      dup1\n      sload\n      tag_46\n      swap1\n      tag_40\n      jump\t// in\n    tag_46:\n      dup1\n      iszero\n      tag_47\n      jumpi\n      dup1\n      0x1f\n      lt\n      tag_48\n      jumpi\n      0x0100\n      dup1\n      dup4\n      sload\n      div\n      mul\n      dup4\n      mstore\n      swap2\n      0x20\n      add\n      swap2\n      jump(tag_47)\n    tag_48:\n      dup3\n      add\n      swap2\n      swap1\n      0x00\n      mstore\n      keccak256(0x00, 0x20)\n      swap1\n    tag_49:\n      dup2\n      sload\n      dup2\n      mstore\n      swap1\n      0x01\n      add\n      swap1\n      0x20\n      add\n      dup1\n      dup4\n      gt\n      tag_49\n      jumpi\n      dup3\n      swap1\n      sub\n      0x1f\n      and\n      dup3\n      add\n      swap2\n    tag_47:\n      pop\n      pop\n      pop\n      pop\n      pop\n      dup2\n      mstore\n      0x20\n      add\n      0x02\n      dup3\n      add\n      dup1\n      sload\n      tag_50\n      swap1\n      tag_40\n      jump\t// in\n    tag_50:\n      dup1\n      0x1f\n      add\n      0x20\n      dup1\n      swap2\n      div\n      mul\n      0x20\n      add\n      mload(0x40)\n      swap1\n      dup2\n      add\n      0x40\n      mstore\n      dup1\n      swap3\n      swap2\n      swap1\n      dup2\n      dup2\n      mstore\n      0x20\n      add\n      dup3\n      dup1\n      sload\n      tag_51\n      swap1\n      tag_40\n      jump\t// in\n    tag_51:\n      dup1\n      iszero\n      tag_52\n      jumpi\n      dup1\n      0x1f\n      lt\n      tag_53\n      jumpi\n      0x0100\n      dup1\n      dup4\n      sload\n      div\n      mul\n      dup4\n      mstore\n      swap2\n      0x20\n      add\n      swap2\n      jump(tag_52)\n    tag_53:\n      dup3\n      add\n      swap2\n      swap1\n      0x00\n      mstore\n      keccak256(0x00, 0x20)\n      swap1\n    tag_54:\n      dup2\n      sload\n      dup2\n      mstore\n      swap1\n      0x01\n      add\n      swap1\n      0x20\n      add\n      dup1\n      dup4\n      gt\n      tag_54\n      jumpi\n      dup3\n      swap1\n      sub\n      0x1f\n      and\n      dup3\n      add\n      swap2\n    tag_52:\n      pop\n      pop\n      pop\n      pop\n      pop\n      dup2\n      mstore\n      0x20\n      add\n      0x03\n      dup3\n      add\n      dup1\n      sload\n      tag_55\n      swap1\n      tag_40\n      jump\t// in\n    tag_55:\n      dup1\n      0x1f\n      add\n      0x20\n      dup1\n      swap2\n      div\n      mul\n      0x20\n      add\n      mload(0x40)\n      swap1\n      dup2\n      add\n      0x40\n      mstore\n      dup1\n      swap3\n      swap2\n      swap1\n      dup2\n      dup2\n      mstore\n      0x20\n      add\n      dup3\n      dup1\n      sload\n      tag_56\n      swap1\n      tag_40\n      jump\t// in\n    tag_56:\n      dup1\n      iszero\n      tag_57\n      jumpi\n      dup1\n      0x1f\n      lt\n      tag_58\n      jumpi\n      0x0100\n      dup1\n      dup4\n      sload\n      div\n      mul\n      dup4\n      mstore\n      swap2\n      0x20\n      add\n      swap2\n      jump(tag_57)\n    tag_58:\n      dup3\n      add\n      swap2\n      swap1\n      0x00\n      mstore\n      keccak256(0x00, 0x20)\n      swap1\n    tag_59:\n      dup2\n      sload\n      dup2\n      mstore\n      swap1\n      0x01\n      add\n      swap1\n      0x20\n      add\n      dup1\n      dup4\n      gt\n      tag_59\n      jumpi\n      dup3\n      swap1\n      sub\n      0x1f\n      and\n      dup3\n      add\n      swap2\n    tag_57:\n      pop\n      pop\n      pop\n      pop\n      pop\n      dup2\n      mstore\n      0x20\n      add\n      0x04\n      dup3\n      add\n      dup1\n      sload\n      tag_60\n      swap1\n      tag_40\n      jump\t// in\n    tag_60:\n      dup1\n      0x1f\n      add\n      0x20\n      dup1\n      swap2\n      div\n      mul\n      0x20\n      add\n      mload(0x40)\n      swap1\n      dup2\n      add\n      0x40\n      mstore\n      dup1\n      swap3\n      swap2\n      swap1\n      dup2\n      dup2\n      mstore\n      0x20\n      add\n      dup3\n      dup1\n      sload\n      tag_61\n      swap1\n      tag_40\n      jump\t// in\n    tag_61:\n      dup1\n      iszero\n      tag_62\n      jumpi\n      dup1\n      0x1f\n      lt\n      tag_63\n      jumpi\n      0x0100\n      dup1\n      dup4\n      sload\n      div\n      mul\n      dup4\n      mstore\n      swap2\n      0x20\n      add\n      swap2\n      jump(tag_62)\n    tag_63:\n      dup3\n      add\n      swap2\n      swap1\n      0x00\n      mstore\n      keccak256(0x00, 0x20)\n      swap1\n    tag_64:\n      dup2\n      sload\n      dup2\n      mstore\n      swap1\n      0x01\n      add\n      swap1\n      0x20\n      add\n      dup1\n      dup4\n      gt\n      tag_64\n      jumpi\n      dup3\n      swap1\n      sub\n      0x1f\n      and\n      dup3\n      add\n      swap2\n    tag_62:\n      pop\n      pop\n      pop\n      pop\n      pop\n      dup2\n      mstore\n      0x20\n      add\n      0x05\n      dup3\n      add\n      dup1\n      sload\n      tag_65\n      swap1\n      tag_40\n      jump\t// in\n    tag_65:\n      dup1\n      0x1f\n      add\n      0x20\n      dup1\n      swap2\n      div\n      mul\n      0x20\n      add\n      mload(0x40)\n      swap1\n      dup2\n      add\n      0x40\n      mstore\n      dup1\n      swap3\n      swap2\n      swap1\n      dup2\n      dup2\n      mstore\n      0x20\n      add\n      dup3\n      dup1\n      sload\n      tag_66\n      swap1\n      tag_40\n      jump\t// in\n    tag_66:\n      dup1\n      iszero\n      tag_67\n      jumpi\n      dup1\n      0x1f\n      lt\n      tag_68\n      jumpi\n      0x0100\n      dup1\n      dup4\n      sload\n      div\n      mul\n      dup4\n      mstore\n      swap2\n      0x20\n      add\n      swap2\n      jump(tag_67)\n    tag_68:\n      dup3\n      add\n      swap2\n      swap1\n      0x00\n      mstore\n      keccak256(0x00, 0x20)\n      swap1\n    tag_69:\n      dup2\n      sload\n      dup2\n      mstore\n      swap1\n      0x01\n      add\n      swap1\n      0x20\n      add\n      dup1\n      dup4\n      gt\n      tag_69\n      jumpi\n      dup3\n      swap1\n      sub\n      0x1f\n      and\n      dup3\n      add\n      swap2\n    tag_67:\n      pop\n      pop\n      pop\n      pop\n      pop\n      dup2\n      mstore\n      0x20\n      add\n      0x06\n      dup3\n      add\n      dup1\n      sload\n      tag_70\n      swap1\n      tag_40\n      jump\t// in\n    tag_70:\n      dup1\n      0x1f\n      add\n      0x20\n      dup1\n      swap2\n      div\n      mul\n      0x20\n      add\n      mload(0x40)\n      swap1\n      dup2\n      add\n      0x40\n      mstore\n      dup1\n      swap3\n      swap2\n      swap1\n      dup2\n      dup2\n      mstore\n      0x20\n      add\n      dup3\n      dup1\n      sload\n      tag_71\n      swap1\n      tag_40\n      jump\t// in\n    tag_71:\n      dup1\n      iszero\n      tag_72\n      jumpi\n      dup1\n      0x1f\n      lt\n      tag_73\n      jumpi\n      0x0100\n      dup1\n      dup4\n      sload\n      div\n      mul\n      dup4\n      mstore\n      swap2\n      0x20\n      add\n      swap2\n      jump(tag_72)\n    tag_73:\n      dup3\n      add\n      swap2\n      swap1\n      0x00\n      mstore\n      keccak256(0x00, 0x20)\n      swap1\n    tag_74:\n      dup2\n      sload\n      dup2\n      mstore\n      swap1\n      0x01\n      add\n      swap1\n      0x20\n      add\n      dup1\n      dup4\n      gt\n      tag_74\n      jumpi\n      dup3\n      swap1\n      sub\n      0x1f\n      and\n      dup3\n      add\n      swap2\n    tag_72:\n      pop\n      pop\n      pop\n      pop\n      pop\n      dup2\n      mstore\n      0x20\n      add\n      0x07\n      dup3\n      add\n      dup1\n      sload\n      tag_75\n      swap1\n      tag_40\n      jump\t// in\n    tag_75:\n      dup1\n      0x1f\n      add\n      0x20\n      dup1\n      swap2\n      div\n      mul\n      0x20\n      add\n      mload(0x40)\n      swap1\n      dup2\n      add\n      0x40\n      mstore\n      dup1\n      swap3\n      swap2\n      swap1\n      dup2\n      dup2\n      mstore\n      0x20\n      add\n      dup3\n      dup1\n      sload\n      tag_76\n      swap1\n      tag_40\n      jump\t// in\n    tag_76:\n      dup1\n      iszero\n      tag_77\n      jumpi\n      dup1\n      0x1f\n      lt\n      tag_78\n      jumpi\n      0x0100\n      dup1\n      dup4\n      sload\n      div\n      mul\n      dup4\n      mstore\n      swap2\n      0x20\n      add\n      swap2\n      jump(tag_77)\n    tag_78:\n      dup3\n      add\n      swap2\n      swap1\n      0x00\n      mstore\n      keccak256(0x00, 0x20)\n      swap1\n    tag_79:\n      dup2\n      sload\n      dup2\n      mstore\n      swap1\n      0x01\n      add\n      swap1\n      0x20\n      add\n      dup1\n      dup4\n      gt\n      tag_79\n      jumpi\n      dup3\n      swap1\n      sub\n      0x1f\n      and\n      dup3\n      add\n      swap2\n    tag_77:\n      pop\n      pop\n      pop\n      pop\n      pop\n      dup2\n      mstore\n      0x20\n      add\n      0x08\n      dup3\n      add\n      dup1\n      sload\n      tag_80\n      swap1\n      tag_40\n      jump\t// in\n    tag_80:\n      dup1\n      0x1f\n      add\n      0x20\n      dup1\n      swap2\n      div\n      mul\n      0x20\n      add\n      mload(0x40)\n      swap1\n      dup2\n      add\n      0x40\n      mstore\n      dup1\n      swap3\n      swap2\n      swap1\n      dup2\n      dup2\n      mstore\n      0x20\n      add\n      dup3\n      dup1\n      sload\n      tag_81\n      swap1\n      tag_40\n      jump\t// in\n    tag_81:\n      dup1\n      iszero\n      tag_82\n      jumpi\n      dup1\n      0x1f\n      lt\n      tag_83\n      jumpi\n      0x0100\n      dup1\n      dup4\n      sload\n      div\n      mul\n      dup4\n      mstore\n      swap2\n      0x20\n      add\n      swap2\n      jump(tag_82)\n    tag_83:\n      dup3\n      add\n      swap2\n      swap1\n      0x00\n      mstore\n      keccak256(0x00, 0x20)\n      swap1\n    tag_84:\n      dup2\n      sload\n      dup2\n      mstore\n      swap1\n      0x01\n      add\n      swap1\n      0x20\n      add\n      dup1\n      dup4\n      gt\n      tag_84\n      jumpi\n      dup3\n      swap1\n      sub\n      0x1f\n      and\n      dup3\n      add\n      swap2\n    tag_82:\n      pop\n      pop\n      pop\n      pop\n      pop\n      dup2\n      mstore\n      0x20\n      add\n      0x09\n      dup3\n      add\n      dup1\n      sload\n      tag_85\n      swap1\n      tag_40\n      jump\t// in\n    tag_85:\n      dup1\n      0x1f\n      add\n      0x20\n      dup1\n      swap2\n      div\n      mul\n      0x20\n      add\n      mload(0x40)\n      swap1\n      dup2\n      add\n      0x40\n      mstore\n      dup1\n      swap3\n      swap2\n      swap1\n      dup2\n      dup2\n      mstore\n      0x20\n      add\n      dup3\n      dup1\n      sload\n      tag_86\n      swap1\n      tag_40\n      jump\t// in\n    tag_86:\n      dup1\n      iszero\n      tag_87\n      jumpi\n      dup1\n      0x1f\n      lt\n      tag_88\n      jumpi\n      0x0100\n      dup1\n      dup4\n      sload\n      div\n      mul\n      dup4\n      mstore\n      swap2\n      0x20\n      add\n      swap2\n      jump(tag_87)\n    tag_88:\n      dup3\n      add\n      swap2\n      swap1\n      0x00\n      mstore\n      keccak256(0x00, 0x20)\n      swap1\n    tag_89:\n      dup2\n      sload\n      dup2\n      mstore\n      swap1\n      0x01\n      add\n      swap1\n      0x20\n      add\n      dup1\n      dup4\n      gt\n      tag_89\n      jumpi\n      dup3\n      swap1\n      sub\n      0x1f\n      and\n      dup3\n      add\n      swap2\n    tag_87:\n      pop\n      pop\n      pop\n      pop\n      pop\n      dup2\n      mstore\n      0x20\n      add\n      0x0a\n      dup3\n      add\n      dup1\n      sload\n      tag_90\n      swap1\n      tag_40\n      jump\t// in\n    tag_90:\n      dup1\n      0x1f\n      add\n      0x20\n      dup1\n      swap2\n      div\n      mul\n      0x20\n      add\n      mload(0x40)\n      swap1\n      dup2\n      add\n      0x40\n      mstore\n      dup1\n      swap3\n      swap2\n      swap1\n      dup2\n      dup2\n      mstore\n      0x20\n      add\n      dup3\n      dup1\n      sload\n      tag_91\n      swap1\n      tag_40\n      jump\t// in\n    tag_91:\n      dup1\n      iszero\n      tag_92\n      jumpi\n      dup1\n      0x1f\n      lt\n      tag_93\n      jumpi\n      0x0100\n      dup1\n      dup4\n      sload\n      div\n      mul\n      dup4\n      mstore\n      swap2\n      0x20\n      add\n      swap2\n      jump(tag_92)\n    tag_93:\n      dup3\n      add\n      swap2\n      swap1\n      0x00\n      mstore\n      keccak256(0x00, 0x20)\n      swap1\n    tag_94:\n      dup2\n      sload\n      dup2\n      mstore\n      swap1\n      0x01\n      add\n      swap1\n      0x20\n      add\n      dup1\n      dup4\n      gt\n      tag_94\n      jumpi\n      dup3\n      swap1\n      sub\n      0x1f\n      and\n      dup3\n      add\n      swap2\n    tag_92:\n      pop\n      pop\n      pop\n      pop\n      pop\n      dup2\n      mstore\n      0x20\n      add\n      0x0b\n      dup3\n      add\n      dup1\n      sload\n      tag_95\n      swap1\n      tag_40\n      jump\t// in\n    tag_95:\n      dup1\n      0x1f\n      add\n      0x20\n      dup1\n      swap2\n      div\n      mul\n      0x20\n      add\n      mload(0x40)\n      swap1\n      dup2\n      add\n      0x40\n      mstore\n      dup1\n      swap3\n      swap2\n      swap1\n      dup2\n      dup2\n      mstore\n      0x20\n      add\n      dup3\n      dup1\n      sload\n      tag_96\n      swap1\n      tag_40\n      jump\t// in\n    tag_96:\n      dup1\n      iszero\n      tag_97\n      jumpi\n      dup1\n      0x1f\n      lt\n      tag_98\n      jumpi\n      0x0100\n      dup1\n      dup4\n      sload\n      div\n      mul\n      dup4\n      mstore\n      swap2\n      0x20\n      add\n      swap2\n      jump(tag_97)\n    tag_98:\n      dup3\n      add\n      swap2\n      swap1\n      0x00\n      mstore\n      keccak256(0x00, 0x20)\n      swap1\n    tag_99:\n      dup2\n      sload\n      dup2\n      mstore\n      swap1\n      0x01\n      add\n      swap1\n      0x20\n      add\n      dup1\n      dup4\n      gt\n      tag_99\n      jumpi\n      dup3\n      swap1\n      sub\n      0x1f\n      and\n      dup3\n      add\n      swap2\n    tag_97:\n      pop\n      pop\n      pop\n      pop\n      pop\n      dup2\n      mstore\n      pop\n      pop\n      dup2\n      mstore\n      0x20\n      add\n      swap1\n      0x01\n      add\n      swap1\n      jump(tag_36)\n    tag_37:\n      pop\n      pop\n      pop\n      pop\n      swap1\n      pop\n        /* \"Storage.sol\":1344:1441  function getDiplomes() external view returns(Diplome[] memory) {... */\n      swap1\n      jump\t// out\n        /* \"Storage.sol\":624:1336  function createDiplome(string[] memory _dip) public {... */\n    tag_16:\n        /* \"Storage.sol\":710:712  12 */\n      0x0c\n        /* \"Storage.sol\":695:699  _dip */\n      dup2\n        /* \"Storage.sol\":695:706  _dip.length */\n      mload\n        /* \"Storage.sol\":695:712  _dip.length == 12 */\n      eq\n        /* \"Storage.sol\":687:782  require(_dip.length == 12, \"Error some parameters missing. Should be at least 11 parameter 12\") */\n      tag_101\n      jumpi\n      mload(0x40)\n      0x08c379a000000000000000000000000000000000000000000000000000000000\n      dup2\n      mstore\n      0x04\n      add\n      tag_102\n      swap1\n      tag_103\n      jump\t// in\n    tag_102:\n      mload(0x40)\n      dup1\n      swap2\n      sub\n      swap1\n      revert\n    tag_101:\n        /* \"Storage.sol\":803:828  Diplome memory newDiplome */\n      0x00\n        /* \"Storage.sol\":831:1243  Diplome({... */\n      mload(0x40)\n      dup1\n      0x0180\n      add\n      0x40\n      mstore\n      dup1\n        /* \"Storage.sol\":859:863  _dip */\n      dup4\n        /* \"Storage.sol\":864:865  0 */\n      0x00\n        /* \"Storage.sol\":859:866  _dip[0] */\n      dup2\n      mload\n      dup2\n      lt\n      tag_104\n      jumpi\n      tag_105\n      tag_106\n      jump\t// in\n    tag_105:\n    tag_104:\n      0x20\n      mul\n      0x20\n      add\n      add\n      mload\n        /* \"Storage.sol\":831:1243  Diplome({... */\n      dup2\n      mstore\n      0x20\n      add\n        /* \"Storage.sol\":886:890  _dip */\n      dup4\n        /* \"Storage.sol\":891:892  1 */\n      0x01\n        /* \"Storage.sol\":886:893  _dip[1] */\n      dup2\n      mload\n      dup2\n      lt\n      tag_107\n      jumpi\n      tag_108\n      tag_106\n      jump\t// in\n    tag_108:\n    tag_107:\n      0x20\n      mul\n      0x20\n      add\n      add\n      mload\n        /* \"Storage.sol\":831:1243  Diplome({... */\n      dup2\n      mstore\n      0x20\n      add\n        /* \"Storage.sol\":919:923  _dip */\n      dup4\n        /* \"Storage.sol\":924:925  2 */\n      0x02\n        /* \"Storage.sol\":919:926  _dip[2] */\n      dup2\n      mload\n      dup2\n      lt\n      tag_109\n      jumpi\n      tag_110\n      tag_106\n      jump\t// in\n    tag_110:\n    tag_109:\n      0x20\n      mul\n      0x20\n      add\n      add\n      mload\n        /* \"Storage.sol\":831:1243  Diplome({... */\n      dup2\n      mstore\n      0x20\n      add\n        /* \"Storage.sol\":951:955  _dip */\n      dup4\n        /* \"Storage.sol\":956:957  3 */\n      0x03\n        /* \"Storage.sol\":951:958  _dip[3] */\n      dup2\n      mload\n      dup2\n      lt\n      tag_111\n      jumpi\n      tag_112\n      tag_106\n      jump\t// in\n    tag_112:\n    tag_111:\n      0x20\n      mul\n      0x20\n      add\n      add\n      mload\n        /* \"Storage.sol\":831:1243  Diplome({... */\n      dup2\n      mstore\n      0x20\n      add\n        /* \"Storage.sol\":984:988  _dip */\n      dup4\n        /* \"Storage.sol\":989:990  4 */\n      0x04\n        /* \"Storage.sol\":984:991  _dip[4] */\n      dup2\n      mload\n      dup2\n      lt\n      tag_113\n      jumpi\n      tag_114\n      tag_106\n      jump\t// in\n    tag_114:\n    tag_113:\n      0x20\n      mul\n      0x20\n      add\n      add\n      mload\n        /* \"Storage.sol\":831:1243  Diplome({... */\n      dup2\n      mstore\n      0x20\n      add\n        /* \"Storage.sol\":1018:1022  _dip */\n      dup4\n        /* \"Storage.sol\":1023:1024  5 */\n      0x05\n        /* \"Storage.sol\":1018:1025  _dip[5] */\n      dup2\n      mload\n      dup2\n      lt\n      tag_115\n      jumpi\n      tag_116\n      tag_106\n      jump\t// in\n    tag_116:\n    tag_115:\n      0x20\n      mul\n      0x20\n      add\n      add\n      mload\n        /* \"Storage.sol\":831:1243  Diplome({... */\n      dup2\n      mstore\n      0x20\n      add\n        /* \"Storage.sol\":1058:1062  _dip */\n      dup4\n        /* \"Storage.sol\":1063:1064  6 */\n      0x06\n        /* \"Storage.sol\":1058:1065  _dip[6] */\n      dup2\n      mload\n      dup2\n      lt\n      tag_117\n      jumpi\n      tag_118\n      tag_106\n      jump\t// in\n    tag_118:\n    tag_117:\n      0x20\n      mul\n      0x20\n      add\n      add\n      mload\n        /* \"Storage.sol\":831:1243  Diplome({... */\n      dup2\n      mstore\n      0x20\n      add\n        /* \"Storage.sol\":1094:1098  _dip */\n      dup4\n        /* \"Storage.sol\":1099:1100  7 */\n      0x07\n        /* \"Storage.sol\":1094:1101  _dip[7] */\n      dup2\n      mload\n      dup2\n      lt\n      tag_119\n      jumpi\n      tag_120\n      tag_106\n      jump\t// in\n    tag_120:\n    tag_119:\n      0x20\n      mul\n      0x20\n      add\n      add\n      mload\n        /* \"Storage.sol\":831:1243  Diplome({... */\n      dup2\n      mstore\n      0x20\n      add\n        /* \"Storage.sol\":1129:1133  _dip */\n      dup4\n        /* \"Storage.sol\":1134:1135  8 */\n      0x08\n        /* \"Storage.sol\":1129:1136  _dip[8] */\n      dup2\n      mload\n      dup2\n      lt\n      tag_121\n      jumpi\n      tag_122\n      tag_106\n      jump\t// in\n    tag_122:\n    tag_121:\n      0x20\n      mul\n      0x20\n      add\n      add\n      mload\n        /* \"Storage.sol\":831:1243  Diplome({... */\n      dup2\n      mstore\n      0x20\n      add\n        /* \"Storage.sol\":1166:1170  _dip */\n      dup4\n        /* \"Storage.sol\":1171:1172  9 */\n      0x09\n        /* \"Storage.sol\":1166:1173  _dip[9] */\n      dup2\n      mload\n      dup2\n      lt\n      tag_123\n      jumpi\n      tag_124\n      tag_106\n      jump\t// in\n    tag_124:\n    tag_123:\n      0x20\n      mul\n      0x20\n      add\n      add\n      mload\n        /* \"Storage.sol\":831:1243  Diplome({... */\n      dup2\n      mstore\n      0x20\n      add\n        /* \"Storage.sol\":1194:1198  _dip */\n      dup4\n        /* \"Storage.sol\":1199:1201  10 */\n      0x0a\n        /* \"Storage.sol\":1194:1202  _dip[10] */\n      dup2\n      mload\n      dup2\n      lt\n      tag_125\n      jumpi\n      tag_126\n      tag_106\n      jump\t// in\n    tag_126:\n    tag_125:\n      0x20\n      mul\n      0x20\n      add\n      add\n      mload\n        /* \"Storage.sol\":831:1243  Diplome({... */\n      dup2\n      mstore\n      0x20\n      add\n        /* \"Storage.sol\":1223:1227  _dip */\n      dup4\n        /* \"Storage.sol\":1228:1230  11 */\n      0x0b\n        /* \"Storage.sol\":1223:1231  _dip[11] */\n      dup2\n      mload\n      dup2\n      lt\n      tag_127\n      jumpi\n      tag_128\n      tag_106\n      jump\t// in\n    tag_128:\n    tag_127:\n      0x20\n      mul\n      0x20\n      add\n      add\n      mload\n        /* \"Storage.sol\":831:1243  Diplome({... */\n      dup2\n      mstore\n      pop\n        /* \"Storage.sol\":803:1243  Diplome memory newDiplome = Diplome({... */\n      swap1\n      pop\n        /* \"Storage.sol\":1264:1272  diplomes */\n      0x00\n        /* \"Storage.sol\":1278:1288  newDiplome */\n      dup2\n        /* \"Storage.sol\":1264:1289  diplomes.push(newDiplome) */\n      swap1\n      dup1\n      0x01\n      dup2\n      sload\n      add\n      dup1\n      dup3\n      sstore\n      dup1\n      swap2\n      pop\n      pop\n      0x01\n      swap1\n      sub\n      swap1\n      0x00\n      mstore\n      keccak256(0x00, 0x20)\n      swap1\n      0x0c\n      mul\n      add\n      0x00\n      swap1\n      swap2\n      swap1\n      swap2\n      swap1\n      swap2\n      pop\n      0x00\n      dup3\n      add\n      mload\n      dup2\n      0x00\n      add\n      swap1\n      dup2\n      tag_130\n      swap2\n      swap1\n      tag_131\n      jump\t// in\n    tag_130:\n      pop\n      0x20\n      dup3\n      add\n      mload\n      dup2\n      0x01\n      add\n      swap1\n      dup2\n      tag_132\n      swap2\n      swap1\n      tag_131\n      jump\t// in\n    tag_132:\n      pop\n      0x40\n      dup3\n      add\n      mload\n      dup2\n      0x02\n      add\n      swap1\n      dup2\n      tag_133\n      swap2\n      swap1\n      tag_131\n      jump\t// in\n    tag_133:\n      pop\n      0x60\n      dup3\n      add\n      mload\n      dup2\n      0x03\n      add\n      swap1\n      dup2\n      tag_134\n      swap2\n      swap1\n      tag_131\n      jump\t// in\n    tag_134:\n      pop\n      0x80\n      dup3\n      add\n      mload\n      dup2\n      0x04\n      add\n      swap1\n      dup2\n      tag_135\n      swap2\n      swap1\n      tag_131\n      jump\t// in\n    tag_135:\n      pop\n      0xa0\n      dup3\n      add\n      mload\n      dup2\n      0x05\n      add\n      swap1\n      dup2\n      tag_136\n      swap2\n      swap1\n      tag_131\n      jump\t// in\n    tag_136:\n      pop\n      0xc0\n      dup3\n      add\n      mload\n      dup2\n      0x06\n      add\n      swap1\n      dup2\n      tag_137\n      swap2\n      swap1\n      tag_131\n      jump\t// in\n    tag_137:\n      pop\n      0xe0\n      dup3\n      add\n      mload\n      dup2\n      0x07\n      add\n      swap1\n      dup2\n      tag_138\n      swap2\n      swap1\n      tag_131\n      jump\t// in\n    tag_138:\n      pop\n      0x0100\n      dup3\n      add\n      mload\n      dup2\n      0x08\n      add\n      swap1\n      dup2\n      tag_139\n      swap2\n      swap1\n      tag_131\n      jump\t// in\n    tag_139:\n      pop\n      0x0120\n      dup3\n      add\n      mload\n      dup2\n      0x09\n      add\n      swap1\n      dup2\n      tag_140\n      swap2\n      swap1\n      tag_131\n      jump\t// in\n    tag_140:\n      pop\n      0x0140\n      dup3\n      add\n      mload\n      dup2\n      0x0a\n      add\n      swap1\n      dup2\n      tag_141\n      swap2\n      swap1\n      tag_131\n      jump\t// in\n    tag_141:\n      pop\n      0x0160\n      dup3\n      add\n      mload\n      dup2\n      0x0b\n      add\n      swap1\n      dup2\n      tag_142\n      swap2\n      swap1\n      tag_131\n      jump\t// in\n    tag_142:\n      pop\n      pop\n      pop\n        /* \"Storage.sol\":1305:1328  DiplomeCreated(_dip[0]) */\n      0x33eb06dbc0fad99fa48b1fd5df05652d9c7f7efd717ce00bc61ae96694119b52\n        /* \"Storage.sol\":1320:1324  _dip */\n      dup3\n        /* \"Storage.sol\":1325:1326  0 */\n      0x00\n        /* \"Storage.sol\":1320:1327  _dip[0] */\n      dup2\n      mload\n      dup2\n      lt\n      tag_143\n      jumpi\n      tag_144\n      tag_106\n      jump\t// in\n    tag_144:\n    tag_143:\n      0x20\n      mul\n      0x20\n      add\n      add\n      mload\n        /* \"Storage.sol\":1305:1328  DiplomeCreated(_dip[0]) */\n      mload(0x40)\n      tag_145\n      swap2\n      swap1\n      tag_146\n      jump\t// in\n    tag_145:\n      mload(0x40)\n      dup1\n      swap2\n      sub\n      swap1\n      log1\n        /* \"Storage.sol\":676:1336  {... */\n      pop\n        /* \"Storage.sol\":624:1336  function createDiplome(string[] memory _dip) public {... */\n      pop\n      jump\t// out\n        /* \"Storage.sol\":2480:2551  function deleteLastDiplome() external {... */\n    tag_18:\n        /* \"Storage.sol\":2529:2537  diplomes */\n      0x00\n        /* \"Storage.sol\":2529:2543  diplomes.pop() */\n      dup1\n      sload\n      dup1\n      tag_148\n      jumpi\n      tag_149\n      tag_150\n      jump\t// in\n    tag_149:\n    tag_148:\n      0x01\n      swap1\n      sub\n      dup2\n      dup2\n      swap1\n      0x00\n      mstore\n      keccak256(0x00, 0x20)\n      swap1\n      0x0c\n      mul\n      add\n      0x00\n      dup1\n      dup3\n      add\n      0x00\n      tag_152\n      swap2\n      swap1\n      tag_153\n      jump\t// in\n    tag_152:\n      0x01\n      dup3\n      add\n      0x00\n      tag_154\n      swap2\n      swap1\n      tag_153\n      jump\t// in\n    tag_154:\n      0x02\n      dup3\n      add\n      0x00\n      tag_155\n      swap2\n      swap1\n      tag_153\n      jump\t// in\n    tag_155:\n      0x03\n      dup3\n      add\n      0x00\n      tag_156\n      swap2\n      swap1\n      tag_153\n      jump\t// in\n    tag_156:\n      0x04\n      dup3\n      add\n      0x00\n      tag_157\n      swap2\n      swap1\n      tag_153\n      jump\t// in\n    tag_157:\n      0x05\n      dup3\n      add\n      0x00\n      tag_158\n      swap2\n      swap1\n      tag_153\n      jump\t// in\n    tag_158:\n      0x06\n      dup3\n      add\n      0x00\n      tag_159\n      swap2\n      swap1\n      tag_153\n      jump\t// in\n    tag_159:\n      0x07\n      dup3\n      add\n      0x00\n      tag_160\n      swap2\n      swap1\n      tag_153\n      jump\t// in\n    tag_160:\n      0x08\n      dup3\n      add\n      0x00\n      tag_161\n      swap2\n      swap1\n      tag_153\n      jump\t// in\n    tag_161:\n      0x09\n      dup3\n      add\n      0x00\n      tag_162\n      swap2\n      swap1\n      tag_153\n      jump\t// in\n    tag_162:\n      0x0a\n      dup3\n      add\n      0x00\n      tag_163\n      swap2\n      swap1\n      tag_153\n      jump\t// in\n    tag_163:\n      0x0b\n      dup3\n      add\n      0x00\n      tag_164\n      swap2\n      swap1\n      tag_153\n      jump\t// in\n    tag_164:\n      pop\n      pop\n      swap1\n      sstore\n        /* \"Storage.sol\":2480:2551  function deleteLastDiplome() external {... */\n      jump\t// out\n        /* \"Storage.sol\":2559:2839  function getDiplome(string memory _CNE ) public view returns (Diplome memory) {... */\n    tag_22:\n        /* \"Storage.sol\":2621:2635  Diplome memory */\n      tag_165\n      tag_166\n      jump\t// in\n    tag_165:\n        /* \"Storage.sol\":2652:2658  uint i */\n      0x00\n        /* \"Storage.sol\":2648:2832  for(uint i = 0; i < diplomes.length; i++){... */\n    tag_168:\n        /* \"Storage.sol\":2668:2676  diplomes */\n      0x00\n        /* \"Storage.sol\":2668:2683  diplomes.length */\n      dup1\n      sload\n      swap1\n      pop\n        /* \"Storage.sol\":2664:2665  i */\n      dup2\n        /* \"Storage.sol\":2664:2683  i < diplomes.length */\n      lt\n        /* \"Storage.sol\":2648:2832  for(uint i = 0; i < diplomes.length; i++){... */\n      iszero\n      tag_169\n      jumpi\n        /* \"Storage.sol\":2761:2765  _CNE */\n      dup3\n        /* \"Storage.sol\":2745:2767  keccak256(bytes(_CNE)) */\n      dup1\n      mload\n      swap1\n      0x20\n      add\n      keccak256\n        /* \"Storage.sol\":2724:2732  diplomes */\n      0x00\n        /* \"Storage.sol\":2733:2734  i */\n      dup3\n        /* \"Storage.sol\":2724:2735  diplomes[i] */\n      dup2\n      sload\n      dup2\n      lt\n      tag_171\n      jumpi\n      tag_172\n      tag_106\n      jump\t// in\n    tag_172:\n    tag_171:\n      swap1\n      0x00\n      mstore\n      keccak256(0x00, 0x20)\n      swap1\n      0x0c\n      mul\n      add\n        /* \"Storage.sol\":2724:2739  diplomes[i].CNE */\n      0x00\n      add\n        /* \"Storage.sol\":2708:2741  keccak256(bytes(diplomes[i].CNE)) */\n      mload(0x40)\n      tag_174\n      swap2\n      swap1\n      tag_175\n      jump\t// in\n    tag_174:\n      mload(0x40)\n      dup1\n      swap2\n      sub\n      swap1\n      keccak256\n        /* \"Storage.sol\":2708:2767  keccak256(bytes(diplomes[i].CNE)) == keccak256(bytes(_CNE)) */\n      sub\n        /* \"Storage.sol\":2704:2821  if (keccak256(bytes(diplomes[i].CNE)) == keccak256(bytes(_CNE))){... */\n      tag_176\n      jumpi\n        /* \"Storage.sol\":2794:2802  diplomes */\n      0x00\n        /* \"Storage.sol\":2803:2804  i */\n      dup2\n        /* \"Storage.sol\":2794:2805  diplomes[i] */\n      dup2\n      sload\n      dup2\n      lt\n      tag_177\n      jumpi\n      tag_178\n      tag_106\n      jump\t// in\n    tag_178:\n    tag_177:\n      swap1\n      0x00\n      mstore\n      keccak256(0x00, 0x20)\n      swap1\n      0x0c\n      mul\n      add\n        /* \"Storage.sol\":2787:2805  return diplomes[i] */\n      mload(0x40)\n      dup1\n      0x0180\n      add\n      0x40\n      mstore\n      swap1\n      dup2\n      0x00\n      dup3\n      add\n      dup1\n      sload\n      tag_180\n      swap1\n      tag_40\n      jump\t// in\n    tag_180:\n      dup1\n      0x1f\n      add\n      0x20\n      dup1\n      swap2\n      div\n      mul\n      0x20\n      add\n      mload(0x40)\n      swap1\n      dup2\n      add\n      0x40\n      mstore\n      dup1\n      swap3\n      swap2\n      swap1\n      dup2\n      dup2\n      mstore\n      0x20\n      add\n      dup3\n      dup1\n      sload\n      tag_181\n      swap1\n      tag_40\n      jump\t// in\n    tag_181:\n      dup1\n      iszero\n      tag_182\n      jumpi\n      dup1\n      0x1f\n      lt\n      tag_183\n      jumpi\n      0x0100\n      dup1\n      dup4\n      sload\n      div\n      mul\n      dup4\n      mstore\n      swap2\n      0x20\n      add\n      swap2\n      jump(tag_182)\n    tag_183:\n      dup3\n      add\n      swap2\n      swap1\n      0x00\n      mstore\n      keccak256(0x00, 0x20)\n      swap1\n    tag_184:\n      dup2\n      sload\n      dup2\n      mstore\n      swap1\n      0x01\n      add\n      swap1\n      0x20\n      add\n      dup1\n      dup4\n      gt\n      tag_184\n      jumpi\n      dup3\n      swap1\n      sub\n      0x1f\n      and\n      dup3\n      add\n      swap2\n    tag_182:\n      pop\n      pop\n      pop\n      pop\n      pop\n      dup2\n      mstore\n      0x20\n      add\n      0x01\n      dup3\n      add\n      dup1\n      sload\n      tag_185\n      swap1\n      tag_40\n      jump\t// in\n    tag_185:\n      dup1\n      0x1f\n      add\n      0x20\n      dup1\n      swap2\n      div\n      mul\n      0x20\n      add\n      mload(0x40)\n      swap1\n      dup2\n      add\n      0x40\n      mstore\n      dup1\n      swap3\n      swap2\n      swap1\n      dup2\n      dup2\n      mstore\n      0x20\n      add\n      dup3\n      dup1\n      sload\n      tag_186\n      swap1\n      tag_40\n      jump\t// in\n    tag_186:\n      dup1\n      iszero\n      tag_187\n      jumpi\n      dup1\n      0x1f\n      lt\n      tag_188\n      jumpi\n      0x0100\n      dup1\n      dup4\n      sload\n      div\n      mul\n      dup4\n      mstore\n      swap2\n      0x20\n      add\n      swap2\n      jump(tag_187)\n    tag_188:\n      dup3\n      add\n      swap2\n      swap1\n      0x00\n      mstore\n      keccak256(0x00, 0x20)\n      swap1\n    tag_189:\n      dup2\n      sload\n      dup2\n      mstore\n      swap1\n      0x01\n      add\n      swap1\n      0x20\n      add\n      dup1\n      dup4\n      gt\n      tag_189\n      jumpi\n      dup3\n      swap1\n      sub\n      0x1f\n      and\n      dup3\n      add\n      swap2\n    tag_187:\n      pop\n      pop\n      pop\n      pop\n      pop\n      dup2\n      mstore\n      0x20\n      add\n      0x02\n      dup3\n      add\n      dup1\n      sload\n      tag_190\n      swap1\n      tag_40\n      jump\t// in\n    tag_190:\n      dup1\n      0x1f\n      add\n      0x20\n      dup1\n      swap2\n      div\n      mul\n      0x20\n      add\n      mload(0x40)\n      swap1\n      dup2\n      add\n      0x40\n      mstore\n      dup1\n      swap3\n      swap2\n      swap1\n      dup2\n      dup2\n      mstore\n      0x20\n      add\n      dup3\n      dup1\n      sload\n      tag_191\n      swap1\n      tag_40\n      jump\t// in\n    tag_191:\n      dup1\n      iszero\n      tag_192\n      jumpi\n      dup1\n      0x1f\n      lt\n      tag_193\n      jumpi\n      0x0100\n      dup1\n      dup4\n      sload\n      div\n      mul\n      dup4\n      mstore\n      swap2\n      0x20\n      add\n      swap2\n      jump(tag_192)\n    tag_193:\n      dup3\n      add\n      swap2\n      swap1\n      0x00\n      mstore\n      keccak256(0x00, 0x20)\n      swap1\n    tag_194:\n      dup2\n      sload\n      dup2\n      mstore\n      swap1\n      0x01\n      add\n      swap1\n      0x20\n      add\n      dup1\n      dup4\n      gt\n      tag_194\n      jumpi\n      dup3\n      swap1\n      sub\n      0x1f\n      and\n      dup3\n      add\n      swap2\n    tag_192:\n      pop\n      pop\n      pop\n      pop\n      pop\n      dup2\n      mstore\n      0x20\n      add\n      0x03\n      dup3\n      add\n      dup1\n      sload\n      tag_195\n      swap1\n      tag_40\n      jump\t// in\n    tag_195:\n      dup1\n      0x1f\n      add\n      0x20\n      dup1\n      swap2\n      div\n      mul\n      0x20\n      add\n      mload(0x40)\n      swap1\n      dup2\n      add\n      0x40\n      mstore\n      dup1\n      swap3\n      swap2\n      swap1\n      dup2\n      dup2\n      mstore\n      0x20\n      add\n      dup3\n      dup1\n      sload\n      tag_196\n      swap1\n      tag_40\n      jump\t// in\n    tag_196:\n      dup1\n      iszero\n      tag_197\n      jumpi\n      dup1\n      0x1f\n      lt\n      tag_198\n      jumpi\n      0x0100\n      dup1\n      dup4\n      sload\n      div\n      mul\n      dup4\n      mstore\n      swap2\n      0x20\n      add\n      swap2\n      jump(tag_197)\n    tag_198:\n      dup3\n      add\n      swap2\n      swap1\n      0x00\n      mstore\n      keccak256(0x00, 0x20)\n      swap1\n    tag_199:\n      dup2\n      sload\n      dup2\n      mstore\n      swap1\n      0x01\n      add\n      swap1\n      0x20\n      add\n      dup1\n      dup4\n      gt\n      tag_199\n      jumpi\n      dup3\n      swap1\n      sub\n      0x1f\n      and\n      dup3\n      add\n      swap2\n    tag_197:\n      pop\n      pop\n      pop\n      pop\n      pop\n      dup2\n      mstore\n      0x20\n      add\n      0x04\n      dup3\n      add\n      dup1\n      sload\n      tag_200\n      swap1\n      tag_40\n      jump\t// in\n    tag_200:\n      dup1\n      0x1f\n      add\n      0x20\n      dup1\n      swap2\n      div\n      mul\n      0x20\n      add\n      mload(0x40)\n      swap1\n      dup2\n      add\n      0x40\n      mstore\n      dup1\n      swap3\n      swap2\n      swap1\n      dup2\n      dup2\n      mstore\n      0x20\n      add\n      dup3\n      dup1\n      sload\n      tag_201\n      swap1\n      tag_40\n      jump\t// in\n    tag_201:\n      dup1\n      iszero\n      tag_202\n      jumpi\n      dup1\n      0x1f\n      lt\n      tag_203\n      jumpi\n      0x0100\n      dup1\n      dup4\n      sload\n      div\n      mul\n      dup4\n      mstore\n      swap2\n      0x20\n      add\n      swap2\n      jump(tag_202)\n    tag_203:\n      dup3\n      add\n      swap2\n      swap1\n      0x00\n      mstore\n      keccak256(0x00, 0x20)\n      swap1\n    tag_204:\n      dup2\n      sload\n      dup2\n      mstore\n      swap1\n      0x01\n      add\n      swap1\n      0x20\n      add\n      dup1\n      dup4\n      gt\n      tag_204\n      jumpi\n      dup3\n      swap1\n      sub\n      0x1f\n      and\n      dup3\n      add\n      swap2\n    tag_202:\n      pop\n      pop\n      pop\n      pop\n      pop\n      dup2\n      mstore\n      0x20\n      add\n      0x05\n      dup3\n      add\n      dup1\n      sload\n      tag_205\n      swap1\n      tag_40\n      jump\t// in\n    tag_205:\n      dup1\n      0x1f\n      add\n      0x20\n      dup1\n      swap2\n      div\n      mul\n      0x20\n      add\n      mload(0x40)\n      swap1\n      dup2\n      add\n      0x40\n      mstore\n      dup1\n      swap3\n      swap2\n      swap1\n      dup2\n      dup2\n      mstore\n      0x20\n      add\n      dup3\n      dup1\n      sload\n      tag_206\n      swap1\n      tag_40\n      jump\t// in\n    tag_206:\n      dup1\n      iszero\n      tag_207\n      jumpi\n      dup1\n      0x1f\n      lt\n      tag_208\n      jumpi\n      0x0100\n      dup1\n      dup4\n      sload\n      div\n      mul\n      dup4\n      mstore\n      swap2\n      0x20\n      add\n      swap2\n      jump(tag_207)\n    tag_208:\n      dup3\n      add\n      swap2\n      swap1\n      0x00\n      mstore\n      keccak256(0x00, 0x20)\n      swap1\n    tag_209:\n      dup2\n      sload\n      dup2\n      mstore\n      swap1\n      0x01\n      add\n      swap1\n      0x20\n      add\n      dup1\n      dup4\n      gt\n      tag_209\n      jumpi\n      dup3\n      swap1\n      sub\n      0x1f\n      and\n      dup3\n      add\n      swap2\n    tag_207:\n      pop\n      pop\n      pop\n      pop\n      pop\n      dup2\n      mstore\n      0x20\n      add\n      0x06\n      dup3\n      add\n      dup1\n      sload\n      tag_210\n      swap1\n      tag_40\n      jump\t// in\n    tag_210:\n      dup1\n      0x1f\n      add\n      0x20\n      dup1\n      swap2\n      div\n      mul\n      0x20\n      add\n      mload(0x40)\n      swap1\n      dup2\n      add\n      0x40\n      mstore\n      dup1\n      swap3\n      swap2\n      swap1\n      dup2\n      dup2\n      mstore\n      0x20\n      add\n      dup3\n      dup1\n      sload\n      tag_211\n      swap1\n      tag_40\n      jump\t// in\n    tag_211:\n      dup1\n      iszero\n      tag_212\n      jumpi\n      dup1\n      0x1f\n      lt\n      tag_213\n      jumpi\n      0x0100\n      dup1\n      dup4\n      sload\n      div\n      mul\n      dup4\n      mstore\n      swap2\n      0x20\n      add\n      swap2\n      jump(tag_212)\n    tag_213:\n      dup3\n      add\n      swap2\n      swap1\n      0x00\n      mstore\n      keccak256(0x00, 0x20)\n      swap1\n    tag_214:\n      dup2\n      sload\n      dup2\n      mstore\n      swap1\n      0x01\n      add\n      swap1\n      0x20\n      add\n      dup1\n      dup4\n      gt\n      tag_214\n      jumpi\n      dup3\n      swap1\n      sub\n      0x1f\n      and\n      dup3\n      add\n      swap2\n    tag_212:\n      pop\n      pop\n      pop\n      pop\n      pop\n      dup2\n      mstore\n      0x20\n      add\n      0x07\n      dup3\n      add\n      dup1\n      sload\n      tag_215\n      swap1\n      tag_40\n      jump\t// in\n    tag_215:\n      dup1\n      0x1f\n      add\n      0x20\n      dup1\n      swap2\n      div\n      mul\n      0x20\n      add\n      mload(0x40)\n      swap1\n      dup2\n      add\n      0x40\n      mstore\n      dup1\n      swap3\n      swap2\n      swap1\n      dup2\n      dup2\n      mstore\n      0x20\n      add\n      dup3\n      dup1\n      sload\n      tag_216\n      swap1\n      tag_40\n      jump\t// in\n    tag_216:\n      dup1\n      iszero\n      tag_217\n      jumpi\n      dup1\n      0x1f\n      lt\n      tag_218\n      jumpi\n      0x0100\n      dup1\n      dup4\n      sload\n      div\n      mul\n      dup4\n      mstore\n      swap2\n      0x20\n      add\n      swap2\n      jump(tag_217)\n    tag_218:\n      dup3\n      add\n      swap2\n      swap1\n      0x00\n      mstore\n      keccak256(0x00, 0x20)\n      swap1\n    tag_219:\n      dup2\n      sload\n      dup2\n      mstore\n      swap1\n      0x01\n      add\n      swap1\n      0x20\n      add\n      dup1\n      dup4\n      gt\n      tag_219\n      jumpi\n      dup3\n      swap1\n      sub\n      0x1f\n      and\n      dup3\n      add\n      swap2\n    tag_217:\n      pop\n      pop\n      pop\n      pop\n      pop\n      dup2\n      mstore\n      0x20\n      add\n      0x08\n      dup3\n      add\n      dup1\n      sload\n      tag_220\n      swap1\n      tag_40\n      jump\t// in\n    tag_220:\n      dup1\n      0x1f\n      add\n      0x20\n      dup1\n      swap2\n      div\n      mul\n      0x20\n      add\n      mload(0x40)\n      swap1\n      dup2\n      add\n      0x40\n      mstore\n      dup1\n      swap3\n      swap2\n      swap1\n      dup2\n      dup2\n      mstore\n      0x20\n      add\n      dup3\n      dup1\n      sload\n      tag_221\n      swap1\n      tag_40\n      jump\t// in\n    tag_221:\n      dup1\n      iszero\n      tag_222\n      jumpi\n      dup1\n      0x1f\n      lt\n      tag_223\n      jumpi\n      0x0100\n      dup1\n      dup4\n      sload\n      div\n      mul\n      dup4\n      mstore\n      swap2\n      0x20\n      add\n      swap2\n      jump(tag_222)\n    tag_223:\n      dup3\n      add\n      swap2\n      swap1\n      0x00\n      mstore\n      keccak256(0x00, 0x20)\n      swap1\n    tag_224:\n      dup2\n      sload\n      dup2\n      mstore\n      swap1\n      0x01\n      add\n      swap1\n      0x20\n      add\n      dup1\n      dup4\n      gt\n      tag_224\n      jumpi\n      dup3\n      swap1\n      sub\n      0x1f\n      and\n      dup3\n      add\n      swap2\n    tag_222:\n      pop\n      pop\n      pop\n      pop\n      pop\n      dup2\n      mstore\n      0x20\n      add\n      0x09\n      dup3\n      add\n      dup1\n      sload\n      tag_225\n      swap1\n      tag_40\n      jump\t// in\n    tag_225:\n      dup1\n      0x1f\n      add\n      0x20\n      dup1\n      swap2\n      div\n      mul\n      0x20\n      add\n      mload(0x40)\n      swap1\n      dup2\n      add\n      0x40\n      mstore\n      dup1\n      swap3\n      swap2\n      swap1\n      dup2\n      dup2\n      mstore\n      0x20\n      add\n      dup3\n      dup1\n      sload\n      tag_226\n      swap1\n      tag_40\n      jump\t// in\n    tag_226:\n      dup1\n      iszero\n      tag_227\n      jumpi\n      dup1\n      0x1f\n      lt\n      tag_228\n      jumpi\n      0x0100\n      dup1\n      dup4\n      sload\n      div\n      mul\n      dup4\n      mstore\n      swap2\n      0x20\n      add\n      swap2\n      jump(tag_227)\n    tag_228:\n      dup3\n      add\n      swap2\n      swap1\n      0x00\n      mstore\n      keccak256(0x00, 0x20)\n      swap1\n    tag_229:\n      dup2\n      sload\n      dup2\n      mstore\n      swap1\n      0x01\n      add\n      swap1\n      0x20\n      add\n      dup1\n      dup4\n      gt\n      tag_229\n      jumpi\n      dup3\n      swap1\n      sub\n      0x1f\n      and\n      dup3\n      add\n      swap2\n    tag_227:\n      pop\n      pop\n      pop\n      pop\n      pop\n      dup2\n      mstore\n      0x20\n      add\n      0x0a\n      dup3\n      add\n      dup1\n      sload\n      tag_230\n      swap1\n      tag_40\n      jump\t// in\n    tag_230:\n      dup1\n      0x1f\n      add\n      0x20\n      dup1\n      swap2\n      div\n      mul\n      0x20\n      add\n      mload(0x40)\n      swap1\n      dup2\n      add\n      0x40\n      mstore\n      dup1\n      swap3\n      swap2\n      swap1\n      dup2\n      dup2\n      mstore\n      0x20\n      add\n      dup3\n      dup1\n      sload\n      tag_231\n      swap1\n      tag_40\n      jump\t// in\n    tag_231:\n      dup1\n      iszero\n      tag_232\n      jumpi\n      dup1\n      0x1f\n      lt\n      tag_233\n      jumpi\n      0x0100\n      dup1\n      dup4\n      sload\n      div\n      mul\n      dup4\n      mstore\n      swap2\n      0x20\n      add\n      swap2\n      jump(tag_232)\n    tag_233:\n      dup3\n      add\n      swap2\n      swap1\n      0x00\n      mstore\n      keccak256(0x00, 0x20)\n      swap1\n    tag_234:\n      dup2\n      sload\n      dup2\n      mstore\n      swap1\n      0x01\n      add\n      swap1\n      0x20\n      add\n      dup1\n      dup4\n      gt\n      tag_234\n      jumpi\n      dup3\n      swap1\n      sub\n      0x1f\n      and\n      dup3\n      add\n      swap2\n    tag_232:\n      pop\n      pop\n      pop\n      pop\n      pop\n      dup2\n      mstore\n      0x20\n      add\n      0x0b\n      dup3\n      add\n      dup1\n      sload\n      tag_235\n      swap1\n      tag_40\n      jump\t// in\n    tag_235:\n      dup1\n      0x1f\n      add\n      0x20\n      dup1\n      swap2\n      div\n      mul\n      0x20\n      add\n      mload(0x40)\n      swap1\n      dup2\n      add\n      0x40\n      mstore\n      dup1\n      swap3\n      swap2\n      swap1\n      dup2\n      dup2\n      mstore\n      0x20\n      add\n      dup3\n      dup1\n      sload\n      tag_236\n      swap1\n      tag_40\n      jump\t// in\n    tag_236:\n      dup1\n      iszero\n      tag_237\n      jumpi\n      dup1\n      0x1f\n      lt\n      tag_238\n      jumpi\n      0x0100\n      dup1\n      dup4\n      sload\n      div\n      mul\n      dup4\n      mstore\n      swap2\n      0x20\n      add\n      swap2\n      jump(tag_237)\n    tag_238:\n      dup3\n      add\n      swap2\n      swap1\n      0x00\n      mstore\n      keccak256(0x00, 0x20)\n      swap1\n    tag_239:\n      dup2\n      sload\n      dup2\n      mstore\n      swap1\n      0x01\n      add\n      swap1\n      0x20\n      add\n      dup1\n      dup4\n      gt\n      tag_239\n      jumpi\n      dup3\n      swap1\n      sub\n      0x1f\n      and\n      dup3\n      add\n      swap2\n    tag_237:\n      pop\n      pop\n      pop\n      pop\n      pop\n      dup2\n      mstore\n      pop\n      pop\n      swap2\n      pop\n      pop\n      jump(tag_167)\n        /* \"Storage.sol\":2704:2821  if (keccak256(bytes(diplomes[i].CNE)) == keccak256(bytes(_CNE))){... */\n    tag_176:\n        /* \"Storage.sol\":2685:2688  i++ */\n      dup1\n      dup1\n      tag_240\n      swap1\n      tag_241\n      jump\t// in\n    tag_240:\n      swap2\n      pop\n      pop\n        /* \"Storage.sol\":2648:2832  for(uint i = 0; i < diplomes.length; i++){... */\n      jump(tag_168)\n    tag_169:\n      pop\n        /* \"Storage.sol\":2559:2839  function getDiplome(string memory _CNE ) public view returns (Diplome memory) {... */\n    tag_167:\n      swap2\n      swap1\n      pop\n      jump\t// out\n        /* \"Storage.sol\":550:575  Diplome[] public diplomes */\n    tag_28:\n      0x00\n      dup2\n      dup2\n      sload\n      dup2\n      lt\n      tag_242\n      jumpi\n      0x00\n      dup1\n      revert\n    tag_242:\n      swap1\n      0x00\n      mstore\n      keccak256(0x00, 0x20)\n      swap1\n      0x0c\n      mul\n      add\n      0x00\n      swap2\n      pop\n      swap1\n      pop\n      dup1\n      0x00\n      add\n      dup1\n      sload\n      tag_244\n      swap1\n      tag_40\n      jump\t// in\n    tag_244:\n      dup1\n      0x1f\n      add\n      0x20\n      dup1\n      swap2\n      div\n      mul\n      0x20\n      add\n      mload(0x40)\n      swap1\n      dup2\n      add\n      0x40\n      mstore\n      dup1\n      swap3\n      swap2\n      swap1\n      dup2\n      dup2\n      mstore\n      0x20\n      add\n      dup3\n      dup1\n      sload\n      tag_245\n      swap1\n      tag_40\n      jump\t// in\n    tag_245:\n      dup1\n      iszero\n      tag_246\n      jumpi\n      dup1\n      0x1f\n      lt\n      tag_247\n      jumpi\n      0x0100\n      dup1\n      dup4\n      sload\n      div\n      mul\n      dup4\n      mstore\n      swap2\n      0x20\n      add\n      swap2\n      jump(tag_246)\n    tag_247:\n      dup3\n      add\n      swap2\n      swap1\n      0x00\n      mstore\n      keccak256(0x00, 0x20)\n      swap1\n    tag_248:\n      dup2\n      sload\n      dup2\n      mstore\n      swap1\n      0x01\n      add\n      swap1\n      0x20\n      add\n      dup1\n      dup4\n      gt\n      tag_248\n      jumpi\n      dup3\n      swap1\n      sub\n      0x1f\n      and\n      dup3\n      add\n      swap2\n    tag_246:\n      pop\n      pop\n      pop\n      pop\n      pop\n      swap1\n      dup1\n      0x01\n      add\n      dup1\n      sload\n      tag_249\n      swap1\n      tag_40\n      jump\t// in\n    tag_249:\n      dup1\n      0x1f\n      add\n      0x20\n      dup1\n      swap2\n      div\n      mul\n      0x20\n      add\n      mload(0x40)\n      swap1\n      dup2\n      add\n      0x40\n      mstore\n      dup1\n      swap3\n      swap2\n      swap1\n      dup2\n      dup2\n      mstore\n      0x20\n      add\n      dup3\n      dup1\n      sload\n      tag_250\n      swap1\n      tag_40\n      jump\t// in\n    tag_250:\n      dup1\n      iszero\n      tag_251\n      jumpi\n      dup1\n      0x1f\n      lt\n      tag_252\n      jumpi\n      0x0100\n      dup1\n      dup4\n      sload\n      div\n      mul\n      dup4\n      mstore\n      swap2\n      0x20\n      add\n      swap2\n      jump(tag_251)\n    tag_252:\n      dup3\n      add\n      swap2\n      swap1\n      0x00\n      mstore\n      keccak256(0x00, 0x20)\n      swap1\n    tag_253:\n      dup2\n      sload\n      dup2\n      mstore\n      swap1\n      0x01\n      add\n      swap1\n      0x20\n      add\n      dup1\n      dup4\n      gt\n      tag_253\n      jumpi\n      dup3\n      swap1\n      sub\n      0x1f\n      and\n      dup3\n      add\n      swap2\n    tag_251:\n      pop\n      pop\n      pop\n      pop\n      pop\n      swap1\n      dup1\n      0x02\n      add\n      dup1\n      sload\n      tag_254\n      swap1\n      tag_40\n      jump\t// in\n    tag_254:\n      dup1\n      0x1f\n      add\n      0x20\n      dup1\n      swap2\n      div\n      mul\n      0x20\n      add\n      mload(0x40)\n      swap1\n      dup2\n      add\n      0x40\n      mstore\n      dup1\n      swap3\n      swap2\n      swap1\n      dup2\n      dup2\n      mstore\n      0x20\n      add\n      dup3\n      dup1\n      sload\n      tag_255\n      swap1\n      tag_40\n      jump\t// in\n    tag_255:\n      dup1\n      iszero\n      tag_256\n      jumpi\n      dup1\n      0x1f\n      lt\n      tag_257\n      jumpi\n      0x0100\n      dup1\n      dup4\n      sload\n      div\n      mul\n      dup4\n      mstore\n      swap2\n      0x20\n      add\n      swap2\n      jump(tag_256)\n    tag_257:\n      dup3\n      add\n      swap2\n      swap1\n      0x00\n      mstore\n      keccak256(0x00, 0x20)\n      swap1\n    tag_258:\n      dup2\n      sload\n      dup2\n      mstore\n      swap1\n      0x01\n      add\n      swap1\n      0x20\n      add\n      dup1\n      dup4\n      gt\n      tag_258\n      jumpi\n      dup3\n      swap1\n      sub\n      0x1f\n      and\n      dup3\n      add\n      swap2\n    tag_256:\n      pop\n      pop\n      pop\n      pop\n      pop\n      swap1\n      dup1\n      0x03\n      add\n      dup1\n      sload\n      tag_259\n      swap1\n      tag_40\n      jump\t// in\n    tag_259:\n      dup1\n      0x1f\n      add\n      0x20\n      dup1\n      swap2\n      div\n      mul\n      0x20\n      add\n      mload(0x40)\n      swap1\n      dup2\n      add\n      0x40\n      mstore\n      dup1\n      swap3\n      swap2\n      swap1\n      dup2\n      dup2\n      mstore\n      0x20\n      add\n      dup3\n      dup1\n      sload\n      tag_260\n      swap1\n      tag_40\n      jump\t// in\n    tag_260:\n      dup1\n      iszero\n      tag_261\n      jumpi\n      dup1\n      0x1f\n      lt\n      tag_262\n      jumpi\n      0x0100\n      dup1\n      dup4\n      sload\n      div\n      mul\n      dup4\n      mstore\n      swap2\n      0x20\n      add\n      swap2\n      jump(tag_261)\n    tag_262:\n      dup3\n      add\n      swap2\n      swap1\n      0x00\n      mstore\n      keccak256(0x00, 0x20)\n      swap1\n    tag_263:\n      dup2\n      sload\n      dup2\n      mstore\n      swap1\n      0x01\n      add\n      swap1\n      0x20\n      add\n      dup1\n      dup4\n      gt\n      tag_263\n      jumpi\n      dup3\n      swap1\n      sub\n      0x1f\n      and\n      dup3\n      add\n      swap2\n    tag_261:\n      pop\n      pop\n      pop\n      pop\n      pop\n      swap1\n      dup1\n      0x04\n      add\n      dup1\n      sload\n      tag_264\n      swap1\n      tag_40\n      jump\t// in\n    tag_264:\n      dup1\n      0x1f\n      add\n      0x20\n      dup1\n      swap2\n      div\n      mul\n      0x20\n      add\n      mload(0x40)\n      swap1\n      dup2\n      add\n      0x40\n      mstore\n      dup1\n      swap3\n      swap2\n      swap1\n      dup2\n      dup2\n      mstore\n      0x20\n      add\n      dup3\n      dup1\n      sload\n      tag_265\n      swap1\n      tag_40\n      jump\t// in\n    tag_265:\n      dup1\n      iszero\n      tag_266\n      jumpi\n      dup1\n      0x1f\n      lt\n      tag_267\n      jumpi\n      0x0100\n      dup1\n      dup4\n      sload\n      div\n      mul\n      dup4\n      mstore\n      swap2\n      0x20\n      add\n      swap2\n      jump(tag_266)\n    tag_267:\n      dup3\n      add\n      swap2\n      swap1\n      0x00\n      mstore\n      keccak256(0x00, 0x20)\n      swap1\n    tag_268:\n      dup2\n      sload\n      dup2\n      mstore\n      swap1\n      0x01\n      add\n      swap1\n      0x20\n      add\n      dup1\n      dup4\n      gt\n      tag_268\n      jumpi\n      dup3\n      swap1\n      sub\n      0x1f\n      and\n      dup3\n      add\n      swap2\n    tag_266:\n      pop\n      pop\n      pop\n      pop\n      pop\n      swap1\n      dup1\n      0x05\n      add\n      dup1\n      sload\n      tag_269\n      swap1\n      tag_40\n      jump\t// in\n    tag_269:\n      dup1\n      0x1f\n      add\n      0x20\n      dup1\n      swap2\n      div\n      mul\n      0x20\n      add\n      mload(0x40)\n      swap1\n      dup2\n      add\n      0x40\n      mstore\n      dup1\n      swap3\n      swap2\n      swap1\n      dup2\n      dup2\n      mstore\n      0x20\n      add\n      dup3\n      dup1\n      sload\n      tag_270\n      swap1\n      tag_40\n      jump\t// in\n    tag_270:\n      dup1\n      iszero\n      tag_271\n      jumpi\n      dup1\n      0x1f\n      lt\n      tag_272\n      jumpi\n      0x0100\n      dup1\n      dup4\n      sload\n      div\n      mul\n      dup4\n      mstore\n      swap2\n      0x20\n      add\n      swap2\n      jump(tag_271)\n    tag_272:\n      dup3\n      add\n      swap2\n      swap1\n      0x00\n      mstore\n      keccak256(0x00, 0x20)\n      swap1\n    tag_273:\n      dup2\n      sload\n      dup2\n      mstore\n      swap1\n      0x01\n      add\n      swap1\n      0x20\n      add\n      dup1\n      dup4\n      gt\n      tag_273\n      jumpi\n      dup3\n      swap1\n      sub\n      0x1f\n      and\n      dup3\n      add\n      swap2\n    tag_271:\n      pop\n      pop\n      pop\n      pop\n      pop\n      swap1\n      dup1\n      0x06\n      add\n      dup1\n      sload\n      tag_274\n      swap1\n      tag_40\n      jump\t// in\n    tag_274:\n      dup1\n      0x1f\n      add\n      0x20\n      dup1\n      swap2\n      div\n      mul\n      0x20\n      add\n      mload(0x40)\n      swap1\n      dup2\n      add\n      0x40\n      mstore\n      dup1\n      swap3\n      swap2\n      swap1\n      dup2\n      dup2\n      mstore\n      0x20\n      add\n      dup3\n      dup1\n      sload\n      tag_275\n      swap1\n      tag_40\n      jump\t// in\n    tag_275:\n      dup1\n      iszero\n      tag_276\n      jumpi\n      dup1\n      0x1f\n      lt\n      tag_277\n      jumpi\n      0x0100\n      dup1\n      dup4\n      sload\n      div\n      mul\n      dup4\n      mstore\n      swap2\n      0x20\n      add\n      swap2\n      jump(tag_276)\n    tag_277:\n      dup3\n      add\n      swap2\n      swap1\n      0x00\n      mstore\n      keccak256(0x00, 0x20)\n      swap1\n    tag_278:\n      dup2\n      sload\n      dup2\n      mstore\n      swap1\n      0x01\n      add\n      swap1\n      0x20\n      add\n      dup1\n      dup4\n      gt\n      tag_278\n      jumpi\n      dup3\n      swap1\n      sub\n      0x1f\n      and\n      dup3\n      add\n      swap2\n    tag_276:\n      pop\n      pop\n      pop\n      pop\n      pop\n      swap1\n      dup1\n      0x07\n      add\n      dup1\n      sload\n      tag_279\n      swap1\n      tag_40\n      jump\t// in\n    tag_279:\n      dup1\n      0x1f\n      add\n      0x20\n      dup1\n      swap2\n      div\n      mul\n      0x20\n      add\n      mload(0x40)\n      swap1\n      dup2\n      add\n      0x40\n      mstore\n      dup1\n      swap3\n      swap2\n      swap1\n      dup2\n      dup2\n      mstore\n      0x20\n      add\n      dup3\n      dup1\n      sload\n      tag_280\n      swap1\n      tag_40\n      jump\t// in\n    tag_280:\n      dup1\n      iszero\n      tag_281\n      jumpi\n      dup1\n      0x1f\n      lt\n      tag_282\n      jumpi\n      0x0100\n      dup1\n      dup4\n      sload\n      div\n      mul\n      dup4\n      mstore\n      swap2\n      0x20\n      add\n      swap2\n      jump(tag_281)\n    tag_282:\n      dup3\n      add\n      swap2\n      swap1\n      0x00\n      mstore\n      keccak256(0x00, 0x20)\n      swap1\n    tag_283:\n      dup2\n      sload\n      dup2\n      mstore\n      swap1\n      0x01\n      add\n      swap1\n      0x20\n      add\n      dup1\n      dup4\n      gt\n      tag_283\n      jumpi\n      dup3\n      swap1\n      sub\n      0x1f\n      and\n      dup3\n      add\n      swap2\n    tag_281:\n      pop\n      pop\n      pop\n      pop\n      pop\n      swap1\n      dup1\n      0x08\n      add\n      dup1\n      sload\n      tag_284\n      swap1\n      tag_40\n      jump\t// in\n    tag_284:\n      dup1\n      0x1f\n      add\n      0x20\n      dup1\n      swap2\n      div\n      mul\n      0x20\n      add\n      mload(0x40)\n      swap1\n      dup2\n      add\n      0x40\n      mstore\n      dup1\n      swap3\n      swap2\n      swap1\n      dup2\n      dup2\n      mstore\n      0x20\n      add\n      dup3\n      dup1\n      sload\n      tag_285\n      swap1\n      tag_40\n      jump\t// in\n    tag_285:\n      dup1\n      iszero\n      tag_286\n      jumpi\n      dup1\n      0x1f\n      lt\n      tag_287\n      jumpi\n      0x0100\n      dup1\n      dup4\n      sload\n      div\n      mul\n      dup4\n      mstore\n      swap2\n      0x20\n      add\n      swap2\n      jump(tag_286)\n    tag_287:\n      dup3\n      add\n      swap2\n      swap1\n      0x00\n      mstore\n      keccak256(0x00, 0x20)\n      swap1\n    tag_288:\n      dup2\n      sload\n      dup2\n      mstore\n      swap1\n      0x01\n      add\n      swap1\n      0x20\n      add\n      dup1\n      dup4\n      gt\n      tag_288\n      jumpi\n      dup3\n      swap1\n      sub\n      0x1f\n      and\n      dup3\n      add\n      swap2\n    tag_286:\n      pop\n      pop\n      pop\n      pop\n      pop\n      swap1\n      dup1\n      0x09\n      add\n      dup1\n      sload\n      tag_289\n      swap1\n      tag_40\n      jump\t// in\n    tag_289:\n      dup1\n      0x1f\n      add\n      0x20\n      dup1\n      swap2\n      div\n      mul\n      0x20\n      add\n      mload(0x40)\n      swap1\n      dup2\n      add\n      0x40\n      mstore\n      dup1\n      swap3\n      swap2\n      swap1\n      dup2\n      dup2\n      mstore\n      0x20\n      add\n      dup3\n      dup1\n      sload\n      tag_290\n      swap1\n      tag_40\n      jump\t// in\n    tag_290:\n      dup1\n      iszero\n      tag_291\n      jumpi\n      dup1\n      0x1f\n      lt\n      tag_292\n      jumpi\n      0x0100\n      dup1\n      dup4\n      sload\n      div\n      mul\n      dup4\n      mstore\n      swap2\n      0x20\n      add\n      swap2\n      jump(tag_291)\n    tag_292:\n      dup3\n      add\n      swap2\n      swap1\n      0x00\n      mstore\n      keccak256(0x00, 0x20)\n      swap1\n    tag_293:\n      dup2\n      sload\n      dup2\n      mstore\n      swap1\n      0x01\n      add\n      swap1\n      0x20\n      add\n      dup1\n      dup4\n      gt\n      tag_293\n      jumpi\n      dup3\n      swap1\n      sub\n      0x1f\n      and\n      dup3\n      add\n      swap2\n    tag_291:\n      pop\n      pop\n      pop\n      pop\n      pop\n      swap1\n      dup1\n      0x0a\n      add\n      dup1\n      sload\n      tag_294\n      swap1\n      tag_40\n      jump\t// in\n    tag_294:\n      dup1\n      0x1f\n      add\n      0x20\n      dup1\n      swap2\n      div\n      mul\n      0x20\n      add\n      mload(0x40)\n      swap1\n      dup2\n      add\n      0x40\n      mstore\n      dup1\n      swap3\n      swap2\n      swap1\n      dup2\n      dup2\n      mstore\n      0x20\n      add\n      dup3\n      dup1\n      sload\n      tag_295\n      swap1\n      tag_40\n      jump\t// in\n    tag_295:\n      dup1\n      iszero\n      tag_296\n      jumpi\n      dup1\n      0x1f\n      lt\n      tag_297\n      jumpi\n      0x0100\n      dup1\n      dup4\n      sload\n      div\n      mul\n      dup4\n      mstore\n      swap2\n      0x20\n      add\n      swap2\n      jump(tag_296)\n    tag_297:\n      dup3\n      add\n      swap2\n      swap1\n      0x00\n      mstore\n      keccak256(0x00, 0x20)\n      swap1\n    tag_298:\n      dup2\n      sload\n      dup2\n      mstore\n      swap1\n      0x01\n      add\n      swap1\n      0x20\n      add\n      dup1\n      dup4\n      gt\n      tag_298\n      jumpi\n      dup3\n      swap1\n      sub\n      0x1f\n      and\n      dup3\n      add\n      swap2\n    tag_296:\n      pop\n      pop\n      pop\n      pop\n      pop\n      swap1\n      dup1\n      0x0b\n      add\n      dup1\n      sload\n      tag_299\n      swap1\n      tag_40\n      jump\t// in\n    tag_299:\n      dup1\n      0x1f\n      add\n      0x20\n      dup1\n      swap2\n      div\n      mul\n      0x20\n      add\n      mload(0x40)\n      swap1\n      dup2\n      add\n      0x40\n      mstore\n      dup1\n      swap3\n      swap2\n      swap1\n      dup2\n      dup2\n      mstore\n      0x20\n      add\n      dup3\n      dup1\n      sload\n      tag_300\n      swap1\n      tag_40\n      jump\t// in\n    tag_300:\n      dup1\n      iszero\n      tag_301\n      jumpi\n      dup1\n      0x1f\n      lt\n      tag_302\n      jumpi\n      0x0100\n      dup1\n      dup4\n      sload\n      div\n      mul\n      dup4\n      mstore\n      swap2\n      0x20\n      add\n      swap2\n      jump(tag_301)\n    tag_302:\n      dup3\n      add\n      swap2\n      swap1\n      0x00\n      mstore\n      keccak256(0x00, 0x20)\n      swap1\n    tag_303:\n      dup2\n      sload\n      dup2\n      mstore\n      swap1\n      0x01\n      add\n      swap1\n      0x20\n      add\n      dup1\n      dup4\n      gt\n      tag_303\n      jumpi\n      dup3\n      swap1\n      sub\n      0x1f\n      and\n      dup3\n      add\n      swap2\n    tag_301:\n      pop\n      pop\n      pop\n      pop\n      pop\n      swap1\n      pop\n      dup13\n      jump\t// out\n        /* \"Storage.sol\":1449:2472  function filterDiplomes(string memory _date) external view returns(Diplome[] memory) {... */\n    tag_33:\n        /* \"Storage.sol\":1516:1532  Diplome[] memory */\n      0x60\n        /* \"Storage.sol\":1547:1566  uint256 resultCount */\n      0x00\n        /* \"Storage.sol\":1584:1590  uint i */\n      dup1\n        /* \"Storage.sol\":1593:1594  0 */\n      0x00\n        /* \"Storage.sol\":1584:1594  uint i = 0 */\n      swap1\n      pop\n        /* \"Storage.sol\":1579:2100  for (uint i = 0; i < diplomes.length; i++) {... */\n    tag_305:\n        /* \"Storage.sol\":1600:1608  diplomes */\n      0x00\n        /* \"Storage.sol\":1600:1615  diplomes.length */\n      dup1\n      sload\n      swap1\n      pop\n        /* \"Storage.sol\":1596:1597  i */\n      dup2\n        /* \"Storage.sol\":1596:1615  i < diplomes.length */\n      lt\n        /* \"Storage.sol\":1579:2100  for (uint i = 0; i < diplomes.length; i++) {... */\n      iszero\n      tag_306\n      jumpi\n        /* \"Storage.sol\":2030:2035  _date */\n      dup4\n        /* \"Storage.sol\":2012:2037  abi.encodePacked((_date)) */\n      add(0x20, mload(0x40))\n      tag_308\n      swap2\n      swap1\n      tag_309\n      jump\t// in\n    tag_308:\n      mload(0x40)\n      0x20\n      dup2\n      dup4\n      sub\n      sub\n      dup2\n      mstore\n      swap1\n      0x40\n      mstore\n        /* \"Storage.sol\":2002:2038  keccak256(abi.encodePacked((_date))) */\n      dup1\n      mload\n      swap1\n      0x20\n      add\n      keccak256\n        /* \"Storage.sol\":1979:1987  diplomes */\n      0x00\n        /* \"Storage.sol\":1988:1989  i */\n      dup3\n        /* \"Storage.sol\":1979:1990  diplomes[i] */\n      dup2\n      sload\n      dup2\n      lt\n      tag_310\n      jumpi\n      tag_311\n      tag_106\n      jump\t// in\n    tag_311:\n    tag_310:\n      swap1\n      0x00\n      mstore\n      keccak256(0x00, 0x20)\n      swap1\n      0x0c\n      mul\n      add\n        /* \"Storage.sol\":1979:1995  diplomes[i].date */\n      0x0b\n      add\n        /* \"Storage.sol\":1961:1997  abi.encodePacked((diplomes[i].date)) */\n      add(0x20, mload(0x40))\n      tag_313\n      swap2\n      swap1\n      tag_314\n      jump\t// in\n    tag_313:\n      mload(0x40)\n      0x20\n      dup2\n      dup4\n      sub\n      sub\n      dup2\n      mstore\n      swap1\n      0x40\n      mstore\n        /* \"Storage.sol\":1951:1998  keccak256(abi.encodePacked((diplomes[i].date))) */\n      dup1\n      mload\n      swap1\n      0x20\n      add\n      keccak256\n        /* \"Storage.sol\":1951:2038  keccak256(abi.encodePacked((diplomes[i].date))) == keccak256(abi.encodePacked((_date))) */\n      sub\n        /* \"Storage.sol\":1947:2089  if (keccak256(abi.encodePacked((diplomes[i].date))) == keccak256(abi.encodePacked((_date)))) {... */\n      tag_315\n      jumpi\n        /* \"Storage.sol\":2059:2072  resultCount++ */\n      dup2\n      dup1\n      tag_316\n      swap1\n      tag_241\n      jump\t// in\n    tag_316:\n      swap3\n      pop\n      pop\n        /* \"Storage.sol\":1947:2089  if (keccak256(abi.encodePacked((diplomes[i].date))) == keccak256(abi.encodePacked((_date)))) {... */\n    tag_315:\n        /* \"Storage.sol\":1617:1620  i++ */\n      dup1\n      dup1\n      tag_317\n      swap1\n      tag_241\n      jump\t// in\n    tag_317:\n      swap2\n      pop\n      pop\n        /* \"Storage.sol\":1579:2100  for (uint i = 0; i < diplomes.length; i++) {... */\n      jump(tag_305)\n    tag_306:\n      pop\n        /* \"Storage.sol\":2112:2135  Diplome[] memory result */\n      0x00\n        /* \"Storage.sol\":2152:2163  resultCount */\n      dup2\n        /* \"Storage.sol\":2138:2164  new Diplome[](resultCount) */\n      0xffffffffffffffff\n      dup2\n      gt\n      iszero\n      tag_318\n      jumpi\n      tag_319\n      tag_320\n      jump\t// in\n    tag_319:\n    tag_318:\n      mload(0x40)\n      swap1\n      dup1\n      dup3\n      mstore\n      dup1\n      0x20\n      mul\n      0x20\n      add\n      dup3\n      add\n      0x40\n      mstore\n      dup1\n      iszero\n      tag_321\n      jumpi\n      dup2\n      0x20\n      add\n    tag_322:\n      tag_323\n      tag_166\n      jump\t// in\n    tag_323:\n      dup2\n      mstore\n      0x20\n      add\n      swap1\n      0x01\n      swap1\n      sub\n      swap1\n      dup2\n      tag_322\n      jumpi\n      swap1\n      pop\n    tag_321:\n      pop\n        /* \"Storage.sol\":2112:2164  Diplome[] memory result = new Diplome[](resultCount) */\n      swap1\n      pop\n        /* \"Storage.sol\":2175:2184  uint256 j */\n      0x00\n        /* \"Storage.sol\":2202:2208  uint i */\n      dup1\n        /* \"Storage.sol\":2211:2212  0 */\n      0x00\n        /* \"Storage.sol\":2202:2212  uint i = 0 */\n      swap1\n      pop\n        /* \"Storage.sol\":2197:2439  for (uint i = 0; i < diplomes.length; i++) {... */\n    tag_324:\n        /* \"Storage.sol\":2218:2226  diplomes */\n      0x00\n        /* \"Storage.sol\":2218:2233  diplomes.length */\n      dup1\n      sload\n      swap1\n      pop\n        /* \"Storage.sol\":2214:2215  i */\n      dup2\n        /* \"Storage.sol\":2214:2233  i < diplomes.length */\n      lt\n        /* \"Storage.sol\":2197:2439  for (uint i = 0; i < diplomes.length; i++) {... */\n      iszero\n      tag_325\n      jumpi\n        /* \"Storage.sol\":2338:2343  _date */\n      dup6\n        /* \"Storage.sol\":2320:2345  abi.encodePacked((_date)) */\n      add(0x20, mload(0x40))\n      tag_327\n      swap2\n      swap1\n      tag_309\n      jump\t// in\n    tag_327:\n      mload(0x40)\n      0x20\n      dup2\n      dup4\n      sub\n      sub\n      dup2\n      mstore\n      swap1\n      0x40\n      mstore\n        /* \"Storage.sol\":2310:2346  keccak256(abi.encodePacked((_date))) */\n      dup1\n      mload\n      swap1\n      0x20\n      add\n      keccak256\n        /* \"Storage.sol\":2287:2295  diplomes */\n      0x00\n        /* \"Storage.sol\":2296:2297  i */\n      dup3\n        /* \"Storage.sol\":2287:2298  diplomes[i] */\n      dup2\n      sload\n      dup2\n      lt\n      tag_328\n      jumpi\n      tag_329\n      tag_106\n      jump\t// in\n    tag_329:\n    tag_328:\n      swap1\n      0x00\n      mstore\n      keccak256(0x00, 0x20)\n      swap1\n      0x0c\n      mul\n      add\n        /* \"Storage.sol\":2287:2303  diplomes[i].date */\n      0x0b\n      add\n        /* \"Storage.sol\":2269:2305  abi.encodePacked((diplomes[i].date)) */\n      add(0x20, mload(0x40))\n      tag_331\n      swap2\n      swap1\n      tag_314\n      jump\t// in\n    tag_331:\n      mload(0x40)\n      0x20\n      dup2\n      dup4\n      sub\n      sub\n      dup2\n      mstore\n      swap1\n      0x40\n      mstore\n        /* \"Storage.sol\":2259:2306  keccak256(abi.encodePacked((diplomes[i].date))) */\n      dup1\n      mload\n      swap1\n      0x20\n      add\n      keccak256\n        /* \"Storage.sol\":2259:2346  keccak256(abi.encodePacked((diplomes[i].date))) == keccak256(abi.encodePacked((_date))) */\n      sub\n        /* \"Storage.sol\":2255:2428  if (keccak256(abi.encodePacked((diplomes[i].date))) == keccak256(abi.encodePacked((_date)))) {... */\n      tag_332\n      jumpi\n        /* \"Storage.sol\":2379:2387  diplomes */\n      0x00\n        /* \"Storage.sol\":2388:2389  i */\n      dup2\n        /* \"Storage.sol\":2379:2390  diplomes[i] */\n      dup2\n      sload\n      dup2\n      lt\n      tag_333\n      jumpi\n      tag_334\n      tag_106\n      jump\t// in\n    tag_334:\n    tag_333:\n      swap1\n      0x00\n      mstore\n      keccak256(0x00, 0x20)\n      swap1\n      0x0c\n      mul\n      add\n        /* \"Storage.sol\":2367:2390  result[j] = diplomes[i] */\n      mload(0x40)\n      dup1\n      0x0180\n      add\n      0x40\n      mstore\n      swap1\n      dup2\n      0x00\n      dup3\n      add\n      dup1\n      sload\n      tag_336\n      swap1\n      tag_40\n      jump\t// in\n    tag_336:\n      dup1\n      0x1f\n      add\n      0x20\n      dup1\n      swap2\n      div\n      mul\n      0x20\n      add\n      mload(0x40)\n      swap1\n      dup2\n      add\n      0x40\n      mstore\n      dup1\n      swap3\n      swap2\n      swap1\n      dup2\n      dup2\n      mstore\n      0x20\n      add\n      dup3\n      dup1\n      sload\n      tag_337\n      swap1\n      tag_40\n      jump\t// in\n    tag_337:\n      dup1\n      iszero\n      tag_338\n      jumpi\n      dup1\n      0x1f\n      lt\n      tag_339\n      jumpi\n      0x0100\n      dup1\n      dup4\n      sload\n      div\n      mul\n      dup4\n      mstore\n      swap2\n      0x20\n      add\n      swap2\n      jump(tag_338)\n    tag_339:\n      dup3\n      add\n      swap2\n      swap1\n      0x00\n      mstore\n      keccak256(0x00, 0x20)\n      swap1\n    tag_340:\n      dup2\n      sload\n      dup2\n      mstore\n      swap1\n      0x01\n      add\n      swap1\n      0x20\n      add\n      dup1\n      dup4\n      gt\n      tag_340\n      jumpi\n      dup3\n      swap1\n      sub\n      0x1f\n      and\n      dup3\n      add\n      swap2\n    tag_338:\n      pop\n      pop\n      pop\n      pop\n      pop\n      dup2\n      mstore\n      0x20\n      add\n      0x01\n      dup3\n      add\n      dup1\n      sload\n      tag_341\n      swap1\n      tag_40\n      jump\t// in\n    tag_341:\n      dup1\n      0x1f\n      add\n      0x20\n      dup1\n      swap2\n      div\n      mul\n      0x20\n      add\n      mload(0x40)\n      swap1\n      dup2\n      add\n      0x40\n      mstore\n      dup1\n      swap3\n      swap2\n      swap1\n      dup2\n      dup2\n      mstore\n      0x20\n      add\n      dup3\n      dup1\n      sload\n      tag_342\n      swap1\n      tag_40\n      jump\t// in\n    tag_342:\n      dup1\n      iszero\n      tag_343\n      jumpi\n      dup1\n      0x1f\n      lt\n      tag_344\n      jumpi\n      0x0100\n      dup1\n      dup4\n      sload\n      div\n      mul\n      dup4\n      mstore\n      swap2\n      0x20\n      add\n      swap2\n      jump(tag_343)\n    tag_344:\n      dup3\n      add\n      swap2\n      swap1\n      0x00\n      mstore\n      keccak256(0x00, 0x20)\n      swap1\n    tag_345:\n      dup2\n      sload\n      dup2\n      mstore\n      swap1\n      0x01\n      add\n      swap1\n      0x20\n      add\n      dup1\n      dup4\n      gt\n      tag_345\n      jumpi\n      dup3\n      swap1\n      sub\n      0x1f\n      and\n      dup3\n      add\n      swap2\n    tag_343:\n      pop\n      pop\n      pop\n      pop\n      pop\n      dup2\n      mstore\n      0x20\n      add\n      0x02\n      dup3\n      add\n      dup1\n      sload\n      tag_346\n      swap1\n      tag_40\n      jump\t// in\n    tag_346:\n      dup1\n      0x1f\n      add\n      0x20\n      dup1\n      swap2\n      div\n      mul\n      0x20\n      add\n      mload(0x40)\n      swap1\n      dup2\n      add\n      0x40\n      mstore\n      dup1\n      swap3\n      swap2\n      swap1\n      dup2\n      dup2\n      mstore\n      0x20\n      add\n      dup3\n      dup1\n      sload\n      tag_347\n      swap1\n      tag_40\n      jump\t// in\n    tag_347:\n      dup1\n      iszero\n      tag_348\n      jumpi\n      dup1\n      0x1f\n      lt\n      tag_349\n      jumpi\n      0x0100\n      dup1\n      dup4\n      sload\n      div\n      mul\n      dup4\n      mstore\n      swap2\n      0x20\n      add\n      swap2\n      jump(tag_348)\n    tag_349:\n      dup3\n      add\n      swap2\n      swap1\n      0x00\n      mstore\n      keccak256(0x00, 0x20)\n      swap1\n    tag_350:\n      dup2\n      sload\n      dup2\n      mstore\n      swap1\n      0x01\n      add\n      swap1\n      0x20\n      add\n      dup1\n      dup4\n      gt\n      tag_350\n      jumpi\n      dup3\n      swap1\n      sub\n      0x1f\n      and\n      dup3\n      add\n      swap2\n    tag_348:\n      pop\n      pop\n      pop\n      pop\n      pop\n      dup2\n      mstore\n      0x20\n      add\n      0x03\n      dup3\n      add\n      dup1\n      sload\n      tag_351\n      swap1\n      tag_40\n      jump\t// in\n    tag_351:\n      dup1\n      0x1f\n      add\n      0x20\n      dup1\n      swap2\n      div\n      mul\n      0x20\n      add\n      mload(0x40)\n      swap1\n      dup2\n      add\n      0x40\n      mstore\n      dup1\n      swap3\n      swap2\n      swap1\n      dup2\n      dup2\n      mstore\n      0x20\n      add\n      dup3\n      dup1\n      sload\n      tag_352\n      swap1\n      tag_40\n      jump\t// in\n    tag_352:\n      dup1\n      iszero\n      tag_353\n      jumpi\n      dup1\n      0x1f\n      lt\n      tag_354\n      jumpi\n      0x0100\n      dup1\n      dup4\n      sload\n      div\n      mul\n      dup4\n      mstore\n      swap2\n      0x20\n      add\n      swap2\n      jump(tag_353)\n    tag_354:\n      dup3\n      add\n      swap2\n      swap1\n      0x00\n      mstore\n      keccak256(0x00, 0x20)\n      swap1\n    tag_355:\n      dup2\n      sload\n      dup2\n      mstore\n      swap1\n      0x01\n      add\n      swap1\n      0x20\n      add\n      dup1\n      dup4\n      gt\n      tag_355\n      jumpi\n      dup3\n      swap1\n      sub\n      0x1f\n      and\n      dup3\n      add\n      swap2\n    tag_353:\n      pop\n      pop\n      pop\n      pop\n      pop\n      dup2\n      mstore\n      0x20\n      add\n      0x04\n      dup3\n      add\n      dup1\n      sload\n      tag_356\n      swap1\n      tag_40\n      jump\t// in\n    tag_356:\n      dup1\n      0x1f\n      add\n      0x20\n      dup1\n      swap2\n      div\n      mul\n      0x20\n      add\n      mload(0x40)\n      swap1\n      dup2\n      add\n      0x40\n      mstore\n      dup1\n      swap3\n      swap2\n      swap1\n      dup2\n      dup2\n      mstore\n      0x20\n      add\n      dup3\n      dup1\n      sload\n      tag_357\n      swap1\n      tag_40\n      jump\t// in\n    tag_357:\n      dup1\n      iszero\n      tag_358\n      jumpi\n      dup1\n      0x1f\n      lt\n      tag_359\n      jumpi\n      0x0100\n      dup1\n      dup4\n      sload\n      div\n      mul\n      dup4\n      mstore\n      swap2\n      0x20\n      add\n      swap2\n      jump(tag_358)\n    tag_359:\n      dup3\n      add\n      swap2\n      swap1\n      0x00\n      mstore\n      keccak256(0x00, 0x20)\n      swap1\n    tag_360:\n      dup2\n      sload\n      dup2\n      mstore\n      swap1\n      0x01\n      add\n      swap1\n      0x20\n      add\n      dup1\n      dup4\n      gt\n      tag_360\n      jumpi\n      dup3\n      swap1\n      sub\n      0x1f\n      and\n      dup3\n      add\n      swap2\n    tag_358:\n      pop\n      pop\n      pop\n      pop\n      pop\n      dup2\n      mstore\n      0x20\n      add\n      0x05\n      dup3\n      add\n      dup1\n      sload\n      tag_361\n      swap1\n      tag_40\n      jump\t// in\n    tag_361:\n      dup1\n      0x1f\n      add\n      0x20\n      dup1\n      swap2\n      div\n      mul\n      0x20\n      add\n      mload(0x40)\n      swap1\n      dup2\n      add\n      0x40\n      mstore\n      dup1\n      swap3\n      swap2\n      swap1\n      dup2\n      dup2\n      mstore\n      0x20\n      add\n      dup3\n      dup1\n      sload\n      tag_362\n      swap1\n      tag_40\n      jump\t// in\n    tag_362:\n      dup1\n      iszero\n      tag_363\n      jumpi\n      dup1\n      0x1f\n      lt\n      tag_364\n      jumpi\n      0x0100\n      dup1\n      dup4\n      sload\n      div\n      mul\n      dup4\n      mstore\n      swap2\n      0x20\n      add\n      swap2\n      jump(tag_363)\n    tag_364:\n      dup3\n      add\n      swap2\n      swap1\n      0x00\n      mstore\n      keccak256(0x00, 0x20)\n      swap1\n    tag_365:\n      dup2\n      sload\n      dup2\n      mstore\n      swap1\n      0x01\n      add\n      swap1\n      0x20\n      add\n      dup1\n      dup4\n      gt\n      tag_365\n      jumpi\n      dup3\n      swap1\n      sub\n      0x1f\n      and\n      dup3\n      add\n      swap2\n    tag_363:\n      pop\n      pop\n      pop\n      pop\n      pop\n      dup2\n      mstore\n      0x20\n      add\n      0x06\n      dup3\n      add\n      dup1\n      sload\n      tag_366\n      swap1\n      tag_40\n      jump\t// in\n    tag_366:\n      dup1\n      0x1f\n      add\n      0x20\n      dup1\n      swap2\n      div\n      mul\n      0x20\n      add\n      mload(0x40)\n      swap1\n      dup2\n      add\n      0x40\n      mstore\n      dup1\n      swap3\n      swap2\n      swap1\n      dup2\n      dup2\n      mstore\n      0x20\n      add\n      dup3\n      dup1\n      sload\n      tag_367\n      swap1\n      tag_40\n      jump\t// in\n    tag_367:\n      dup1\n      iszero\n      tag_368\n      jumpi\n      dup1\n      0x1f\n      lt\n      tag_369\n      jumpi\n      0x0100\n      dup1\n      dup4\n      sload\n      div\n      mul\n      dup4\n      mstore\n      swap2\n      0x20\n      add\n      swap2\n      jump(tag_368)\n    tag_369:\n      dup3\n      add\n      swap2\n      swap1\n      0x00\n      mstore\n      keccak256(0x00, 0x20)\n      swap1\n    tag_370:\n      dup2\n      sload\n      dup2\n      mstore\n      swap1\n      0x01\n      add\n      swap1\n      0x20\n      add\n      dup1\n      dup4\n      gt\n      tag_370\n      jumpi\n      dup3\n      swap1\n      sub\n      0x1f\n      and\n      dup3\n      add\n      swap2\n    tag_368:\n      pop\n      pop\n      pop\n      pop\n      pop\n      dup2\n      mstore\n      0x20\n      add\n      0x07\n      dup3\n      add\n      dup1\n      sload\n      tag_371\n      swap1\n      tag_40\n      jump\t// in\n    tag_371:\n      dup1\n      0x1f\n      add\n      0x20\n      dup1\n      swap2\n      div\n      mul\n      0x20\n      add\n      mload(0x40)\n      swap1\n      dup2\n      add\n      0x40\n      mstore\n      dup1\n      swap3\n      swap2\n      swap1\n      dup2\n      dup2\n      mstore\n      0x20\n      add\n      dup3\n      dup1\n      sload\n      tag_372\n      swap1\n      tag_40\n      jump\t// in\n    tag_372:\n      dup1\n      iszero\n      tag_373\n      jumpi\n      dup1\n      0x1f\n      lt\n      tag_374\n      jumpi\n      0x0100\n      dup1\n      dup4\n      sload\n      div\n      mul\n      dup4\n      mstore\n      swap2\n      0x20\n      add\n      swap2\n      jump(tag_373)\n    tag_374:\n      dup3\n      add\n      swap2\n      swap1\n      0x00\n      mstore\n      keccak256(0x00, 0x20)\n      swap1\n    tag_375:\n      dup2\n      sload\n      dup2\n      mstore\n      swap1\n      0x01\n      add\n      swap1\n      0x20\n      add\n      dup1\n      dup4\n      gt\n      tag_375\n      jumpi\n      dup3\n      swap1\n      sub\n      0x1f\n      and\n      dup3\n      add\n      swap2\n    tag_373:\n      pop\n      pop\n      pop\n      pop\n      pop\n      dup2\n      mstore\n      0x20\n      add\n      0x08\n      dup3\n      add\n      dup1\n      sload\n      tag_376\n      swap1\n      tag_40\n      jump\t// in\n    tag_376:\n      dup1\n      0x1f\n      add\n      0x20\n      dup1\n      swap2\n      div\n      mul\n      0x20\n      add\n      mload(0x40)\n      swap1\n      dup2\n      add\n      0x40\n      mstore\n      dup1\n      swap3\n      swap2\n      swap1\n      dup2\n      dup2\n      mstore\n      0x20\n      add\n      dup3\n      dup1\n      sload\n      tag_377\n      swap1\n      tag_40\n      jump\t// in\n    tag_377:\n      dup1\n      iszero\n      tag_378\n      jumpi\n      dup1\n      0x1f\n      lt\n      tag_379\n      jumpi\n      0x0100\n      dup1\n      dup4\n      sload\n      div\n      mul\n      dup4\n      mstore\n      swap2\n      0x20\n      add\n      swap2\n      jump(tag_378)\n    tag_379:\n      dup3\n      add\n      swap2\n      swap1\n      0x00\n      mstore\n      keccak256(0x00, 0x20)\n      swap1\n    tag_380:\n      dup2\n      sload\n      dup2\n      mstore\n      swap1\n      0x01\n      add\n      swap1\n      0x20\n      add\n      dup1\n      dup4\n      gt\n      tag_380\n      jumpi\n      dup3\n      swap1\n      sub\n      0x1f\n      and\n      dup3\n      add\n      swap2\n    tag_378:\n      pop\n      pop\n      pop\n      pop\n      pop\n      dup2\n      mstore\n      0x20\n      add\n      0x09\n      dup3\n      add\n      dup1\n      sload\n      tag_381\n      swap1\n      tag_40\n      jump\t// in\n    tag_381:\n      dup1\n      0x1f\n      add\n      0x20\n      dup1\n      swap2\n      div\n      mul\n      0x20\n      add\n      mload(0x40)\n      swap1\n      dup2\n      add\n      0x40\n      mstore\n      dup1\n      swap3\n      swap2\n      swap1\n      dup2\n      dup2\n      mstore\n      0x20\n      add\n      dup3\n      dup1\n      sload\n      tag_382\n      swap1\n      tag_40\n      jump\t// in\n    tag_382:\n      dup1\n      iszero\n      tag_383\n      jumpi\n      dup1\n      0x1f\n      lt\n      tag_384\n      jumpi\n      0x0100\n      dup1\n      dup4\n      sload\n      div\n      mul\n      dup4\n      mstore\n      swap2\n      0x20\n      add\n      swap2\n      jump(tag_383)\n    tag_384:\n      dup3\n      add\n      swap2\n      swap1\n      0x00\n      mstore\n      keccak256(0x00, 0x20)\n      swap1\n    tag_385:\n      dup2\n      sload\n      dup2\n      mstore\n      swap1\n      0x01\n      add\n      swap1\n      0x20\n      add\n      dup1\n      dup4\n      gt\n      tag_385\n      jumpi\n      dup3\n      swap1\n      sub\n      0x1f\n      and\n      dup3\n      add\n      swap2\n    tag_383:\n      pop\n      pop\n      pop\n      pop\n      pop\n      dup2\n      mstore\n      0x20\n      add\n      0x0a\n      dup3\n      add\n      dup1\n      sload\n      tag_386\n      swap1\n      tag_40\n      jump\t// in\n    tag_386:\n      dup1\n      0x1f\n      add\n      0x20\n      dup1\n      swap2\n      div\n      mul\n      0x20\n      add\n      mload(0x40)\n      swap1\n      dup2\n      add\n      0x40\n      mstore\n      dup1\n      swap3\n      swap2\n      swap1\n      dup2\n      dup2\n      mstore\n      0x20\n      add\n      dup3\n      dup1\n      sload\n      tag_387\n      swap1\n      tag_40\n      jump\t// in\n    tag_387:\n      dup1\n      iszero\n      tag_388\n      jumpi\n      dup1\n      0x1f\n      lt\n      tag_389\n      jumpi\n      0x0100\n      dup1\n      dup4\n      sload\n      div\n      mul\n      dup4\n      mstore\n      swap2\n      0x20\n      add\n      swap2\n      jump(tag_388)\n    tag_389:\n      dup3\n      add\n      swap2\n      swap1\n      0x00\n      mstore\n      keccak256(0x00, 0x20)\n      swap1\n    tag_390:\n      dup2\n      sload\n      dup2\n      mstore\n      swap1\n      0x01\n      add\n      swap1\n      0x20\n      add\n      dup1\n      dup4\n      gt\n      tag_390\n      jumpi\n      dup3\n      swap1\n      sub\n      0x1f\n      and\n      dup3\n      add\n      swap2\n    tag_388:\n      pop\n      pop\n      pop\n      pop\n      pop\n      dup2\n      mstore\n      0x20\n      add\n      0x0b\n      dup3\n      add\n      dup1\n      sload\n      tag_391\n      swap1\n      tag_40\n      jump\t// in\n    tag_391:\n      dup1\n      0x1f\n      add\n      0x20\n      dup1\n      swap2\n      div\n      mul\n      0x20\n      add\n      mload(0x40)\n      swap1\n      dup2\n      add\n      0x40\n      mstore\n      dup1\n      swap3\n      swap2\n      swap1\n      dup2\n      dup2\n      mstore\n      0x20\n      add\n      dup3\n      dup1\n      sload\n      tag_392\n      swap1\n      tag_40\n      jump\t// in\n    tag_392:\n      dup1\n      iszero\n      tag_393\n      jumpi\n      dup1\n      0x1f\n      lt\n      tag_394\n      jumpi\n      0x0100\n      dup1\n      dup4\n      sload\n      div\n      mul\n      dup4\n      mstore\n      swap2\n      0x20\n      add\n      swap2\n      jump(tag_393)\n    tag_394:\n      dup3\n      add\n      swap2\n      swap1\n      0x00\n      mstore\n      keccak256(0x00, 0x20)\n      swap1\n    tag_395:\n      dup2\n      sload\n      dup2\n      mstore\n      swap1\n      0x01\n      add\n      swap1\n      0x20\n      add\n      dup1\n      dup4\n      gt\n      tag_395\n      jumpi\n      dup3\n      swap1\n      sub\n      0x1f\n      and\n      dup3\n      add\n      swap2\n    tag_393:\n      pop\n      pop\n      pop\n      pop\n      pop\n      dup2\n      mstore\n      pop\n      pop\n        /* \"Storage.sol\":2367:2373  result */\n      dup4\n        /* \"Storage.sol\":2374:2375  j */\n      dup4\n        /* \"Storage.sol\":2367:2376  result[j] */\n      dup2\n      mload\n      dup2\n      lt\n      tag_396\n      jumpi\n      tag_397\n      tag_106\n      jump\t// in\n    tag_397:\n    tag_396:\n      0x20\n      mul\n      0x20\n      add\n      add\n        /* \"Storage.sol\":2367:2390  result[j] = diplomes[i] */\n      dup2\n      swap1\n      mstore\n      pop\n        /* \"Storage.sol\":2409:2412  j++ */\n      dup2\n      dup1\n      tag_398\n      swap1\n      tag_241\n      jump\t// in\n    tag_398:\n      swap3\n      pop\n      pop\n        /* \"Storage.sol\":2255:2428  if (keccak256(abi.encodePacked((diplomes[i].date))) == keccak256(abi.encodePacked((_date)))) {... */\n    tag_332:\n        /* \"Storage.sol\":2235:2238  i++ */\n      dup1\n      dup1\n      tag_399\n      swap1\n      tag_241\n      jump\t// in\n    tag_399:\n      swap2\n      pop\n      pop\n        /* \"Storage.sol\":2197:2439  for (uint i = 0; i < diplomes.length; i++) {... */\n      jump(tag_324)\n    tag_325:\n      pop\n        /* \"Storage.sol\":2458:2464  result */\n      dup2\n        /* \"Storage.sol\":2451:2464  return result */\n      swap4\n      pop\n      pop\n      pop\n      pop\n        /* \"Storage.sol\":1449:2472  function filterDiplomes(string memory _date) external view returns(Diplome[] memory) {... */\n      swap2\n      swap1\n      pop\n      jump\t// out\n    tag_153:\n      pop\n      dup1\n      sload\n      tag_400\n      swap1\n      tag_40\n      jump\t// in\n    tag_400:\n      0x00\n      dup3\n      sstore\n      dup1\n      0x1f\n      lt\n      tag_402\n      jumpi\n      pop\n      jump(tag_401)\n    tag_402:\n      0x1f\n      add\n      0x20\n      swap1\n      div\n      swap1\n      0x00\n      mstore\n      keccak256(0x00, 0x20)\n      swap1\n      dup2\n      add\n      swap1\n      tag_403\n      swap2\n      swap1\n      tag_404\n      jump\t// in\n    tag_403:\n    tag_401:\n      pop\n      jump\t// out\n    tag_166:\n      mload(0x40)\n      dup1\n      0x0180\n      add\n      0x40\n      mstore\n      dup1\n      0x60\n      dup2\n      mstore\n      0x20\n      add\n      0x60\n      dup2\n      mstore\n      0x20\n      add\n      0x60\n      dup2\n      mstore\n      0x20\n      add\n      0x60\n      dup2\n      mstore\n      0x20\n      add\n      0x60\n      dup2\n      mstore\n      0x20\n      add\n      0x60\n      dup2\n      mstore\n      0x20\n      add\n      0x60\n      dup2\n      mstore\n      0x20\n      add\n      0x60\n      dup2\n      mstore\n      0x20\n      add\n      0x60\n      dup2\n      mstore\n      0x20\n      add\n      0x60\n      dup2\n      mstore\n      0x20\n      add\n      0x60\n      dup2\n      mstore\n      0x20\n      add\n      0x60\n      dup2\n      mstore\n      pop\n      swap1\n      jump\t// out\n    tag_404:\n    tag_405:\n      dup1\n      dup3\n      gt\n      iszero\n      tag_406\n      jumpi\n      0x00\n      dup2\n      0x00\n      swap1\n      sstore\n      pop\n      0x01\n      add\n      jump(tag_405)\n    tag_406:\n      pop\n      swap1\n      jump\t// out\n        /* \"#utility.yul\":7:144   */\n    tag_407:\n        /* \"#utility.yul\":97:103   */\n      0x00\n        /* \"#utility.yul\":131:136   */\n      dup2\n        /* \"#utility.yul\":125:137   */\n      mload\n        /* \"#utility.yul\":115:137   */\n      swap1\n      pop\n        /* \"#utility.yul\":7:144   */\n      swap2\n      swap1\n      pop\n      jump\t// out\n        /* \"#utility.yul\":150:357   */\n    tag_408:\n        /* \"#utility.yul\":272:283   */\n      0x00\n        /* \"#utility.yul\":306:312   */\n      dup3\n        /* \"#utility.yul\":301:304   */\n      dup3\n        /* \"#utility.yul\":294:313   */\n      mstore\n        /* \"#utility.yul\":346:350   */\n      0x20\n        /* \"#utility.yul\":341:344   */\n      dup3\n        /* \"#utility.yul\":337:351   */\n      add\n        /* \"#utility.yul\":322:351   */\n      swap1\n      pop\n        /* \"#utility.yul\":150:357   */\n      swap3\n      swap2\n      pop\n      pop\n      jump\t// out\n        /* \"#utility.yul\":363:518   */\n    tag_409:\n        /* \"#utility.yul\":453:457   */\n      0x00\n        /* \"#utility.yul\":476:479   */\n      dup2\n        /* \"#utility.yul\":468:479   */\n      swap1\n      pop\n        /* \"#utility.yul\":506:510   */\n      0x20\n        /* \"#utility.yul\":501:504   */\n      dup3\n        /* \"#utility.yul\":497:511   */\n      add\n        /* \"#utility.yul\":489:511   */\n      swap1\n      pop\n        /* \"#utility.yul\":363:518   */\n      swap2\n      swap1\n      pop\n      jump\t// out\n        /* \"#utility.yul\":524:623   */\n    tag_410:\n        /* \"#utility.yul\":576:582   */\n      0x00\n        /* \"#utility.yul\":610:615   */\n      dup2\n        /* \"#utility.yul\":604:616   */\n      mload\n        /* \"#utility.yul\":594:616   */\n      swap1\n      pop\n        /* \"#utility.yul\":524:623   */\n      swap2\n      swap1\n      pop\n      jump\t// out\n        /* \"#utility.yul\":629:788   */\n    tag_411:\n        /* \"#utility.yul\":703:714   */\n      0x00\n        /* \"#utility.yul\":737:743   */\n      dup3\n        /* \"#utility.yul\":732:735   */\n      dup3\n        /* \"#utility.yul\":725:744   */\n      mstore\n        /* \"#utility.yul\":777:781   */\n      0x20\n        /* \"#utility.yul\":772:775   */\n      dup3\n        /* \"#utility.yul\":768:782   */\n      add\n        /* \"#utility.yul\":753:782   */\n      swap1\n      pop\n        /* \"#utility.yul\":629:788   */\n      swap3\n      swap2\n      pop\n      pop\n      jump\t// out\n        /* \"#utility.yul\":794:1040   */\n    tag_412:\n        /* \"#utility.yul\":875:876   */\n      0x00\n        /* \"#utility.yul\":885:998   */\n    tag_472:\n        /* \"#utility.yul\":899:905   */\n      dup4\n        /* \"#utility.yul\":896:897   */\n      dup2\n        /* \"#utility.yul\":893:906   */\n      lt\n        /* \"#utility.yul\":885:998   */\n      iszero\n      tag_474\n      jumpi\n        /* \"#utility.yul\":984:985   */\n      dup1\n        /* \"#utility.yul\":979:982   */\n      dup3\n        /* \"#utility.yul\":975:986   */\n      add\n        /* \"#utility.yul\":969:987   */\n      mload\n        /* \"#utility.yul\":965:966   */\n      dup2\n        /* \"#utility.yul\":960:963   */\n      dup5\n        /* \"#utility.yul\":956:967   */\n      add\n        /* \"#utility.yul\":949:988   */\n      mstore\n        /* \"#utility.yul\":921:923   */\n      0x20\n        /* \"#utility.yul\":918:919   */\n      dup2\n        /* \"#utility.yul\":914:924   */\n      add\n        /* \"#utility.yul\":909:924   */\n      swap1\n      pop\n        /* \"#utility.yul\":885:998   */\n      jump(tag_472)\n    tag_474:\n        /* \"#utility.yul\":1032:1033   */\n      0x00\n        /* \"#utility.yul\":1023:1029   */\n      dup5\n        /* \"#utility.yul\":1018:1021   */\n      dup5\n        /* \"#utility.yul\":1014:1030   */\n      add\n        /* \"#utility.yul\":1007:1034   */\n      mstore\n        /* \"#utility.yul\":856:1040   */\n      pop\n        /* \"#utility.yul\":794:1040   */\n      pop\n      pop\n      pop\n      jump\t// out\n        /* \"#utility.yul\":1046:1148   */\n    tag_413:\n        /* \"#utility.yul\":1087:1093   */\n      0x00\n        /* \"#utility.yul\":1138:1140   */\n      0x1f\n        /* \"#utility.yul\":1134:1141   */\n      not\n        /* \"#utility.yul\":1129:1131   */\n      0x1f\n        /* \"#utility.yul\":1122:1127   */\n      dup4\n        /* \"#utility.yul\":1118:1132   */\n      add\n        /* \"#utility.yul\":1114:1142   */\n      and\n        /* \"#utility.yul\":1104:1142   */\n      swap1\n      pop\n        /* \"#utility.yul\":1046:1148   */\n      swap2\n      swap1\n      pop\n      jump\t// out\n        /* \"#utility.yul\":1154:1511   */\n    tag_414:\n        /* \"#utility.yul\":1232:1235   */\n      0x00\n        /* \"#utility.yul\":1260:1299   */\n      tag_477\n        /* \"#utility.yul\":1293:1298   */\n      dup3\n        /* \"#utility.yul\":1260:1299   */\n      tag_410\n      jump\t// in\n    tag_477:\n        /* \"#utility.yul\":1315:1376   */\n      tag_478\n        /* \"#utility.yul\":1369:1375   */\n      dup2\n        /* \"#utility.yul\":1364:1367   */\n      dup6\n        /* \"#utility.yul\":1315:1376   */\n      tag_411\n      jump\t// in\n    tag_478:\n        /* \"#utility.yul\":1308:1376   */\n      swap4\n      pop\n        /* \"#utility.yul\":1385:1450   */\n      tag_479\n        /* \"#utility.yul\":1443:1449   */\n      dup2\n        /* \"#utility.yul\":1438:1441   */\n      dup6\n        /* \"#utility.yul\":1431:1435   */\n      0x20\n        /* \"#utility.yul\":1424:1429   */\n      dup7\n        /* \"#utility.yul\":1420:1436   */\n      add\n        /* \"#utility.yul\":1385:1450   */\n      tag_412\n      jump\t// in\n    tag_479:\n        /* \"#utility.yul\":1475:1504   */\n      tag_480\n        /* \"#utility.yul\":1497:1503   */\n      dup2\n        /* \"#utility.yul\":1475:1504   */\n      tag_413\n      jump\t// in\n    tag_480:\n        /* \"#utility.yul\":1470:1473   */\n      dup5\n        /* \"#utility.yul\":1466:1505   */\n      add\n        /* \"#utility.yul\":1459:1505   */\n      swap2\n      pop\n        /* \"#utility.yul\":1236:1511   */\n      pop\n        /* \"#utility.yul\":1154:1511   */\n      swap3\n      swap2\n      pop\n      pop\n      jump\t// out\n        /* \"#utility.yul\":1573:4756   */\n    tag_415:\n        /* \"#utility.yul\":1678:1681   */\n      0x00\n        /* \"#utility.yul\":1714:1720   */\n      0x0180\n        /* \"#utility.yul\":1709:1712   */\n      dup4\n        /* \"#utility.yul\":1705:1721   */\n      add\n        /* \"#utility.yul\":1802:1806   */\n      0x00\n        /* \"#utility.yul\":1795:1800   */\n      dup4\n        /* \"#utility.yul\":1791:1807   */\n      add\n        /* \"#utility.yul\":1785:1808   */\n      mload\n        /* \"#utility.yul\":1855:1858   */\n      dup5\n        /* \"#utility.yul\":1849:1853   */\n      dup3\n        /* \"#utility.yul\":1845:1859   */\n      sub\n        /* \"#utility.yul\":1838:1842   */\n      0x00\n        /* \"#utility.yul\":1833:1836   */\n      dup7\n        /* \"#utility.yul\":1829:1843   */\n      add\n        /* \"#utility.yul\":1822:1860   */\n      mstore\n        /* \"#utility.yul\":1881:1954   */\n      tag_482\n        /* \"#utility.yul\":1949:1953   */\n      dup3\n        /* \"#utility.yul\":1935:1947   */\n      dup3\n        /* \"#utility.yul\":1881:1954   */\n      tag_414\n      jump\t// in\n    tag_482:\n        /* \"#utility.yul\":1873:1954   */\n      swap2\n      pop\n        /* \"#utility.yul\":1731:1965   */\n      pop\n        /* \"#utility.yul\":2046:2050   */\n      0x20\n        /* \"#utility.yul\":2039:2044   */\n      dup4\n        /* \"#utility.yul\":2035:2051   */\n      add\n        /* \"#utility.yul\":2029:2052   */\n      mload\n        /* \"#utility.yul\":2099:2102   */\n      dup5\n        /* \"#utility.yul\":2093:2097   */\n      dup3\n        /* \"#utility.yul\":2089:2103   */\n      sub\n        /* \"#utility.yul\":2082:2086   */\n      0x20\n        /* \"#utility.yul\":2077:2080   */\n      dup7\n        /* \"#utility.yul\":2073:2087   */\n      add\n        /* \"#utility.yul\":2066:2104   */\n      mstore\n        /* \"#utility.yul\":2125:2198   */\n      tag_483\n        /* \"#utility.yul\":2193:2197   */\n      dup3\n        /* \"#utility.yul\":2179:2191   */\n      dup3\n        /* \"#utility.yul\":2125:2198   */\n      tag_414\n      jump\t// in\n    tag_483:\n        /* \"#utility.yul\":2117:2198   */\n      swap2\n      pop\n        /* \"#utility.yul\":1975:2209   */\n      pop\n        /* \"#utility.yul\":2296:2300   */\n      0x40\n        /* \"#utility.yul\":2289:2294   */\n      dup4\n        /* \"#utility.yul\":2285:2301   */\n      add\n        /* \"#utility.yul\":2279:2302   */\n      mload\n        /* \"#utility.yul\":2349:2352   */\n      dup5\n        /* \"#utility.yul\":2343:2347   */\n      dup3\n        /* \"#utility.yul\":2339:2353   */\n      sub\n        /* \"#utility.yul\":2332:2336   */\n      0x40\n        /* \"#utility.yul\":2327:2330   */\n      dup7\n        /* \"#utility.yul\":2323:2337   */\n      add\n        /* \"#utility.yul\":2316:2354   */\n      mstore\n        /* \"#utility.yul\":2375:2448   */\n      tag_484\n        /* \"#utility.yul\":2443:2447   */\n      dup3\n        /* \"#utility.yul\":2429:2441   */\n      dup3\n        /* \"#utility.yul\":2375:2448   */\n      tag_414\n      jump\t// in\n    tag_484:\n        /* \"#utility.yul\":2367:2448   */\n      swap2\n      pop\n        /* \"#utility.yul\":2219:2459   */\n      pop\n        /* \"#utility.yul\":2545:2549   */\n      0x60\n        /* \"#utility.yul\":2538:2543   */\n      dup4\n        /* \"#utility.yul\":2534:2550   */\n      add\n        /* \"#utility.yul\":2528:2551   */\n      mload\n        /* \"#utility.yul\":2598:2601   */\n      dup5\n        /* \"#utility.yul\":2592:2596   */\n      dup3\n        /* \"#utility.yul\":2588:2602   */\n      sub\n        /* \"#utility.yul\":2581:2585   */\n      0x60\n        /* \"#utility.yul\":2576:2579   */\n      dup7\n        /* \"#utility.yul\":2572:2586   */\n      add\n        /* \"#utility.yul\":2565:2603   */\n      mstore\n        /* \"#utility.yul\":2624:2697   */\n      tag_485\n        /* \"#utility.yul\":2692:2696   */\n      dup3\n        /* \"#utility.yul\":2678:2690   */\n      dup3\n        /* \"#utility.yul\":2624:2697   */\n      tag_414\n      jump\t// in\n    tag_485:\n        /* \"#utility.yul\":2616:2697   */\n      swap2\n      pop\n        /* \"#utility.yul\":2469:2708   */\n      pop\n        /* \"#utility.yul\":2795:2799   */\n      0x80\n        /* \"#utility.yul\":2788:2793   */\n      dup4\n        /* \"#utility.yul\":2784:2800   */\n      add\n        /* \"#utility.yul\":2778:2801   */\n      mload\n        /* \"#utility.yul\":2848:2851   */\n      dup5\n        /* \"#utility.yul\":2842:2846   */\n      dup3\n        /* \"#utility.yul\":2838:2852   */\n      sub\n        /* \"#utility.yul\":2831:2835   */\n      0x80\n        /* \"#utility.yul\":2826:2829   */\n      dup7\n        /* \"#utility.yul\":2822:2836   */\n      add\n        /* \"#utility.yul\":2815:2853   */\n      mstore\n        /* \"#utility.yul\":2874:2947   */\n      tag_486\n        /* \"#utility.yul\":2942:2946   */\n      dup3\n        /* \"#utility.yul\":2928:2940   */\n      dup3\n        /* \"#utility.yul\":2874:2947   */\n      tag_414\n      jump\t// in\n    tag_486:\n        /* \"#utility.yul\":2866:2947   */\n      swap2\n      pop\n        /* \"#utility.yul\":2718:2958   */\n      pop\n        /* \"#utility.yul\":3046:3050   */\n      0xa0\n        /* \"#utility.yul\":3039:3044   */\n      dup4\n        /* \"#utility.yul\":3035:3051   */\n      add\n        /* \"#utility.yul\":3029:3052   */\n      mload\n        /* \"#utility.yul\":3099:3102   */\n      dup5\n        /* \"#utility.yul\":3093:3097   */\n      dup3\n        /* \"#utility.yul\":3089:3103   */\n      sub\n        /* \"#utility.yul\":3082:3086   */\n      0xa0\n        /* \"#utility.yul\":3077:3080   */\n      dup7\n        /* \"#utility.yul\":3073:3087   */\n      add\n        /* \"#utility.yul\":3066:3104   */\n      mstore\n        /* \"#utility.yul\":3125:3198   */\n      tag_487\n        /* \"#utility.yul\":3193:3197   */\n      dup3\n        /* \"#utility.yul\":3179:3191   */\n      dup3\n        /* \"#utility.yul\":3125:3198   */\n      tag_414\n      jump\t// in\n    tag_487:\n        /* \"#utility.yul\":3117:3198   */\n      swap2\n      pop\n        /* \"#utility.yul\":2968:3209   */\n      pop\n        /* \"#utility.yul\":3301:3305   */\n      0xc0\n        /* \"#utility.yul\":3294:3299   */\n      dup4\n        /* \"#utility.yul\":3290:3306   */\n      add\n        /* \"#utility.yul\":3284:3307   */\n      mload\n        /* \"#utility.yul\":3354:3357   */\n      dup5\n        /* \"#utility.yul\":3348:3352   */\n      dup3\n        /* \"#utility.yul\":3344:3358   */\n      sub\n        /* \"#utility.yul\":3337:3341   */\n      0xc0\n        /* \"#utility.yul\":3332:3335   */\n      dup7\n        /* \"#utility.yul\":3328:3342   */\n      add\n        /* \"#utility.yul\":3321:3359   */\n      mstore\n        /* \"#utility.yul\":3380:3453   */\n      tag_488\n        /* \"#utility.yul\":3448:3452   */\n      dup3\n        /* \"#utility.yul\":3434:3446   */\n      dup3\n        /* \"#utility.yul\":3380:3453   */\n      tag_414\n      jump\t// in\n    tag_488:\n        /* \"#utility.yul\":3372:3453   */\n      swap2\n      pop\n        /* \"#utility.yul\":3219:3464   */\n      pop\n        /* \"#utility.yul\":3554:3558   */\n      0xe0\n        /* \"#utility.yul\":3547:3552   */\n      dup4\n        /* \"#utility.yul\":3543:3559   */\n      add\n        /* \"#utility.yul\":3537:3560   */\n      mload\n        /* \"#utility.yul\":3607:3610   */\n      dup5\n        /* \"#utility.yul\":3601:3605   */\n      dup3\n        /* \"#utility.yul\":3597:3611   */\n      sub\n        /* \"#utility.yul\":3590:3594   */\n      0xe0\n        /* \"#utility.yul\":3585:3588   */\n      dup7\n        /* \"#utility.yul\":3581:3595   */\n      add\n        /* \"#utility.yul\":3574:3612   */\n      mstore\n        /* \"#utility.yul\":3633:3706   */\n      tag_489\n        /* \"#utility.yul\":3701:3705   */\n      dup3\n        /* \"#utility.yul\":3687:3699   */\n      dup3\n        /* \"#utility.yul\":3633:3706   */\n      tag_414\n      jump\t// in\n    tag_489:\n        /* \"#utility.yul\":3625:3706   */\n      swap2\n      pop\n        /* \"#utility.yul\":3474:3717   */\n      pop\n        /* \"#utility.yul\":3806:3812   */\n      0x0100\n        /* \"#utility.yul\":3799:3804   */\n      dup4\n        /* \"#utility.yul\":3795:3813   */\n      add\n        /* \"#utility.yul\":3789:3814   */\n      mload\n        /* \"#utility.yul\":3863:3866   */\n      dup5\n        /* \"#utility.yul\":3857:3861   */\n      dup3\n        /* \"#utility.yul\":3853:3867   */\n      sub\n        /* \"#utility.yul\":3844:3850   */\n      0x0100\n        /* \"#utility.yul\":3839:3842   */\n      dup7\n        /* \"#utility.yul\":3835:3851   */\n      add\n        /* \"#utility.yul\":3828:3868   */\n      mstore\n        /* \"#utility.yul\":3889:3962   */\n      tag_490\n        /* \"#utility.yul\":3957:3961   */\n      dup3\n        /* \"#utility.yul\":3943:3955   */\n      dup3\n        /* \"#utility.yul\":3889:3962   */\n      tag_414\n      jump\t// in\n    tag_490:\n        /* \"#utility.yul\":3881:3962   */\n      swap2\n      pop\n        /* \"#utility.yul\":3727:3973   */\n      pop\n        /* \"#utility.yul\":4064:4070   */\n      0x0120\n        /* \"#utility.yul\":4057:4062   */\n      dup4\n        /* \"#utility.yul\":4053:4071   */\n      add\n        /* \"#utility.yul\":4047:4072   */\n      mload\n        /* \"#utility.yul\":4121:4124   */\n      dup5\n        /* \"#utility.yul\":4115:4119   */\n      dup3\n        /* \"#utility.yul\":4111:4125   */\n      sub\n        /* \"#utility.yul\":4102:4108   */\n      0x0120\n        /* \"#utility.yul\":4097:4100   */\n      dup7\n        /* \"#utility.yul\":4093:4109   */\n      add\n        /* \"#utility.yul\":4086:4126   */\n      mstore\n        /* \"#utility.yul\":4147:4220   */\n      tag_491\n        /* \"#utility.yul\":4215:4219   */\n      dup3\n        /* \"#utility.yul\":4201:4213   */\n      dup3\n        /* \"#utility.yul\":4147:4220   */\n      tag_414\n      jump\t// in\n    tag_491:\n        /* \"#utility.yul\":4139:4220   */\n      swap2\n      pop\n        /* \"#utility.yul\":3983:4231   */\n      pop\n        /* \"#utility.yul\":4313:4319   */\n      0x0140\n        /* \"#utility.yul\":4306:4311   */\n      dup4\n        /* \"#utility.yul\":4302:4320   */\n      add\n        /* \"#utility.yul\":4296:4321   */\n      mload\n        /* \"#utility.yul\":4370:4373   */\n      dup5\n        /* \"#utility.yul\":4364:4368   */\n      dup3\n        /* \"#utility.yul\":4360:4374   */\n      sub\n        /* \"#utility.yul\":4351:4357   */\n      0x0140\n        /* \"#utility.yul\":4346:4349   */\n      dup7\n        /* \"#utility.yul\":4342:4358   */\n      add\n        /* \"#utility.yul\":4335:4375   */\n      mstore\n        /* \"#utility.yul\":4396:4469   */\n      tag_492\n        /* \"#utility.yul\":4464:4468   */\n      dup3\n        /* \"#utility.yul\":4450:4462   */\n      dup3\n        /* \"#utility.yul\":4396:4469   */\n      tag_414\n      jump\t// in\n    tag_492:\n        /* \"#utility.yul\":4388:4469   */\n      swap2\n      pop\n        /* \"#utility.yul\":4241:4480   */\n      pop\n        /* \"#utility.yul\":4562:4568   */\n      0x0160\n        /* \"#utility.yul\":4555:4560   */\n      dup4\n        /* \"#utility.yul\":4551:4569   */\n      add\n        /* \"#utility.yul\":4545:4570   */\n      mload\n        /* \"#utility.yul\":4619:4622   */\n      dup5\n        /* \"#utility.yul\":4613:4617   */\n      dup3\n        /* \"#utility.yul\":4609:4623   */\n      sub\n        /* \"#utility.yul\":4600:4606   */\n      0x0160\n        /* \"#utility.yul\":4595:4598   */\n      dup7\n        /* \"#utility.yul\":4591:4607   */\n      add\n        /* \"#utility.yul\":4584:4624   */\n      mstore\n        /* \"#utility.yul\":4645:4718   */\n      tag_493\n        /* \"#utility.yul\":4713:4717   */\n      dup3\n        /* \"#utility.yul\":4699:4711   */\n      dup3\n        /* \"#utility.yul\":4645:4718   */\n      tag_414\n      jump\t// in\n    tag_493:\n        /* \"#utility.yul\":4637:4718   */\n      swap2\n      pop\n        /* \"#utility.yul\":4490:4729   */\n      pop\n        /* \"#utility.yul\":4746:4750   */\n      dup1\n        /* \"#utility.yul\":4739:4750   */\n      swap2\n      pop\n        /* \"#utility.yul\":1683:4756   */\n      pop\n        /* \"#utility.yul\":1573:4756   */\n      swap3\n      swap2\n      pop\n      pop\n      jump\t// out\n        /* \"#utility.yul\":4762:5010   */\n    tag_416:\n        /* \"#utility.yul\":4877:4887   */\n      0x00\n        /* \"#utility.yul\":4912:5004   */\n      tag_495\n        /* \"#utility.yul\":5000:5003   */\n      dup4\n        /* \"#utility.yul\":4992:4998   */\n      dup4\n        /* \"#utility.yul\":4912:5004   */\n      tag_415\n      jump\t// in\n    tag_495:\n        /* \"#utility.yul\":4898:5004   */\n      swap1\n      pop\n        /* \"#utility.yul\":4762:5010   */\n      swap3\n      swap2\n      pop\n      pop\n      jump\t// out\n        /* \"#utility.yul\":5016:5152   */\n    tag_417:\n        /* \"#utility.yul\":5109:5113   */\n      0x00\n        /* \"#utility.yul\":5141:5145   */\n      0x20\n        /* \"#utility.yul\":5136:5139   */\n      dup3\n        /* \"#utility.yul\":5132:5146   */\n      add\n        /* \"#utility.yul\":5124:5146   */\n      swap1\n      pop\n        /* \"#utility.yul\":5016:5152   */\n      swap2\n      swap1\n      pop\n      jump\t// out\n        /* \"#utility.yul\":5218:6313   */\n    tag_418:\n        /* \"#utility.yul\":5383:5386   */\n      0x00\n        /* \"#utility.yul\":5412:5489   */\n      tag_498\n        /* \"#utility.yul\":5483:5488   */\n      dup3\n        /* \"#utility.yul\":5412:5489   */\n      tag_407\n      jump\t// in\n    tag_498:\n        /* \"#utility.yul\":5505:5614   */\n      tag_499\n        /* \"#utility.yul\":5607:5613   */\n      dup2\n        /* \"#utility.yul\":5602:5605   */\n      dup6\n        /* \"#utility.yul\":5505:5614   */\n      tag_408\n      jump\t// in\n    tag_499:\n        /* \"#utility.yul\":5498:5614   */\n      swap4\n      pop\n        /* \"#utility.yul\":5640:5643   */\n      dup4\n        /* \"#utility.yul\":5685:5689   */\n      0x20\n        /* \"#utility.yul\":5677:5683   */\n      dup3\n        /* \"#utility.yul\":5673:5690   */\n      mul\n        /* \"#utility.yul\":5668:5671   */\n      dup6\n        /* \"#utility.yul\":5664:5691   */\n      add\n        /* \"#utility.yul\":5715:5794   */\n      tag_500\n        /* \"#utility.yul\":5788:5793   */\n      dup6\n        /* \"#utility.yul\":5715:5794   */\n      tag_409\n      jump\t// in\n    tag_500:\n        /* \"#utility.yul\":5817:5824   */\n      dup1\n        /* \"#utility.yul\":5848:5849   */\n      0x00\n        /* \"#utility.yul\":5833:6268   */\n    tag_501:\n        /* \"#utility.yul\":5858:5864   */\n      dup6\n        /* \"#utility.yul\":5855:5856   */\n      dup2\n        /* \"#utility.yul\":5852:5865   */\n      lt\n        /* \"#utility.yul\":5833:6268   */\n      iszero\n      tag_503\n      jumpi\n        /* \"#utility.yul\":5929:5938   */\n      dup5\n        /* \"#utility.yul\":5923:5927   */\n      dup5\n        /* \"#utility.yul\":5919:5939   */\n      sub\n        /* \"#utility.yul\":5914:5917   */\n      dup10\n        /* \"#utility.yul\":5907:5940   */\n      mstore\n        /* \"#utility.yul\":5980:5986   */\n      dup2\n        /* \"#utility.yul\":5974:5987   */\n      mload\n        /* \"#utility.yul\":6008:6118   */\n      tag_504\n        /* \"#utility.yul\":6113:6117   */\n      dup6\n        /* \"#utility.yul\":6098:6111   */\n      dup3\n        /* \"#utility.yul\":6008:6118   */\n      tag_416\n      jump\t// in\n    tag_504:\n        /* \"#utility.yul\":6000:6118   */\n      swap5\n      pop\n        /* \"#utility.yul\":6141:6224   */\n      tag_505\n        /* \"#utility.yul\":6217:6223   */\n      dup4\n        /* \"#utility.yul\":6141:6224   */\n      tag_417\n      jump\t// in\n    tag_505:\n        /* \"#utility.yul\":6131:6224   */\n      swap3\n      pop\n        /* \"#utility.yul\":6253:6257   */\n      0x20\n        /* \"#utility.yul\":6248:6251   */\n      dup11\n        /* \"#utility.yul\":6244:6258   */\n      add\n        /* \"#utility.yul\":6237:6258   */\n      swap10\n      pop\n        /* \"#utility.yul\":5893:6268   */\n      pop\n        /* \"#utility.yul\":5880:5881   */\n      0x01\n        /* \"#utility.yul\":5877:5878   */\n      dup2\n        /* \"#utility.yul\":5873:5882   */\n      add\n        /* \"#utility.yul\":5868:5882   */\n      swap1\n      pop\n        /* \"#utility.yul\":5833:6268   */\n      jump(tag_501)\n    tag_503:\n        /* \"#utility.yul\":5837:5851   */\n      pop\n        /* \"#utility.yul\":6284:6288   */\n      dup3\n        /* \"#utility.yul\":6277:6288   */\n      swap8\n      pop\n        /* \"#utility.yul\":6304:6307   */\n      dup8\n        /* \"#utility.yul\":6297:6307   */\n      swap6\n      pop\n        /* \"#utility.yul\":5388:6313   */\n      pop\n      pop\n      pop\n      pop\n      pop\n        /* \"#utility.yul\":5218:6313   */\n      swap3\n      swap2\n      pop\n      pop\n      jump\t// out\n        /* \"#utility.yul\":6319:6784   */\n    tag_12:\n        /* \"#utility.yul\":6508:6512   */\n      0x00\n        /* \"#utility.yul\":6546:6548   */\n      0x20\n        /* \"#utility.yul\":6535:6544   */\n      dup3\n        /* \"#utility.yul\":6531:6549   */\n      add\n        /* \"#utility.yul\":6523:6549   */\n      swap1\n      pop\n        /* \"#utility.yul\":6595:6604   */\n      dup2\n        /* \"#utility.yul\":6589:6593   */\n      dup2\n        /* \"#utility.yul\":6585:6605   */\n      sub\n        /* \"#utility.yul\":6581:6582   */\n      0x00\n        /* \"#utility.yul\":6570:6579   */\n      dup4\n        /* \"#utility.yul\":6566:6583   */\n      add\n        /* \"#utility.yul\":6559:6606   */\n      mstore\n        /* \"#utility.yul\":6623:6777   */\n      tag_507\n        /* \"#utility.yul\":6772:6776   */\n      dup2\n        /* \"#utility.yul\":6763:6769   */\n      dup5\n        /* \"#utility.yul\":6623:6777   */\n      tag_418\n      jump\t// in\n    tag_507:\n        /* \"#utility.yul\":6615:6777   */\n      swap1\n      pop\n        /* \"#utility.yul\":6319:6784   */\n      swap3\n      swap2\n      pop\n      pop\n      jump\t// out\n        /* \"#utility.yul\":6790:6865   */\n    tag_419:\n        /* \"#utility.yul\":6823:6829   */\n      0x00\n        /* \"#utility.yul\":6856:6858   */\n      0x40\n        /* \"#utility.yul\":6850:6859   */\n      mload\n        /* \"#utility.yul\":6840:6859   */\n      swap1\n      pop\n        /* \"#utility.yul\":6790:6865   */\n      swap1\n      jump\t// out\n        /* \"#utility.yul\":6871:6988   */\n    tag_420:\n        /* \"#utility.yul\":6980:6981   */\n      0x00\n        /* \"#utility.yul\":6977:6978   */\n      dup1\n        /* \"#utility.yul\":6970:6982   */\n      revert\n        /* \"#utility.yul\":6994:7111   */\n    tag_421:\n        /* \"#utility.yul\":7103:7104   */\n      0x00\n        /* \"#utility.yul\":7100:7101   */\n      dup1\n        /* \"#utility.yul\":7093:7105   */\n      revert\n        /* \"#utility.yul\":7117:7234   */\n    tag_422:\n        /* \"#utility.yul\":7226:7227   */\n      0x00\n        /* \"#utility.yul\":7223:7224   */\n      dup1\n        /* \"#utility.yul\":7216:7228   */\n      revert\n        /* \"#utility.yul\":7240:7420   */\n    tag_320:\n        /* \"#utility.yul\":7288:7365   */\n      0x4e487b7100000000000000000000000000000000000000000000000000000000\n        /* \"#utility.yul\":7285:7286   */\n      0x00\n        /* \"#utility.yul\":7278:7366   */\n      mstore\n        /* \"#utility.yul\":7385:7389   */\n      0x41\n        /* \"#utility.yul\":7382:7383   */\n      0x04\n        /* \"#utility.yul\":7375:7390   */\n      mstore\n        /* \"#utility.yul\":7409:7413   */\n      0x24\n        /* \"#utility.yul\":7406:7407   */\n      0x00\n        /* \"#utility.yul\":7399:7414   */\n      revert\n        /* \"#utility.yul\":7426:7707   */\n    tag_423:\n        /* \"#utility.yul\":7509:7536   */\n      tag_514\n        /* \"#utility.yul\":7531:7535   */\n      dup3\n        /* \"#utility.yul\":7509:7536   */\n      tag_413\n      jump\t// in\n    tag_514:\n        /* \"#utility.yul\":7501:7507   */\n      dup2\n        /* \"#utility.yul\":7497:7537   */\n      add\n        /* \"#utility.yul\":7639:7645   */\n      dup2\n        /* \"#utility.yul\":7627:7637   */\n      dup2\n        /* \"#utility.yul\":7624:7646   */\n      lt\n        /* \"#utility.yul\":7603:7621   */\n      0xffffffffffffffff\n        /* \"#utility.yul\":7591:7601   */\n      dup3\n        /* \"#utility.yul\":7588:7622   */\n      gt\n        /* \"#utility.yul\":7585:7647   */\n      or\n        /* \"#utility.yul\":7582:7670   */\n      iszero\n      tag_515\n      jumpi\n        /* \"#utility.yul\":7650:7668   */\n      tag_516\n      tag_320\n      jump\t// in\n    tag_516:\n        /* \"#utility.yul\":7582:7670   */\n    tag_515:\n        /* \"#utility.yul\":7690:7700   */\n      dup1\n        /* \"#utility.yul\":7686:7688   */\n      0x40\n        /* \"#utility.yul\":7679:7701   */\n      mstore\n        /* \"#utility.yul\":7469:7707   */\n      pop\n        /* \"#utility.yul\":7426:7707   */\n      pop\n      pop\n      jump\t// out\n        /* \"#utility.yul\":7713:7842   */\n    tag_424:\n        /* \"#utility.yul\":7747:7753   */\n      0x00\n        /* \"#utility.yul\":7774:7794   */\n      tag_518\n      tag_419\n      jump\t// in\n    tag_518:\n        /* \"#utility.yul\":7764:7794   */\n      swap1\n      pop\n        /* \"#utility.yul\":7803:7836   */\n      tag_519\n        /* \"#utility.yul\":7831:7835   */\n      dup3\n        /* \"#utility.yul\":7823:7829   */\n      dup3\n        /* \"#utility.yul\":7803:7836   */\n      tag_423\n      jump\t// in\n    tag_519:\n        /* \"#utility.yul\":7713:7842   */\n      swap2\n      swap1\n      pop\n      jump\t// out\n        /* \"#utility.yul\":7848:8169   */\n    tag_425:\n        /* \"#utility.yul\":7935:7939   */\n      0x00\n        /* \"#utility.yul\":8025:8043   */\n      0xffffffffffffffff\n        /* \"#utility.yul\":8017:8023   */\n      dup3\n        /* \"#utility.yul\":8014:8044   */\n      gt\n        /* \"#utility.yul\":8011:8067   */\n      iszero\n      tag_521\n      jumpi\n        /* \"#utility.yul\":8047:8065   */\n      tag_522\n      tag_320\n      jump\t// in\n    tag_522:\n        /* \"#utility.yul\":8011:8067   */\n    tag_521:\n        /* \"#utility.yul\":8097:8101   */\n      0x20\n        /* \"#utility.yul\":8089:8095   */\n      dup3\n        /* \"#utility.yul\":8085:8102   */\n      mul\n        /* \"#utility.yul\":8077:8102   */\n      swap1\n      pop\n        /* \"#utility.yul\":8157:8161   */\n      0x20\n        /* \"#utility.yul\":8151:8155   */\n      dup2\n        /* \"#utility.yul\":8147:8162   */\n      add\n        /* \"#utility.yul\":8139:8162   */\n      swap1\n      pop\n        /* \"#utility.yul\":7848:8169   */\n      swap2\n      swap1\n      pop\n      jump\t// out\n        /* \"#utility.yul\":8175:8292   */\n    tag_426:\n        /* \"#utility.yul\":8284:8285   */\n      0x00\n        /* \"#utility.yul\":8281:8282   */\n      dup1\n        /* \"#utility.yul\":8274:8286   */\n      revert\n        /* \"#utility.yul\":8298:8415   */\n    tag_427:\n        /* \"#utility.yul\":8407:8408   */\n      0x00\n        /* \"#utility.yul\":8404:8405   */\n      dup1\n        /* \"#utility.yul\":8397:8409   */\n      revert\n        /* \"#utility.yul\":8421:8729   */\n    tag_428:\n        /* \"#utility.yul\":8483:8487   */\n      0x00\n        /* \"#utility.yul\":8573:8591   */\n      0xffffffffffffffff\n        /* \"#utility.yul\":8565:8571   */\n      dup3\n        /* \"#utility.yul\":8562:8592   */\n      gt\n        /* \"#utility.yul\":8559:8615   */\n      iszero\n      tag_526\n      jumpi\n        /* \"#utility.yul\":8595:8613   */\n      tag_527\n      tag_320\n      jump\t// in\n    tag_527:\n        /* \"#utility.yul\":8559:8615   */\n    tag_526:\n        /* \"#utility.yul\":8633:8662   */\n      tag_528\n        /* \"#utility.yul\":8655:8661   */\n      dup3\n        /* \"#utility.yul\":8633:8662   */\n      tag_413\n      jump\t// in\n    tag_528:\n        /* \"#utility.yul\":8625:8662   */\n      swap1\n      pop\n        /* \"#utility.yul\":8717:8721   */\n      0x20\n        /* \"#utility.yul\":8711:8715   */\n      dup2\n        /* \"#utility.yul\":8707:8722   */\n      add\n        /* \"#utility.yul\":8699:8722   */\n      swap1\n      pop\n        /* \"#utility.yul\":8421:8729   */\n      swap2\n      swap1\n      pop\n      jump\t// out\n        /* \"#utility.yul\":8735:8881   */\n    tag_429:\n        /* \"#utility.yul\":8832:8838   */\n      dup3\n        /* \"#utility.yul\":8827:8830   */\n      dup2\n        /* \"#utility.yul\":8822:8825   */\n      dup4\n        /* \"#utility.yul\":8809:8839   */\n      calldatacopy\n        /* \"#utility.yul\":8873:8874   */\n      0x00\n        /* \"#utility.yul\":8864:8870   */\n      dup4\n        /* \"#utility.yul\":8859:8862   */\n      dup4\n        /* \"#utility.yul\":8855:8871   */\n      add\n        /* \"#utility.yul\":8848:8875   */\n      mstore\n        /* \"#utility.yul\":8735:8881   */\n      pop\n      pop\n      pop\n      jump\t// out\n        /* \"#utility.yul\":8887:9312   */\n    tag_430:\n        /* \"#utility.yul\":8965:8970   */\n      0x00\n        /* \"#utility.yul\":8990:9056   */\n      tag_531\n        /* \"#utility.yul\":9006:9055   */\n      tag_532\n        /* \"#utility.yul\":9048:9054   */\n      dup5\n        /* \"#utility.yul\":9006:9055   */\n      tag_428\n      jump\t// in\n    tag_532:\n        /* \"#utility.yul\":8990:9056   */\n      tag_424\n      jump\t// in\n    tag_531:\n        /* \"#utility.yul\":8981:9056   */\n      swap1\n      pop\n        /* \"#utility.yul\":9079:9085   */\n      dup3\n        /* \"#utility.yul\":9072:9077   */\n      dup2\n        /* \"#utility.yul\":9065:9086   */\n      mstore\n        /* \"#utility.yul\":9117:9121   */\n      0x20\n        /* \"#utility.yul\":9110:9115   */\n      dup2\n        /* \"#utility.yul\":9106:9122   */\n      add\n        /* \"#utility.yul\":9155:9158   */\n      dup5\n        /* \"#utility.yul\":9146:9152   */\n      dup5\n        /* \"#utility.yul\":9141:9144   */\n      dup5\n        /* \"#utility.yul\":9137:9153   */\n      add\n        /* \"#utility.yul\":9134:9159   */\n      gt\n        /* \"#utility.yul\":9131:9243   */\n      iszero\n      tag_533\n      jumpi\n        /* \"#utility.yul\":9162:9241   */\n      tag_534\n      tag_427\n      jump\t// in\n    tag_534:\n        /* \"#utility.yul\":9131:9243   */\n    tag_533:\n        /* \"#utility.yul\":9252:9306   */\n      tag_535\n        /* \"#utility.yul\":9299:9305   */\n      dup5\n        /* \"#utility.yul\":9294:9297   */\n      dup3\n        /* \"#utility.yul\":9289:9292   */\n      dup6\n        /* \"#utility.yul\":9252:9306   */\n      tag_429\n      jump\t// in\n    tag_535:\n        /* \"#utility.yul\":8971:9312   */\n      pop\n        /* \"#utility.yul\":8887:9312   */\n      swap4\n      swap3\n      pop\n      pop\n      pop\n      jump\t// out\n        /* \"#utility.yul\":9332:9672   */\n    tag_431:\n        /* \"#utility.yul\":9388:9393   */\n      0x00\n        /* \"#utility.yul\":9437:9440   */\n      dup3\n        /* \"#utility.yul\":9430:9434   */\n      0x1f\n        /* \"#utility.yul\":9422:9428   */\n      dup4\n        /* \"#utility.yul\":9418:9435   */\n      add\n        /* \"#utility.yul\":9414:9441   */\n      slt\n        /* \"#utility.yul\":9404:9526   */\n      tag_537\n      jumpi\n        /* \"#utility.yul\":9445:9524   */\n      tag_538\n      tag_422\n      jump\t// in\n    tag_538:\n        /* \"#utility.yul\":9404:9526   */\n    tag_537:\n        /* \"#utility.yul\":9562:9568   */\n      dup2\n        /* \"#utility.yul\":9549:9569   */\n      calldataload\n        /* \"#utility.yul\":9587:9666   */\n      tag_539\n        /* \"#utility.yul\":9662:9665   */\n      dup5\n        /* \"#utility.yul\":9654:9660   */\n      dup3\n        /* \"#utility.yul\":9647:9651   */\n      0x20\n        /* \"#utility.yul\":9639:9645   */\n      dup7\n        /* \"#utility.yul\":9635:9652   */\n      add\n        /* \"#utility.yul\":9587:9666   */\n      tag_430\n      jump\t// in\n    tag_539:\n        /* \"#utility.yul\":9578:9666   */\n      swap2\n      pop\n        /* \"#utility.yul\":9394:9672   */\n      pop\n        /* \"#utility.yul\":9332:9672   */\n      swap3\n      swap2\n      pop\n      pop\n      jump\t// out\n        /* \"#utility.yul\":9694:10639   */\n    tag_432:\n        /* \"#utility.yul\":9800:9805   */\n      0x00\n        /* \"#utility.yul\":9825:9916   */\n      tag_541\n        /* \"#utility.yul\":9841:9915   */\n      tag_542\n        /* \"#utility.yul\":9908:9914   */\n      dup5\n        /* \"#utility.yul\":9841:9915   */\n      tag_425\n      jump\t// in\n    tag_542:\n        /* \"#utility.yul\":9825:9916   */\n      tag_424\n      jump\t// in\n    tag_541:\n        /* \"#utility.yul\":9816:9916   */\n      swap1\n      pop\n        /* \"#utility.yul\":9936:9941   */\n      dup1\n        /* \"#utility.yul\":9965:9971   */\n      dup4\n        /* \"#utility.yul\":9958:9963   */\n      dup3\n        /* \"#utility.yul\":9951:9972   */\n      mstore\n        /* \"#utility.yul\":9999:10003   */\n      0x20\n        /* \"#utility.yul\":9992:9997   */\n      dup3\n        /* \"#utility.yul\":9988:10004   */\n      add\n        /* \"#utility.yul\":9981:10004   */\n      swap1\n      pop\n        /* \"#utility.yul\":10052:10056   */\n      0x20\n        /* \"#utility.yul\":10044:10050   */\n      dup5\n        /* \"#utility.yul\":10040:10057   */\n      mul\n        /* \"#utility.yul\":10032:10038   */\n      dup4\n        /* \"#utility.yul\":10028:10058   */\n      add\n        /* \"#utility.yul\":10081:10084   */\n      dup6\n        /* \"#utility.yul\":10073:10079   */\n      dup2\n        /* \"#utility.yul\":10070:10085   */\n      gt\n        /* \"#utility.yul\":10067:10189   */\n      iszero\n      tag_543\n      jumpi\n        /* \"#utility.yul\":10100:10179   */\n      tag_544\n      tag_426\n      jump\t// in\n    tag_544:\n        /* \"#utility.yul\":10067:10189   */\n    tag_543:\n        /* \"#utility.yul\":10215:10221   */\n      dup4\n        /* \"#utility.yul\":10198:10633   */\n    tag_545:\n        /* \"#utility.yul\":10232:10238   */\n      dup2\n        /* \"#utility.yul\":10227:10230   */\n      dup2\n        /* \"#utility.yul\":10224:10239   */\n      lt\n        /* \"#utility.yul\":10198:10633   */\n      iszero\n      tag_547\n      jumpi\n        /* \"#utility.yul\":10321:10324   */\n      dup1\n        /* \"#utility.yul\":10308:10325   */\n      calldataload\n        /* \"#utility.yul\":10357:10375   */\n      0xffffffffffffffff\n        /* \"#utility.yul\":10344:10355   */\n      dup2\n        /* \"#utility.yul\":10341:10376   */\n      gt\n        /* \"#utility.yul\":10338:10460   */\n      iszero\n      tag_548\n      jumpi\n        /* \"#utility.yul\":10379:10458   */\n      tag_549\n      tag_422\n      jump\t// in\n    tag_549:\n        /* \"#utility.yul\":10338:10460   */\n    tag_548:\n        /* \"#utility.yul\":10503:10514   */\n      dup1\n        /* \"#utility.yul\":10495:10501   */\n      dup7\n        /* \"#utility.yul\":10491:10515   */\n      add\n        /* \"#utility.yul\":10541:10588   */\n      tag_550\n        /* \"#utility.yul\":10584:10587   */\n      dup10\n        /* \"#utility.yul\":10572:10582   */\n      dup3\n        /* \"#utility.yul\":10541:10588   */\n      tag_431\n      jump\t// in\n    tag_550:\n        /* \"#utility.yul\":10536:10539   */\n      dup6\n        /* \"#utility.yul\":10529:10589   */\n      mstore\n        /* \"#utility.yul\":10618:10622   */\n      0x20\n        /* \"#utility.yul\":10613:10616   */\n      dup6\n        /* \"#utility.yul\":10609:10623   */\n      add\n        /* \"#utility.yul\":10602:10623   */\n      swap5\n      pop\n        /* \"#utility.yul\":10274:10633   */\n      pop\n      pop\n        /* \"#utility.yul\":10258:10262   */\n      0x20\n        /* \"#utility.yul\":10253:10256   */\n      dup2\n        /* \"#utility.yul\":10249:10263   */\n      add\n        /* \"#utility.yul\":10242:10263   */\n      swap1\n      pop\n        /* \"#utility.yul\":10198:10633   */\n      jump(tag_545)\n    tag_547:\n        /* \"#utility.yul\":10202:10223   */\n      pop\n        /* \"#utility.yul\":9806:10639   */\n      pop\n      pop\n        /* \"#utility.yul\":9694:10639   */\n      swap4\n      swap3\n      pop\n      pop\n      pop\n      jump\t// out\n        /* \"#utility.yul\":10661:11051   */\n    tag_433:\n        /* \"#utility.yul\":10742:10747   */\n      0x00\n        /* \"#utility.yul\":10791:10794   */\n      dup3\n        /* \"#utility.yul\":10784:10788   */\n      0x1f\n        /* \"#utility.yul\":10776:10782   */\n      dup4\n        /* \"#utility.yul\":10772:10789   */\n      add\n        /* \"#utility.yul\":10768:10795   */\n      slt\n        /* \"#utility.yul\":10758:10880   */\n      tag_552\n      jumpi\n        /* \"#utility.yul\":10799:10878   */\n      tag_553\n      tag_422\n      jump\t// in\n    tag_553:\n        /* \"#utility.yul\":10758:10880   */\n    tag_552:\n        /* \"#utility.yul\":10916:10922   */\n      dup2\n        /* \"#utility.yul\":10903:10923   */\n      calldataload\n        /* \"#utility.yul\":10941:11045   */\n      tag_554\n        /* \"#utility.yul\":11041:11044   */\n      dup5\n        /* \"#utility.yul\":11033:11039   */\n      dup3\n        /* \"#utility.yul\":11026:11030   */\n      0x20\n        /* \"#utility.yul\":11018:11024   */\n      dup7\n        /* \"#utility.yul\":11014:11031   */\n      add\n        /* \"#utility.yul\":10941:11045   */\n      tag_432\n      jump\t// in\n    tag_554:\n        /* \"#utility.yul\":10932:11045   */\n      swap2\n      pop\n        /* \"#utility.yul\":10748:11051   */\n      pop\n        /* \"#utility.yul\":10661:11051   */\n      swap3\n      swap2\n      pop\n      pop\n      jump\t// out\n        /* \"#utility.yul\":11057:11616   */\n    tag_15:\n        /* \"#utility.yul\":11151:11157   */\n      0x00\n        /* \"#utility.yul\":11200:11202   */\n      0x20\n        /* \"#utility.yul\":11188:11197   */\n      dup3\n        /* \"#utility.yul\":11179:11186   */\n      dup5\n        /* \"#utility.yul\":11175:11198   */\n      sub\n        /* \"#utility.yul\":11171:11203   */\n      slt\n        /* \"#utility.yul\":11168:11287   */\n      iszero\n      tag_556\n      jumpi\n        /* \"#utility.yul\":11206:11285   */\n      tag_557\n      tag_420\n      jump\t// in\n    tag_557:\n        /* \"#utility.yul\":11168:11287   */\n    tag_556:\n        /* \"#utility.yul\":11354:11355   */\n      0x00\n        /* \"#utility.yul\":11343:11352   */\n      dup3\n        /* \"#utility.yul\":11339:11356   */\n      add\n        /* \"#utility.yul\":11326:11357   */\n      calldataload\n        /* \"#utility.yul\":11384:11402   */\n      0xffffffffffffffff\n        /* \"#utility.yul\":11376:11382   */\n      dup2\n        /* \"#utility.yul\":11373:11403   */\n      gt\n        /* \"#utility.yul\":11370:11487   */\n      iszero\n      tag_558\n      jumpi\n        /* \"#utility.yul\":11406:11485   */\n      tag_559\n      tag_421\n      jump\t// in\n    tag_559:\n        /* \"#utility.yul\":11370:11487   */\n    tag_558:\n        /* \"#utility.yul\":11511:11599   */\n      tag_560\n        /* \"#utility.yul\":11591:11598   */\n      dup5\n        /* \"#utility.yul\":11582:11588   */\n      dup3\n        /* \"#utility.yul\":11571:11580   */\n      dup6\n        /* \"#utility.yul\":11567:11589   */\n      add\n        /* \"#utility.yul\":11511:11599   */\n      tag_433\n      jump\t// in\n    tag_560:\n        /* \"#utility.yul\":11501:11599   */\n      swap2\n      pop\n        /* \"#utility.yul\":11297:11609   */\n      pop\n        /* \"#utility.yul\":11057:11616   */\n      swap3\n      swap2\n      pop\n      pop\n      jump\t// out\n        /* \"#utility.yul\":11622:12131   */\n    tag_21:\n        /* \"#utility.yul\":11691:11697   */\n      0x00\n        /* \"#utility.yul\":11740:11742   */\n      0x20\n        /* \"#utility.yul\":11728:11737   */\n      dup3\n        /* \"#utility.yul\":11719:11726   */\n      dup5\n        /* \"#utility.yul\":11715:11738   */\n      sub\n        /* \"#utility.yul\":11711:11743   */\n      slt\n        /* \"#utility.yul\":11708:11827   */\n      iszero\n      tag_562\n      jumpi\n        /* \"#utility.yul\":11746:11825   */\n      tag_563\n      tag_420\n      jump\t// in\n    tag_563:\n        /* \"#utility.yul\":11708:11827   */\n    tag_562:\n        /* \"#utility.yul\":11894:11895   */\n      0x00\n        /* \"#utility.yul\":11883:11892   */\n      dup3\n        /* \"#utility.yul\":11879:11896   */\n      add\n        /* \"#utility.yul\":11866:11897   */\n      calldataload\n        /* \"#utility.yul\":11924:11942   */\n      0xffffffffffffffff\n        /* \"#utility.yul\":11916:11922   */\n      dup2\n        /* \"#utility.yul\":11913:11943   */\n      gt\n        /* \"#utility.yul\":11910:12027   */\n      iszero\n      tag_564\n      jumpi\n        /* \"#utility.yul\":11946:12025   */\n      tag_565\n      tag_421\n      jump\t// in\n    tag_565:\n        /* \"#utility.yul\":11910:12027   */\n    tag_564:\n        /* \"#utility.yul\":12051:12114   */\n      tag_566\n        /* \"#utility.yul\":12106:12113   */\n      dup5\n        /* \"#utility.yul\":12097:12103   */\n      dup3\n        /* \"#utility.yul\":12086:12095   */\n      dup6\n        /* \"#utility.yul\":12082:12104   */\n      add\n        /* \"#utility.yul\":12051:12114   */\n      tag_431\n      jump\t// in\n    tag_566:\n        /* \"#utility.yul\":12041:12114   */\n      swap2\n      pop\n        /* \"#utility.yul\":11837:12124   */\n      pop\n        /* \"#utility.yul\":11622:12131   */\n      swap3\n      swap2\n      pop\n      pop\n      jump\t// out\n        /* \"#utility.yul\":12193:15386   */\n    tag_434:\n        /* \"#utility.yul\":12308:12311   */\n      0x00\n        /* \"#utility.yul\":12344:12350   */\n      0x0180\n        /* \"#utility.yul\":12339:12342   */\n      dup4\n        /* \"#utility.yul\":12335:12351   */\n      add\n        /* \"#utility.yul\":12432:12436   */\n      0x00\n        /* \"#utility.yul\":12425:12430   */\n      dup4\n        /* \"#utility.yul\":12421:12437   */\n      add\n        /* \"#utility.yul\":12415:12438   */\n      mload\n        /* \"#utility.yul\":12485:12488   */\n      dup5\n        /* \"#utility.yul\":12479:12483   */\n      dup3\n        /* \"#utility.yul\":12475:12489   */\n      sub\n        /* \"#utility.yul\":12468:12472   */\n      0x00\n        /* \"#utility.yul\":12463:12466   */\n      dup7\n        /* \"#utility.yul\":12459:12473   */\n      add\n        /* \"#utility.yul\":12452:12490   */\n      mstore\n        /* \"#utility.yul\":12511:12584   */\n      tag_568\n        /* \"#utility.yul\":12579:12583   */\n      dup3\n        /* \"#utility.yul\":12565:12577   */\n      dup3\n        /* \"#utility.yul\":12511:12584   */\n      tag_414\n      jump\t// in\n    tag_568:\n        /* \"#utility.yul\":12503:12584   */\n      swap2\n      pop\n        /* \"#utility.yul\":12361:12595   */\n      pop\n        /* \"#utility.yul\":12676:12680   */\n      0x20\n        /* \"#utility.yul\":12669:12674   */\n      dup4\n        /* \"#utility.yul\":12665:12681   */\n      add\n        /* \"#utility.yul\":12659:12682   */\n      mload\n        /* \"#utility.yul\":12729:12732   */\n      dup5\n        /* \"#utility.yul\":12723:12727   */\n      dup3\n        /* \"#utility.yul\":12719:12733   */\n      sub\n        /* \"#utility.yul\":12712:12716   */\n      0x20\n        /* \"#utility.yul\":12707:12710   */\n      dup7\n        /* \"#utility.yul\":12703:12717   */\n      add\n        /* \"#utility.yul\":12696:12734   */\n      mstore\n        /* \"#utility.yul\":12755:12828   */\n      tag_569\n        /* \"#utility.yul\":12823:12827   */\n      dup3\n        /* \"#utility.yul\":12809:12821   */\n      dup3\n        /* \"#utility.yul\":12755:12828   */\n      tag_414\n      jump\t// in\n    tag_569:\n        /* \"#utility.yul\":12747:12828   */\n      swap2\n      pop\n        /* \"#utility.yul\":12605:12839   */\n      pop\n        /* \"#utility.yul\":12926:12930   */\n      0x40\n        /* \"#utility.yul\":12919:12924   */\n      dup4\n        /* \"#utility.yul\":12915:12931   */\n      add\n        /* \"#utility.yul\":12909:12932   */\n      mload\n        /* \"#utility.yul\":12979:12982   */\n      dup5\n        /* \"#utility.yul\":12973:12977   */\n      dup3\n        /* \"#utility.yul\":12969:12983   */\n      sub\n        /* \"#utility.yul\":12962:12966   */\n      0x40\n        /* \"#utility.yul\":12957:12960   */\n      dup7\n        /* \"#utility.yul\":12953:12967   */\n      add\n        /* \"#utility.yul\":12946:12984   */\n      mstore\n        /* \"#utility.yul\":13005:13078   */\n      tag_570\n        /* \"#utility.yul\":13073:13077   */\n      dup3\n        /* \"#utility.yul\":13059:13071   */\n      dup3\n        /* \"#utility.yul\":13005:13078   */\n      tag_414\n      jump\t// in\n    tag_570:\n        /* \"#utility.yul\":12997:13078   */\n      swap2\n      pop\n        /* \"#utility.yul\":12849:13089   */\n      pop\n        /* \"#utility.yul\":13175:13179   */\n      0x60\n        /* \"#utility.yul\":13168:13173   */\n      dup4\n        /* \"#utility.yul\":13164:13180   */\n      add\n        /* \"#utility.yul\":13158:13181   */\n      mload\n        /* \"#utility.yul\":13228:13231   */\n      dup5\n        /* \"#utility.yul\":13222:13226   */\n      dup3\n        /* \"#utility.yul\":13218:13232   */\n      sub\n        /* \"#utility.yul\":13211:13215   */\n      0x60\n        /* \"#utility.yul\":13206:13209   */\n      dup7\n        /* \"#utility.yul\":13202:13216   */\n      add\n        /* \"#utility.yul\":13195:13233   */\n      mstore\n        /* \"#utility.yul\":13254:13327   */\n      tag_571\n        /* \"#utility.yul\":13322:13326   */\n      dup3\n        /* \"#utility.yul\":13308:13320   */\n      dup3\n        /* \"#utility.yul\":13254:13327   */\n      tag_414\n      jump\t// in\n    tag_571:\n        /* \"#utility.yul\":13246:13327   */\n      swap2\n      pop\n        /* \"#utility.yul\":13099:13338   */\n      pop\n        /* \"#utility.yul\":13425:13429   */\n      0x80\n        /* \"#utility.yul\":13418:13423   */\n      dup4\n        /* \"#utility.yul\":13414:13430   */\n      add\n        /* \"#utility.yul\":13408:13431   */\n      mload\n        /* \"#utility.yul\":13478:13481   */\n      dup5\n        /* \"#utility.yul\":13472:13476   */\n      dup3\n        /* \"#utility.yul\":13468:13482   */\n      sub\n        /* \"#utility.yul\":13461:13465   */\n      0x80\n        /* \"#utility.yul\":13456:13459   */\n      dup7\n        /* \"#utility.yul\":13452:13466   */\n      add\n        /* \"#utility.yul\":13445:13483   */\n      mstore\n        /* \"#utility.yul\":13504:13577   */\n      tag_572\n        /* \"#utility.yul\":13572:13576   */\n      dup3\n        /* \"#utility.yul\":13558:13570   */\n      dup3\n        /* \"#utility.yul\":13504:13577   */\n      tag_414\n      jump\t// in\n    tag_572:\n        /* \"#utility.yul\":13496:13577   */\n      swap2\n      pop\n        /* \"#utility.yul\":13348:13588   */\n      pop\n        /* \"#utility.yul\":13676:13680   */\n      0xa0\n        /* \"#utility.yul\":13669:13674   */\n      dup4\n        /* \"#utility.yul\":13665:13681   */\n      add\n        /* \"#utility.yul\":13659:13682   */\n      mload\n        /* \"#utility.yul\":13729:13732   */\n      dup5\n        /* \"#utility.yul\":13723:13727   */\n      dup3\n        /* \"#utility.yul\":13719:13733   */\n      sub\n        /* \"#utility.yul\":13712:13716   */\n      0xa0\n        /* \"#utility.yul\":13707:13710   */\n      dup7\n        /* \"#utility.yul\":13703:13717   */\n      add\n        /* \"#utility.yul\":13696:13734   */\n      mstore\n        /* \"#utility.yul\":13755:13828   */\n      tag_573\n        /* \"#utility.yul\":13823:13827   */\n      dup3\n        /* \"#utility.yul\":13809:13821   */\n      dup3\n        /* \"#utility.yul\":13755:13828   */\n      tag_414\n      jump\t// in\n    tag_573:\n        /* \"#utility.yul\":13747:13828   */\n      swap2\n      pop\n        /* \"#utility.yul\":13598:13839   */\n      pop\n        /* \"#utility.yul\":13931:13935   */\n      0xc0\n        /* \"#utility.yul\":13924:13929   */\n      dup4\n        /* \"#utility.yul\":13920:13936   */\n      add\n        /* \"#utility.yul\":13914:13937   */\n      mload\n        /* \"#utility.yul\":13984:13987   */\n      dup5\n        /* \"#utility.yul\":13978:13982   */\n      dup3\n        /* \"#utility.yul\":13974:13988   */\n      sub\n        /* \"#utility.yul\":13967:13971   */\n      0xc0\n        /* \"#utility.yul\":13962:13965   */\n      dup7\n        /* \"#utility.yul\":13958:13972   */\n      add\n        /* \"#utility.yul\":13951:13989   */\n      mstore\n        /* \"#utility.yul\":14010:14083   */\n      tag_574\n        /* \"#utility.yul\":14078:14082   */\n      dup3\n        /* \"#utility.yul\":14064:14076   */\n      dup3\n        /* \"#utility.yul\":14010:14083   */\n      tag_414\n      jump\t// in\n    tag_574:\n        /* \"#utility.yul\":14002:14083   */\n      swap2\n      pop\n        /* \"#utility.yul\":13849:14094   */\n      pop\n        /* \"#utility.yul\":14184:14188   */\n      0xe0\n        /* \"#utility.yul\":14177:14182   */\n      dup4\n        /* \"#utility.yul\":14173:14189   */\n      add\n        /* \"#utility.yul\":14167:14190   */\n      mload\n        /* \"#utility.yul\":14237:14240   */\n      dup5\n        /* \"#utility.yul\":14231:14235   */\n      dup3\n        /* \"#utility.yul\":14227:14241   */\n      sub\n        /* \"#utility.yul\":14220:14224   */\n      0xe0\n        /* \"#utility.yul\":14215:14218   */\n      dup7\n        /* \"#utility.yul\":14211:14225   */\n      add\n        /* \"#utility.yul\":14204:14242   */\n      mstore\n        /* \"#utility.yul\":14263:14336   */\n      tag_575\n        /* \"#utility.yul\":14331:14335   */\n      dup3\n        /* \"#utility.yul\":14317:14329   */\n      dup3\n        /* \"#utility.yul\":14263:14336   */\n      tag_414\n      jump\t// in\n    tag_575:\n        /* \"#utility.yul\":14255:14336   */\n      swap2\n      pop\n        /* \"#utility.yul\":14104:14347   */\n      pop\n        /* \"#utility.yul\":14436:14442   */\n      0x0100\n        /* \"#utility.yul\":14429:14434   */\n      dup4\n        /* \"#utility.yul\":14425:14443   */\n      add\n        /* \"#utility.yul\":14419:14444   */\n      mload\n        /* \"#utility.yul\":14493:14496   */\n      dup5\n        /* \"#utility.yul\":14487:14491   */\n      dup3\n        /* \"#utility.yul\":14483:14497   */\n      sub\n        /* \"#utility.yul\":14474:14480   */\n      0x0100\n        /* \"#utility.yul\":14469:14472   */\n      dup7\n        /* \"#utility.yul\":14465:14481   */\n      add\n        /* \"#utility.yul\":14458:14498   */\n      mstore\n        /* \"#utility.yul\":14519:14592   */\n      tag_576\n        /* \"#utility.yul\":14587:14591   */\n      dup3\n        /* \"#utility.yul\":14573:14585   */\n      dup3\n        /* \"#utility.yul\":14519:14592   */\n      tag_414\n      jump\t// in\n    tag_576:\n        /* \"#utility.yul\":14511:14592   */\n      swap2\n      pop\n        /* \"#utility.yul\":14357:14603   */\n      pop\n        /* \"#utility.yul\":14694:14700   */\n      0x0120\n        /* \"#utility.yul\":14687:14692   */\n      dup4\n        /* \"#utility.yul\":14683:14701   */\n      add\n        /* \"#utility.yul\":14677:14702   */\n      mload\n        /* \"#utility.yul\":14751:14754   */\n      dup5\n        /* \"#utility.yul\":14745:14749   */\n      dup3\n        /* \"#utility.yul\":14741:14755   */\n      sub\n        /* \"#utility.yul\":14732:14738   */\n      0x0120\n        /* \"#utility.yul\":14727:14730   */\n      dup7\n        /* \"#utility.yul\":14723:14739   */\n      add\n        /* \"#utility.yul\":14716:14756   */\n      mstore\n        /* \"#utility.yul\":14777:14850   */\n      tag_577\n        /* \"#utility.yul\":14845:14849   */\n      dup3\n        /* \"#utility.yul\":14831:14843   */\n      dup3\n        /* \"#utility.yul\":14777:14850   */\n      tag_414\n      jump\t// in\n    tag_577:\n        /* \"#utility.yul\":14769:14850   */\n      swap2\n      pop\n        /* \"#utility.yul\":14613:14861   */\n      pop\n        /* \"#utility.yul\":14943:14949   */\n      0x0140\n        /* \"#utility.yul\":14936:14941   */\n      dup4\n        /* \"#utility.yul\":14932:14950   */\n      add\n        /* \"#utility.yul\":14926:14951   */\n      mload\n        /* \"#utility.yul\":15000:15003   */\n      dup5\n        /* \"#utility.yul\":14994:14998   */\n      dup3\n        /* \"#utility.yul\":14990:15004   */\n      sub\n        /* \"#utility.yul\":14981:14987   */\n      0x0140\n        /* \"#utility.yul\":14976:14979   */\n      dup7\n        /* \"#utility.yul\":14972:14988   */\n      add\n        /* \"#utility.yul\":14965:15005   */\n      mstore\n        /* \"#utility.yul\":15026:15099   */\n      tag_578\n        /* \"#utility.yul\":15094:15098   */\n      dup3\n        /* \"#utility.yul\":15080:15092   */\n      dup3\n        /* \"#utility.yul\":15026:15099   */\n      tag_414\n      jump\t// in\n    tag_578:\n        /* \"#utility.yul\":15018:15099   */\n      swap2\n      pop\n        /* \"#utility.yul\":14871:15110   */\n      pop\n        /* \"#utility.yul\":15192:15198   */\n      0x0160\n        /* \"#utility.yul\":15185:15190   */\n      dup4\n        /* \"#utility.yul\":15181:15199   */\n      add\n        /* \"#utility.yul\":15175:15200   */\n      mload\n        /* \"#utility.yul\":15249:15252   */\n      dup5\n        /* \"#utility.yul\":15243:15247   */\n      dup3\n        /* \"#utility.yul\":15239:15253   */\n      sub\n        /* \"#utility.yul\":15230:15236   */\n      0x0160\n        /* \"#utility.yul\":15225:15228   */\n      dup7\n        /* \"#utility.yul\":15221:15237   */\n      add\n        /* \"#utility.yul\":15214:15254   */\n      mstore\n        /* \"#utility.yul\":15275:15348   */\n      tag_579\n        /* \"#utility.yul\":15343:15347   */\n      dup3\n        /* \"#utility.yul\":15329:15341   */\n      dup3\n        /* \"#utility.yul\":15275:15348   */\n      tag_414\n      jump\t// in\n    tag_579:\n        /* \"#utility.yul\":15267:15348   */\n      swap2\n      pop\n        /* \"#utility.yul\":15120:15359   */\n      pop\n        /* \"#utility.yul\":15376:15380   */\n      dup1\n        /* \"#utility.yul\":15369:15380   */\n      swap2\n      pop\n        /* \"#utility.yul\":12313:15386   */\n      pop\n        /* \"#utility.yul\":12193:15386   */\n      swap3\n      swap2\n      pop\n      pop\n      jump\t// out\n        /* \"#utility.yul\":15392:15757   */\n    tag_24:\n        /* \"#utility.yul\":15531:15535   */\n      0x00\n        /* \"#utility.yul\":15569:15571   */\n      0x20\n        /* \"#utility.yul\":15558:15567   */\n      dup3\n        /* \"#utility.yul\":15554:15572   */\n      add\n        /* \"#utility.yul\":15546:15572   */\n      swap1\n      pop\n        /* \"#utility.yul\":15618:15627   */\n      dup2\n        /* \"#utility.yul\":15612:15616   */\n      dup2\n        /* \"#utility.yul\":15608:15628   */\n      sub\n        /* \"#utility.yul\":15604:15605   */\n      0x00\n        /* \"#utility.yul\":15593:15602   */\n      dup4\n        /* \"#utility.yul\":15589:15606   */\n      add\n        /* \"#utility.yul\":15582:15629   */\n      mstore\n        /* \"#utility.yul\":15646:15750   */\n      tag_581\n        /* \"#utility.yul\":15745:15749   */\n      dup2\n        /* \"#utility.yul\":15736:15742   */\n      dup5\n        /* \"#utility.yul\":15646:15750   */\n      tag_434\n      jump\t// in\n    tag_581:\n        /* \"#utility.yul\":15638:15750   */\n      swap1\n      pop\n        /* \"#utility.yul\":15392:15757   */\n      swap3\n      swap2\n      pop\n      pop\n      jump\t// out\n        /* \"#utility.yul\":15763:15840   */\n    tag_435:\n        /* \"#utility.yul\":15800:15807   */\n      0x00\n        /* \"#utility.yul\":15829:15834   */\n      dup2\n        /* \"#utility.yul\":15818:15834   */\n      swap1\n      pop\n        /* \"#utility.yul\":15763:15840   */\n      swap2\n      swap1\n      pop\n      jump\t// out\n        /* \"#utility.yul\":15846:15968   */\n    tag_436:\n        /* \"#utility.yul\":15919:15943   */\n      tag_584\n        /* \"#utility.yul\":15937:15942   */\n      dup2\n        /* \"#utility.yul\":15919:15943   */\n      tag_435\n      jump\t// in\n    tag_584:\n        /* \"#utility.yul\":15912:15917   */\n      dup2\n        /* \"#utility.yul\":15909:15944   */\n      eq\n        /* \"#utility.yul\":15899:15962   */\n      tag_585\n      jumpi\n        /* \"#utility.yul\":15958:15959   */\n      0x00\n        /* \"#utility.yul\":15955:15956   */\n      dup1\n        /* \"#utility.yul\":15948:15960   */\n      revert\n        /* \"#utility.yul\":15899:15962   */\n    tag_585:\n        /* \"#utility.yul\":15846:15968   */\n      pop\n      jump\t// out\n        /* \"#utility.yul\":15974:16113   */\n    tag_437:\n        /* \"#utility.yul\":16020:16025   */\n      0x00\n        /* \"#utility.yul\":16058:16064   */\n      dup2\n        /* \"#utility.yul\":16045:16065   */\n      calldataload\n        /* \"#utility.yul\":16036:16065   */\n      swap1\n      pop\n        /* \"#utility.yul\":16074:16107   */\n      tag_587\n        /* \"#utility.yul\":16101:16106   */\n      dup2\n        /* \"#utility.yul\":16074:16107   */\n      tag_436\n      jump\t// in\n    tag_587:\n        /* \"#utility.yul\":15974:16113   */\n      swap3\n      swap2\n      pop\n      pop\n      jump\t// out\n        /* \"#utility.yul\":16119:16448   */\n    tag_27:\n        /* \"#utility.yul\":16178:16184   */\n      0x00\n        /* \"#utility.yul\":16227:16229   */\n      0x20\n        /* \"#utility.yul\":16215:16224   */\n      dup3\n        /* \"#utility.yul\":16206:16213   */\n      dup5\n        /* \"#utility.yul\":16202:16225   */\n      sub\n        /* \"#utility.yul\":16198:16230   */\n      slt\n        /* \"#utility.yul\":16195:16314   */\n      iszero\n      tag_589\n      jumpi\n        /* \"#utility.yul\":16233:16312   */\n      tag_590\n      tag_420\n      jump\t// in\n    tag_590:\n        /* \"#utility.yul\":16195:16314   */\n    tag_589:\n        /* \"#utility.yul\":16353:16354   */\n      0x00\n        /* \"#utility.yul\":16378:16431   */\n      tag_591\n        /* \"#utility.yul\":16423:16430   */\n      dup5\n        /* \"#utility.yul\":16414:16420   */\n      dup3\n        /* \"#utility.yul\":16403:16412   */\n      dup6\n        /* \"#utility.yul\":16399:16421   */\n      add\n        /* \"#utility.yul\":16378:16431   */\n      tag_437\n      jump\t// in\n    tag_591:\n        /* \"#utility.yul\":16368:16431   */\n      swap2\n      pop\n        /* \"#utility.yul\":16324:16441   */\n      pop\n        /* \"#utility.yul\":16119:16448   */\n      swap3\n      swap2\n      pop\n      pop\n      jump\t// out\n        /* \"#utility.yul\":16454:16623   */\n    tag_438:\n        /* \"#utility.yul\":16538:16549   */\n      0x00\n        /* \"#utility.yul\":16572:16578   */\n      dup3\n        /* \"#utility.yul\":16567:16570   */\n      dup3\n        /* \"#utility.yul\":16560:16579   */\n      mstore\n        /* \"#utility.yul\":16612:16616   */\n      0x20\n        /* \"#utility.yul\":16607:16610   */\n      dup3\n        /* \"#utility.yul\":16603:16617   */\n      add\n        /* \"#utility.yul\":16588:16617   */\n      swap1\n      pop\n        /* \"#utility.yul\":16454:16623   */\n      swap3\n      swap2\n      pop\n      pop\n      jump\t// out\n        /* \"#utility.yul\":16629:17006   */\n    tag_439:\n        /* \"#utility.yul\":16717:16720   */\n      0x00\n        /* \"#utility.yul\":16745:16784   */\n      tag_594\n        /* \"#utility.yul\":16778:16783   */\n      dup3\n        /* \"#utility.yul\":16745:16784   */\n      tag_410\n      jump\t// in\n    tag_594:\n        /* \"#utility.yul\":16800:16871   */\n      tag_595\n        /* \"#utility.yul\":16864:16870   */\n      dup2\n        /* \"#utility.yul\":16859:16862   */\n      dup6\n        /* \"#utility.yul\":16800:16871   */\n      tag_438\n      jump\t// in\n    tag_595:\n        /* \"#utility.yul\":16793:16871   */\n      swap4\n      pop\n        /* \"#utility.yul\":16880:16945   */\n      tag_596\n        /* \"#utility.yul\":16938:16944   */\n      dup2\n        /* \"#utility.yul\":16933:16936   */\n      dup6\n        /* \"#utility.yul\":16926:16930   */\n      0x20\n        /* \"#utility.yul\":16919:16924   */\n      dup7\n        /* \"#utility.yul\":16915:16931   */\n      add\n        /* \"#utility.yul\":16880:16945   */\n      tag_412\n      jump\t// in\n    tag_596:\n        /* \"#utility.yul\":16970:16999   */\n      tag_597\n        /* \"#utility.yul\":16992:16998   */\n      dup2\n        /* \"#utility.yul\":16970:16999   */\n      tag_413\n      jump\t// in\n    tag_597:\n        /* \"#utility.yul\":16965:16968   */\n      dup5\n        /* \"#utility.yul\":16961:17000   */\n      add\n        /* \"#utility.yul\":16954:17000   */\n      swap2\n      pop\n        /* \"#utility.yul\":16721:17006   */\n      pop\n        /* \"#utility.yul\":16629:17006   */\n      swap3\n      swap2\n      pop\n      pop\n      jump\t// out\n        /* \"#utility.yul\":17012:19549   */\n    tag_30:\n        /* \"#utility.yul\":17655:17659   */\n      0x00\n        /* \"#utility.yul\":17693:17696   */\n      0x0180\n        /* \"#utility.yul\":17682:17691   */\n      dup3\n        /* \"#utility.yul\":17678:17697   */\n      add\n        /* \"#utility.yul\":17670:17697   */\n      swap1\n      pop\n        /* \"#utility.yul\":17743:17752   */\n      dup2\n        /* \"#utility.yul\":17737:17741   */\n      dup2\n        /* \"#utility.yul\":17733:17753   */\n      sub\n        /* \"#utility.yul\":17729:17730   */\n      0x00\n        /* \"#utility.yul\":17718:17727   */\n      dup4\n        /* \"#utility.yul\":17714:17731   */\n      add\n        /* \"#utility.yul\":17707:17754   */\n      mstore\n        /* \"#utility.yul\":17771:17849   */\n      tag_599\n        /* \"#utility.yul\":17844:17848   */\n      dup2\n        /* \"#utility.yul\":17835:17841   */\n      dup16\n        /* \"#utility.yul\":17771:17849   */\n      tag_439\n      jump\t// in\n    tag_599:\n        /* \"#utility.yul\":17763:17849   */\n      swap1\n      pop\n        /* \"#utility.yul\":17896:17905   */\n      dup2\n        /* \"#utility.yul\":17890:17894   */\n      dup2\n        /* \"#utility.yul\":17886:17906   */\n      sub\n        /* \"#utility.yul\":17881:17883   */\n      0x20\n        /* \"#utility.yul\":17870:17879   */\n      dup4\n        /* \"#utility.yul\":17866:17884   */\n      add\n        /* \"#utility.yul\":17859:17907   */\n      mstore\n        /* \"#utility.yul\":17924:18002   */\n      tag_600\n        /* \"#utility.yul\":17997:18001   */\n      dup2\n        /* \"#utility.yul\":17988:17994   */\n      dup15\n        /* \"#utility.yul\":17924:18002   */\n      tag_439\n      jump\t// in\n    tag_600:\n        /* \"#utility.yul\":17916:18002   */\n      swap1\n      pop\n        /* \"#utility.yul\":18049:18058   */\n      dup2\n        /* \"#utility.yul\":18043:18047   */\n      dup2\n        /* \"#utility.yul\":18039:18059   */\n      sub\n        /* \"#utility.yul\":18034:18036   */\n      0x40\n        /* \"#utility.yul\":18023:18032   */\n      dup4\n        /* \"#utility.yul\":18019:18037   */\n      add\n        /* \"#utility.yul\":18012:18060   */\n      mstore\n        /* \"#utility.yul\":18077:18155   */\n      tag_601\n        /* \"#utility.yul\":18150:18154   */\n      dup2\n        /* \"#utility.yul\":18141:18147   */\n      dup14\n        /* \"#utility.yul\":18077:18155   */\n      tag_439\n      jump\t// in\n    tag_601:\n        /* \"#utility.yul\":18069:18155   */\n      swap1\n      pop\n        /* \"#utility.yul\":18202:18211   */\n      dup2\n        /* \"#utility.yul\":18196:18200   */\n      dup2\n        /* \"#utility.yul\":18192:18212   */\n      sub\n        /* \"#utility.yul\":18187:18189   */\n      0x60\n        /* \"#utility.yul\":18176:18185   */\n      dup4\n        /* \"#utility.yul\":18172:18190   */\n      add\n        /* \"#utility.yul\":18165:18213   */\n      mstore\n        /* \"#utility.yul\":18230:18308   */\n      tag_602\n        /* \"#utility.yul\":18303:18307   */\n      dup2\n        /* \"#utility.yul\":18294:18300   */\n      dup13\n        /* \"#utility.yul\":18230:18308   */\n      tag_439\n      jump\t// in\n    tag_602:\n        /* \"#utility.yul\":18222:18308   */\n      swap1\n      pop\n        /* \"#utility.yul\":18356:18365   */\n      dup2\n        /* \"#utility.yul\":18350:18354   */\n      dup2\n        /* \"#utility.yul\":18346:18366   */\n      sub\n        /* \"#utility.yul\":18340:18343   */\n      0x80\n        /* \"#utility.yul\":18329:18338   */\n      dup4\n        /* \"#utility.yul\":18325:18344   */\n      add\n        /* \"#utility.yul\":18318:18367   */\n      mstore\n        /* \"#utility.yul\":18384:18462   */\n      tag_603\n        /* \"#utility.yul\":18457:18461   */\n      dup2\n        /* \"#utility.yul\":18448:18454   */\n      dup12\n        /* \"#utility.yul\":18384:18462   */\n      tag_439\n      jump\t// in\n    tag_603:\n        /* \"#utility.yul\":18376:18462   */\n      swap1\n      pop\n        /* \"#utility.yul\":18510:18519   */\n      dup2\n        /* \"#utility.yul\":18504:18508   */\n      dup2\n        /* \"#utility.yul\":18500:18520   */\n      sub\n        /* \"#utility.yul\":18494:18497   */\n      0xa0\n        /* \"#utility.yul\":18483:18492   */\n      dup4\n        /* \"#utility.yul\":18479:18498   */\n      add\n        /* \"#utility.yul\":18472:18521   */\n      mstore\n        /* \"#utility.yul\":18538:18616   */\n      tag_604\n        /* \"#utility.yul\":18611:18615   */\n      dup2\n        /* \"#utility.yul\":18602:18608   */\n      dup11\n        /* \"#utility.yul\":18538:18616   */\n      tag_439\n      jump\t// in\n    tag_604:\n        /* \"#utility.yul\":18530:18616   */\n      swap1\n      pop\n        /* \"#utility.yul\":18664:18673   */\n      dup2\n        /* \"#utility.yul\":18658:18662   */\n      dup2\n        /* \"#utility.yul\":18654:18674   */\n      sub\n        /* \"#utility.yul\":18648:18651   */\n      0xc0\n        /* \"#utility.yul\":18637:18646   */\n      dup4\n        /* \"#utility.yul\":18633:18652   */\n      add\n        /* \"#utility.yul\":18626:18675   */\n      mstore\n        /* \"#utility.yul\":18692:18770   */\n      tag_605\n        /* \"#utility.yul\":18765:18769   */\n      dup2\n        /* \"#utility.yul\":18756:18762   */\n      dup10\n        /* \"#utility.yul\":18692:18770   */\n      tag_439\n      jump\t// in\n    tag_605:\n        /* \"#utility.yul\":18684:18770   */\n      swap1\n      pop\n        /* \"#utility.yul\":18818:18827   */\n      dup2\n        /* \"#utility.yul\":18812:18816   */\n      dup2\n        /* \"#utility.yul\":18808:18828   */\n      sub\n        /* \"#utility.yul\":18802:18805   */\n      0xe0\n        /* \"#utility.yul\":18791:18800   */\n      dup4\n        /* \"#utility.yul\":18787:18806   */\n      add\n        /* \"#utility.yul\":18780:18829   */\n      mstore\n        /* \"#utility.yul\":18846:18924   */\n      tag_606\n        /* \"#utility.yul\":18919:18923   */\n      dup2\n        /* \"#utility.yul\":18910:18916   */\n      dup9\n        /* \"#utility.yul\":18846:18924   */\n      tag_439\n      jump\t// in\n    tag_606:\n        /* \"#utility.yul\":18838:18924   */\n      swap1\n      pop\n        /* \"#utility.yul\":18972:18981   */\n      dup2\n        /* \"#utility.yul\":18966:18970   */\n      dup2\n        /* \"#utility.yul\":18962:18982   */\n      sub\n        /* \"#utility.yul\":18956:18959   */\n      0x0100\n        /* \"#utility.yul\":18945:18954   */\n      dup4\n        /* \"#utility.yul\":18941:18960   */\n      add\n        /* \"#utility.yul\":18934:18983   */\n      mstore\n        /* \"#utility.yul\":19000:19078   */\n      tag_607\n        /* \"#utility.yul\":19073:19077   */\n      dup2\n        /* \"#utility.yul\":19064:19070   */\n      dup8\n        /* \"#utility.yul\":19000:19078   */\n      tag_439\n      jump\t// in\n    tag_607:\n        /* \"#utility.yul\":18992:19078   */\n      swap1\n      pop\n        /* \"#utility.yul\":19126:19135   */\n      dup2\n        /* \"#utility.yul\":19120:19124   */\n      dup2\n        /* \"#utility.yul\":19116:19136   */\n      sub\n        /* \"#utility.yul\":19110:19113   */\n      0x0120\n        /* \"#utility.yul\":19099:19108   */\n      dup4\n        /* \"#utility.yul\":19095:19114   */\n      add\n        /* \"#utility.yul\":19088:19137   */\n      mstore\n        /* \"#utility.yul\":19154:19232   */\n      tag_608\n        /* \"#utility.yul\":19227:19231   */\n      dup2\n        /* \"#utility.yul\":19218:19224   */\n      dup7\n        /* \"#utility.yul\":19154:19232   */\n      tag_439\n      jump\t// in\n    tag_608:\n        /* \"#utility.yul\":19146:19232   */\n      swap1\n      pop\n        /* \"#utility.yul\":19280:19289   */\n      dup2\n        /* \"#utility.yul\":19274:19278   */\n      dup2\n        /* \"#utility.yul\":19270:19290   */\n      sub\n        /* \"#utility.yul\":19264:19267   */\n      0x0140\n        /* \"#utility.yul\":19253:19262   */\n      dup4\n        /* \"#utility.yul\":19249:19268   */\n      add\n        /* \"#utility.yul\":19242:19291   */\n      mstore\n        /* \"#utility.yul\":19308:19387   */\n      tag_609\n        /* \"#utility.yul\":19382:19386   */\n      dup2\n        /* \"#utility.yul\":19372:19379   */\n      dup6\n        /* \"#utility.yul\":19308:19387   */\n      tag_439\n      jump\t// in\n    tag_609:\n        /* \"#utility.yul\":19300:19387   */\n      swap1\n      pop\n        /* \"#utility.yul\":19435:19444   */\n      dup2\n        /* \"#utility.yul\":19429:19433   */\n      dup2\n        /* \"#utility.yul\":19425:19445   */\n      sub\n        /* \"#utility.yul\":19419:19422   */\n      0x0160\n        /* \"#utility.yul\":19408:19417   */\n      dup4\n        /* \"#utility.yul\":19404:19423   */\n      add\n        /* \"#utility.yul\":19397:19446   */\n      mstore\n        /* \"#utility.yul\":19463:19542   */\n      tag_610\n        /* \"#utility.yul\":19537:19541   */\n      dup2\n        /* \"#utility.yul\":19527:19534   */\n      dup5\n        /* \"#utility.yul\":19463:19542   */\n      tag_439\n      jump\t// in\n    tag_610:\n        /* \"#utility.yul\":19455:19542   */\n      swap1\n      pop\n        /* \"#utility.yul\":17012:19549   */\n      swap14\n      swap13\n      pop\n      pop\n      pop\n      pop\n      pop\n      pop\n      pop\n      pop\n      pop\n      pop\n      pop\n      pop\n      pop\n      jump\t// out\n        /* \"#utility.yul\":19555:19735   */\n    tag_440:\n        /* \"#utility.yul\":19603:19680   */\n      0x4e487b7100000000000000000000000000000000000000000000000000000000\n        /* \"#utility.yul\":19600:19601   */\n      0x00\n        /* \"#utility.yul\":19593:19681   */\n      mstore\n        /* \"#utility.yul\":19700:19704   */\n      0x22\n        /* \"#utility.yul\":19697:19698   */\n      0x04\n        /* \"#utility.yul\":19690:19705   */\n      mstore\n        /* \"#utility.yul\":19724:19728   */\n      0x24\n        /* \"#utility.yul\":19721:19722   */\n      0x00\n        /* \"#utility.yul\":19714:19729   */\n      revert\n        /* \"#utility.yul\":19741:20061   */\n    tag_40:\n        /* \"#utility.yul\":19785:19791   */\n      0x00\n        /* \"#utility.yul\":19822:19823   */\n      0x02\n        /* \"#utility.yul\":19816:19820   */\n      dup3\n        /* \"#utility.yul\":19812:19824   */\n      div\n        /* \"#utility.yul\":19802:19824   */\n      swap1\n      pop\n        /* \"#utility.yul\":19869:19870   */\n      0x01\n        /* \"#utility.yul\":19863:19867   */\n      dup3\n        /* \"#utility.yul\":19859:19871   */\n      and\n        /* \"#utility.yul\":19890:19908   */\n      dup1\n        /* \"#utility.yul\":19880:19961   */\n      tag_613\n      jumpi\n        /* \"#utility.yul\":19946:19950   */\n      0x7f\n        /* \"#utility.yul\":19938:19944   */\n      dup3\n        /* \"#utility.yul\":19934:19951   */\n      and\n        /* \"#utility.yul\":19924:19951   */\n      swap2\n      pop\n        /* \"#utility.yul\":19880:19961   */\n    tag_613:\n        /* \"#utility.yul\":20008:20010   */\n      0x20\n        /* \"#utility.yul\":20000:20006   */\n      dup3\n        /* \"#utility.yul\":19997:20011   */\n      lt\n        /* \"#utility.yul\":19977:19995   */\n      dup2\n        /* \"#utility.yul\":19974:20012   */\n      sub\n        /* \"#utility.yul\":19971:20055   */\n      tag_614\n      jumpi\n        /* \"#utility.yul\":20027:20045   */\n      tag_615\n      tag_440\n      jump\t// in\n    tag_615:\n        /* \"#utility.yul\":19971:20055   */\n    tag_614:\n        /* \"#utility.yul\":19792:20061   */\n      pop\n        /* \"#utility.yul\":19741:20061   */\n      swap2\n      swap1\n      pop\n      jump\t// out\n        /* \"#utility.yul\":20067:20356   */\n    tag_441:\n        /* \"#utility.yul\":20207:20241   */\n      0x4572726f7220736f6d6520706172616d6574657273206d697373696e672e2053\n        /* \"#utility.yul\":20203:20204   */\n      0x00\n        /* \"#utility.yul\":20195:20201   */\n      dup3\n        /* \"#utility.yul\":20191:20205   */\n      add\n        /* \"#utility.yul\":20184:20242   */\n      mstore\n        /* \"#utility.yul\":20276:20310   */\n      0x686f756c64206265206174206c6561737420313120706172616d657465722031\n        /* \"#utility.yul\":20271:20273   */\n      0x20\n        /* \"#utility.yul\":20263:20269   */\n      dup3\n        /* \"#utility.yul\":20259:20274   */\n      add\n        /* \"#utility.yul\":20252:20311   */\n      mstore\n        /* \"#utility.yul\":20345:20348   */\n      0x3200000000000000000000000000000000000000000000000000000000000000\n        /* \"#utility.yul\":20340:20342   */\n      0x40\n        /* \"#utility.yul\":20332:20338   */\n      dup3\n        /* \"#utility.yul\":20328:20343   */\n      add\n        /* \"#utility.yul\":20321:20349   */\n      mstore\n        /* \"#utility.yul\":20067:20356   */\n      pop\n      jump\t// out\n        /* \"#utility.yul\":20362:20728   */\n    tag_442:\n        /* \"#utility.yul\":20504:20507   */\n      0x00\n        /* \"#utility.yul\":20525:20592   */\n      tag_618\n        /* \"#utility.yul\":20589:20591   */\n      0x41\n        /* \"#utility.yul\":20584:20587   */\n      dup4\n        /* \"#utility.yul\":20525:20592   */\n      tag_438\n      jump\t// in\n    tag_618:\n        /* \"#utility.yul\":20518:20592   */\n      swap2\n      pop\n        /* \"#utility.yul\":20601:20694   */\n      tag_619\n        /* \"#utility.yul\":20690:20693   */\n      dup3\n        /* \"#utility.yul\":20601:20694   */\n      tag_441\n      jump\t// in\n    tag_619:\n        /* \"#utility.yul\":20719:20721   */\n      0x60\n        /* \"#utility.yul\":20714:20717   */\n      dup3\n        /* \"#utility.yul\":20710:20722   */\n      add\n        /* \"#utility.yul\":20703:20722   */\n      swap1\n      pop\n        /* \"#utility.yul\":20362:20728   */\n      swap2\n      swap1\n      pop\n      jump\t// out\n        /* \"#utility.yul\":20734:21153   */\n    tag_103:\n        /* \"#utility.yul\":20900:20904   */\n      0x00\n        /* \"#utility.yul\":20938:20940   */\n      0x20\n        /* \"#utility.yul\":20927:20936   */\n      dup3\n        /* \"#utility.yul\":20923:20941   */\n      add\n        /* \"#utility.yul\":20915:20941   */\n      swap1\n      pop\n        /* \"#utility.yul\":20987:20996   */\n      dup2\n        /* \"#utility.yul\":20981:20985   */\n      dup2\n        /* \"#utility.yul\":20977:20997   */\n      sub\n        /* \"#utility.yul\":20973:20974   */\n      0x00\n        /* \"#utility.yul\":20962:20971   */\n      dup4\n        /* \"#utility.yul\":20958:20975   */\n      add\n        /* \"#utility.yul\":20951:20998   */\n      mstore\n        /* \"#utility.yul\":21015:21146   */\n      tag_621\n        /* \"#utility.yul\":21141:21145   */\n      dup2\n        /* \"#utility.yul\":21015:21146   */\n      tag_442\n      jump\t// in\n    tag_621:\n        /* \"#utility.yul\":21007:21146   */\n      swap1\n      pop\n        /* \"#utility.yul\":20734:21153   */\n      swap2\n      swap1\n      pop\n      jump\t// out\n        /* \"#utility.yul\":21159:21339   */\n    tag_106:\n        /* \"#utility.yul\":21207:21284   */\n      0x4e487b7100000000000000000000000000000000000000000000000000000000\n        /* \"#utility.yul\":21204:21205   */\n      0x00\n        /* \"#utility.yul\":21197:21285   */\n      mstore\n        /* \"#utility.yul\":21304:21308   */\n      0x32\n        /* \"#utility.yul\":21301:21302   */\n      0x04\n        /* \"#utility.yul\":21294:21309   */\n      mstore\n        /* \"#utility.yul\":21328:21332   */\n      0x24\n        /* \"#utility.yul\":21325:21326   */\n      0x00\n        /* \"#utility.yul\":21318:21333   */\n      revert\n        /* \"#utility.yul\":21345:21486   */\n    tag_443:\n        /* \"#utility.yul\":21394:21398   */\n      0x00\n        /* \"#utility.yul\":21417:21420   */\n      dup2\n        /* \"#utility.yul\":21409:21420   */\n      swap1\n      pop\n        /* \"#utility.yul\":21440:21443   */\n      dup2\n        /* \"#utility.yul\":21437:21438   */\n      0x00\n        /* \"#utility.yul\":21430:21444   */\n      mstore\n        /* \"#utility.yul\":21474:21478   */\n      0x20\n        /* \"#utility.yul\":21471:21472   */\n      0x00\n        /* \"#utility.yul\":21461:21479   */\n      keccak256\n        /* \"#utility.yul\":21453:21479   */\n      swap1\n      pop\n        /* \"#utility.yul\":21345:21486   */\n      swap2\n      swap1\n      pop\n      jump\t// out\n        /* \"#utility.yul\":21492:21585   */\n    tag_444:\n        /* \"#utility.yul\":21529:21535   */\n      0x00\n        /* \"#utility.yul\":21576:21578   */\n      0x20\n        /* \"#utility.yul\":21571:21573   */\n      0x1f\n        /* \"#utility.yul\":21564:21569   */\n      dup4\n        /* \"#utility.yul\":21560:21574   */\n      add\n        /* \"#utility.yul\":21556:21579   */\n      div\n        /* \"#utility.yul\":21546:21579   */\n      swap1\n      pop\n        /* \"#utility.yul\":21492:21585   */\n      swap2\n      swap1\n      pop\n      jump\t// out\n        /* \"#utility.yul\":21591:21698   */\n    tag_445:\n        /* \"#utility.yul\":21635:21643   */\n      0x00\n        /* \"#utility.yul\":21685:21690   */\n      dup3\n        /* \"#utility.yul\":21679:21683   */\n      dup3\n        /* \"#utility.yul\":21675:21691   */\n      shl\n        /* \"#utility.yul\":21654:21691   */\n      swap1\n      pop\n        /* \"#utility.yul\":21591:21698   */\n      swap3\n      swap2\n      pop\n      pop\n      jump\t// out\n        /* \"#utility.yul\":21704:22097   */\n    tag_446:\n        /* \"#utility.yul\":21773:21779   */\n      0x00\n        /* \"#utility.yul\":21823:21824   */\n      0x08\n        /* \"#utility.yul\":21811:21821   */\n      dup4\n        /* \"#utility.yul\":21807:21825   */\n      mul\n        /* \"#utility.yul\":21846:21943   */\n      tag_627\n        /* \"#utility.yul\":21876:21942   */\n      0xffffffffffffffffffffffffffffffffffffffffffffffffffffffffffffffff\n        /* \"#utility.yul\":21865:21874   */\n      dup3\n        /* \"#utility.yul\":21846:21943   */\n      tag_445\n      jump\t// in\n    tag_627:\n        /* \"#utility.yul\":21964:22003   */\n      tag_628\n        /* \"#utility.yul\":21994:22002   */\n      dup7\n        /* \"#utility.yul\":21983:21992   */\n      dup4\n        /* \"#utility.yul\":21964:22003   */\n      tag_445\n      jump\t// in\n    tag_628:\n        /* \"#utility.yul\":21952:22003   */\n      swap6\n      pop\n        /* \"#utility.yul\":22036:22040   */\n      dup1\n        /* \"#utility.yul\":22032:22041   */\n      not\n        /* \"#utility.yul\":22025:22030   */\n      dup5\n        /* \"#utility.yul\":22021:22042   */\n      and\n        /* \"#utility.yul\":22012:22042   */\n      swap4\n      pop\n        /* \"#utility.yul\":22085:22089   */\n      dup1\n        /* \"#utility.yul\":22075:22083   */\n      dup7\n        /* \"#utility.yul\":22071:22090   */\n      and\n        /* \"#utility.yul\":22064:22069   */\n      dup5\n        /* \"#utility.yul\":22061:22091   */\n      or\n        /* \"#utility.yul\":22051:22091   */\n      swap3\n      pop\n        /* \"#utility.yul\":21780:22097   */\n      pop\n      pop\n        /* \"#utility.yul\":21704:22097   */\n      swap4\n      swap3\n      pop\n      pop\n      pop\n      jump\t// out\n        /* \"#utility.yul\":22103:22163   */\n    tag_447:\n        /* \"#utility.yul\":22131:22134   */\n      0x00\n        /* \"#utility.yul\":22152:22157   */\n      dup2\n        /* \"#utility.yul\":22145:22157   */\n      swap1\n      pop\n        /* \"#utility.yul\":22103:22163   */\n      swap2\n      swap1\n      pop\n      jump\t// out\n        /* \"#utility.yul\":22169:22311   */\n    tag_448:\n        /* \"#utility.yul\":22219:22228   */\n      0x00\n        /* \"#utility.yul\":22252:22305   */\n      tag_631\n        /* \"#utility.yul\":22270:22304   */\n      tag_632\n        /* \"#utility.yul\":22279:22303   */\n      tag_633\n        /* \"#utility.yul\":22297:22302   */\n      dup5\n        /* \"#utility.yul\":22279:22303   */\n      tag_435\n      jump\t// in\n    tag_633:\n        /* \"#utility.yul\":22270:22304   */\n      tag_447\n      jump\t// in\n    tag_632:\n        /* \"#utility.yul\":22252:22305   */\n      tag_435\n      jump\t// in\n    tag_631:\n        /* \"#utility.yul\":22239:22305   */\n      swap1\n      pop\n        /* \"#utility.yul\":22169:22311   */\n      swap2\n      swap1\n      pop\n      jump\t// out\n        /* \"#utility.yul\":22317:22392   */\n    tag_449:\n        /* \"#utility.yul\":22360:22363   */\n      0x00\n        /* \"#utility.yul\":22381:22386   */\n      dup2\n        /* \"#utility.yul\":22374:22386   */\n      swap1\n      pop\n        /* \"#utility.yul\":22317:22392   */\n      swap2\n      swap1\n      pop\n      jump\t// out\n        /* \"#utility.yul\":22398:22667   */\n    tag_450:\n        /* \"#utility.yul\":22508:22547   */\n      tag_636\n        /* \"#utility.yul\":22539:22546   */\n      dup4\n        /* \"#utility.yul\":22508:22547   */\n      tag_448\n      jump\t// in\n    tag_636:\n        /* \"#utility.yul\":22569:22660   */\n      tag_637\n        /* \"#utility.yul\":22618:22659   */\n      tag_638\n        /* \"#utility.yul\":22642:22658   */\n      dup3\n        /* \"#utility.yul\":22618:22659   */\n      tag_449\n      jump\t// in\n    tag_638:\n        /* \"#utility.yul\":22610:22616   */\n      dup5\n        /* \"#utility.yul\":22603:22607   */\n      dup5\n        /* \"#utility.yul\":22597:22608   */\n      sload\n        /* \"#utility.yul\":22569:22660   */\n      tag_446\n      jump\t// in\n    tag_637:\n        /* \"#utility.yul\":22563:22567   */\n      dup3\n        /* \"#utility.yul\":22556:22661   */\n      sstore\n        /* \"#utility.yul\":22474:22667   */\n      pop\n        /* \"#utility.yul\":22398:22667   */\n      pop\n      pop\n      pop\n      jump\t// out\n        /* \"#utility.yul\":22673:22746   */\n    tag_451:\n        /* \"#utility.yul\":22718:22721   */\n      0x00\n        /* \"#utility.yul\":22673:22746   */\n      swap1\n      jump\t// out\n        /* \"#utility.yul\":22752:22941   */\n    tag_452:\n        /* \"#utility.yul\":22829:22861   */\n      tag_641\n      tag_451\n      jump\t// in\n    tag_641:\n        /* \"#utility.yul\":22870:22935   */\n      tag_642\n        /* \"#utility.yul\":22928:22934   */\n      dup2\n        /* \"#utility.yul\":22920:22926   */\n      dup5\n        /* \"#utility.yul\":22914:22918   */\n      dup5\n        /* \"#utility.yul\":22870:22935   */\n      tag_450\n      jump\t// in\n    tag_642:\n        /* \"#utility.yul\":22805:22941   */\n      pop\n        /* \"#utility.yul\":22752:22941   */\n      pop\n      pop\n      jump\t// out\n        /* \"#utility.yul\":22947:23133   */\n    tag_453:\n        /* \"#utility.yul\":23007:23127   */\n    tag_644:\n        /* \"#utility.yul\":23024:23027   */\n      dup2\n        /* \"#utility.yul\":23017:23022   */\n      dup2\n        /* \"#utility.yul\":23014:23028   */\n      lt\n        /* \"#utility.yul\":23007:23127   */\n      iszero\n      tag_646\n      jumpi\n        /* \"#utility.yul\":23078:23117   */\n      tag_647\n        /* \"#utility.yul\":23115:23116   */\n      0x00\n        /* \"#utility.yul\":23108:23113   */\n      dup3\n        /* \"#utility.yul\":23078:23117   */\n      tag_452\n      jump\t// in\n    tag_647:\n        /* \"#utility.yul\":23051:23052   */\n      0x01\n        /* \"#utility.yul\":23044:23049   */\n      dup2\n        /* \"#utility.yul\":23040:23053   */\n      add\n        /* \"#utility.yul\":23031:23053   */\n      swap1\n      pop\n        /* \"#utility.yul\":23007:23127   */\n      jump(tag_644)\n    tag_646:\n        /* \"#utility.yul\":22947:23133   */\n      pop\n      pop\n      jump\t// out\n        /* \"#utility.yul\":23139:23682   */\n    tag_454:\n        /* \"#utility.yul\":23240:23242   */\n      0x1f\n        /* \"#utility.yul\":23235:23238   */\n      dup3\n        /* \"#utility.yul\":23232:23243   */\n      gt\n        /* \"#utility.yul\":23229:23675   */\n      iszero\n      tag_649\n      jumpi\n        /* \"#utility.yul\":23274:23312   */\n      tag_650\n        /* \"#utility.yul\":23306:23311   */\n      dup2\n        /* \"#utility.yul\":23274:23312   */\n      tag_443\n      jump\t// in\n    tag_650:\n        /* \"#utility.yul\":23358:23387   */\n      tag_651\n        /* \"#utility.yul\":23376:23386   */\n      dup5\n        /* \"#utility.yul\":23358:23387   */\n      tag_444\n      jump\t// in\n    tag_651:\n        /* \"#utility.yul\":23348:23356   */\n      dup2\n        /* \"#utility.yul\":23344:23388   */\n      add\n        /* \"#utility.yul\":23541:23543   */\n      0x20\n        /* \"#utility.yul\":23529:23539   */\n      dup6\n        /* \"#utility.yul\":23526:23544   */\n      lt\n        /* \"#utility.yul\":23523:23572   */\n      iszero\n      tag_652\n      jumpi\n        /* \"#utility.yul\":23562:23570   */\n      dup2\n        /* \"#utility.yul\":23547:23570   */\n      swap1\n      pop\n        /* \"#utility.yul\":23523:23572   */\n    tag_652:\n        /* \"#utility.yul\":23585:23665   */\n      tag_653\n        /* \"#utility.yul\":23641:23663   */\n      tag_654\n        /* \"#utility.yul\":23659:23662   */\n      dup6\n        /* \"#utility.yul\":23641:23663   */\n      tag_444\n      jump\t// in\n    tag_654:\n        /* \"#utility.yul\":23631:23639   */\n      dup4\n        /* \"#utility.yul\":23627:23664   */\n      add\n        /* \"#utility.yul\":23614:23625   */\n      dup3\n        /* \"#utility.yul\":23585:23665   */\n      tag_453\n      jump\t// in\n    tag_653:\n        /* \"#utility.yul\":23244:23675   */\n      pop\n      pop\n        /* \"#utility.yul\":23229:23675   */\n    tag_649:\n        /* \"#utility.yul\":23139:23682   */\n      pop\n      pop\n      pop\n      jump\t// out\n        /* \"#utility.yul\":23688:23805   */\n    tag_455:\n        /* \"#utility.yul\":23742:23750   */\n      0x00\n        /* \"#utility.yul\":23792:23797   */\n      dup3\n        /* \"#utility.yul\":23786:23790   */\n      dup3\n        /* \"#utility.yul\":23782:23798   */\n      shr\n        /* \"#utility.yul\":23761:23798   */\n      swap1\n      pop\n        /* \"#utility.yul\":23688:23805   */\n      swap3\n      swap2\n      pop\n      pop\n      jump\t// out\n        /* \"#utility.yul\":23811:23980   */\n    tag_456:\n        /* \"#utility.yul\":23855:23861   */\n      0x00\n        /* \"#utility.yul\":23888:23939   */\n      tag_657\n        /* \"#utility.yul\":23936:23937   */\n      0x00\n        /* \"#utility.yul\":23932:23938   */\n      not\n        /* \"#utility.yul\":23924:23929   */\n      dup5\n        /* \"#utility.yul\":23921:23922   */\n      0x08\n        /* \"#utility.yul\":23917:23930   */\n      mul\n        /* \"#utility.yul\":23888:23939   */\n      tag_455\n      jump\t// in\n    tag_657:\n        /* \"#utility.yul\":23884:23940   */\n      not\n        /* \"#utility.yul\":23969:23973   */\n      dup1\n        /* \"#utility.yul\":23963:23967   */\n      dup4\n        /* \"#utility.yul\":23959:23974   */\n      and\n        /* \"#utility.yul\":23949:23974   */\n      swap2\n      pop\n        /* \"#utility.yul\":23862:23980   */\n      pop\n        /* \"#utility.yul\":23811:23980   */\n      swap3\n      swap2\n      pop\n      pop\n      jump\t// out\n        /* \"#utility.yul\":23985:24280   */\n    tag_457:\n        /* \"#utility.yul\":24061:24065   */\n      0x00\n        /* \"#utility.yul\":24207:24236   */\n      tag_659\n        /* \"#utility.yul\":24232:24235   */\n      dup4\n        /* \"#utility.yul\":24226:24230   */\n      dup4\n        /* \"#utility.yul\":24207:24236   */\n      tag_456\n      jump\t// in\n    tag_659:\n        /* \"#utility.yul\":24199:24236   */\n      swap2\n      pop\n        /* \"#utility.yul\":24269:24272   */\n      dup3\n        /* \"#utility.yul\":24266:24267   */\n      0x02\n        /* \"#utility.yul\":24262:24273   */\n      mul\n        /* \"#utility.yul\":24256:24260   */\n      dup3\n        /* \"#utility.yul\":24253:24274   */\n      or\n        /* \"#utility.yul\":24245:24274   */\n      swap1\n      pop\n        /* \"#utility.yul\":23985:24280   */\n      swap3\n      swap2\n      pop\n      pop\n      jump\t// out\n        /* \"#utility.yul\":24285:25680   */\n    tag_131:\n        /* \"#utility.yul\":24402:24439   */\n      tag_661\n        /* \"#utility.yul\":24435:24438   */\n      dup3\n        /* \"#utility.yul\":24402:24439   */\n      tag_410\n      jump\t// in\n    tag_661:\n        /* \"#utility.yul\":24504:24522   */\n      0xffffffffffffffff\n        /* \"#utility.yul\":24496:24502   */\n      dup2\n        /* \"#utility.yul\":24493:24523   */\n      gt\n        /* \"#utility.yul\":24490:24546   */\n      iszero\n      tag_662\n      jumpi\n        /* \"#utility.yul\":24526:24544   */\n      tag_663\n      tag_320\n      jump\t// in\n    tag_663:\n        /* \"#utility.yul\":24490:24546   */\n    tag_662:\n        /* \"#utility.yul\":24570:24608   */\n      tag_664\n        /* \"#utility.yul\":24602:24606   */\n      dup3\n        /* \"#utility.yul\":24596:24607   */\n      sload\n        /* \"#utility.yul\":24570:24608   */\n      tag_40\n      jump\t// in\n    tag_664:\n        /* \"#utility.yul\":24655:24722   */\n      tag_665\n        /* \"#utility.yul\":24715:24721   */\n      dup3\n        /* \"#utility.yul\":24707:24713   */\n      dup3\n        /* \"#utility.yul\":24701:24705   */\n      dup6\n        /* \"#utility.yul\":24655:24722   */\n      tag_454\n      jump\t// in\n    tag_665:\n        /* \"#utility.yul\":24749:24750   */\n      0x00\n        /* \"#utility.yul\":24773:24777   */\n      0x20\n        /* \"#utility.yul\":24760:24777   */\n      swap1\n      pop\n        /* \"#utility.yul\":24805:24807   */\n      0x1f\n        /* \"#utility.yul\":24797:24803   */\n      dup4\n        /* \"#utility.yul\":24794:24808   */\n      gt\n        /* \"#utility.yul\":24822:24823   */\n      0x01\n        /* \"#utility.yul\":24817:25435   */\n      dup2\n      eq\n      tag_667\n      jumpi\n        /* \"#utility.yul\":25479:25480   */\n      0x00\n        /* \"#utility.yul\":25496:25502   */\n      dup5\n        /* \"#utility.yul\":25493:25570   */\n      iszero\n      tag_668\n      jumpi\n        /* \"#utility.yul\":25545:25554   */\n      dup3\n        /* \"#utility.yul\":25540:25543   */\n      dup8\n        /* \"#utility.yul\":25536:25555   */\n      add\n        /* \"#utility.yul\":25530:25556   */\n      mload\n        /* \"#utility.yul\":25521:25556   */\n      swap1\n      pop\n        /* \"#utility.yul\":25493:25570   */\n    tag_668:\n        /* \"#utility.yul\":25596:25663   */\n      tag_669\n        /* \"#utility.yul\":25656:25662   */\n      dup6\n        /* \"#utility.yul\":25649:25654   */\n      dup3\n        /* \"#utility.yul\":25596:25663   */\n      tag_457\n      jump\t// in\n    tag_669:\n        /* \"#utility.yul\":25590:25594   */\n      dup7\n        /* \"#utility.yul\":25583:25664   */\n      sstore\n        /* \"#utility.yul\":25452:25674   */\n      pop\n        /* \"#utility.yul\":24787:25674   */\n      jump(tag_666)\n        /* \"#utility.yul\":24817:25435   */\n    tag_667:\n        /* \"#utility.yul\":24869:24873   */\n      0x1f\n        /* \"#utility.yul\":24865:24874   */\n      not\n        /* \"#utility.yul\":24857:24863   */\n      dup5\n        /* \"#utility.yul\":24853:24875   */\n      and\n        /* \"#utility.yul\":24903:24940   */\n      tag_670\n        /* \"#utility.yul\":24935:24939   */\n      dup7\n        /* \"#utility.yul\":24903:24940   */\n      tag_443\n      jump\t// in\n    tag_670:\n        /* \"#utility.yul\":24962:24963   */\n      0x00\n        /* \"#utility.yul\":24976:25184   */\n    tag_671:\n        /* \"#utility.yul\":24990:24997   */\n      dup3\n        /* \"#utility.yul\":24987:24988   */\n      dup2\n        /* \"#utility.yul\":24984:24998   */\n      lt\n        /* \"#utility.yul\":24976:25184   */\n      iszero\n      tag_673\n      jumpi\n        /* \"#utility.yul\":25069:25078   */\n      dup5\n        /* \"#utility.yul\":25064:25067   */\n      dup10\n        /* \"#utility.yul\":25060:25079   */\n      add\n        /* \"#utility.yul\":25054:25080   */\n      mload\n        /* \"#utility.yul\":25046:25052   */\n      dup3\n        /* \"#utility.yul\":25039:25081   */\n      sstore\n        /* \"#utility.yul\":25120:25121   */\n      0x01\n        /* \"#utility.yul\":25112:25118   */\n      dup3\n        /* \"#utility.yul\":25108:25122   */\n      add\n        /* \"#utility.yul\":25098:25122   */\n      swap2\n      pop\n        /* \"#utility.yul\":25167:25169   */\n      0x20\n        /* \"#utility.yul\":25156:25165   */\n      dup6\n        /* \"#utility.yul\":25152:25170   */\n      add\n        /* \"#utility.yul\":25139:25170   */\n      swap5\n      pop\n        /* \"#utility.yul\":25013:25017   */\n      0x20\n        /* \"#utility.yul\":25010:25011   */\n      dup2\n        /* \"#utility.yul\":25006:25018   */\n      add\n        /* \"#utility.yul\":25001:25018   */\n      swap1\n      pop\n        /* \"#utility.yul\":24976:25184   */\n      jump(tag_671)\n    tag_673:\n        /* \"#utility.yul\":25212:25218   */\n      dup7\n        /* \"#utility.yul\":25203:25210   */\n      dup4\n        /* \"#utility.yul\":25200:25219   */\n      lt\n        /* \"#utility.yul\":25197:25376   */\n      iszero\n      tag_674\n      jumpi\n        /* \"#utility.yul\":25270:25279   */\n      dup5\n        /* \"#utility.yul\":25265:25268   */\n      dup10\n        /* \"#utility.yul\":25261:25280   */\n      add\n        /* \"#utility.yul\":25255:25281   */\n      mload\n        /* \"#utility.yul\":25313:25361   */\n      tag_675\n        /* \"#utility.yul\":25355:25359   */\n      0x1f\n        /* \"#utility.yul\":25347:25353   */\n      dup10\n        /* \"#utility.yul\":25343:25360   */\n      and\n        /* \"#utility.yul\":25332:25341   */\n      dup3\n        /* \"#utility.yul\":25313:25361   */\n      tag_456\n      jump\t// in\n    tag_675:\n        /* \"#utility.yul\":25305:25311   */\n      dup4\n        /* \"#utility.yul\":25298:25362   */\n      sstore\n        /* \"#utility.yul\":25220:25376   */\n      pop\n        /* \"#utility.yul\":25197:25376   */\n    tag_674:\n        /* \"#utility.yul\":25422:25423   */\n      0x01\n        /* \"#utility.yul\":25418:25419   */\n      0x02\n        /* \"#utility.yul\":25410:25416   */\n      dup9\n        /* \"#utility.yul\":25406:25420   */\n      mul\n        /* \"#utility.yul\":25402:25424   */\n      add\n        /* \"#utility.yul\":25396:25400   */\n      dup9\n        /* \"#utility.yul\":25389:25425   */\n      sstore\n        /* \"#utility.yul\":24824:25435   */\n      pop\n      pop\n      pop\n        /* \"#utility.yul\":24787:25674   */\n    tag_666:\n      pop\n        /* \"#utility.yul\":24377:25680   */\n      pop\n      pop\n      pop\n        /* \"#utility.yul\":24285:25680   */\n      pop\n      pop\n      jump\t// out\n        /* \"#utility.yul\":25686:25999   */\n    tag_146:\n        /* \"#utility.yul\":25799:25803   */\n      0x00\n        /* \"#utility.yul\":25837:25839   */\n      0x20\n        /* \"#utility.yul\":25826:25835   */\n      dup3\n        /* \"#utility.yul\":25822:25840   */\n      add\n        /* \"#utility.yul\":25814:25840   */\n      swap1\n      pop\n        /* \"#utility.yul\":25886:25895   */\n      dup2\n        /* \"#utility.yul\":25880:25884   */\n      dup2\n        /* \"#utility.yul\":25876:25896   */\n      sub\n        /* \"#utility.yul\":25872:25873   */\n      0x00\n        /* \"#utility.yul\":25861:25870   */\n      dup4\n        /* \"#utility.yul\":25857:25874   */\n      add\n        /* \"#utility.yul\":25850:25897   */\n      mstore\n        /* \"#utility.yul\":25914:25992   */\n      tag_677\n        /* \"#utility.yul\":25987:25991   */\n      dup2\n        /* \"#utility.yul\":25978:25984   */\n      dup5\n        /* \"#utility.yul\":25914:25992   */\n      tag_439\n      jump\t// in\n    tag_677:\n        /* \"#utility.yul\":25906:25992   */\n      swap1\n      pop\n        /* \"#utility.yul\":25686:25999   */\n      swap3\n      swap2\n      pop\n      pop\n      jump\t// out\n        /* \"#utility.yul\":26005:26185   */\n    tag_150:\n        /* \"#utility.yul\":26053:26130   */\n      0x4e487b7100000000000000000000000000000000000000000000000000000000\n        /* \"#utility.yul\":26050:26051   */\n      0x00\n        /* \"#utility.yul\":26043:26131   */\n      mstore\n        /* \"#utility.yul\":26150:26154   */\n      0x31\n        /* \"#utility.yul\":26147:26148   */\n      0x04\n        /* \"#utility.yul\":26140:26155   */\n      mstore\n        /* \"#utility.yul\":26174:26178   */\n      0x24\n        /* \"#utility.yul\":26171:26172   */\n      0x00\n        /* \"#utility.yul\":26164:26179   */\n      revert\n        /* \"#utility.yul\":26191:26338   */\n    tag_458:\n        /* \"#utility.yul\":26292:26303   */\n      0x00\n        /* \"#utility.yul\":26329:26332   */\n      dup2\n        /* \"#utility.yul\":26314:26332   */\n      swap1\n      pop\n        /* \"#utility.yul\":26191:26338   */\n      swap3\n      swap2\n      pop\n      pop\n      jump\t// out\n        /* \"#utility.yul\":26344:26488   */\n    tag_459:\n        /* \"#utility.yul\":26396:26400   */\n      0x00\n        /* \"#utility.yul\":26419:26422   */\n      dup2\n        /* \"#utility.yul\":26411:26422   */\n      swap1\n      pop\n        /* \"#utility.yul\":26442:26445   */\n      dup2\n        /* \"#utility.yul\":26439:26440   */\n      0x00\n        /* \"#utility.yul\":26432:26446   */\n      mstore\n        /* \"#utility.yul\":26476:26480   */\n      0x20\n        /* \"#utility.yul\":26473:26474   */\n      0x00\n        /* \"#utility.yul\":26463:26481   */\n      keccak256\n        /* \"#utility.yul\":26455:26481   */\n      swap1\n      pop\n        /* \"#utility.yul\":26344:26488   */\n      swap2\n      swap1\n      pop\n      jump\t// out\n        /* \"#utility.yul\":26516:27394   */\n    tag_460:\n        /* \"#utility.yul\":26621:26624   */\n      0x00\n        /* \"#utility.yul\":26658:26663   */\n      dup2\n        /* \"#utility.yul\":26652:26664   */\n      sload\n        /* \"#utility.yul\":26687:26723   */\n      tag_682\n        /* \"#utility.yul\":26713:26722   */\n      dup2\n        /* \"#utility.yul\":26687:26723   */\n      tag_40\n      jump\t// in\n    tag_682:\n        /* \"#utility.yul\":26739:26827   */\n      tag_683\n        /* \"#utility.yul\":26820:26826   */\n      dup2\n        /* \"#utility.yul\":26815:26818   */\n      dup7\n        /* \"#utility.yul\":26739:26827   */\n      tag_458\n      jump\t// in\n    tag_683:\n        /* \"#utility.yul\":26732:26827   */\n      swap5\n      pop\n        /* \"#utility.yul\":26858:26859   */\n      0x01\n        /* \"#utility.yul\":26847:26856   */\n      dup3\n        /* \"#utility.yul\":26843:26860   */\n      and\n        /* \"#utility.yul\":26874:26875   */\n      0x00\n        /* \"#utility.yul\":26869:27035   */\n      dup2\n      eq\n      tag_685\n      jumpi\n        /* \"#utility.yul\":27049:27050   */\n      0x01\n        /* \"#utility.yul\":27044:27388   */\n      dup2\n      eq\n      tag_686\n      jumpi\n        /* \"#utility.yul\":26836:27388   */\n      jump(tag_684)\n        /* \"#utility.yul\":26869:27035   */\n    tag_685:\n        /* \"#utility.yul\":26953:26957   */\n      0xff\n        /* \"#utility.yul\":26949:26958   */\n      not\n        /* \"#utility.yul\":26938:26947   */\n      dup4\n        /* \"#utility.yul\":26934:26959   */\n      and\n        /* \"#utility.yul\":26929:26932   */\n      dup7\n        /* \"#utility.yul\":26922:26960   */\n      mstore\n        /* \"#utility.yul\":27015:27021   */\n      dup2\n        /* \"#utility.yul\":27008:27022   */\n      iszero\n        /* \"#utility.yul\":27001:27023   */\n      iszero\n        /* \"#utility.yul\":26993:26999   */\n      dup3\n        /* \"#utility.yul\":26989:27024   */\n      mul\n        /* \"#utility.yul\":26984:26987   */\n      dup7\n        /* \"#utility.yul\":26980:27025   */\n      add\n        /* \"#utility.yul\":26973:27025   */\n      swap4\n      pop\n        /* \"#utility.yul\":26869:27035   */\n      jump(tag_684)\n        /* \"#utility.yul\":27044:27388   */\n    tag_686:\n        /* \"#utility.yul\":27111:27152   */\n      tag_687\n        /* \"#utility.yul\":27146:27151   */\n      dup6\n        /* \"#utility.yul\":27111:27152   */\n      tag_459\n      jump\t// in\n    tag_687:\n        /* \"#utility.yul\":27174:27175   */\n      0x00\n        /* \"#utility.yul\":27188:27342   */\n    tag_688:\n        /* \"#utility.yul\":27202:27208   */\n      dup4\n        /* \"#utility.yul\":27199:27200   */\n      dup2\n        /* \"#utility.yul\":27196:27209   */\n      lt\n        /* \"#utility.yul\":27188:27342   */\n      iszero\n      tag_690\n      jumpi\n        /* \"#utility.yul\":27276:27283   */\n      dup2\n        /* \"#utility.yul\":27270:27284   */\n      sload\n        /* \"#utility.yul\":27266:27267   */\n      dup2\n        /* \"#utility.yul\":27261:27264   */\n      dup10\n        /* \"#utility.yul\":27257:27268   */\n      add\n        /* \"#utility.yul\":27250:27285   */\n      mstore\n        /* \"#utility.yul\":27326:27327   */\n      0x01\n        /* \"#utility.yul\":27317:27324   */\n      dup3\n        /* \"#utility.yul\":27313:27328   */\n      add\n        /* \"#utility.yul\":27302:27328   */\n      swap2\n      pop\n        /* \"#utility.yul\":27224:27228   */\n      0x20\n        /* \"#utility.yul\":27221:27222   */\n      dup2\n        /* \"#utility.yul\":27217:27229   */\n      add\n        /* \"#utility.yul\":27212:27229   */\n      swap1\n      pop\n        /* \"#utility.yul\":27188:27342   */\n      jump(tag_688)\n    tag_690:\n        /* \"#utility.yul\":27371:27377   */\n      dup4\n        /* \"#utility.yul\":27366:27369   */\n      dup9\n        /* \"#utility.yul\":27362:27378   */\n      add\n        /* \"#utility.yul\":27355:27378   */\n      swap6\n      pop\n        /* \"#utility.yul\":27051:27388   */\n      pop\n      pop\n        /* \"#utility.yul\":26836:27388   */\n    tag_684:\n      pop\n        /* \"#utility.yul\":26625:27394   */\n      pop\n      pop\n        /* \"#utility.yul\":26516:27394   */\n      swap3\n      swap2\n      pop\n      pop\n      jump\t// out\n        /* \"#utility.yul\":27400:27673   */\n    tag_175:\n        /* \"#utility.yul\":27531:27534   */\n      0x00\n        /* \"#utility.yul\":27553:27647   */\n      tag_692\n        /* \"#utility.yul\":27643:27646   */\n      dup3\n        /* \"#utility.yul\":27634:27640   */\n      dup5\n        /* \"#utility.yul\":27553:27647   */\n      tag_460\n      jump\t// in\n    tag_692:\n        /* \"#utility.yul\":27546:27647   */\n      swap2\n      pop\n        /* \"#utility.yul\":27664:27667   */\n      dup2\n        /* \"#utility.yul\":27657:27667   */\n      swap1\n      pop\n        /* \"#utility.yul\":27400:27673   */\n      swap3\n      swap2\n      pop\n      pop\n      jump\t// out\n        /* \"#utility.yul\":27679:27859   */\n    tag_461:\n        /* \"#utility.yul\":27727:27804   */\n      0x4e487b7100000000000000000000000000000000000000000000000000000000\n        /* \"#utility.yul\":27724:27725   */\n      0x00\n        /* \"#utility.yul\":27717:27805   */\n      mstore\n        /* \"#utility.yul\":27824:27828   */\n      0x11\n        /* \"#utility.yul\":27821:27822   */\n      0x04\n        /* \"#utility.yul\":27814:27829   */\n      mstore\n        /* \"#utility.yul\":27848:27852   */\n      0x24\n        /* \"#utility.yul\":27845:27846   */\n      0x00\n        /* \"#utility.yul\":27838:27853   */\n      revert\n        /* \"#utility.yul\":27865:28098   */\n    tag_241:\n        /* \"#utility.yul\":27904:27907   */\n      0x00\n        /* \"#utility.yul\":27927:27951   */\n      tag_695\n        /* \"#utility.yul\":27945:27950   */\n      dup3\n        /* \"#utility.yul\":27927:27951   */\n      tag_435\n      jump\t// in\n    tag_695:\n        /* \"#utility.yul\":27918:27951   */\n      swap2\n      pop\n        /* \"#utility.yul\":27973:28039   */\n      0xffffffffffffffffffffffffffffffffffffffffffffffffffffffffffffffff\n        /* \"#utility.yul\":27966:27971   */\n      dup3\n        /* \"#utility.yul\":27963:28040   */\n      sub\n        /* \"#utility.yul\":27960:28063   */\n      tag_696\n      jumpi\n        /* \"#utility.yul\":28043:28061   */\n      tag_697\n      tag_461\n      jump\t// in\n    tag_697:\n        /* \"#utility.yul\":27960:28063   */\n    tag_696:\n        /* \"#utility.yul\":28090:28091   */\n      0x01\n        /* \"#utility.yul\":28083:28088   */\n      dup3\n        /* \"#utility.yul\":28079:28092   */\n      add\n        /* \"#utility.yul\":28072:28092   */\n      swap1\n      pop\n        /* \"#utility.yul\":27865:28098   */\n      swap2\n      swap1\n      pop\n      jump\t// out\n        /* \"#utility.yul\":28104:28252   */\n    tag_462:\n        /* \"#utility.yul\":28206:28217   */\n      0x00\n        /* \"#utility.yul\":28243:28246   */\n      dup2\n        /* \"#utility.yul\":28228:28246   */\n      swap1\n      pop\n        /* \"#utility.yul\":28104:28252   */\n      swap3\n      swap2\n      pop\n      pop\n      jump\t// out\n        /* \"#utility.yul\":28258:28648   */\n    tag_463:\n        /* \"#utility.yul\":28364:28367   */\n      0x00\n        /* \"#utility.yul\":28392:28431   */\n      tag_700\n        /* \"#utility.yul\":28425:28430   */\n      dup3\n        /* \"#utility.yul\":28392:28431   */\n      tag_410\n      jump\t// in\n    tag_700:\n        /* \"#utility.yul\":28447:28536   */\n      tag_701\n        /* \"#utility.yul\":28529:28535   */\n      dup2\n        /* \"#utility.yul\":28524:28527   */\n      dup6\n        /* \"#utility.yul\":28447:28536   */\n      tag_462\n      jump\t// in\n    tag_701:\n        /* \"#utility.yul\":28440:28536   */\n      swap4\n      pop\n        /* \"#utility.yul\":28545:28610   */\n      tag_702\n        /* \"#utility.yul\":28603:28609   */\n      dup2\n        /* \"#utility.yul\":28598:28601   */\n      dup6\n        /* \"#utility.yul\":28591:28595   */\n      0x20\n        /* \"#utility.yul\":28584:28589   */\n      dup7\n        /* \"#utility.yul\":28580:28596   */\n      add\n        /* \"#utility.yul\":28545:28610   */\n      tag_412\n      jump\t// in\n    tag_702:\n        /* \"#utility.yul\":28635:28641   */\n      dup1\n        /* \"#utility.yul\":28630:28633   */\n      dup5\n        /* \"#utility.yul\":28626:28642   */\n      add\n        /* \"#utility.yul\":28619:28642   */\n      swap2\n      pop\n        /* \"#utility.yul\":28368:28648   */\n      pop\n        /* \"#utility.yul\":28258:28648   */\n      swap3\n      swap2\n      pop\n      pop\n      jump\t// out\n        /* \"#utility.yul\":28654:28929   */\n    tag_309:\n        /* \"#utility.yul\":28786:28789   */\n      0x00\n        /* \"#utility.yul\":28808:28903   */\n      tag_704\n        /* \"#utility.yul\":28899:28902   */\n      dup3\n        /* \"#utility.yul\":28890:28896   */\n      dup5\n        /* \"#utility.yul\":28808:28903   */\n      tag_463\n      jump\t// in\n    tag_704:\n        /* \"#utility.yul\":28801:28903   */\n      swap2\n      pop\n        /* \"#utility.yul\":28920:28923   */\n      dup2\n        /* \"#utility.yul\":28913:28923   */\n      swap1\n      pop\n        /* \"#utility.yul\":28654:28929   */\n      swap3\n      swap2\n      pop\n      pop\n      jump\t// out\n        /* \"#utility.yul\":28959:29833   */\n    tag_464:\n        /* \"#utility.yul\":29062:29065   */\n      0x00\n        /* \"#utility.yul\":29099:29104   */\n      dup2\n        /* \"#utility.yul\":29093:29105   */\n      sload\n        /* \"#utility.yul\":29128:29164   */\n      tag_706\n        /* \"#utility.yul\":29154:29163   */\n      dup2\n        /* \"#utility.yul\":29128:29164   */\n      tag_40\n      jump\t// in\n    tag_706:\n        /* \"#utility.yul\":29180:29269   */\n      tag_707\n        /* \"#utility.yul\":29262:29268   */\n      dup2\n        /* \"#utility.yul\":29257:29260   */\n      dup7\n        /* \"#utility.yul\":29180:29269   */\n      tag_462\n      jump\t// in\n    tag_707:\n        /* \"#utility.yul\":29173:29269   */\n      swap5\n      pop\n        /* \"#utility.yul\":29300:29301   */\n      0x01\n        /* \"#utility.yul\":29289:29298   */\n      dup3\n        /* \"#utility.yul\":29285:29302   */\n      and\n        /* \"#utility.yul\":29316:29317   */\n      0x00\n        /* \"#utility.yul\":29311:29477   */\n      dup2\n      eq\n      tag_709\n      jumpi\n        /* \"#utility.yul\":29491:29492   */\n      0x01\n        /* \"#utility.yul\":29486:29827   */\n      dup2\n      eq\n      tag_710\n      jumpi\n        /* \"#utility.yul\":29278:29827   */\n      jump(tag_708)\n        /* \"#utility.yul\":29311:29477   */\n    tag_709:\n        /* \"#utility.yul\":29395:29399   */\n      0xff\n        /* \"#utility.yul\":29391:29400   */\n      not\n        /* \"#utility.yul\":29380:29389   */\n      dup4\n        /* \"#utility.yul\":29376:29401   */\n      and\n        /* \"#utility.yul\":29371:29374   */\n      dup7\n        /* \"#utility.yul\":29364:29402   */\n      mstore\n        /* \"#utility.yul\":29457:29463   */\n      dup2\n        /* \"#utility.yul\":29450:29464   */\n      iszero\n        /* \"#utility.yul\":29443:29465   */\n      iszero\n        /* \"#utility.yul\":29435:29441   */\n      dup3\n        /* \"#utility.yul\":29431:29466   */\n      mul\n        /* \"#utility.yul\":29426:29429   */\n      dup7\n        /* \"#utility.yul\":29422:29467   */\n      add\n        /* \"#utility.yul\":29415:29467   */\n      swap4\n      pop\n        /* \"#utility.yul\":29311:29477   */\n      jump(tag_708)\n        /* \"#utility.yul\":29486:29827   */\n    tag_710:\n        /* \"#utility.yul\":29553:29591   */\n      tag_711\n        /* \"#utility.yul\":29585:29590   */\n      dup6\n        /* \"#utility.yul\":29553:29591   */\n      tag_443\n      jump\t// in\n    tag_711:\n        /* \"#utility.yul\":29613:29614   */\n      0x00\n        /* \"#utility.yul\":29627:29781   */\n    tag_712:\n        /* \"#utility.yul\":29641:29647   */\n      dup4\n        /* \"#utility.yul\":29638:29639   */\n      dup2\n        /* \"#utility.yul\":29635:29648   */\n      lt\n        /* \"#utility.yul\":29627:29781   */\n      iszero\n      tag_714\n      jumpi\n        /* \"#utility.yul\":29715:29722   */\n      dup2\n        /* \"#utility.yul\":29709:29723   */\n      sload\n        /* \"#utility.yul\":29705:29706   */\n      dup2\n        /* \"#utility.yul\":29700:29703   */\n      dup10\n        /* \"#utility.yul\":29696:29707   */\n      add\n        /* \"#utility.yul\":29689:29724   */\n      mstore\n        /* \"#utility.yul\":29765:29766   */\n      0x01\n        /* \"#utility.yul\":29756:29763   */\n      dup3\n        /* \"#utility.yul\":29752:29767   */\n      add\n        /* \"#utility.yul\":29741:29767   */\n      swap2\n      pop\n        /* \"#utility.yul\":29663:29667   */\n      0x20\n        /* \"#utility.yul\":29660:29661   */\n      dup2\n        /* \"#utility.yul\":29656:29668   */\n      add\n        /* \"#utility.yul\":29651:29668   */\n      swap1\n      pop\n        /* \"#utility.yul\":29627:29781   */\n      jump(tag_712)\n    tag_714:\n        /* \"#utility.yul\":29810:29816   */\n      dup4\n        /* \"#utility.yul\":29805:29808   */\n      dup9\n        /* \"#utility.yul\":29801:29817   */\n      add\n        /* \"#utility.yul\":29794:29817   */\n      swap6\n      pop\n        /* \"#utility.yul\":29493:29827   */\n      pop\n      pop\n        /* \"#utility.yul\":29278:29827   */\n    tag_708:\n      pop\n        /* \"#utility.yul\":29066:29833   */\n      pop\n      pop\n        /* \"#utility.yul\":28959:29833   */\n      swap3\n      swap2\n      pop\n      pop\n      jump\t// out\n        /* \"#utility.yul\":29839:30108   */\n    tag_314:\n        /* \"#utility.yul\":29968:29971   */\n      0x00\n        /* \"#utility.yul\":29990:30082   */\n      tag_716\n        /* \"#utility.yul\":30078:30081   */\n      dup3\n        /* \"#utility.yul\":30069:30075   */\n      dup5\n        /* \"#utility.yul\":29990:30082   */\n      tag_464\n      jump\t// in\n    tag_716:\n        /* \"#utility.yul\":29983:30082   */\n      swap2\n      pop\n        /* \"#utility.yul\":30099:30102   */\n      dup2\n        /* \"#utility.yul\":30092:30102   */\n      swap1\n      pop\n        /* \"#utility.yul\":29839:30108   */\n      swap3\n      swap2\n      pop\n      pop\n      jump\t// out\n\n    auxdata: 0xa2646970667358221220d2adaeb25616d936ceec9b2ffecb8488ae3435e1ca84669b9cb975621aef8e4964736f6c63430008110033\n}\n",
				"bytecode": {
					"linkReferences": {},
					"object": "608060405234801561001057600080fd5b506133f3806100206000396000f3fe608060405234801561001057600080fd5b50600436106100625760003560e01c8063376d83b91461006757806357a1cfb414610085578063589d157a146100a15780636f593db5146100ab578063768ceb9a146100db5780639e7ab31b14610116575b600080fd5b61006f610146565b60405161007c9190612778565b60405180910390f35b61009f600480360381019061009a91906129c9565b61087e565b005b6100a9610bec565b005b6100c560048036038101906100c09190612a12565b610cd9565b6040516100d29190612bac565b60405180910390f35b6100f560048036038101906100f09190612c04565b611460565b60405161010d9c9b9a99989796959493929190612c7b565b60405180910390f35b610130600480360381019061012b9190612a12565b611b30565b60405161013d9190612778565b60405180910390f35b60606000805480602002602001604051908101604052809291908181526020016000905b8282101561087557838290600052602060002090600c02016040518061018001604052908160008201805461019e90612db8565b80601f01602080910402602001604051908101604052809291908181526020018280546101ca90612db8565b80156102175780601f106101ec57610100808354040283529160200191610217565b820191906000526020600020905b8154815290600101906020018083116101fa57829003601f168201915b5050505050815260200160018201805461023090612db8565b80601f016020809104026020016040519081016040528092919081815260200182805461025c90612db8565b80156102a95780601f1061027e576101008083540402835291602001916102a9565b820191906000526020600020905b81548152906001019060200180831161028c57829003601f168201915b505050505081526020016002820180546102c290612db8565b80601f01602080910402602001604051908101604052809291908181526020018280546102ee90612db8565b801561033b5780601f106103105761010080835404028352916020019161033b565b820191906000526020600020905b81548152906001019060200180831161031e57829003601f168201915b5050505050815260200160038201805461035490612db8565b80601f016020809104026020016040519081016040528092919081815260200182805461038090612db8565b80156103cd5780601f106103a2576101008083540402835291602001916103cd565b820191906000526020600020905b8154815290600101906020018083116103b057829003601f168201915b505050505081526020016004820180546103e690612db8565b80601f016020809104026020016040519081016040528092919081815260200182805461041290612db8565b801561045f5780601f106104345761010080835404028352916020019161045f565b820191906000526020600020905b81548152906001019060200180831161044257829003601f168201915b5050505050815260200160058201805461047890612db8565b80601f01602080910402602001604051908101604052809291908181526020018280546104a490612db8565b80156104f15780601f106104c6576101008083540402835291602001916104f1565b820191906000526020600020905b8154815290600101906020018083116104d457829003601f168201915b5050505050815260200160068201805461050a90612db8565b80601f016020809104026020016040519081016040528092919081815260200182805461053690612db8565b80156105835780601f1061055857610100808354040283529160200191610583565b820191906000526020600020905b81548152906001019060200180831161056657829003601f168201915b5050505050815260200160078201805461059c90612db8565b80601f01602080910402602001604051908101604052809291908181526020018280546105c890612db8565b80156106155780601f106105ea57610100808354040283529160200191610615565b820191906000526020600020905b8154815290600101906020018083116105f857829003601f168201915b5050505050815260200160088201805461062e90612db8565b80601f016020809104026020016040519081016040528092919081815260200182805461065a90612db8565b80156106a75780601f1061067c576101008083540402835291602001916106a7565b820191906000526020600020905b81548152906001019060200180831161068a57829003601f168201915b505050505081526020016009820180546106c090612db8565b80601f01602080910402602001604051908101604052809291908181526020018280546106ec90612db8565b80156107395780601f1061070e57610100808354040283529160200191610739565b820191906000526020600020905b81548152906001019060200180831161071c57829003601f168201915b50505050508152602001600a8201805461075290612db8565b80601f016020809104026020016040519081016040528092919081815260200182805461077e90612db8565b80156107cb5780601f106107a0576101008083540402835291602001916107cb565b820191906000526020600020905b8154815290600101906020018083116107ae57829003601f168201915b50505050508152602001600b820180546107e490612db8565b80601f016020809104026020016040519081016040528092919081815260200182805461081090612db8565b801561085d5780601f106108325761010080835404028352916020019161085d565b820191906000526020600020905b81548152906001019060200180831161084057829003601f168201915b5050505050815250508152602001906001019061016a565b50505050905090565b600c8151146108c2576040517f08c379a00000000000000000000000000000000000000000000000000000000081526004016108b990612e81565b60405180910390fd5b6000604051806101800160405280836000815181106108e4576108e3612ea1565b5b602002602001015181526020018360018151811061090557610904612ea1565b5b602002602001015181526020018360028151811061092657610925612ea1565b5b602002602001015181526020018360038151811061094757610946612ea1565b5b602002602001015181526020018360048151811061096857610967612ea1565b5b602002602001015181526020018360058151811061098957610988612ea1565b5b60200260200101518152602001836006815181106109aa576109a9612ea1565b5b60200260200101518152602001836007815181106109cb576109ca612ea1565b5b60200260200101518152602001836008815181106109ec576109eb612ea1565b5b6020026020010151815260200183600981518110610a0d57610a0c612ea1565b5b6020026020010151815260200183600a81518110610a2e57610a2d612ea1565b5b6020026020010151815260200183600b81518110610a4f57610a4e612ea1565b5b6020026020010151815250905060008190806001815401808255809150506001900390600052602060002090600c02016000909190919091506000820151816000019081610a9d919061307c565b506020820151816001019081610ab3919061307c565b506040820151816002019081610ac9919061307c565b506060820151816003019081610adf919061307c565b506080820151816004019081610af5919061307c565b5060a0820151816005019081610b0b919061307c565b5060c0820151816006019081610b21919061307c565b5060e0820151816007019081610b37919061307c565b50610100820151816008019081610b4e919061307c565b50610120820151816009019081610b65919061307c565b5061014082015181600a019081610b7c919061307c565b5061016082015181600b019081610b93919061307c565b5050507f33eb06dbc0fad99fa48b1fd5df05652d9c7f7efd717ce00bc61ae96694119b5282600081518110610bcb57610bca612ea1565b5b6020026020010151604051610be0919061314e565b60405180910390a15050565b6000805480610bfe57610bfd613170565b5b60019003818190600052602060002090600c020160008082016000610c239190612417565b600182016000610c339190612417565b600282016000610c439190612417565b600382016000610c539190612417565b600482016000610c639190612417565b600582016000610c739190612417565b600682016000610c839190612417565b600782016000610c939190612417565b600882016000610ca39190612417565b600982016000610cb39190612417565b600a82016000610cc39190612417565b600b82016000610cd39190612417565b50509055565b610ce1612457565b60005b60008054905081101561145957828051906020012060008281548110610d0d57610d0c612ea1565b5b90600052602060002090600c0201600001604051610d2b9190613242565b6040518091039020036114465760008181548110610d4c57610d4b612ea1565b5b90600052602060002090600c020160405180610180016040529081600082018054610d7690612db8565b80601f0160208091040260200160405190810160405280929190818152602001828054610da290612db8565b8015610def5780601f10610dc457610100808354040283529160200191610def565b820191906000526020600020905b815481529060010190602001808311610dd257829003601f168201915b50505050508152602001600182018054610e0890612db8565b80601f0160208091040260200160405190810160405280929190818152602001828054610e3490612db8565b8015610e815780601f10610e5657610100808354040283529160200191610e81565b820191906000526020600020905b815481529060010190602001808311610e6457829003601f168201915b50505050508152602001600282018054610e9a90612db8565b80601f0160208091040260200160405190810160405280929190818152602001828054610ec690612db8565b8015610f135780601f10610ee857610100808354040283529160200191610f13565b820191906000526020600020905b815481529060010190602001808311610ef657829003601f168201915b50505050508152602001600382018054610f2c90612db8565b80601f0160208091040260200160405190810160405280929190818152602001828054610f5890612db8565b8015610fa55780601f10610f7a57610100808354040283529160200191610fa5565b820191906000526020600020905b815481529060010190602001808311610f8857829003601f168201915b50505050508152602001600482018054610fbe90612db8565b80601f0160208091040260200160405190810160405280929190818152602001828054610fea90612db8565b80156110375780601f1061100c57610100808354040283529160200191611037565b820191906000526020600020905b81548152906001019060200180831161101a57829003601f168201915b5050505050815260200160058201805461105090612db8565b80601f016020809104026020016040519081016040528092919081815260200182805461107c90612db8565b80156110c95780601f1061109e576101008083540402835291602001916110c9565b820191906000526020600020905b8154815290600101906020018083116110ac57829003601f168201915b505050505081526020016006820180546110e290612db8565b80601f016020809104026020016040519081016040528092919081815260200182805461110e90612db8565b801561115b5780601f106111305761010080835404028352916020019161115b565b820191906000526020600020905b81548152906001019060200180831161113e57829003601f168201915b5050505050815260200160078201805461117490612db8565b80601f01602080910402602001604051908101604052809291908181526020018280546111a090612db8565b80156111ed5780601f106111c2576101008083540402835291602001916111ed565b820191906000526020600020905b8154815290600101906020018083116111d057829003601f168201915b5050505050815260200160088201805461120690612db8565b80601f016020809104026020016040519081016040528092919081815260200182805461123290612db8565b801561127f5780601f106112545761010080835404028352916020019161127f565b820191906000526020600020905b81548152906001019060200180831161126257829003601f168201915b5050505050815260200160098201805461129890612db8565b80601f01602080910402602001604051908101604052809291908181526020018280546112c490612db8565b80156113115780601f106112e657610100808354040283529160200191611311565b820191906000526020600020905b8154815290600101906020018083116112f457829003601f168201915b50505050508152602001600a8201805461132a90612db8565b80601f016020809104026020016040519081016040528092919081815260200182805461135690612db8565b80156113a35780601f10611378576101008083540402835291602001916113a3565b820191906000526020600020905b81548152906001019060200180831161138657829003601f168201915b50505050508152602001600b820180546113bc90612db8565b80601f01602080910402602001604051908101604052809291908181526020018280546113e890612db8565b80156114355780601f1061140a57610100808354040283529160200191611435565b820191906000526020600020905b81548152906001019060200180831161141857829003601f168201915b50505050508152505091505061145b565b808061145190613288565b915050610ce4565b505b919050565b6000818154811061147057600080fd5b90600052602060002090600c020160009150905080600001805461149390612db8565b80601f01602080910402602001604051908101604052809291908181526020018280546114bf90612db8565b801561150c5780601f106114e15761010080835404028352916020019161150c565b820191906000526020600020905b8154815290600101906020018083116114ef57829003601f168201915b50505050509080600101805461152190612db8565b80601f016020809104026020016040519081016040528092919081815260200182805461154d90612db8565b801561159a5780601f1061156f5761010080835404028352916020019161159a565b820191906000526020600020905b81548152906001019060200180831161157d57829003601f168201915b5050505050908060020180546115af90612db8565b80601f01602080910402602001604051908101604052809291908181526020018280546115db90612db8565b80156116285780601f106115fd57610100808354040283529160200191611628565b820191906000526020600020905b81548152906001019060200180831161160b57829003601f168201915b50505050509080600301805461163d90612db8565b80601f016020809104026020016040519081016040528092919081815260200182805461166990612db8565b80156116b65780601f1061168b576101008083540402835291602001916116b6565b820191906000526020600020905b81548152906001019060200180831161169957829003601f168201915b5050505050908060040180546116cb90612db8565b80601f01602080910402602001604051908101604052809291908181526020018280546116f790612db8565b80156117445780601f1061171957610100808354040283529160200191611744565b820191906000526020600020905b81548152906001019060200180831161172757829003601f168201915b50505050509080600501805461175990612db8565b80601f016020809104026020016040519081016040528092919081815260200182805461178590612db8565b80156117d25780601f106117a7576101008083540402835291602001916117d2565b820191906000526020600020905b8154815290600101906020018083116117b557829003601f168201915b5050505050908060060180546117e790612db8565b80601f016020809104026020016040519081016040528092919081815260200182805461181390612db8565b80156118605780601f1061183557610100808354040283529160200191611860565b820191906000526020600020905b81548152906001019060200180831161184357829003601f168201915b50505050509080600701805461187590612db8565b80601f01602080910402602001604051908101604052809291908181526020018280546118a190612db8565b80156118ee5780601f106118c3576101008083540402835291602001916118ee565b820191906000526020600020905b8154815290600101906020018083116118d157829003601f168201915b50505050509080600801805461190390612db8565b80601f016020809104026020016040519081016040528092919081815260200182805461192f90612db8565b801561197c5780601f106119515761010080835404028352916020019161197c565b820191906000526020600020905b81548152906001019060200180831161195f57829003601f168201915b50505050509080600901805461199190612db8565b80601f01602080910402602001604051908101604052809291908181526020018280546119bd90612db8565b8015611a0a5780601f106119df57610100808354040283529160200191611a0a565b820191906000526020600020905b8154815290600101906020018083116119ed57829003601f168201915b50505050509080600a018054611a1f90612db8565b80601f0160208091040260200160405190810160405280929190818152602001828054611a4b90612db8565b8015611a985780601f10611a6d57610100808354040283529160200191611a98565b820191906000526020600020905b815481529060010190602001808311611a7b57829003601f168201915b50505050509080600b018054611aad90612db8565b80601f0160208091040260200160405190810160405280929190818152602001828054611ad990612db8565b8015611b265780601f10611afb57610100808354040283529160200191611b26565b820191906000526020600020905b815481529060010190602001808311611b0957829003601f168201915b505050505090508c565b6060600080600090505b600080549050811015611be05783604051602001611b58919061330c565b6040516020818303038152906040528051906020012060008281548110611b8257611b81612ea1565b5b90600052602060002090600c0201600b01604051602001611ba391906133a6565b6040516020818303038152906040528051906020012003611bcd578180611bc990613288565b9250505b8080611bd890613288565b915050611b3a565b5060008167ffffffffffffffff811115611bfd57611bfc6127b3565b5b604051908082528060200260200182016040528015611c3657816020015b611c23612457565b815260200190600190039081611c1b5790505b509050600080600090505b60008054905081101561240b5785604051602001611c5f919061330c565b6040516020818303038152906040528051906020012060008281548110611c8957611c88612ea1565b5b90600052602060002090600c0201600b01604051602001611caa91906133a6565b60405160208183030381529060405280519060200120036123f85760008181548110611cd957611cd8612ea1565b5b90600052602060002090600c020160405180610180016040529081600082018054611d0390612db8565b80601f0160208091040260200160405190810160405280929190818152602001828054611d2f90612db8565b8015611d7c5780601f10611d5157610100808354040283529160200191611d7c565b820191906000526020600020905b815481529060010190602001808311611d5f57829003601f168201915b50505050508152602001600182018054611d9590612db8565b80601f0160208091040260200160405190810160405280929190818152602001828054611dc190612db8565b8015611e0e5780601f10611de357610100808354040283529160200191611e0e565b820191906000526020600020905b815481529060010190602001808311611df157829003601f168201915b50505050508152602001600282018054611e2790612db8565b80601f0160208091040260200160405190810160405280929190818152602001828054611e5390612db8565b8015611ea05780601f10611e7557610100808354040283529160200191611ea0565b820191906000526020600020905b815481529060010190602001808311611e8357829003601f168201915b50505050508152602001600382018054611eb990612db8565b80601f0160208091040260200160405190810160405280929190818152602001828054611ee590612db8565b8015611f325780601f10611f0757610100808354040283529160200191611f32565b820191906000526020600020905b815481529060010190602001808311611f1557829003601f168201915b50505050508152602001600482018054611f4b90612db8565b80601f0160208091040260200160405190810160405280929190818152602001828054611f7790612db8565b8015611fc45780601f10611f9957610100808354040283529160200191611fc4565b820191906000526020600020905b815481529060010190602001808311611fa757829003601f168201915b50505050508152602001600582018054611fdd90612db8565b80601f016020809104026020016040519081016040528092919081815260200182805461200990612db8565b80156120565780601f1061202b57610100808354040283529160200191612056565b820191906000526020600020905b81548152906001019060200180831161203957829003601f168201915b5050505050815260200160068201805461206f90612db8565b80601f016020809104026020016040519081016040528092919081815260200182805461209b90612db8565b80156120e85780601f106120bd576101008083540402835291602001916120e8565b820191906000526020600020905b8154815290600101906020018083116120cb57829003601f168201915b5050505050815260200160078201805461210190612db8565b80601f016020809104026020016040519081016040528092919081815260200182805461212d90612db8565b801561217a5780601f1061214f5761010080835404028352916020019161217a565b820191906000526020600020905b81548152906001019060200180831161215d57829003601f168201915b5050505050815260200160088201805461219390612db8565b80601f01602080910402602001604051908101604052809291908181526020018280546121bf90612db8565b801561220c5780601f106121e15761010080835404028352916020019161220c565b820191906000526020600020905b8154815290600101906020018083116121ef57829003601f168201915b5050505050815260200160098201805461222590612db8565b80601f016020809104026020016040519081016040528092919081815260200182805461225190612db8565b801561229e5780601f106122735761010080835404028352916020019161229e565b820191906000526020600020905b81548152906001019060200180831161228157829003601f168201915b50505050508152602001600a820180546122b790612db8565b80601f01602080910402602001604051908101604052809291908181526020018280546122e390612db8565b80156123305780601f1061230557610100808354040283529160200191612330565b820191906000526020600020905b81548152906001019060200180831161231357829003601f168201915b50505050508152602001600b8201805461234990612db8565b80601f016020809104026020016040519081016040528092919081815260200182805461237590612db8565b80156123c25780601f10612397576101008083540402835291602001916123c2565b820191906000526020600020905b8154815290600101906020018083116123a557829003601f168201915b5050505050815250508383815181106123de576123dd612ea1565b5b602002602001018190525081806123f490613288565b9250505b808061240390613288565b915050611c41565b50819350505050919050565b50805461242390612db8565b6000825580601f106124355750612454565b601f01602090049060005260206000209081019061245391906124b8565b5b50565b6040518061018001604052806060815260200160608152602001606081526020016060815260200160608152602001606081526020016060815260200160608152602001606081526020016060815260200160608152602001606081525090565b5b808211156124d15760008160009055506001016124b9565b5090565b600081519050919050565b600082825260208201905092915050565b6000819050602082019050919050565b600081519050919050565b600082825260208201905092915050565b60005b8381101561253b578082015181840152602081019050612520565b60008484015250505050565b6000601f19601f8301169050919050565b600061256382612501565b61256d818561250c565b935061257d81856020860161251d565b61258681612547565b840191505092915050565b60006101808301600083015184820360008601526125af8282612558565b915050602083015184820360208601526125c98282612558565b915050604083015184820360408601526125e38282612558565b915050606083015184820360608601526125fd8282612558565b915050608083015184820360808601526126178282612558565b91505060a083015184820360a08601526126318282612558565b91505060c083015184820360c086015261264b8282612558565b91505060e083015184820360e08601526126658282612558565b9150506101008301518482036101008601526126818282612558565b91505061012083015184820361012086015261269d8282612558565b9150506101408301518482036101408601526126b98282612558565b9150506101608301518482036101608601526126d58282612558565b9150508091505092915050565b60006126ee8383612591565b905092915050565b6000602082019050919050565b600061270e826124d5565b61271881856124e0565b93508360208202850161272a856124f1565b8060005b85811015612766578484038952815161274785826126e2565b9450612752836126f6565b925060208a0199505060018101905061272e565b50829750879550505050505092915050565b600060208201905081810360008301526127928184612703565b905092915050565b6000604051905090565b600080fd5b600080fd5b600080fd5b7f4e487b7100000000000000000000000000000000000000000000000000000000600052604160045260246000fd5b6127eb82612547565b810181811067ffffffffffffffff8211171561280a576128096127b3565b5b80604052505050565b600061281d61279a565b905061282982826127e2565b919050565b600067ffffffffffffffff821115612849576128486127b3565b5b602082029050602081019050919050565b600080fd5b600080fd5b600067ffffffffffffffff82111561287f5761287e6127b3565b5b61288882612547565b9050602081019050919050565b82818337600083830152505050565b60006128b76128b284612864565b612813565b9050828152602081018484840111156128d3576128d261285f565b5b6128de848285612895565b509392505050565b600082601f8301126128fb576128fa6127ae565b5b813561290b8482602086016128a4565b91505092915050565b60006129276129228461282e565b612813565b9050808382526020820190506020840283018581111561294a5761294961285a565b5b835b8181101561299157803567ffffffffffffffff81111561296f5761296e6127ae565b5b80860161297c89826128e6565b8552602085019450505060208101905061294c565b5050509392505050565b600082601f8301126129b0576129af6127ae565b5b81356129c0848260208601612914565b91505092915050565b6000602082840312156129df576129de6127a4565b5b600082013567ffffffffffffffff8111156129fd576129fc6127a9565b5b612a098482850161299b565b91505092915050565b600060208284031215612a2857612a276127a4565b5b600082013567ffffffffffffffff811115612a4657612a456127a9565b5b612a52848285016128e6565b91505092915050565b6000610180830160008301518482036000860152612a798282612558565b91505060208301518482036020860152612a938282612558565b91505060408301518482036040860152612aad8282612558565b91505060608301518482036060860152612ac78282612558565b91505060808301518482036080860152612ae18282612558565b91505060a083015184820360a0860152612afb8282612558565b91505060c083015184820360c0860152612b158282612558565b91505060e083015184820360e0860152612b2f8282612558565b915050610100830151848203610100860152612b4b8282612558565b915050610120830151848203610120860152612b678282612558565b915050610140830151848203610140860152612b838282612558565b915050610160830151848203610160860152612b9f8282612558565b9150508091505092915050565b60006020820190508181036000830152612bc68184612a5b565b905092915050565b6000819050919050565b612be181612bce565b8114612bec57600080fd5b50565b600081359050612bfe81612bd8565b92915050565b600060208284031215612c1a57612c196127a4565b5b6000612c2884828501612bef565b91505092915050565b600082825260208201905092915050565b6000612c4d82612501565b612c578185612c31565b9350612c6781856020860161251d565b612c7081612547565b840191505092915050565b6000610180820190508181036000830152612c96818f612c42565b90508181036020830152612caa818e612c42565b90508181036040830152612cbe818d612c42565b90508181036060830152612cd2818c612c42565b90508181036080830152612ce6818b612c42565b905081810360a0830152612cfa818a612c42565b905081810360c0830152612d0e8189612c42565b905081810360e0830152612d228188612c42565b9050818103610100830152612d378187612c42565b9050818103610120830152612d4c8186612c42565b9050818103610140830152612d618185612c42565b9050818103610160830152612d768184612c42565b90509d9c50505050505050505050505050565b7f4e487b7100000000000000000000000000000000000000000000000000000000600052602260045260246000fd5b60006002820490506001821680612dd057607f821691505b602082108103612de357612de2612d89565b5b50919050565b7f4572726f7220736f6d6520706172616d6574657273206d697373696e672e205360008201527f686f756c64206265206174206c6561737420313120706172616d65746572203160208201527f3200000000000000000000000000000000000000000000000000000000000000604082015250565b6000612e6b604183612c31565b9150612e7682612de9565b606082019050919050565b60006020820190508181036000830152612e9a81612e5e565b9050919050565b7f4e487b7100000000000000000000000000000000000000000000000000000000600052603260045260246000fd5b60008190508160005260206000209050919050565b60006020601f8301049050919050565b600082821b905092915050565b600060088302612f327fffffffffffffffffffffffffffffffffffffffffffffffffffffffffffffffff82612ef5565b612f3c8683612ef5565b95508019841693508086168417925050509392505050565b6000819050919050565b6000612f79612f74612f6f84612bce565b612f54565b612bce565b9050919050565b6000819050919050565b612f9383612f5e565b612fa7612f9f82612f80565b848454612f02565b825550505050565b600090565b612fbc612faf565b612fc7818484612f8a565b505050565b5b81811015612feb57612fe0600082612fb4565b600181019050612fcd565b5050565b601f8211156130305761300181612ed0565b61300a84612ee5565b81016020851015613019578190505b61302d61302585612ee5565b830182612fcc565b50505b505050565b600082821c905092915050565b600061305360001984600802613035565b1980831691505092915050565b600061306c8383613042565b9150826002028217905092915050565b61308582612501565b67ffffffffffffffff81111561309e5761309d6127b3565b5b6130a88254612db8565b6130b3828285612fef565b600060209050601f8311600181146130e657600084156130d4578287015190505b6130de8582613060565b865550613146565b601f1984166130f486612ed0565b60005b8281101561311c578489015182556001820191506020850194506020810190506130f7565b868310156131395784890151613135601f891682613042565b8355505b6001600288020188555050505b505050505050565b600060208201905081810360008301526131688184612c42565b905092915050565b7f4e487b7100000000000000000000000000000000000000000000000000000000600052603160045260246000fd5b600081905092915050565b60008190508160005260206000209050919050565b600081546131cc81612db8565b6131d6818661319f565b945060018216600081146131f1576001811461320657613239565b60ff1983168652811515820286019350613239565b61320f856131aa565b60005b8381101561323157815481890152600182019150602081019050613212565b838801955050505b50505092915050565b600061324e82846131bf565b915081905092915050565b7f4e487b7100000000000000000000000000000000000000000000000000000000600052601160045260246000fd5b600061329382612bce565b91507fffffffffffffffffffffffffffffffffffffffffffffffffffffffffffffffff82036132c5576132c4613259565b5b600182019050919050565b600081905092915050565b60006132e682612501565b6132f081856132d0565b935061330081856020860161251d565b80840191505092915050565b600061331882846132db565b915081905092915050565b6000815461333081612db8565b61333a81866132d0565b94506001821660008114613355576001811461336a5761339d565b60ff198316865281151582028601935061339d565b61337385612ed0565b60005b8381101561339557815481890152600182019150602081019050613376565b838801955050505b50505092915050565b60006133b28284613323565b91508190509291505056fea2646970667358221220d2adaeb25616d936ceec9b2ffecb8488ae3435e1ca84669b9cb975621aef8e4964736f6c63430008110033",
					"opcodes": "PUSH1 0x80 PUSH1 0x40 MSTORE CALLVALUE DUP1 ISZERO PUSH2 0x10 JUMPI PUSH1 0x0 DUP1 REVERT JUMPDEST POP PUSH2 0x33F3 DUP1 PUSH2 0x20 PUSH1 0x0 CODECOPY PUSH1 0x0 RETURN INVALID PUSH1 0x80 PUSH1 0x40 MSTORE CALLVALUE DUP1 ISZERO PUSH2 0x10 JUMPI PUSH1 0x0 DUP1 REVERT JUMPDEST POP PUSH1 0x4 CALLDATASIZE LT PUSH2 0x62 JUMPI PUSH1 0x0 CALLDATALOAD PUSH1 0xE0 SHR DUP1 PUSH4 0x376D83B9 EQ PUSH2 0x67 JUMPI DUP1 PUSH4 0x57A1CFB4 EQ PUSH2 0x85 JUMPI DUP1 PUSH4 0x589D157A EQ PUSH2 0xA1 JUMPI DUP1 PUSH4 0x6F593DB5 EQ PUSH2 0xAB JUMPI DUP1 PUSH4 0x768CEB9A EQ PUSH2 0xDB JUMPI DUP1 PUSH4 0x9E7AB31B EQ PUSH2 0x116 JUMPI JUMPDEST PUSH1 0x0 DUP1 REVERT JUMPDEST PUSH2 0x6F PUSH2 0x146 JUMP JUMPDEST PUSH1 0x40 MLOAD PUSH2 0x7C SWAP2 SWAP1 PUSH2 0x2778 JUMP JUMPDEST PUSH1 0x40 MLOAD DUP1 SWAP2 SUB SWAP1 RETURN JUMPDEST PUSH2 0x9F PUSH1 0x4 DUP1 CALLDATASIZE SUB DUP2 ADD SWAP1 PUSH2 0x9A SWAP2 SWAP1 PUSH2 0x29C9 JUMP JUMPDEST PUSH2 0x87E JUMP JUMPDEST STOP JUMPDEST PUSH2 0xA9 PUSH2 0xBEC JUMP JUMPDEST STOP JUMPDEST PUSH2 0xC5 PUSH1 0x4 DUP1 CALLDATASIZE SUB DUP2 ADD SWAP1 PUSH2 0xC0 SWAP2 SWAP1 PUSH2 0x2A12 JUMP JUMPDEST PUSH2 0xCD9 JUMP JUMPDEST PUSH1 0x40 MLOAD PUSH2 0xD2 SWAP2 SWAP1 PUSH2 0x2BAC JUMP JUMPDEST PUSH1 0x40 MLOAD DUP1 SWAP2 SUB SWAP1 RETURN JUMPDEST PUSH2 0xF5 PUSH1 0x4 DUP1 CALLDATASIZE SUB DUP2 ADD SWAP1 PUSH2 0xF0 SWAP2 SWAP1 PUSH2 0x2C04 JUMP JUMPDEST PUSH2 0x1460 JUMP JUMPDEST PUSH1 0x40 MLOAD PUSH2 0x10D SWAP13 SWAP12 SWAP11 SWAP10 SWAP9 SWAP8 SWAP7 SWAP6 SWAP5 SWAP4 SWAP3 SWAP2 SWAP1 PUSH2 0x2C7B JUMP JUMPDEST PUSH1 0x40 MLOAD DUP1 SWAP2 SUB SWAP1 RETURN JUMPDEST PUSH2 0x130 PUSH1 0x4 DUP1 CALLDATASIZE SUB DUP2 ADD SWAP1 PUSH2 0x12B SWAP2 SWAP1 PUSH2 0x2A12 JUMP JUMPDEST PUSH2 0x1B30 JUMP JUMPDEST PUSH1 0x40 MLOAD PUSH2 0x13D SWAP2 SWAP1 PUSH2 0x2778 JUMP JUMPDEST PUSH1 0x40 MLOAD DUP1 SWAP2 SUB SWAP1 RETURN JUMPDEST PUSH1 0x60 PUSH1 0x0 DUP1 SLOAD DUP1 PUSH1 0x20 MUL PUSH1 0x20 ADD PUSH1 0x40 MLOAD SWAP1 DUP2 ADD PUSH1 0x40 MSTORE DUP1 SWAP3 SWAP2 SWAP1 DUP2 DUP2 MSTORE PUSH1 0x20 ADD PUSH1 0x0 SWAP1 JUMPDEST DUP3 DUP3 LT ISZERO PUSH2 0x875 JUMPI DUP4 DUP3 SWAP1 PUSH1 0x0 MSTORE PUSH1 0x20 PUSH1 0x0 KECCAK256 SWAP1 PUSH1 0xC MUL ADD PUSH1 0x40 MLOAD DUP1 PUSH2 0x180 ADD PUSH1 0x40 MSTORE SWAP1 DUP2 PUSH1 0x0 DUP3 ADD DUP1 SLOAD PUSH2 0x19E SWAP1 PUSH2 0x2DB8 JUMP JUMPDEST DUP1 PUSH1 0x1F ADD PUSH1 0x20 DUP1 SWAP2 DIV MUL PUSH1 0x20 ADD PUSH1 0x40 MLOAD SWAP1 DUP2 ADD PUSH1 0x40 MSTORE DUP1 SWAP3 SWAP2 SWAP1 DUP2 DUP2 MSTORE PUSH1 0x20 ADD DUP3 DUP1 SLOAD PUSH2 0x1CA SWAP1 PUSH2 0x2DB8 JUMP JUMPDEST DUP1 ISZERO PUSH2 0x217 JUMPI DUP1 PUSH1 0x1F LT PUSH2 0x1EC JUMPI PUSH2 0x100 DUP1 DUP4 SLOAD DIV MUL DUP4 MSTORE SWAP2 PUSH1 0x20 ADD SWAP2 PUSH2 0x217 JUMP JUMPDEST DUP3 ADD SWAP2 SWAP1 PUSH1 0x0 MSTORE PUSH1 0x20 PUSH1 0x0 KECCAK256 SWAP1 JUMPDEST DUP2 SLOAD DUP2 MSTORE SWAP1 PUSH1 0x1 ADD SWAP1 PUSH1 0x20 ADD DUP1 DUP4 GT PUSH2 0x1FA JUMPI DUP3 SWAP1 SUB PUSH1 0x1F AND DUP3 ADD SWAP2 JUMPDEST POP POP POP POP POP DUP2 MSTORE PUSH1 0x20 ADD PUSH1 0x1 DUP3 ADD DUP1 SLOAD PUSH2 0x230 SWAP1 PUSH2 0x2DB8 JUMP JUMPDEST DUP1 PUSH1 0x1F ADD PUSH1 0x20 DUP1 SWAP2 DIV MUL PUSH1 0x20 ADD PUSH1 0x40 MLOAD SWAP1 DUP2 ADD PUSH1 0x40 MSTORE DUP1 SWAP3 SWAP2 SWAP1 DUP2 DUP2 MSTORE PUSH1 0x20 ADD DUP3 DUP1 SLOAD PUSH2 0x25C SWAP1 PUSH2 0x2DB8 JUMP JUMPDEST DUP1 ISZERO PUSH2 0x2A9 JUMPI DUP1 PUSH1 0x1F LT PUSH2 0x27E JUMPI PUSH2 0x100 DUP1 DUP4 SLOAD DIV MUL DUP4 MSTORE SWAP2 PUSH1 0x20 ADD SWAP2 PUSH2 0x2A9 JUMP JUMPDEST DUP3 ADD SWAP2 SWAP1 PUSH1 0x0 MSTORE PUSH1 0x20 PUSH1 0x0 KECCAK256 SWAP1 JUMPDEST DUP2 SLOAD DUP2 MSTORE SWAP1 PUSH1 0x1 ADD SWAP1 PUSH1 0x20 ADD DUP1 DUP4 GT PUSH2 0x28C JUMPI DUP3 SWAP1 SUB PUSH1 0x1F AND DUP3 ADD SWAP2 JUMPDEST POP POP POP POP POP DUP2 MSTORE PUSH1 0x20 ADD PUSH1 0x2 DUP3 ADD DUP1 SLOAD PUSH2 0x2C2 SWAP1 PUSH2 0x2DB8 JUMP JUMPDEST DUP1 PUSH1 0x1F ADD PUSH1 0x20 DUP1 SWAP2 DIV MUL PUSH1 0x20 ADD PUSH1 0x40 MLOAD SWAP1 DUP2 ADD PUSH1 0x40 MSTORE DUP1 SWAP3 SWAP2 SWAP1 DUP2 DUP2 MSTORE PUSH1 0x20 ADD DUP3 DUP1 SLOAD PUSH2 0x2EE SWAP1 PUSH2 0x2DB8 JUMP JUMPDEST DUP1 ISZERO PUSH2 0x33B JUMPI DUP1 PUSH1 0x1F LT PUSH2 0x310 JUMPI PUSH2 0x100 DUP1 DUP4 SLOAD DIV MUL DUP4 MSTORE SWAP2 PUSH1 0x20 ADD SWAP2 PUSH2 0x33B JUMP JUMPDEST DUP3 ADD SWAP2 SWAP1 PUSH1 0x0 MSTORE PUSH1 0x20 PUSH1 0x0 KECCAK256 SWAP1 JUMPDEST DUP2 SLOAD DUP2 MSTORE SWAP1 PUSH1 0x1 ADD SWAP1 PUSH1 0x20 ADD DUP1 DUP4 GT PUSH2 0x31E JUMPI DUP3 SWAP1 SUB PUSH1 0x1F AND DUP3 ADD SWAP2 JUMPDEST POP POP POP POP POP DUP2 MSTORE PUSH1 0x20 ADD PUSH1 0x3 DUP3 ADD DUP1 SLOAD PUSH2 0x354 SWAP1 PUSH2 0x2DB8 JUMP JUMPDEST DUP1 PUSH1 0x1F ADD PUSH1 0x20 DUP1 SWAP2 DIV MUL PUSH1 0x20 ADD PUSH1 0x40 MLOAD SWAP1 DUP2 ADD PUSH1 0x40 MSTORE DUP1 SWAP3 SWAP2 SWAP1 DUP2 DUP2 MSTORE PUSH1 0x20 ADD DUP3 DUP1 SLOAD PUSH2 0x380 SWAP1 PUSH2 0x2DB8 JUMP JUMPDEST DUP1 ISZERO PUSH2 0x3CD JUMPI DUP1 PUSH1 0x1F LT PUSH2 0x3A2 JUMPI PUSH2 0x100 DUP1 DUP4 SLOAD DIV MUL DUP4 MSTORE SWAP2 PUSH1 0x20 ADD SWAP2 PUSH2 0x3CD JUMP JUMPDEST DUP3 ADD SWAP2 SWAP1 PUSH1 0x0 MSTORE PUSH1 0x20 PUSH1 0x0 KECCAK256 SWAP1 JUMPDEST DUP2 SLOAD DUP2 MSTORE SWAP1 PUSH1 0x1 ADD SWAP1 PUSH1 0x20 ADD DUP1 DUP4 GT PUSH2 0x3B0 JUMPI DUP3 SWAP1 SUB PUSH1 0x1F AND DUP3 ADD SWAP2 JUMPDEST POP POP POP POP POP DUP2 MSTORE PUSH1 0x20 ADD PUSH1 0x4 DUP3 ADD DUP1 SLOAD PUSH2 0x3E6 SWAP1 PUSH2 0x2DB8 JUMP JUMPDEST DUP1 PUSH1 0x1F ADD PUSH1 0x20 DUP1 SWAP2 DIV MUL PUSH1 0x20 ADD PUSH1 0x40 MLOAD SWAP1 DUP2 ADD PUSH1 0x40 MSTORE DUP1 SWAP3 SWAP2 SWAP1 DUP2 DUP2 MSTORE PUSH1 0x20 ADD DUP3 DUP1 SLOAD PUSH2 0x412 SWAP1 PUSH2 0x2DB8 JUMP JUMPDEST DUP1 ISZERO PUSH2 0x45F JUMPI DUP1 PUSH1 0x1F LT PUSH2 0x434 JUMPI PUSH2 0x100 DUP1 DUP4 SLOAD DIV MUL DUP4 MSTORE SWAP2 PUSH1 0x20 ADD SWAP2 PUSH2 0x45F JUMP JUMPDEST DUP3 ADD SWAP2 SWAP1 PUSH1 0x0 MSTORE PUSH1 0x20 PUSH1 0x0 KECCAK256 SWAP1 JUMPDEST DUP2 SLOAD DUP2 MSTORE SWAP1 PUSH1 0x1 ADD SWAP1 PUSH1 0x20 ADD DUP1 DUP4 GT PUSH2 0x442 JUMPI DUP3 SWAP1 SUB PUSH1 0x1F AND DUP3 ADD SWAP2 JUMPDEST POP POP POP POP POP DUP2 MSTORE PUSH1 0x20 ADD PUSH1 0x5 DUP3 ADD DUP1 SLOAD PUSH2 0x478 SWAP1 PUSH2 0x2DB8 JUMP JUMPDEST DUP1 PUSH1 0x1F ADD PUSH1 0x20 DUP1 SWAP2 DIV MUL PUSH1 0x20 ADD PUSH1 0x40 MLOAD SWAP1 DUP2 ADD PUSH1 0x40 MSTORE DUP1 SWAP3 SWAP2 SWAP1 DUP2 DUP2 MSTORE PUSH1 0x20 ADD DUP3 DUP1 SLOAD PUSH2 0x4A4 SWAP1 PUSH2 0x2DB8 JUMP JUMPDEST DUP1 ISZERO PUSH2 0x4F1 JUMPI DUP1 PUSH1 0x1F LT PUSH2 0x4C6 JUMPI PUSH2 0x100 DUP1 DUP4 SLOAD DIV MUL DUP4 MSTORE SWAP2 PUSH1 0x20 ADD SWAP2 PUSH2 0x4F1 JUMP JUMPDEST DUP3 ADD SWAP2 SWAP1 PUSH1 0x0 MSTORE PUSH1 0x20 PUSH1 0x0 KECCAK256 SWAP1 JUMPDEST DUP2 SLOAD DUP2 MSTORE SWAP1 PUSH1 0x1 ADD SWAP1 PUSH1 0x20 ADD DUP1 DUP4 GT PUSH2 0x4D4 JUMPI DUP3 SWAP1 SUB PUSH1 0x1F AND DUP3 ADD SWAP2 JUMPDEST POP POP POP POP POP DUP2 MSTORE PUSH1 0x20 ADD PUSH1 0x6 DUP3 ADD DUP1 SLOAD PUSH2 0x50A SWAP1 PUSH2 0x2DB8 JUMP JUMPDEST DUP1 PUSH1 0x1F ADD PUSH1 0x20 DUP1 SWAP2 DIV MUL PUSH1 0x20 ADD PUSH1 0x40 MLOAD SWAP1 DUP2 ADD PUSH1 0x40 MSTORE DUP1 SWAP3 SWAP2 SWAP1 DUP2 DUP2 MSTORE PUSH1 0x20 ADD DUP3 DUP1 SLOAD PUSH2 0x536 SWAP1 PUSH2 0x2DB8 JUMP JUMPDEST DUP1 ISZERO PUSH2 0x583 JUMPI DUP1 PUSH1 0x1F LT PUSH2 0x558 JUMPI PUSH2 0x100 DUP1 DUP4 SLOAD DIV MUL DUP4 MSTORE SWAP2 PUSH1 0x20 ADD SWAP2 PUSH2 0x583 JUMP JUMPDEST DUP3 ADD SWAP2 SWAP1 PUSH1 0x0 MSTORE PUSH1 0x20 PUSH1 0x0 KECCAK256 SWAP1 JUMPDEST DUP2 SLOAD DUP2 MSTORE SWAP1 PUSH1 0x1 ADD SWAP1 PUSH1 0x20 ADD DUP1 DUP4 GT PUSH2 0x566 JUMPI DUP3 SWAP1 SUB PUSH1 0x1F AND DUP3 ADD SWAP2 JUMPDEST POP POP POP POP POP DUP2 MSTORE PUSH1 0x20 ADD PUSH1 0x7 DUP3 ADD DUP1 SLOAD PUSH2 0x59C SWAP1 PUSH2 0x2DB8 JUMP JUMPDEST DUP1 PUSH1 0x1F ADD PUSH1 0x20 DUP1 SWAP2 DIV MUL PUSH1 0x20 ADD PUSH1 0x40 MLOAD SWAP1 DUP2 ADD PUSH1 0x40 MSTORE DUP1 SWAP3 SWAP2 SWAP1 DUP2 DUP2 MSTORE PUSH1 0x20 ADD DUP3 DUP1 SLOAD PUSH2 0x5C8 SWAP1 PUSH2 0x2DB8 JUMP JUMPDEST DUP1 ISZERO PUSH2 0x615 JUMPI DUP1 PUSH1 0x1F LT PUSH2 0x5EA JUMPI PUSH2 0x100 DUP1 DUP4 SLOAD DIV MUL DUP4 MSTORE SWAP2 PUSH1 0x20 ADD SWAP2 PUSH2 0x615 JUMP JUMPDEST DUP3 ADD SWAP2 SWAP1 PUSH1 0x0 MSTORE PUSH1 0x20 PUSH1 0x0 KECCAK256 SWAP1 JUMPDEST DUP2 SLOAD DUP2 MSTORE SWAP1 PUSH1 0x1 ADD SWAP1 PUSH1 0x20 ADD DUP1 DUP4 GT PUSH2 0x5F8 JUMPI DUP3 SWAP1 SUB PUSH1 0x1F AND DUP3 ADD SWAP2 JUMPDEST POP POP POP POP POP DUP2 MSTORE PUSH1 0x20 ADD PUSH1 0x8 DUP3 ADD DUP1 SLOAD PUSH2 0x62E SWAP1 PUSH2 0x2DB8 JUMP JUMPDEST DUP1 PUSH1 0x1F ADD PUSH1 0x20 DUP1 SWAP2 DIV MUL PUSH1 0x20 ADD PUSH1 0x40 MLOAD SWAP1 DUP2 ADD PUSH1 0x40 MSTORE DUP1 SWAP3 SWAP2 SWAP1 DUP2 DUP2 MSTORE PUSH1 0x20 ADD DUP3 DUP1 SLOAD PUSH2 0x65A SWAP1 PUSH2 0x2DB8 JUMP JUMPDEST DUP1 ISZERO PUSH2 0x6A7 JUMPI DUP1 PUSH1 0x1F LT PUSH2 0x67C JUMPI PUSH2 0x100 DUP1 DUP4 SLOAD DIV MUL DUP4 MSTORE SWAP2 PUSH1 0x20 ADD SWAP2 PUSH2 0x6A7 JUMP JUMPDEST DUP3 ADD SWAP2 SWAP1 PUSH1 0x0 MSTORE PUSH1 0x20 PUSH1 0x0 KECCAK256 SWAP1 JUMPDEST DUP2 SLOAD DUP2 MSTORE SWAP1 PUSH1 0x1 ADD SWAP1 PUSH1 0x20 ADD DUP1 DUP4 GT PUSH2 0x68A JUMPI DUP3 SWAP1 SUB PUSH1 0x1F AND DUP3 ADD SWAP2 JUMPDEST POP POP POP POP POP DUP2 MSTORE PUSH1 0x20 ADD PUSH1 0x9 DUP3 ADD DUP1 SLOAD PUSH2 0x6C0 SWAP1 PUSH2 0x2DB8 JUMP JUMPDEST DUP1 PUSH1 0x1F ADD PUSH1 0x20 DUP1 SWAP2 DIV MUL PUSH1 0x20 ADD PUSH1 0x40 MLOAD SWAP1 DUP2 ADD PUSH1 0x40 MSTORE DUP1 SWAP3 SWAP2 SWAP1 DUP2 DUP2 MSTORE PUSH1 0x20 ADD DUP3 DUP1 SLOAD PUSH2 0x6EC SWAP1 PUSH2 0x2DB8 JUMP JUMPDEST DUP1 ISZERO PUSH2 0x739 JUMPI DUP1 PUSH1 0x1F LT PUSH2 0x70E JUMPI PUSH2 0x100 DUP1 DUP4 SLOAD DIV MUL DUP4 MSTORE SWAP2 PUSH1 0x20 ADD SWAP2 PUSH2 0x739 JUMP JUMPDEST DUP3 ADD SWAP2 SWAP1 PUSH1 0x0 MSTORE PUSH1 0x20 PUSH1 0x0 KECCAK256 SWAP1 JUMPDEST DUP2 SLOAD DUP2 MSTORE SWAP1 PUSH1 0x1 ADD SWAP1 PUSH1 0x20 ADD DUP1 DUP4 GT PUSH2 0x71C JUMPI DUP3 SWAP1 SUB PUSH1 0x1F AND DUP3 ADD SWAP2 JUMPDEST POP POP POP POP POP DUP2 MSTORE PUSH1 0x20 ADD PUSH1 0xA DUP3 ADD DUP1 SLOAD PUSH2 0x752 SWAP1 PUSH2 0x2DB8 JUMP JUMPDEST DUP1 PUSH1 0x1F ADD PUSH1 0x20 DUP1 SWAP2 DIV MUL PUSH1 0x20 ADD PUSH1 0x40 MLOAD SWAP1 DUP2 ADD PUSH1 0x40 MSTORE DUP1 SWAP3 SWAP2 SWAP1 DUP2 DUP2 MSTORE PUSH1 0x20 ADD DUP3 DUP1 SLOAD PUSH2 0x77E SWAP1 PUSH2 0x2DB8 JUMP JUMPDEST DUP1 ISZERO PUSH2 0x7CB JUMPI DUP1 PUSH1 0x1F LT PUSH2 0x7A0 JUMPI PUSH2 0x100 DUP1 DUP4 SLOAD DIV MUL DUP4 MSTORE SWAP2 PUSH1 0x20 ADD SWAP2 PUSH2 0x7CB JUMP JUMPDEST DUP3 ADD SWAP2 SWAP1 PUSH1 0x0 MSTORE PUSH1 0x20 PUSH1 0x0 KECCAK256 SWAP1 JUMPDEST DUP2 SLOAD DUP2 MSTORE SWAP1 PUSH1 0x1 ADD SWAP1 PUSH1 0x20 ADD DUP1 DUP4 GT PUSH2 0x7AE JUMPI DUP3 SWAP1 SUB PUSH1 0x1F AND DUP3 ADD SWAP2 JUMPDEST POP POP POP POP POP DUP2 MSTORE PUSH1 0x20 ADD PUSH1 0xB DUP3 ADD DUP1 SLOAD PUSH2 0x7E4 SWAP1 PUSH2 0x2DB8 JUMP JUMPDEST DUP1 PUSH1 0x1F ADD PUSH1 0x20 DUP1 SWAP2 DIV MUL PUSH1 0x20 ADD PUSH1 0x40 MLOAD SWAP1 DUP2 ADD PUSH1 0x40 MSTORE DUP1 SWAP3 SWAP2 SWAP1 DUP2 DUP2 MSTORE PUSH1 0x20 ADD DUP3 DUP1 SLOAD PUSH2 0x810 SWAP1 PUSH2 0x2DB8 JUMP JUMPDEST DUP1 ISZERO PUSH2 0x85D JUMPI DUP1 PUSH1 0x1F LT PUSH2 0x832 JUMPI PUSH2 0x100 DUP1 DUP4 SLOAD DIV MUL DUP4 MSTORE SWAP2 PUSH1 0x20 ADD SWAP2 PUSH2 0x85D JUMP JUMPDEST DUP3 ADD SWAP2 SWAP1 PUSH1 0x0 MSTORE PUSH1 0x20 PUSH1 0x0 KECCAK256 SWAP1 JUMPDEST DUP2 SLOAD DUP2 MSTORE SWAP1 PUSH1 0x1 ADD SWAP1 PUSH1 0x20 ADD DUP1 DUP4 GT PUSH2 0x840 JUMPI DUP3 SWAP1 SUB PUSH1 0x1F AND DUP3 ADD SWAP2 JUMPDEST POP POP POP POP POP DUP2 MSTORE POP POP DUP2 MSTORE PUSH1 0x20 ADD SWAP1 PUSH1 0x1 ADD SWAP1 PUSH2 0x16A JUMP JUMPDEST POP POP POP POP SWAP1 POP SWAP1 JUMP JUMPDEST PUSH1 0xC DUP2 MLOAD EQ PUSH2 0x8C2 JUMPI PUSH1 0x40 MLOAD PUSH32 0x8C379A000000000000000000000000000000000000000000000000000000000 DUP2 MSTORE PUSH1 0x4 ADD PUSH2 0x8B9 SWAP1 PUSH2 0x2E81 JUMP JUMPDEST PUSH1 0x40 MLOAD DUP1 SWAP2 SUB SWAP1 REVERT JUMPDEST PUSH1 0x0 PUSH1 0x40 MLOAD DUP1 PUSH2 0x180 ADD PUSH1 0x40 MSTORE DUP1 DUP4 PUSH1 0x0 DUP2 MLOAD DUP2 LT PUSH2 0x8E4 JUMPI PUSH2 0x8E3 PUSH2 0x2EA1 JUMP JUMPDEST JUMPDEST PUSH1 0x20 MUL PUSH1 0x20 ADD ADD MLOAD DUP2 MSTORE PUSH1 0x20 ADD DUP4 PUSH1 0x1 DUP2 MLOAD DUP2 LT PUSH2 0x905 JUMPI PUSH2 0x904 PUSH2 0x2EA1 JUMP JUMPDEST JUMPDEST PUSH1 0x20 MUL PUSH1 0x20 ADD ADD MLOAD DUP2 MSTORE PUSH1 0x20 ADD DUP4 PUSH1 0x2 DUP2 MLOAD DUP2 LT PUSH2 0x926 JUMPI PUSH2 0x925 PUSH2 0x2EA1 JUMP JUMPDEST JUMPDEST PUSH1 0x20 MUL PUSH1 0x20 ADD ADD MLOAD DUP2 MSTORE PUSH1 0x20 ADD DUP4 PUSH1 0x3 DUP2 MLOAD DUP2 LT PUSH2 0x947 JUMPI PUSH2 0x946 PUSH2 0x2EA1 JUMP JUMPDEST JUMPDEST PUSH1 0x20 MUL PUSH1 0x20 ADD ADD MLOAD DUP2 MSTORE PUSH1 0x20 ADD DUP4 PUSH1 0x4 DUP2 MLOAD DUP2 LT PUSH2 0x968 JUMPI PUSH2 0x967 PUSH2 0x2EA1 JUMP JUMPDEST JUMPDEST PUSH1 0x20 MUL PUSH1 0x20 ADD ADD MLOAD DUP2 MSTORE PUSH1 0x20 ADD DUP4 PUSH1 0x5 DUP2 MLOAD DUP2 LT PUSH2 0x989 JUMPI PUSH2 0x988 PUSH2 0x2EA1 JUMP JUMPDEST JUMPDEST PUSH1 0x20 MUL PUSH1 0x20 ADD ADD MLOAD DUP2 MSTORE PUSH1 0x20 ADD DUP4 PUSH1 0x6 DUP2 MLOAD DUP2 LT PUSH2 0x9AA JUMPI PUSH2 0x9A9 PUSH2 0x2EA1 JUMP JUMPDEST JUMPDEST PUSH1 0x20 MUL PUSH1 0x20 ADD ADD MLOAD DUP2 MSTORE PUSH1 0x20 ADD DUP4 PUSH1 0x7 DUP2 MLOAD DUP2 LT PUSH2 0x9CB JUMPI PUSH2 0x9CA PUSH2 0x2EA1 JUMP JUMPDEST JUMPDEST PUSH1 0x20 MUL PUSH1 0x20 ADD ADD MLOAD DUP2 MSTORE PUSH1 0x20 ADD DUP4 PUSH1 0x8 DUP2 MLOAD DUP2 LT PUSH2 0x9EC JUMPI PUSH2 0x9EB PUSH2 0x2EA1 JUMP JUMPDEST JUMPDEST PUSH1 0x20 MUL PUSH1 0x20 ADD ADD MLOAD DUP2 MSTORE PUSH1 0x20 ADD DUP4 PUSH1 0x9 DUP2 MLOAD DUP2 LT PUSH2 0xA0D JUMPI PUSH2 0xA0C PUSH2 0x2EA1 JUMP JUMPDEST JUMPDEST PUSH1 0x20 MUL PUSH1 0x20 ADD ADD MLOAD DUP2 MSTORE PUSH1 0x20 ADD DUP4 PUSH1 0xA DUP2 MLOAD DUP2 LT PUSH2 0xA2E JUMPI PUSH2 0xA2D PUSH2 0x2EA1 JUMP JUMPDEST JUMPDEST PUSH1 0x20 MUL PUSH1 0x20 ADD ADD MLOAD DUP2 MSTORE PUSH1 0x20 ADD DUP4 PUSH1 0xB DUP2 MLOAD DUP2 LT PUSH2 0xA4F JUMPI PUSH2 0xA4E PUSH2 0x2EA1 JUMP JUMPDEST JUMPDEST PUSH1 0x20 MUL PUSH1 0x20 ADD ADD MLOAD DUP2 MSTORE POP SWAP1 POP PUSH1 0x0 DUP2 SWAP1 DUP1 PUSH1 0x1 DUP2 SLOAD ADD DUP1 DUP3 SSTORE DUP1 SWAP2 POP POP PUSH1 0x1 SWAP1 SUB SWAP1 PUSH1 0x0 MSTORE PUSH1 0x20 PUSH1 0x0 KECCAK256 SWAP1 PUSH1 0xC MUL ADD PUSH1 0x0 SWAP1 SWAP2 SWAP1 SWAP2 SWAP1 SWAP2 POP PUSH1 0x0 DUP3 ADD MLOAD DUP2 PUSH1 0x0 ADD SWAP1 DUP2 PUSH2 0xA9D SWAP2 SWAP1 PUSH2 0x307C JUMP JUMPDEST POP PUSH1 0x20 DUP3 ADD MLOAD DUP2 PUSH1 0x1 ADD SWAP1 DUP2 PUSH2 0xAB3 SWAP2 SWAP1 PUSH2 0x307C JUMP JUMPDEST POP PUSH1 0x40 DUP3 ADD MLOAD DUP2 PUSH1 0x2 ADD SWAP1 DUP2 PUSH2 0xAC9 SWAP2 SWAP1 PUSH2 0x307C JUMP JUMPDEST POP PUSH1 0x60 DUP3 ADD MLOAD DUP2 PUSH1 0x3 ADD SWAP1 DUP2 PUSH2 0xADF SWAP2 SWAP1 PUSH2 0x307C JUMP JUMPDEST POP PUSH1 0x80 DUP3 ADD MLOAD DUP2 PUSH1 0x4 ADD SWAP1 DUP2 PUSH2 0xAF5 SWAP2 SWAP1 PUSH2 0x307C JUMP JUMPDEST POP PUSH1 0xA0 DUP3 ADD MLOAD DUP2 PUSH1 0x5 ADD SWAP1 DUP2 PUSH2 0xB0B SWAP2 SWAP1 PUSH2 0x307C JUMP JUMPDEST POP PUSH1 0xC0 DUP3 ADD MLOAD DUP2 PUSH1 0x6 ADD SWAP1 DUP2 PUSH2 0xB21 SWAP2 SWAP1 PUSH2 0x307C JUMP JUMPDEST POP PUSH1 0xE0 DUP3 ADD MLOAD DUP2 PUSH1 0x7 ADD SWAP1 DUP2 PUSH2 0xB37 SWAP2 SWAP1 PUSH2 0x307C JUMP JUMPDEST POP PUSH2 0x100 DUP3 ADD MLOAD DUP2 PUSH1 0x8 ADD SWAP1 DUP2 PUSH2 0xB4E SWAP2 SWAP1 PUSH2 0x307C JUMP JUMPDEST POP PUSH2 0x120 DUP3 ADD MLOAD DUP2 PUSH1 0x9 ADD SWAP1 DUP2 PUSH2 0xB65 SWAP2 SWAP1 PUSH2 0x307C JUMP JUMPDEST POP PUSH2 0x140 DUP3 ADD MLOAD DUP2 PUSH1 0xA ADD SWAP1 DUP2 PUSH2 0xB7C SWAP2 SWAP1 PUSH2 0x307C JUMP JUMPDEST POP PUSH2 0x160 DUP3 ADD MLOAD DUP2 PUSH1 0xB ADD SWAP1 DUP2 PUSH2 0xB93 SWAP2 SWAP1 PUSH2 0x307C JUMP JUMPDEST POP POP POP PUSH32 0x33EB06DBC0FAD99FA48B1FD5DF05652D9C7F7EFD717CE00BC61AE96694119B52 DUP3 PUSH1 0x0 DUP2 MLOAD DUP2 LT PUSH2 0xBCB JUMPI PUSH2 0xBCA PUSH2 0x2EA1 JUMP JUMPDEST JUMPDEST PUSH1 0x20 MUL PUSH1 0x20 ADD ADD MLOAD PUSH1 0x40 MLOAD PUSH2 0xBE0 SWAP2 SWAP1 PUSH2 0x314E JUMP JUMPDEST PUSH1 0x40 MLOAD DUP1 SWAP2 SUB SWAP1 LOG1 POP POP JUMP JUMPDEST PUSH1 0x0 DUP1 SLOAD DUP1 PUSH2 0xBFE JUMPI PUSH2 0xBFD PUSH2 0x3170 JUMP JUMPDEST JUMPDEST PUSH1 0x1 SWAP1 SUB DUP2 DUP2 SWAP1 PUSH1 0x0 MSTORE PUSH1 0x20 PUSH1 0x0 KECCAK256 SWAP1 PUSH1 0xC MUL ADD PUSH1 0x0 DUP1 DUP3 ADD PUSH1 0x0 PUSH2 0xC23 SWAP2 SWAP1 PUSH2 0x2417 JUMP JUMPDEST PUSH1 0x1 DUP3 ADD PUSH1 0x0 PUSH2 0xC33 SWAP2 SWAP1 PUSH2 0x2417 JUMP JUMPDEST PUSH1 0x2 DUP3 ADD PUSH1 0x0 PUSH2 0xC43 SWAP2 SWAP1 PUSH2 0x2417 JUMP JUMPDEST PUSH1 0x3 DUP3 ADD PUSH1 0x0 PUSH2 0xC53 SWAP2 SWAP1 PUSH2 0x2417 JUMP JUMPDEST PUSH1 0x4 DUP3 ADD PUSH1 0x0 PUSH2 0xC63 SWAP2 SWAP1 PUSH2 0x2417 JUMP JUMPDEST PUSH1 0x5 DUP3 ADD PUSH1 0x0 PUSH2 0xC73 SWAP2 SWAP1 PUSH2 0x2417 JUMP JUMPDEST PUSH1 0x6 DUP3 ADD PUSH1 0x0 PUSH2 0xC83 SWAP2 SWAP1 PUSH2 0x2417 JUMP JUMPDEST PUSH1 0x7 DUP3 ADD PUSH1 0x0 PUSH2 0xC93 SWAP2 SWAP1 PUSH2 0x2417 JUMP JUMPDEST PUSH1 0x8 DUP3 ADD PUSH1 0x0 PUSH2 0xCA3 SWAP2 SWAP1 PUSH2 0x2417 JUMP JUMPDEST PUSH1 0x9 DUP3 ADD PUSH1 0x0 PUSH2 0xCB3 SWAP2 SWAP1 PUSH2 0x2417 JUMP JUMPDEST PUSH1 0xA DUP3 ADD PUSH1 0x0 PUSH2 0xCC3 SWAP2 SWAP1 PUSH2 0x2417 JUMP JUMPDEST PUSH1 0xB DUP3 ADD PUSH1 0x0 PUSH2 0xCD3 SWAP2 SWAP1 PUSH2 0x2417 JUMP JUMPDEST POP POP SWAP1 SSTORE JUMP JUMPDEST PUSH2 0xCE1 PUSH2 0x2457 JUMP JUMPDEST PUSH1 0x0 JUMPDEST PUSH1 0x0 DUP1 SLOAD SWAP1 POP DUP2 LT ISZERO PUSH2 0x1459 JUMPI DUP3 DUP1 MLOAD SWAP1 PUSH1 0x20 ADD KECCAK256 PUSH1 0x0 DUP3 DUP2 SLOAD DUP2 LT PUSH2 0xD0D JUMPI PUSH2 0xD0C PUSH2 0x2EA1 JUMP JUMPDEST JUMPDEST SWAP1 PUSH1 0x0 MSTORE PUSH1 0x20 PUSH1 0x0 KECCAK256 SWAP1 PUSH1 0xC MUL ADD PUSH1 0x0 ADD PUSH1 0x40 MLOAD PUSH2 0xD2B SWAP2 SWAP1 PUSH2 0x3242 JUMP JUMPDEST PUSH1 0x40 MLOAD DUP1 SWAP2 SUB SWAP1 KECCAK256 SUB PUSH2 0x1446 JUMPI PUSH1 0x0 DUP2 DUP2 SLOAD DUP2 LT PUSH2 0xD4C JUMPI PUSH2 0xD4B PUSH2 0x2EA1 JUMP JUMPDEST JUMPDEST SWAP1 PUSH1 0x0 MSTORE PUSH1 0x20 PUSH1 0x0 KECCAK256 SWAP1 PUSH1 0xC MUL ADD PUSH1 0x40 MLOAD DUP1 PUSH2 0x180 ADD PUSH1 0x40 MSTORE SWAP1 DUP2 PUSH1 0x0 DUP3 ADD DUP1 SLOAD PUSH2 0xD76 SWAP1 PUSH2 0x2DB8 JUMP JUMPDEST DUP1 PUSH1 0x1F ADD PUSH1 0x20 DUP1 SWAP2 DIV MUL PUSH1 0x20 ADD PUSH1 0x40 MLOAD SWAP1 DUP2 ADD PUSH1 0x40 MSTORE DUP1 SWAP3 SWAP2 SWAP1 DUP2 DUP2 MSTORE PUSH1 0x20 ADD DUP3 DUP1 SLOAD PUSH2 0xDA2 SWAP1 PUSH2 0x2DB8 JUMP JUMPDEST DUP1 ISZERO PUSH2 0xDEF JUMPI DUP1 PUSH1 0x1F LT PUSH2 0xDC4 JUMPI PUSH2 0x100 DUP1 DUP4 SLOAD DIV MUL DUP4 MSTORE SWAP2 PUSH1 0x20 ADD SWAP2 PUSH2 0xDEF JUMP JUMPDEST DUP3 ADD SWAP2 SWAP1 PUSH1 0x0 MSTORE PUSH1 0x20 PUSH1 0x0 KECCAK256 SWAP1 JUMPDEST DUP2 SLOAD DUP2 MSTORE SWAP1 PUSH1 0x1 ADD SWAP1 PUSH1 0x20 ADD DUP1 DUP4 GT PUSH2 0xDD2 JUMPI DUP3 SWAP1 SUB PUSH1 0x1F AND DUP3 ADD SWAP2 JUMPDEST POP POP POP POP POP DUP2 MSTORE PUSH1 0x20 ADD PUSH1 0x1 DUP3 ADD DUP1 SLOAD PUSH2 0xE08 SWAP1 PUSH2 0x2DB8 JUMP JUMPDEST DUP1 PUSH1 0x1F ADD PUSH1 0x20 DUP1 SWAP2 DIV MUL PUSH1 0x20 ADD PUSH1 0x40 MLOAD SWAP1 DUP2 ADD PUSH1 0x40 MSTORE DUP1 SWAP3 SWAP2 SWAP1 DUP2 DUP2 MSTORE PUSH1 0x20 ADD DUP3 DUP1 SLOAD PUSH2 0xE34 SWAP1 PUSH2 0x2DB8 JUMP JUMPDEST DUP1 ISZERO PUSH2 0xE81 JUMPI DUP1 PUSH1 0x1F LT PUSH2 0xE56 JUMPI PUSH2 0x100 DUP1 DUP4 SLOAD DIV MUL DUP4 MSTORE SWAP2 PUSH1 0x20 ADD SWAP2 PUSH2 0xE81 JUMP JUMPDEST DUP3 ADD SWAP2 SWAP1 PUSH1 0x0 MSTORE PUSH1 0x20 PUSH1 0x0 KECCAK256 SWAP1 JUMPDEST DUP2 SLOAD DUP2 MSTORE SWAP1 PUSH1 0x1 ADD SWAP1 PUSH1 0x20 ADD DUP1 DUP4 GT PUSH2 0xE64 JUMPI DUP3 SWAP1 SUB PUSH1 0x1F AND DUP3 ADD SWAP2 JUMPDEST POP POP POP POP POP DUP2 MSTORE PUSH1 0x20 ADD PUSH1 0x2 DUP3 ADD DUP1 SLOAD PUSH2 0xE9A SWAP1 PUSH2 0x2DB8 JUMP JUMPDEST DUP1 PUSH1 0x1F ADD PUSH1 0x20 DUP1 SWAP2 DIV MUL PUSH1 0x20 ADD PUSH1 0x40 MLOAD SWAP1 DUP2 ADD PUSH1 0x40 MSTORE DUP1 SWAP3 SWAP2 SWAP1 DUP2 DUP2 MSTORE PUSH1 0x20 ADD DUP3 DUP1 SLOAD PUSH2 0xEC6 SWAP1 PUSH2 0x2DB8 JUMP JUMPDEST DUP1 ISZERO PUSH2 0xF13 JUMPI DUP1 PUSH1 0x1F LT PUSH2 0xEE8 JUMPI PUSH2 0x100 DUP1 DUP4 SLOAD DIV MUL DUP4 MSTORE SWAP2 PUSH1 0x20 ADD SWAP2 PUSH2 0xF13 JUMP JUMPDEST DUP3 ADD SWAP2 SWAP1 PUSH1 0x0 MSTORE PUSH1 0x20 PUSH1 0x0 KECCAK256 SWAP1 JUMPDEST DUP2 SLOAD DUP2 MSTORE SWAP1 PUSH1 0x1 ADD SWAP1 PUSH1 0x20 ADD DUP1 DUP4 GT PUSH2 0xEF6 JUMPI DUP3 SWAP1 SUB PUSH1 0x1F AND DUP3 ADD SWAP2 JUMPDEST POP POP POP POP POP DUP2 MSTORE PUSH1 0x20 ADD PUSH1 0x3 DUP3 ADD DUP1 SLOAD PUSH2 0xF2C SWAP1 PUSH2 0x2DB8 JUMP JUMPDEST DUP1 PUSH1 0x1F ADD PUSH1 0x20 DUP1 SWAP2 DIV MUL PUSH1 0x20 ADD PUSH1 0x40 MLOAD SWAP1 DUP2 ADD PUSH1 0x40 MSTORE DUP1 SWAP3 SWAP2 SWAP1 DUP2 DUP2 MSTORE PUSH1 0x20 ADD DUP3 DUP1 SLOAD PUSH2 0xF58 SWAP1 PUSH2 0x2DB8 JUMP JUMPDEST DUP1 ISZERO PUSH2 0xFA5 JUMPI DUP1 PUSH1 0x1F LT PUSH2 0xF7A JUMPI PUSH2 0x100 DUP1 DUP4 SLOAD DIV MUL DUP4 MSTORE SWAP2 PUSH1 0x20 ADD SWAP2 PUSH2 0xFA5 JUMP JUMPDEST DUP3 ADD SWAP2 SWAP1 PUSH1 0x0 MSTORE PUSH1 0x20 PUSH1 0x0 KECCAK256 SWAP1 JUMPDEST DUP2 SLOAD DUP2 MSTORE SWAP1 PUSH1 0x1 ADD SWAP1 PUSH1 0x20 ADD DUP1 DUP4 GT PUSH2 0xF88 JUMPI DUP3 SWAP1 SUB PUSH1 0x1F AND DUP3 ADD SWAP2 JUMPDEST POP POP POP POP POP DUP2 MSTORE PUSH1 0x20 ADD PUSH1 0x4 DUP3 ADD DUP1 SLOAD PUSH2 0xFBE SWAP1 PUSH2 0x2DB8 JUMP JUMPDEST DUP1 PUSH1 0x1F ADD PUSH1 0x20 DUP1 SWAP2 DIV MUL PUSH1 0x20 ADD PUSH1 0x40 MLOAD SWAP1 DUP2 ADD PUSH1 0x40 MSTORE DUP1 SWAP3 SWAP2 SWAP1 DUP2 DUP2 MSTORE PUSH1 0x20 ADD DUP3 DUP1 SLOAD PUSH2 0xFEA SWAP1 PUSH2 0x2DB8 JUMP JUMPDEST DUP1 ISZERO PUSH2 0x1037 JUMPI DUP1 PUSH1 0x1F LT PUSH2 0x100C JUMPI PUSH2 0x100 DUP1 DUP4 SLOAD DIV MUL DUP4 MSTORE SWAP2 PUSH1 0x20 ADD SWAP2 PUSH2 0x1037 JUMP JUMPDEST DUP3 ADD SWAP2 SWAP1 PUSH1 0x0 MSTORE PUSH1 0x20 PUSH1 0x0 KECCAK256 SWAP1 JUMPDEST DUP2 SLOAD DUP2 MSTORE SWAP1 PUSH1 0x1 ADD SWAP1 PUSH1 0x20 ADD DUP1 DUP4 GT PUSH2 0x101A JUMPI DUP3 SWAP1 SUB PUSH1 0x1F AND DUP3 ADD SWAP2 JUMPDEST POP POP POP POP POP DUP2 MSTORE PUSH1 0x20 ADD PUSH1 0x5 DUP3 ADD DUP1 SLOAD PUSH2 0x1050 SWAP1 PUSH2 0x2DB8 JUMP JUMPDEST DUP1 PUSH1 0x1F ADD PUSH1 0x20 DUP1 SWAP2 DIV MUL PUSH1 0x20 ADD PUSH1 0x40 MLOAD SWAP1 DUP2 ADD PUSH1 0x40 MSTORE DUP1 SWAP3 SWAP2 SWAP1 DUP2 DUP2 MSTORE PUSH1 0x20 ADD DUP3 DUP1 SLOAD PUSH2 0x107C SWAP1 PUSH2 0x2DB8 JUMP JUMPDEST DUP1 ISZERO PUSH2 0x10C9 JUMPI DUP1 PUSH1 0x1F LT PUSH2 0x109E JUMPI PUSH2 0x100 DUP1 DUP4 SLOAD DIV MUL DUP4 MSTORE SWAP2 PUSH1 0x20 ADD SWAP2 PUSH2 0x10C9 JUMP JUMPDEST DUP3 ADD SWAP2 SWAP1 PUSH1 0x0 MSTORE PUSH1 0x20 PUSH1 0x0 KECCAK256 SWAP1 JUMPDEST DUP2 SLOAD DUP2 MSTORE SWAP1 PUSH1 0x1 ADD SWAP1 PUSH1 0x20 ADD DUP1 DUP4 GT PUSH2 0x10AC JUMPI DUP3 SWAP1 SUB PUSH1 0x1F AND DUP3 ADD SWAP2 JUMPDEST POP POP POP POP POP DUP2 MSTORE PUSH1 0x20 ADD PUSH1 0x6 DUP3 ADD DUP1 SLOAD PUSH2 0x10E2 SWAP1 PUSH2 0x2DB8 JUMP JUMPDEST DUP1 PUSH1 0x1F ADD PUSH1 0x20 DUP1 SWAP2 DIV MUL PUSH1 0x20 ADD PUSH1 0x40 MLOAD SWAP1 DUP2 ADD PUSH1 0x40 MSTORE DUP1 SWAP3 SWAP2 SWAP1 DUP2 DUP2 MSTORE PUSH1 0x20 ADD DUP3 DUP1 SLOAD PUSH2 0x110E SWAP1 PUSH2 0x2DB8 JUMP JUMPDEST DUP1 ISZERO PUSH2 0x115B JUMPI DUP1 PUSH1 0x1F LT PUSH2 0x1130 JUMPI PUSH2 0x100 DUP1 DUP4 SLOAD DIV MUL DUP4 MSTORE SWAP2 PUSH1 0x20 ADD SWAP2 PUSH2 0x115B JUMP JUMPDEST DUP3 ADD SWAP2 SWAP1 PUSH1 0x0 MSTORE PUSH1 0x20 PUSH1 0x0 KECCAK256 SWAP1 JUMPDEST DUP2 SLOAD DUP2 MSTORE SWAP1 PUSH1 0x1 ADD SWAP1 PUSH1 0x20 ADD DUP1 DUP4 GT PUSH2 0x113E JUMPI DUP3 SWAP1 SUB PUSH1 0x1F AND DUP3 ADD SWAP2 JUMPDEST POP POP POP POP POP DUP2 MSTORE PUSH1 0x20 ADD PUSH1 0x7 DUP3 ADD DUP1 SLOAD PUSH2 0x1174 SWAP1 PUSH2 0x2DB8 JUMP JUMPDEST DUP1 PUSH1 0x1F ADD PUSH1 0x20 DUP1 SWAP2 DIV MUL PUSH1 0x20 ADD PUSH1 0x40 MLOAD SWAP1 DUP2 ADD PUSH1 0x40 MSTORE DUP1 SWAP3 SWAP2 SWAP1 DUP2 DUP2 MSTORE PUSH1 0x20 ADD DUP3 DUP1 SLOAD PUSH2 0x11A0 SWAP1 PUSH2 0x2DB8 JUMP JUMPDEST DUP1 ISZERO PUSH2 0x11ED JUMPI DUP1 PUSH1 0x1F LT PUSH2 0x11C2 JUMPI PUSH2 0x100 DUP1 DUP4 SLOAD DIV MUL DUP4 MSTORE SWAP2 PUSH1 0x20 ADD SWAP2 PUSH2 0x11ED JUMP JUMPDEST DUP3 ADD SWAP2 SWAP1 PUSH1 0x0 MSTORE PUSH1 0x20 PUSH1 0x0 KECCAK256 SWAP1 JUMPDEST DUP2 SLOAD DUP2 MSTORE SWAP1 PUSH1 0x1 ADD SWAP1 PUSH1 0x20 ADD DUP1 DUP4 GT PUSH2 0x11D0 JUMPI DUP3 SWAP1 SUB PUSH1 0x1F AND DUP3 ADD SWAP2 JUMPDEST POP POP POP POP POP DUP2 MSTORE PUSH1 0x20 ADD PUSH1 0x8 DUP3 ADD DUP1 SLOAD PUSH2 0x1206 SWAP1 PUSH2 0x2DB8 JUMP JUMPDEST DUP1 PUSH1 0x1F ADD PUSH1 0x20 DUP1 SWAP2 DIV MUL PUSH1 0x20 ADD PUSH1 0x40 MLOAD SWAP1 DUP2 ADD PUSH1 0x40 MSTORE DUP1 SWAP3 SWAP2 SWAP1 DUP2 DUP2 MSTORE PUSH1 0x20 ADD DUP3 DUP1 SLOAD PUSH2 0x1232 SWAP1 PUSH2 0x2DB8 JUMP JUMPDEST DUP1 ISZERO PUSH2 0x127F JUMPI DUP1 PUSH1 0x1F LT PUSH2 0x1254 JUMPI PUSH2 0x100 DUP1 DUP4 SLOAD DIV MUL DUP4 MSTORE SWAP2 PUSH1 0x20 ADD SWAP2 PUSH2 0x127F JUMP JUMPDEST DUP3 ADD SWAP2 SWAP1 PUSH1 0x0 MSTORE PUSH1 0x20 PUSH1 0x0 KECCAK256 SWAP1 JUMPDEST DUP2 SLOAD DUP2 MSTORE SWAP1 PUSH1 0x1 ADD SWAP1 PUSH1 0x20 ADD DUP1 DUP4 GT PUSH2 0x1262 JUMPI DUP3 SWAP1 SUB PUSH1 0x1F AND DUP3 ADD SWAP2 JUMPDEST POP POP POP POP POP DUP2 MSTORE PUSH1 0x20 ADD PUSH1 0x9 DUP3 ADD DUP1 SLOAD PUSH2 0x1298 SWAP1 PUSH2 0x2DB8 JUMP JUMPDEST DUP1 PUSH1 0x1F ADD PUSH1 0x20 DUP1 SWAP2 DIV MUL PUSH1 0x20 ADD PUSH1 0x40 MLOAD SWAP1 DUP2 ADD PUSH1 0x40 MSTORE DUP1 SWAP3 SWAP2 SWAP1 DUP2 DUP2 MSTORE PUSH1 0x20 ADD DUP3 DUP1 SLOAD PUSH2 0x12C4 SWAP1 PUSH2 0x2DB8 JUMP JUMPDEST DUP1 ISZERO PUSH2 0x1311 JUMPI DUP1 PUSH1 0x1F LT PUSH2 0x12E6 JUMPI PUSH2 0x100 DUP1 DUP4 SLOAD DIV MUL DUP4 MSTORE SWAP2 PUSH1 0x20 ADD SWAP2 PUSH2 0x1311 JUMP JUMPDEST DUP3 ADD SWAP2 SWAP1 PUSH1 0x0 MSTORE PUSH1 0x20 PUSH1 0x0 KECCAK256 SWAP1 JUMPDEST DUP2 SLOAD DUP2 MSTORE SWAP1 PUSH1 0x1 ADD SWAP1 PUSH1 0x20 ADD DUP1 DUP4 GT PUSH2 0x12F4 JUMPI DUP3 SWAP1 SUB PUSH1 0x1F AND DUP3 ADD SWAP2 JUMPDEST POP POP POP POP POP DUP2 MSTORE PUSH1 0x20 ADD PUSH1 0xA DUP3 ADD DUP1 SLOAD PUSH2 0x132A SWAP1 PUSH2 0x2DB8 JUMP JUMPDEST DUP1 PUSH1 0x1F ADD PUSH1 0x20 DUP1 SWAP2 DIV MUL PUSH1 0x20 ADD PUSH1 0x40 MLOAD SWAP1 DUP2 ADD PUSH1 0x40 MSTORE DUP1 SWAP3 SWAP2 SWAP1 DUP2 DUP2 MSTORE PUSH1 0x20 ADD DUP3 DUP1 SLOAD PUSH2 0x1356 SWAP1 PUSH2 0x2DB8 JUMP JUMPDEST DUP1 ISZERO PUSH2 0x13A3 JUMPI DUP1 PUSH1 0x1F LT PUSH2 0x1378 JUMPI PUSH2 0x100 DUP1 DUP4 SLOAD DIV MUL DUP4 MSTORE SWAP2 PUSH1 0x20 ADD SWAP2 PUSH2 0x13A3 JUMP JUMPDEST DUP3 ADD SWAP2 SWAP1 PUSH1 0x0 MSTORE PUSH1 0x20 PUSH1 0x0 KECCAK256 SWAP1 JUMPDEST DUP2 SLOAD DUP2 MSTORE SWAP1 PUSH1 0x1 ADD SWAP1 PUSH1 0x20 ADD DUP1 DUP4 GT PUSH2 0x1386 JUMPI DUP3 SWAP1 SUB PUSH1 0x1F AND DUP3 ADD SWAP2 JUMPDEST POP POP POP POP POP DUP2 MSTORE PUSH1 0x20 ADD PUSH1 0xB DUP3 ADD DUP1 SLOAD PUSH2 0x13BC SWAP1 PUSH2 0x2DB8 JUMP JUMPDEST DUP1 PUSH1 0x1F ADD PUSH1 0x20 DUP1 SWAP2 DIV MUL PUSH1 0x20 ADD PUSH1 0x40 MLOAD SWAP1 DUP2 ADD PUSH1 0x40 MSTORE DUP1 SWAP3 SWAP2 SWAP1 DUP2 DUP2 MSTORE PUSH1 0x20 ADD DUP3 DUP1 SLOAD PUSH2 0x13E8 SWAP1 PUSH2 0x2DB8 JUMP JUMPDEST DUP1 ISZERO PUSH2 0x1435 JUMPI DUP1 PUSH1 0x1F LT PUSH2 0x140A JUMPI PUSH2 0x100 DUP1 DUP4 SLOAD DIV MUL DUP4 MSTORE SWAP2 PUSH1 0x20 ADD SWAP2 PUSH2 0x1435 JUMP JUMPDEST DUP3 ADD SWAP2 SWAP1 PUSH1 0x0 MSTORE PUSH1 0x20 PUSH1 0x0 KECCAK256 SWAP1 JUMPDEST DUP2 SLOAD DUP2 MSTORE SWAP1 PUSH1 0x1 ADD SWAP1 PUSH1 0x20 ADD DUP1 DUP4 GT PUSH2 0x1418 JUMPI DUP3 SWAP1 SUB PUSH1 0x1F AND DUP3 ADD SWAP2 JUMPDEST POP POP POP POP POP DUP2 MSTORE POP POP SWAP2 POP POP PUSH2 0x145B JUMP JUMPDEST DUP1 DUP1 PUSH2 0x1451 SWAP1 PUSH2 0x3288 JUMP JUMPDEST SWAP2 POP POP PUSH2 0xCE4 JUMP JUMPDEST POP JUMPDEST SWAP2 SWAP1 POP JUMP JUMPDEST PUSH1 0x0 DUP2 DUP2 SLOAD DUP2 LT PUSH2 0x1470 JUMPI PUSH1 0x0 DUP1 REVERT JUMPDEST SWAP1 PUSH1 0x0 MSTORE PUSH1 0x20 PUSH1 0x0 KECCAK256 SWAP1 PUSH1 0xC MUL ADD PUSH1 0x0 SWAP2 POP SWAP1 POP DUP1 PUSH1 0x0 ADD DUP1 SLOAD PUSH2 0x1493 SWAP1 PUSH2 0x2DB8 JUMP JUMPDEST DUP1 PUSH1 0x1F ADD PUSH1 0x20 DUP1 SWAP2 DIV MUL PUSH1 0x20 ADD PUSH1 0x40 MLOAD SWAP1 DUP2 ADD PUSH1 0x40 MSTORE DUP1 SWAP3 SWAP2 SWAP1 DUP2 DUP2 MSTORE PUSH1 0x20 ADD DUP3 DUP1 SLOAD PUSH2 0x14BF SWAP1 PUSH2 0x2DB8 JUMP JUMPDEST DUP1 ISZERO PUSH2 0x150C JUMPI DUP1 PUSH1 0x1F LT PUSH2 0x14E1 JUMPI PUSH2 0x100 DUP1 DUP4 SLOAD DIV MUL DUP4 MSTORE SWAP2 PUSH1 0x20 ADD SWAP2 PUSH2 0x150C JUMP JUMPDEST DUP3 ADD SWAP2 SWAP1 PUSH1 0x0 MSTORE PUSH1 0x20 PUSH1 0x0 KECCAK256 SWAP1 JUMPDEST DUP2 SLOAD DUP2 MSTORE SWAP1 PUSH1 0x1 ADD SWAP1 PUSH1 0x20 ADD DUP1 DUP4 GT PUSH2 0x14EF JUMPI DUP3 SWAP1 SUB PUSH1 0x1F AND DUP3 ADD SWAP2 JUMPDEST POP POP POP POP POP SWAP1 DUP1 PUSH1 0x1 ADD DUP1 SLOAD PUSH2 0x1521 SWAP1 PUSH2 0x2DB8 JUMP JUMPDEST DUP1 PUSH1 0x1F ADD PUSH1 0x20 DUP1 SWAP2 DIV MUL PUSH1 0x20 ADD PUSH1 0x40 MLOAD SWAP1 DUP2 ADD PUSH1 0x40 MSTORE DUP1 SWAP3 SWAP2 SWAP1 DUP2 DUP2 MSTORE PUSH1 0x20 ADD DUP3 DUP1 SLOAD PUSH2 0x154D SWAP1 PUSH2 0x2DB8 JUMP JUMPDEST DUP1 ISZERO PUSH2 0x159A JUMPI DUP1 PUSH1 0x1F LT PUSH2 0x156F JUMPI PUSH2 0x100 DUP1 DUP4 SLOAD DIV MUL DUP4 MSTORE SWAP2 PUSH1 0x20 ADD SWAP2 PUSH2 0x159A JUMP JUMPDEST DUP3 ADD SWAP2 SWAP1 PUSH1 0x0 MSTORE PUSH1 0x20 PUSH1 0x0 KECCAK256 SWAP1 JUMPDEST DUP2 SLOAD DUP2 MSTORE SWAP1 PUSH1 0x1 ADD SWAP1 PUSH1 0x20 ADD DUP1 DUP4 GT PUSH2 0x157D JUMPI DUP3 SWAP1 SUB PUSH1 0x1F AND DUP3 ADD SWAP2 JUMPDEST POP POP POP POP POP SWAP1 DUP1 PUSH1 0x2 ADD DUP1 SLOAD PUSH2 0x15AF SWAP1 PUSH2 0x2DB8 JUMP JUMPDEST DUP1 PUSH1 0x1F ADD PUSH1 0x20 DUP1 SWAP2 DIV MUL PUSH1 0x20 ADD PUSH1 0x40 MLOAD SWAP1 DUP2 ADD PUSH1 0x40 MSTORE DUP1 SWAP3 SWAP2 SWAP1 DUP2 DUP2 MSTORE PUSH1 0x20 ADD DUP3 DUP1 SLOAD PUSH2 0x15DB SWAP1 PUSH2 0x2DB8 JUMP JUMPDEST DUP1 ISZERO PUSH2 0x1628 JUMPI DUP1 PUSH1 0x1F LT PUSH2 0x15FD JUMPI PUSH2 0x100 DUP1 DUP4 SLOAD DIV MUL DUP4 MSTORE SWAP2 PUSH1 0x20 ADD SWAP2 PUSH2 0x1628 JUMP JUMPDEST DUP3 ADD SWAP2 SWAP1 PUSH1 0x0 MSTORE PUSH1 0x20 PUSH1 0x0 KECCAK256 SWAP1 JUMPDEST DUP2 SLOAD DUP2 MSTORE SWAP1 PUSH1 0x1 ADD SWAP1 PUSH1 0x20 ADD DUP1 DUP4 GT PUSH2 0x160B JUMPI DUP3 SWAP1 SUB PUSH1 0x1F AND DUP3 ADD SWAP2 JUMPDEST POP POP POP POP POP SWAP1 DUP1 PUSH1 0x3 ADD DUP1 SLOAD PUSH2 0x163D SWAP1 PUSH2 0x2DB8 JUMP JUMPDEST DUP1 PUSH1 0x1F ADD PUSH1 0x20 DUP1 SWAP2 DIV MUL PUSH1 0x20 ADD PUSH1 0x40 MLOAD SWAP1 DUP2 ADD PUSH1 0x40 MSTORE DUP1 SWAP3 SWAP2 SWAP1 DUP2 DUP2 MSTORE PUSH1 0x20 ADD DUP3 DUP1 SLOAD PUSH2 0x1669 SWAP1 PUSH2 0x2DB8 JUMP JUMPDEST DUP1 ISZERO PUSH2 0x16B6 JUMPI DUP1 PUSH1 0x1F LT PUSH2 0x168B JUMPI PUSH2 0x100 DUP1 DUP4 SLOAD DIV MUL DUP4 MSTORE SWAP2 PUSH1 0x20 ADD SWAP2 PUSH2 0x16B6 JUMP JUMPDEST DUP3 ADD SWAP2 SWAP1 PUSH1 0x0 MSTORE PUSH1 0x20 PUSH1 0x0 KECCAK256 SWAP1 JUMPDEST DUP2 SLOAD DUP2 MSTORE SWAP1 PUSH1 0x1 ADD SWAP1 PUSH1 0x20 ADD DUP1 DUP4 GT PUSH2 0x1699 JUMPI DUP3 SWAP1 SUB PUSH1 0x1F AND DUP3 ADD SWAP2 JUMPDEST POP POP POP POP POP SWAP1 DUP1 PUSH1 0x4 ADD DUP1 SLOAD PUSH2 0x16CB SWAP1 PUSH2 0x2DB8 JUMP JUMPDEST DUP1 PUSH1 0x1F ADD PUSH1 0x20 DUP1 SWAP2 DIV MUL PUSH1 0x20 ADD PUSH1 0x40 MLOAD SWAP1 DUP2 ADD PUSH1 0x40 MSTORE DUP1 SWAP3 SWAP2 SWAP1 DUP2 DUP2 MSTORE PUSH1 0x20 ADD DUP3 DUP1 SLOAD PUSH2 0x16F7 SWAP1 PUSH2 0x2DB8 JUMP JUMPDEST DUP1 ISZERO PUSH2 0x1744 JUMPI DUP1 PUSH1 0x1F LT PUSH2 0x1719 JUMPI PUSH2 0x100 DUP1 DUP4 SLOAD DIV MUL DUP4 MSTORE SWAP2 PUSH1 0x20 ADD SWAP2 PUSH2 0x1744 JUMP JUMPDEST DUP3 ADD SWAP2 SWAP1 PUSH1 0x0 MSTORE PUSH1 0x20 PUSH1 0x0 KECCAK256 SWAP1 JUMPDEST DUP2 SLOAD DUP2 MSTORE SWAP1 PUSH1 0x1 ADD SWAP1 PUSH1 0x20 ADD DUP1 DUP4 GT PUSH2 0x1727 JUMPI DUP3 SWAP1 SUB PUSH1 0x1F AND DUP3 ADD SWAP2 JUMPDEST POP POP POP POP POP SWAP1 DUP1 PUSH1 0x5 ADD DUP1 SLOAD PUSH2 0x1759 SWAP1 PUSH2 0x2DB8 JUMP JUMPDEST DUP1 PUSH1 0x1F ADD PUSH1 0x20 DUP1 SWAP2 DIV MUL PUSH1 0x20 ADD PUSH1 0x40 MLOAD SWAP1 DUP2 ADD PUSH1 0x40 MSTORE DUP1 SWAP3 SWAP2 SWAP1 DUP2 DUP2 MSTORE PUSH1 0x20 ADD DUP3 DUP1 SLOAD PUSH2 0x1785 SWAP1 PUSH2 0x2DB8 JUMP JUMPDEST DUP1 ISZERO PUSH2 0x17D2 JUMPI DUP1 PUSH1 0x1F LT PUSH2 0x17A7 JUMPI PUSH2 0x100 DUP1 DUP4 SLOAD DIV MUL DUP4 MSTORE SWAP2 PUSH1 0x20 ADD SWAP2 PUSH2 0x17D2 JUMP JUMPDEST DUP3 ADD SWAP2 SWAP1 PUSH1 0x0 MSTORE PUSH1 0x20 PUSH1 0x0 KECCAK256 SWAP1 JUMPDEST DUP2 SLOAD DUP2 MSTORE SWAP1 PUSH1 0x1 ADD SWAP1 PUSH1 0x20 ADD DUP1 DUP4 GT PUSH2 0x17B5 JUMPI DUP3 SWAP1 SUB PUSH1 0x1F AND DUP3 ADD SWAP2 JUMPDEST POP POP POP POP POP SWAP1 DUP1 PUSH1 0x6 ADD DUP1 SLOAD PUSH2 0x17E7 SWAP1 PUSH2 0x2DB8 JUMP JUMPDEST DUP1 PUSH1 0x1F ADD PUSH1 0x20 DUP1 SWAP2 DIV MUL PUSH1 0x20 ADD PUSH1 0x40 MLOAD SWAP1 DUP2 ADD PUSH1 0x40 MSTORE DUP1 SWAP3 SWAP2 SWAP1 DUP2 DUP2 MSTORE PUSH1 0x20 ADD DUP3 DUP1 SLOAD PUSH2 0x1813 SWAP1 PUSH2 0x2DB8 JUMP JUMPDEST DUP1 ISZERO PUSH2 0x1860 JUMPI DUP1 PUSH1 0x1F LT PUSH2 0x1835 JUMPI PUSH2 0x100 DUP1 DUP4 SLOAD DIV MUL DUP4 MSTORE SWAP2 PUSH1 0x20 ADD SWAP2 PUSH2 0x1860 JUMP JUMPDEST DUP3 ADD SWAP2 SWAP1 PUSH1 0x0 MSTORE PUSH1 0x20 PUSH1 0x0 KECCAK256 SWAP1 JUMPDEST DUP2 SLOAD DUP2 MSTORE SWAP1 PUSH1 0x1 ADD SWAP1 PUSH1 0x20 ADD DUP1 DUP4 GT PUSH2 0x1843 JUMPI DUP3 SWAP1 SUB PUSH1 0x1F AND DUP3 ADD SWAP2 JUMPDEST POP POP POP POP POP SWAP1 DUP1 PUSH1 0x7 ADD DUP1 SLOAD PUSH2 0x1875 SWAP1 PUSH2 0x2DB8 JUMP JUMPDEST DUP1 PUSH1 0x1F ADD PUSH1 0x20 DUP1 SWAP2 DIV MUL PUSH1 0x20 ADD PUSH1 0x40 MLOAD SWAP1 DUP2 ADD PUSH1 0x40 MSTORE DUP1 SWAP3 SWAP2 SWAP1 DUP2 DUP2 MSTORE PUSH1 0x20 ADD DUP3 DUP1 SLOAD PUSH2 0x18A1 SWAP1 PUSH2 0x2DB8 JUMP JUMPDEST DUP1 ISZERO PUSH2 0x18EE JUMPI DUP1 PUSH1 0x1F LT PUSH2 0x18C3 JUMPI PUSH2 0x100 DUP1 DUP4 SLOAD DIV MUL DUP4 MSTORE SWAP2 PUSH1 0x20 ADD SWAP2 PUSH2 0x18EE JUMP JUMPDEST DUP3 ADD SWAP2 SWAP1 PUSH1 0x0 MSTORE PUSH1 0x20 PUSH1 0x0 KECCAK256 SWAP1 JUMPDEST DUP2 SLOAD DUP2 MSTORE SWAP1 PUSH1 0x1 ADD SWAP1 PUSH1 0x20 ADD DUP1 DUP4 GT PUSH2 0x18D1 JUMPI DUP3 SWAP1 SUB PUSH1 0x1F AND DUP3 ADD SWAP2 JUMPDEST POP POP POP POP POP SWAP1 DUP1 PUSH1 0x8 ADD DUP1 SLOAD PUSH2 0x1903 SWAP1 PUSH2 0x2DB8 JUMP JUMPDEST DUP1 PUSH1 0x1F ADD PUSH1 0x20 DUP1 SWAP2 DIV MUL PUSH1 0x20 ADD PUSH1 0x40 MLOAD SWAP1 DUP2 ADD PUSH1 0x40 MSTORE DUP1 SWAP3 SWAP2 SWAP1 DUP2 DUP2 MSTORE PUSH1 0x20 ADD DUP3 DUP1 SLOAD PUSH2 0x192F SWAP1 PUSH2 0x2DB8 JUMP JUMPDEST DUP1 ISZERO PUSH2 0x197C JUMPI DUP1 PUSH1 0x1F LT PUSH2 0x1951 JUMPI PUSH2 0x100 DUP1 DUP4 SLOAD DIV MUL DUP4 MSTORE SWAP2 PUSH1 0x20 ADD SWAP2 PUSH2 0x197C JUMP JUMPDEST DUP3 ADD SWAP2 SWAP1 PUSH1 0x0 MSTORE PUSH1 0x20 PUSH1 0x0 KECCAK256 SWAP1 JUMPDEST DUP2 SLOAD DUP2 MSTORE SWAP1 PUSH1 0x1 ADD SWAP1 PUSH1 0x20 ADD DUP1 DUP4 GT PUSH2 0x195F JUMPI DUP3 SWAP1 SUB PUSH1 0x1F AND DUP3 ADD SWAP2 JUMPDEST POP POP POP POP POP SWAP1 DUP1 PUSH1 0x9 ADD DUP1 SLOAD PUSH2 0x1991 SWAP1 PUSH2 0x2DB8 JUMP JUMPDEST DUP1 PUSH1 0x1F ADD PUSH1 0x20 DUP1 SWAP2 DIV MUL PUSH1 0x20 ADD PUSH1 0x40 MLOAD SWAP1 DUP2 ADD PUSH1 0x40 MSTORE DUP1 SWAP3 SWAP2 SWAP1 DUP2 DUP2 MSTORE PUSH1 0x20 ADD DUP3 DUP1 SLOAD PUSH2 0x19BD SWAP1 PUSH2 0x2DB8 JUMP JUMPDEST DUP1 ISZERO PUSH2 0x1A0A JUMPI DUP1 PUSH1 0x1F LT PUSH2 0x19DF JUMPI PUSH2 0x100 DUP1 DUP4 SLOAD DIV MUL DUP4 MSTORE SWAP2 PUSH1 0x20 ADD SWAP2 PUSH2 0x1A0A JUMP JUMPDEST DUP3 ADD SWAP2 SWAP1 PUSH1 0x0 MSTORE PUSH1 0x20 PUSH1 0x0 KECCAK256 SWAP1 JUMPDEST DUP2 SLOAD DUP2 MSTORE SWAP1 PUSH1 0x1 ADD SWAP1 PUSH1 0x20 ADD DUP1 DUP4 GT PUSH2 0x19ED JUMPI DUP3 SWAP1 SUB PUSH1 0x1F AND DUP3 ADD SWAP2 JUMPDEST POP POP POP POP POP SWAP1 DUP1 PUSH1 0xA ADD DUP1 SLOAD PUSH2 0x1A1F SWAP1 PUSH2 0x2DB8 JUMP JUMPDEST DUP1 PUSH1 0x1F ADD PUSH1 0x20 DUP1 SWAP2 DIV MUL PUSH1 0x20 ADD PUSH1 0x40 MLOAD SWAP1 DUP2 ADD PUSH1 0x40 MSTORE DUP1 SWAP3 SWAP2 SWAP1 DUP2 DUP2 MSTORE PUSH1 0x20 ADD DUP3 DUP1 SLOAD PUSH2 0x1A4B SWAP1 PUSH2 0x2DB8 JUMP JUMPDEST DUP1 ISZERO PUSH2 0x1A98 JUMPI DUP1 PUSH1 0x1F LT PUSH2 0x1A6D JUMPI PUSH2 0x100 DUP1 DUP4 SLOAD DIV MUL DUP4 MSTORE SWAP2 PUSH1 0x20 ADD SWAP2 PUSH2 0x1A98 JUMP JUMPDEST DUP3 ADD SWAP2 SWAP1 PUSH1 0x0 MSTORE PUSH1 0x20 PUSH1 0x0 KECCAK256 SWAP1 JUMPDEST DUP2 SLOAD DUP2 MSTORE SWAP1 PUSH1 0x1 ADD SWAP1 PUSH1 0x20 ADD DUP1 DUP4 GT PUSH2 0x1A7B JUMPI DUP3 SWAP1 SUB PUSH1 0x1F AND DUP3 ADD SWAP2 JUMPDEST POP POP POP POP POP SWAP1 DUP1 PUSH1 0xB ADD DUP1 SLOAD PUSH2 0x1AAD SWAP1 PUSH2 0x2DB8 JUMP JUMPDEST DUP1 PUSH1 0x1F ADD PUSH1 0x20 DUP1 SWAP2 DIV MUL PUSH1 0x20 ADD PUSH1 0x40 MLOAD SWAP1 DUP2 ADD PUSH1 0x40 MSTORE DUP1 SWAP3 SWAP2 SWAP1 DUP2 DUP2 MSTORE PUSH1 0x20 ADD DUP3 DUP1 SLOAD PUSH2 0x1AD9 SWAP1 PUSH2 0x2DB8 JUMP JUMPDEST DUP1 ISZERO PUSH2 0x1B26 JUMPI DUP1 PUSH1 0x1F LT PUSH2 0x1AFB JUMPI PUSH2 0x100 DUP1 DUP4 SLOAD DIV MUL DUP4 MSTORE SWAP2 PUSH1 0x20 ADD SWAP2 PUSH2 0x1B26 JUMP JUMPDEST DUP3 ADD SWAP2 SWAP1 PUSH1 0x0 MSTORE PUSH1 0x20 PUSH1 0x0 KECCAK256 SWAP1 JUMPDEST DUP2 SLOAD DUP2 MSTORE SWAP1 PUSH1 0x1 ADD SWAP1 PUSH1 0x20 ADD DUP1 DUP4 GT PUSH2 0x1B09 JUMPI DUP3 SWAP1 SUB PUSH1 0x1F AND DUP3 ADD SWAP2 JUMPDEST POP POP POP POP POP SWAP1 POP DUP13 JUMP JUMPDEST PUSH1 0x60 PUSH1 0x0 DUP1 PUSH1 0x0 SWAP1 POP JUMPDEST PUSH1 0x0 DUP1 SLOAD SWAP1 POP DUP2 LT ISZERO PUSH2 0x1BE0 JUMPI DUP4 PUSH1 0x40 MLOAD PUSH1 0x20 ADD PUSH2 0x1B58 SWAP2 SWAP1 PUSH2 0x330C JUMP JUMPDEST PUSH1 0x40 MLOAD PUSH1 0x20 DUP2 DUP4 SUB SUB DUP2 MSTORE SWAP1 PUSH1 0x40 MSTORE DUP1 MLOAD SWAP1 PUSH1 0x20 ADD KECCAK256 PUSH1 0x0 DUP3 DUP2 SLOAD DUP2 LT PUSH2 0x1B82 JUMPI PUSH2 0x1B81 PUSH2 0x2EA1 JUMP JUMPDEST JUMPDEST SWAP1 PUSH1 0x0 MSTORE PUSH1 0x20 PUSH1 0x0 KECCAK256 SWAP1 PUSH1 0xC MUL ADD PUSH1 0xB ADD PUSH1 0x40 MLOAD PUSH1 0x20 ADD PUSH2 0x1BA3 SWAP2 SWAP1 PUSH2 0x33A6 JUMP JUMPDEST PUSH1 0x40 MLOAD PUSH1 0x20 DUP2 DUP4 SUB SUB DUP2 MSTORE SWAP1 PUSH1 0x40 MSTORE DUP1 MLOAD SWAP1 PUSH1 0x20 ADD KECCAK256 SUB PUSH2 0x1BCD JUMPI DUP2 DUP1 PUSH2 0x1BC9 SWAP1 PUSH2 0x3288 JUMP JUMPDEST SWAP3 POP POP JUMPDEST DUP1 DUP1 PUSH2 0x1BD8 SWAP1 PUSH2 0x3288 JUMP JUMPDEST SWAP2 POP POP PUSH2 0x1B3A JUMP JUMPDEST POP PUSH1 0x0 DUP2 PUSH8 0xFFFFFFFFFFFFFFFF DUP2 GT ISZERO PUSH2 0x1BFD JUMPI PUSH2 0x1BFC PUSH2 0x27B3 JUMP JUMPDEST JUMPDEST PUSH1 0x40 MLOAD SWAP1 DUP1 DUP3 MSTORE DUP1 PUSH1 0x20 MUL PUSH1 0x20 ADD DUP3 ADD PUSH1 0x40 MSTORE DUP1 ISZERO PUSH2 0x1C36 JUMPI DUP2 PUSH1 0x20 ADD JUMPDEST PUSH2 0x1C23 PUSH2 0x2457 JUMP JUMPDEST DUP2 MSTORE PUSH1 0x20 ADD SWAP1 PUSH1 0x1 SWAP1 SUB SWAP1 DUP2 PUSH2 0x1C1B JUMPI SWAP1 POP JUMPDEST POP SWAP1 POP PUSH1 0x0 DUP1 PUSH1 0x0 SWAP1 POP JUMPDEST PUSH1 0x0 DUP1 SLOAD SWAP1 POP DUP2 LT ISZERO PUSH2 0x240B JUMPI DUP6 PUSH1 0x40 MLOAD PUSH1 0x20 ADD PUSH2 0x1C5F SWAP2 SWAP1 PUSH2 0x330C JUMP JUMPDEST PUSH1 0x40 MLOAD PUSH1 0x20 DUP2 DUP4 SUB SUB DUP2 MSTORE SWAP1 PUSH1 0x40 MSTORE DUP1 MLOAD SWAP1 PUSH1 0x20 ADD KECCAK256 PUSH1 0x0 DUP3 DUP2 SLOAD DUP2 LT PUSH2 0x1C89 JUMPI PUSH2 0x1C88 PUSH2 0x2EA1 JUMP JUMPDEST JUMPDEST SWAP1 PUSH1 0x0 MSTORE PUSH1 0x20 PUSH1 0x0 KECCAK256 SWAP1 PUSH1 0xC MUL ADD PUSH1 0xB ADD PUSH1 0x40 MLOAD PUSH1 0x20 ADD PUSH2 0x1CAA SWAP2 SWAP1 PUSH2 0x33A6 JUMP JUMPDEST PUSH1 0x40 MLOAD PUSH1 0x20 DUP2 DUP4 SUB SUB DUP2 MSTORE SWAP1 PUSH1 0x40 MSTORE DUP1 MLOAD SWAP1 PUSH1 0x20 ADD KECCAK256 SUB PUSH2 0x23F8 JUMPI PUSH1 0x0 DUP2 DUP2 SLOAD DUP2 LT PUSH2 0x1CD9 JUMPI PUSH2 0x1CD8 PUSH2 0x2EA1 JUMP JUMPDEST JUMPDEST SWAP1 PUSH1 0x0 MSTORE PUSH1 0x20 PUSH1 0x0 KECCAK256 SWAP1 PUSH1 0xC MUL ADD PUSH1 0x40 MLOAD DUP1 PUSH2 0x180 ADD PUSH1 0x40 MSTORE SWAP1 DUP2 PUSH1 0x0 DUP3 ADD DUP1 SLOAD PUSH2 0x1D03 SWAP1 PUSH2 0x2DB8 JUMP JUMPDEST DUP1 PUSH1 0x1F ADD PUSH1 0x20 DUP1 SWAP2 DIV MUL PUSH1 0x20 ADD PUSH1 0x40 MLOAD SWAP1 DUP2 ADD PUSH1 0x40 MSTORE DUP1 SWAP3 SWAP2 SWAP1 DUP2 DUP2 MSTORE PUSH1 0x20 ADD DUP3 DUP1 SLOAD PUSH2 0x1D2F SWAP1 PUSH2 0x2DB8 JUMP JUMPDEST DUP1 ISZERO PUSH2 0x1D7C JUMPI DUP1 PUSH1 0x1F LT PUSH2 0x1D51 JUMPI PUSH2 0x100 DUP1 DUP4 SLOAD DIV MUL DUP4 MSTORE SWAP2 PUSH1 0x20 ADD SWAP2 PUSH2 0x1D7C JUMP JUMPDEST DUP3 ADD SWAP2 SWAP1 PUSH1 0x0 MSTORE PUSH1 0x20 PUSH1 0x0 KECCAK256 SWAP1 JUMPDEST DUP2 SLOAD DUP2 MSTORE SWAP1 PUSH1 0x1 ADD SWAP1 PUSH1 0x20 ADD DUP1 DUP4 GT PUSH2 0x1D5F JUMPI DUP3 SWAP1 SUB PUSH1 0x1F AND DUP3 ADD SWAP2 JUMPDEST POP POP POP POP POP DUP2 MSTORE PUSH1 0x20 ADD PUSH1 0x1 DUP3 ADD DUP1 SLOAD PUSH2 0x1D95 SWAP1 PUSH2 0x2DB8 JUMP JUMPDEST DUP1 PUSH1 0x1F ADD PUSH1 0x20 DUP1 SWAP2 DIV MUL PUSH1 0x20 ADD PUSH1 0x40 MLOAD SWAP1 DUP2 ADD PUSH1 0x40 MSTORE DUP1 SWAP3 SWAP2 SWAP1 DUP2 DUP2 MSTORE PUSH1 0x20 ADD DUP3 DUP1 SLOAD PUSH2 0x1DC1 SWAP1 PUSH2 0x2DB8 JUMP JUMPDEST DUP1 ISZERO PUSH2 0x1E0E JUMPI DUP1 PUSH1 0x1F LT PUSH2 0x1DE3 JUMPI PUSH2 0x100 DUP1 DUP4 SLOAD DIV MUL DUP4 MSTORE SWAP2 PUSH1 0x20 ADD SWAP2 PUSH2 0x1E0E JUMP JUMPDEST DUP3 ADD SWAP2 SWAP1 PUSH1 0x0 MSTORE PUSH1 0x20 PUSH1 0x0 KECCAK256 SWAP1 JUMPDEST DUP2 SLOAD DUP2 MSTORE SWAP1 PUSH1 0x1 ADD SWAP1 PUSH1 0x20 ADD DUP1 DUP4 GT PUSH2 0x1DF1 JUMPI DUP3 SWAP1 SUB PUSH1 0x1F AND DUP3 ADD SWAP2 JUMPDEST POP POP POP POP POP DUP2 MSTORE PUSH1 0x20 ADD PUSH1 0x2 DUP3 ADD DUP1 SLOAD PUSH2 0x1E27 SWAP1 PUSH2 0x2DB8 JUMP JUMPDEST DUP1 PUSH1 0x1F ADD PUSH1 0x20 DUP1 SWAP2 DIV MUL PUSH1 0x20 ADD PUSH1 0x40 MLOAD SWAP1 DUP2 ADD PUSH1 0x40 MSTORE DUP1 SWAP3 SWAP2 SWAP1 DUP2 DUP2 MSTORE PUSH1 0x20 ADD DUP3 DUP1 SLOAD PUSH2 0x1E53 SWAP1 PUSH2 0x2DB8 JUMP JUMPDEST DUP1 ISZERO PUSH2 0x1EA0 JUMPI DUP1 PUSH1 0x1F LT PUSH2 0x1E75 JUMPI PUSH2 0x100 DUP1 DUP4 SLOAD DIV MUL DUP4 MSTORE SWAP2 PUSH1 0x20 ADD SWAP2 PUSH2 0x1EA0 JUMP JUMPDEST DUP3 ADD SWAP2 SWAP1 PUSH1 0x0 MSTORE PUSH1 0x20 PUSH1 0x0 KECCAK256 SWAP1 JUMPDEST DUP2 SLOAD DUP2 MSTORE SWAP1 PUSH1 0x1 ADD SWAP1 PUSH1 0x20 ADD DUP1 DUP4 GT PUSH2 0x1E83 JUMPI DUP3 SWAP1 SUB PUSH1 0x1F AND DUP3 ADD SWAP2 JUMPDEST POP POP POP POP POP DUP2 MSTORE PUSH1 0x20 ADD PUSH1 0x3 DUP3 ADD DUP1 SLOAD PUSH2 0x1EB9 SWAP1 PUSH2 0x2DB8 JUMP JUMPDEST DUP1 PUSH1 0x1F ADD PUSH1 0x20 DUP1 SWAP2 DIV MUL PUSH1 0x20 ADD PUSH1 0x40 MLOAD SWAP1 DUP2 ADD PUSH1 0x40 MSTORE DUP1 SWAP3 SWAP2 SWAP1 DUP2 DUP2 MSTORE PUSH1 0x20 ADD DUP3 DUP1 SLOAD PUSH2 0x1EE5 SWAP1 PUSH2 0x2DB8 JUMP JUMPDEST DUP1 ISZERO PUSH2 0x1F32 JUMPI DUP1 PUSH1 0x1F LT PUSH2 0x1F07 JUMPI PUSH2 0x100 DUP1 DUP4 SLOAD DIV MUL DUP4 MSTORE SWAP2 PUSH1 0x20 ADD SWAP2 PUSH2 0x1F32 JUMP JUMPDEST DUP3 ADD SWAP2 SWAP1 PUSH1 0x0 MSTORE PUSH1 0x20 PUSH1 0x0 KECCAK256 SWAP1 JUMPDEST DUP2 SLOAD DUP2 MSTORE SWAP1 PUSH1 0x1 ADD SWAP1 PUSH1 0x20 ADD DUP1 DUP4 GT PUSH2 0x1F15 JUMPI DUP3 SWAP1 SUB PUSH1 0x1F AND DUP3 ADD SWAP2 JUMPDEST POP POP POP POP POP DUP2 MSTORE PUSH1 0x20 ADD PUSH1 0x4 DUP3 ADD DUP1 SLOAD PUSH2 0x1F4B SWAP1 PUSH2 0x2DB8 JUMP JUMPDEST DUP1 PUSH1 0x1F ADD PUSH1 0x20 DUP1 SWAP2 DIV MUL PUSH1 0x20 ADD PUSH1 0x40 MLOAD SWAP1 DUP2 ADD PUSH1 0x40 MSTORE DUP1 SWAP3 SWAP2 SWAP1 DUP2 DUP2 MSTORE PUSH1 0x20 ADD DUP3 DUP1 SLOAD PUSH2 0x1F77 SWAP1 PUSH2 0x2DB8 JUMP JUMPDEST DUP1 ISZERO PUSH2 0x1FC4 JUMPI DUP1 PUSH1 0x1F LT PUSH2 0x1F99 JUMPI PUSH2 0x100 DUP1 DUP4 SLOAD DIV MUL DUP4 MSTORE SWAP2 PUSH1 0x20 ADD SWAP2 PUSH2 0x1FC4 JUMP JUMPDEST DUP3 ADD SWAP2 SWAP1 PUSH1 0x0 MSTORE PUSH1 0x20 PUSH1 0x0 KECCAK256 SWAP1 JUMPDEST DUP2 SLOAD DUP2 MSTORE SWAP1 PUSH1 0x1 ADD SWAP1 PUSH1 0x20 ADD DUP1 DUP4 GT PUSH2 0x1FA7 JUMPI DUP3 SWAP1 SUB PUSH1 0x1F AND DUP3 ADD SWAP2 JUMPDEST POP POP POP POP POP DUP2 MSTORE PUSH1 0x20 ADD PUSH1 0x5 DUP3 ADD DUP1 SLOAD PUSH2 0x1FDD SWAP1 PUSH2 0x2DB8 JUMP JUMPDEST DUP1 PUSH1 0x1F ADD PUSH1 0x20 DUP1 SWAP2 DIV MUL PUSH1 0x20 ADD PUSH1 0x40 MLOAD SWAP1 DUP2 ADD PUSH1 0x40 MSTORE DUP1 SWAP3 SWAP2 SWAP1 DUP2 DUP2 MSTORE PUSH1 0x20 ADD DUP3 DUP1 SLOAD PUSH2 0x2009 SWAP1 PUSH2 0x2DB8 JUMP JUMPDEST DUP1 ISZERO PUSH2 0x2056 JUMPI DUP1 PUSH1 0x1F LT PUSH2 0x202B JUMPI PUSH2 0x100 DUP1 DUP4 SLOAD DIV MUL DUP4 MSTORE SWAP2 PUSH1 0x20 ADD SWAP2 PUSH2 0x2056 JUMP JUMPDEST DUP3 ADD SWAP2 SWAP1 PUSH1 0x0 MSTORE PUSH1 0x20 PUSH1 0x0 KECCAK256 SWAP1 JUMPDEST DUP2 SLOAD DUP2 MSTORE SWAP1 PUSH1 0x1 ADD SWAP1 PUSH1 0x20 ADD DUP1 DUP4 GT PUSH2 0x2039 JUMPI DUP3 SWAP1 SUB PUSH1 0x1F AND DUP3 ADD SWAP2 JUMPDEST POP POP POP POP POP DUP2 MSTORE PUSH1 0x20 ADD PUSH1 0x6 DUP3 ADD DUP1 SLOAD PUSH2 0x206F SWAP1 PUSH2 0x2DB8 JUMP JUMPDEST DUP1 PUSH1 0x1F ADD PUSH1 0x20 DUP1 SWAP2 DIV MUL PUSH1 0x20 ADD PUSH1 0x40 MLOAD SWAP1 DUP2 ADD PUSH1 0x40 MSTORE DUP1 SWAP3 SWAP2 SWAP1 DUP2 DUP2 MSTORE PUSH1 0x20 ADD DUP3 DUP1 SLOAD PUSH2 0x209B SWAP1 PUSH2 0x2DB8 JUMP JUMPDEST DUP1 ISZERO PUSH2 0x20E8 JUMPI DUP1 PUSH1 0x1F LT PUSH2 0x20BD JUMPI PUSH2 0x100 DUP1 DUP4 SLOAD DIV MUL DUP4 MSTORE SWAP2 PUSH1 0x20 ADD SWAP2 PUSH2 0x20E8 JUMP JUMPDEST DUP3 ADD SWAP2 SWAP1 PUSH1 0x0 MSTORE PUSH1 0x20 PUSH1 0x0 KECCAK256 SWAP1 JUMPDEST DUP2 SLOAD DUP2 MSTORE SWAP1 PUSH1 0x1 ADD SWAP1 PUSH1 0x20 ADD DUP1 DUP4 GT PUSH2 0x20CB JUMPI DUP3 SWAP1 SUB PUSH1 0x1F AND DUP3 ADD SWAP2 JUMPDEST POP POP POP POP POP DUP2 MSTORE PUSH1 0x20 ADD PUSH1 0x7 DUP3 ADD DUP1 SLOAD PUSH2 0x2101 SWAP1 PUSH2 0x2DB8 JUMP JUMPDEST DUP1 PUSH1 0x1F ADD PUSH1 0x20 DUP1 SWAP2 DIV MUL PUSH1 0x20 ADD PUSH1 0x40 MLOAD SWAP1 DUP2 ADD PUSH1 0x40 MSTORE DUP1 SWAP3 SWAP2 SWAP1 DUP2 DUP2 MSTORE PUSH1 0x20 ADD DUP3 DUP1 SLOAD PUSH2 0x212D SWAP1 PUSH2 0x2DB8 JUMP JUMPDEST DUP1 ISZERO PUSH2 0x217A JUMPI DUP1 PUSH1 0x1F LT PUSH2 0x214F JUMPI PUSH2 0x100 DUP1 DUP4 SLOAD DIV MUL DUP4 MSTORE SWAP2 PUSH1 0x20 ADD SWAP2 PUSH2 0x217A JUMP JUMPDEST DUP3 ADD SWAP2 SWAP1 PUSH1 0x0 MSTORE PUSH1 0x20 PUSH1 0x0 KECCAK256 SWAP1 JUMPDEST DUP2 SLOAD DUP2 MSTORE SWAP1 PUSH1 0x1 ADD SWAP1 PUSH1 0x20 ADD DUP1 DUP4 GT PUSH2 0x215D JUMPI DUP3 SWAP1 SUB PUSH1 0x1F AND DUP3 ADD SWAP2 JUMPDEST POP POP POP POP POP DUP2 MSTORE PUSH1 0x20 ADD PUSH1 0x8 DUP3 ADD DUP1 SLOAD PUSH2 0x2193 SWAP1 PUSH2 0x2DB8 JUMP JUMPDEST DUP1 PUSH1 0x1F ADD PUSH1 0x20 DUP1 SWAP2 DIV MUL PUSH1 0x20 ADD PUSH1 0x40 MLOAD SWAP1 DUP2 ADD PUSH1 0x40 MSTORE DUP1 SWAP3 SWAP2 SWAP1 DUP2 DUP2 MSTORE PUSH1 0x20 ADD DUP3 DUP1 SLOAD PUSH2 0x21BF SWAP1 PUSH2 0x2DB8 JUMP JUMPDEST DUP1 ISZERO PUSH2 0x220C JUMPI DUP1 PUSH1 0x1F LT PUSH2 0x21E1 JUMPI PUSH2 0x100 DUP1 DUP4 SLOAD DIV MUL DUP4 MSTORE SWAP2 PUSH1 0x20 ADD SWAP2 PUSH2 0x220C JUMP JUMPDEST DUP3 ADD SWAP2 SWAP1 PUSH1 0x0 MSTORE PUSH1 0x20 PUSH1 0x0 KECCAK256 SWAP1 JUMPDEST DUP2 SLOAD DUP2 MSTORE SWAP1 PUSH1 0x1 ADD SWAP1 PUSH1 0x20 ADD DUP1 DUP4 GT PUSH2 0x21EF JUMPI DUP3 SWAP1 SUB PUSH1 0x1F AND DUP3 ADD SWAP2 JUMPDEST POP POP POP POP POP DUP2 MSTORE PUSH1 0x20 ADD PUSH1 0x9 DUP3 ADD DUP1 SLOAD PUSH2 0x2225 SWAP1 PUSH2 0x2DB8 JUMP JUMPDEST DUP1 PUSH1 0x1F ADD PUSH1 0x20 DUP1 SWAP2 DIV MUL PUSH1 0x20 ADD PUSH1 0x40 MLOAD SWAP1 DUP2 ADD PUSH1 0x40 MSTORE DUP1 SWAP3 SWAP2 SWAP1 DUP2 DUP2 MSTORE PUSH1 0x20 ADD DUP3 DUP1 SLOAD PUSH2 0x2251 SWAP1 PUSH2 0x2DB8 JUMP JUMPDEST DUP1 ISZERO PUSH2 0x229E JUMPI DUP1 PUSH1 0x1F LT PUSH2 0x2273 JUMPI PUSH2 0x100 DUP1 DUP4 SLOAD DIV MUL DUP4 MSTORE SWAP2 PUSH1 0x20 ADD SWAP2 PUSH2 0x229E JUMP JUMPDEST DUP3 ADD SWAP2 SWAP1 PUSH1 0x0 MSTORE PUSH1 0x20 PUSH1 0x0 KECCAK256 SWAP1 JUMPDEST DUP2 SLOAD DUP2 MSTORE SWAP1 PUSH1 0x1 ADD SWAP1 PUSH1 0x20 ADD DUP1 DUP4 GT PUSH2 0x2281 JUMPI DUP3 SWAP1 SUB PUSH1 0x1F AND DUP3 ADD SWAP2 JUMPDEST POP POP POP POP POP DUP2 MSTORE PUSH1 0x20 ADD PUSH1 0xA DUP3 ADD DUP1 SLOAD PUSH2 0x22B7 SWAP1 PUSH2 0x2DB8 JUMP JUMPDEST DUP1 PUSH1 0x1F ADD PUSH1 0x20 DUP1 SWAP2 DIV MUL PUSH1 0x20 ADD PUSH1 0x40 MLOAD SWAP1 DUP2 ADD PUSH1 0x40 MSTORE DUP1 SWAP3 SWAP2 SWAP1 DUP2 DUP2 MSTORE PUSH1 0x20 ADD DUP3 DUP1 SLOAD PUSH2 0x22E3 SWAP1 PUSH2 0x2DB8 JUMP JUMPDEST DUP1 ISZERO PUSH2 0x2330 JUMPI DUP1 PUSH1 0x1F LT PUSH2 0x2305 JUMPI PUSH2 0x100 DUP1 DUP4 SLOAD DIV MUL DUP4 MSTORE SWAP2 PUSH1 0x20 ADD SWAP2 PUSH2 0x2330 JUMP JUMPDEST DUP3 ADD SWAP2 SWAP1 PUSH1 0x0 MSTORE PUSH1 0x20 PUSH1 0x0 KECCAK256 SWAP1 JUMPDEST DUP2 SLOAD DUP2 MSTORE SWAP1 PUSH1 0x1 ADD SWAP1 PUSH1 0x20 ADD DUP1 DUP4 GT PUSH2 0x2313 JUMPI DUP3 SWAP1 SUB PUSH1 0x1F AND DUP3 ADD SWAP2 JUMPDEST POP POP POP POP POP DUP2 MSTORE PUSH1 0x20 ADD PUSH1 0xB DUP3 ADD DUP1 SLOAD PUSH2 0x2349 SWAP1 PUSH2 0x2DB8 JUMP JUMPDEST DUP1 PUSH1 0x1F ADD PUSH1 0x20 DUP1 SWAP2 DIV MUL PUSH1 0x20 ADD PUSH1 0x40 MLOAD SWAP1 DUP2 ADD PUSH1 0x40 MSTORE DUP1 SWAP3 SWAP2 SWAP1 DUP2 DUP2 MSTORE PUSH1 0x20 ADD DUP3 DUP1 SLOAD PUSH2 0x2375 SWAP1 PUSH2 0x2DB8 JUMP JUMPDEST DUP1 ISZERO PUSH2 0x23C2 JUMPI DUP1 PUSH1 0x1F LT PUSH2 0x2397 JUMPI PUSH2 0x100 DUP1 DUP4 SLOAD DIV MUL DUP4 MSTORE SWAP2 PUSH1 0x20 ADD SWAP2 PUSH2 0x23C2 JUMP JUMPDEST DUP3 ADD SWAP2 SWAP1 PUSH1 0x0 MSTORE PUSH1 0x20 PUSH1 0x0 KECCAK256 SWAP1 JUMPDEST DUP2 SLOAD DUP2 MSTORE SWAP1 PUSH1 0x1 ADD SWAP1 PUSH1 0x20 ADD DUP1 DUP4 GT PUSH2 0x23A5 JUMPI DUP3 SWAP1 SUB PUSH1 0x1F AND DUP3 ADD SWAP2 JUMPDEST POP POP POP POP POP DUP2 MSTORE POP POP DUP4 DUP4 DUP2 MLOAD DUP2 LT PUSH2 0x23DE JUMPI PUSH2 0x23DD PUSH2 0x2EA1 JUMP JUMPDEST JUMPDEST PUSH1 0x20 MUL PUSH1 0x20 ADD ADD DUP2 SWAP1 MSTORE POP DUP2 DUP1 PUSH2 0x23F4 SWAP1 PUSH2 0x3288 JUMP JUMPDEST SWAP3 POP POP JUMPDEST DUP1 DUP1 PUSH2 0x2403 SWAP1 PUSH2 0x3288 JUMP JUMPDEST SWAP2 POP POP PUSH2 0x1C41 JUMP JUMPDEST POP DUP2 SWAP4 POP POP POP POP SWAP2 SWAP1 POP JUMP JUMPDEST POP DUP1 SLOAD PUSH2 0x2423 SWAP1 PUSH2 0x2DB8 JUMP JUMPDEST PUSH1 0x0 DUP3 SSTORE DUP1 PUSH1 0x1F LT PUSH2 0x2435 JUMPI POP PUSH2 0x2454 JUMP JUMPDEST PUSH1 0x1F ADD PUSH1 0x20 SWAP1 DIV SWAP1 PUSH1 0x0 MSTORE PUSH1 0x20 PUSH1 0x0 KECCAK256 SWAP1 DUP2 ADD SWAP1 PUSH2 0x2453 SWAP2 SWAP1 PUSH2 0x24B8 JUMP JUMPDEST JUMPDEST POP JUMP JUMPDEST PUSH1 0x40 MLOAD DUP1 PUSH2 0x180 ADD PUSH1 0x40 MSTORE DUP1 PUSH1 0x60 DUP2 MSTORE PUSH1 0x20 ADD PUSH1 0x60 DUP2 MSTORE PUSH1 0x20 ADD PUSH1 0x60 DUP2 MSTORE PUSH1 0x20 ADD PUSH1 0x60 DUP2 MSTORE PUSH1 0x20 ADD PUSH1 0x60 DUP2 MSTORE PUSH1 0x20 ADD PUSH1 0x60 DUP2 MSTORE PUSH1 0x20 ADD PUSH1 0x60 DUP2 MSTORE PUSH1 0x20 ADD PUSH1 0x60 DUP2 MSTORE PUSH1 0x20 ADD PUSH1 0x60 DUP2 MSTORE PUSH1 0x20 ADD PUSH1 0x60 DUP2 MSTORE PUSH1 0x20 ADD PUSH1 0x60 DUP2 MSTORE PUSH1 0x20 ADD PUSH1 0x60 DUP2 MSTORE POP SWAP1 JUMP JUMPDEST JUMPDEST DUP1 DUP3 GT ISZERO PUSH2 0x24D1 JUMPI PUSH1 0x0 DUP2 PUSH1 0x0 SWAP1 SSTORE POP PUSH1 0x1 ADD PUSH2 0x24B9 JUMP JUMPDEST POP SWAP1 JUMP JUMPDEST PUSH1 0x0 DUP2 MLOAD SWAP1 POP SWAP2 SWAP1 POP JUMP JUMPDEST PUSH1 0x0 DUP3 DUP3 MSTORE PUSH1 0x20 DUP3 ADD SWAP1 POP SWAP3 SWAP2 POP POP JUMP JUMPDEST PUSH1 0x0 DUP2 SWAP1 POP PUSH1 0x20 DUP3 ADD SWAP1 POP SWAP2 SWAP1 POP JUMP JUMPDEST PUSH1 0x0 DUP2 MLOAD SWAP1 POP SWAP2 SWAP1 POP JUMP JUMPDEST PUSH1 0x0 DUP3 DUP3 MSTORE PUSH1 0x20 DUP3 ADD SWAP1 POP SWAP3 SWAP2 POP POP JUMP JUMPDEST PUSH1 0x0 JUMPDEST DUP4 DUP2 LT ISZERO PUSH2 0x253B JUMPI DUP1 DUP3 ADD MLOAD DUP2 DUP5 ADD MSTORE PUSH1 0x20 DUP2 ADD SWAP1 POP PUSH2 0x2520 JUMP JUMPDEST PUSH1 0x0 DUP5 DUP5 ADD MSTORE POP POP POP POP JUMP JUMPDEST PUSH1 0x0 PUSH1 0x1F NOT PUSH1 0x1F DUP4 ADD AND SWAP1 POP SWAP2 SWAP1 POP JUMP JUMPDEST PUSH1 0x0 PUSH2 0x2563 DUP3 PUSH2 0x2501 JUMP JUMPDEST PUSH2 0x256D DUP2 DUP6 PUSH2 0x250C JUMP JUMPDEST SWAP4 POP PUSH2 0x257D DUP2 DUP6 PUSH1 0x20 DUP7 ADD PUSH2 0x251D JUMP JUMPDEST PUSH2 0x2586 DUP2 PUSH2 0x2547 JUMP JUMPDEST DUP5 ADD SWAP2 POP POP SWAP3 SWAP2 POP POP JUMP JUMPDEST PUSH1 0x0 PUSH2 0x180 DUP4 ADD PUSH1 0x0 DUP4 ADD MLOAD DUP5 DUP3 SUB PUSH1 0x0 DUP7 ADD MSTORE PUSH2 0x25AF DUP3 DUP3 PUSH2 0x2558 JUMP JUMPDEST SWAP2 POP POP PUSH1 0x20 DUP4 ADD MLOAD DUP5 DUP3 SUB PUSH1 0x20 DUP7 ADD MSTORE PUSH2 0x25C9 DUP3 DUP3 PUSH2 0x2558 JUMP JUMPDEST SWAP2 POP POP PUSH1 0x40 DUP4 ADD MLOAD DUP5 DUP3 SUB PUSH1 0x40 DUP7 ADD MSTORE PUSH2 0x25E3 DUP3 DUP3 PUSH2 0x2558 JUMP JUMPDEST SWAP2 POP POP PUSH1 0x60 DUP4 ADD MLOAD DUP5 DUP3 SUB PUSH1 0x60 DUP7 ADD MSTORE PUSH2 0x25FD DUP3 DUP3 PUSH2 0x2558 JUMP JUMPDEST SWAP2 POP POP PUSH1 0x80 DUP4 ADD MLOAD DUP5 DUP3 SUB PUSH1 0x80 DUP7 ADD MSTORE PUSH2 0x2617 DUP3 DUP3 PUSH2 0x2558 JUMP JUMPDEST SWAP2 POP POP PUSH1 0xA0 DUP4 ADD MLOAD DUP5 DUP3 SUB PUSH1 0xA0 DUP7 ADD MSTORE PUSH2 0x2631 DUP3 DUP3 PUSH2 0x2558 JUMP JUMPDEST SWAP2 POP POP PUSH1 0xC0 DUP4 ADD MLOAD DUP5 DUP3 SUB PUSH1 0xC0 DUP7 ADD MSTORE PUSH2 0x264B DUP3 DUP3 PUSH2 0x2558 JUMP JUMPDEST SWAP2 POP POP PUSH1 0xE0 DUP4 ADD MLOAD DUP5 DUP3 SUB PUSH1 0xE0 DUP7 ADD MSTORE PUSH2 0x2665 DUP3 DUP3 PUSH2 0x2558 JUMP JUMPDEST SWAP2 POP POP PUSH2 0x100 DUP4 ADD MLOAD DUP5 DUP3 SUB PUSH2 0x100 DUP7 ADD MSTORE PUSH2 0x2681 DUP3 DUP3 PUSH2 0x2558 JUMP JUMPDEST SWAP2 POP POP PUSH2 0x120 DUP4 ADD MLOAD DUP5 DUP3 SUB PUSH2 0x120 DUP7 ADD MSTORE PUSH2 0x269D DUP3 DUP3 PUSH2 0x2558 JUMP JUMPDEST SWAP2 POP POP PUSH2 0x140 DUP4 ADD MLOAD DUP5 DUP3 SUB PUSH2 0x140 DUP7 ADD MSTORE PUSH2 0x26B9 DUP3 DUP3 PUSH2 0x2558 JUMP JUMPDEST SWAP2 POP POP PUSH2 0x160 DUP4 ADD MLOAD DUP5 DUP3 SUB PUSH2 0x160 DUP7 ADD MSTORE PUSH2 0x26D5 DUP3 DUP3 PUSH2 0x2558 JUMP JUMPDEST SWAP2 POP POP DUP1 SWAP2 POP POP SWAP3 SWAP2 POP POP JUMP JUMPDEST PUSH1 0x0 PUSH2 0x26EE DUP4 DUP4 PUSH2 0x2591 JUMP JUMPDEST SWAP1 POP SWAP3 SWAP2 POP POP JUMP JUMPDEST PUSH1 0x0 PUSH1 0x20 DUP3 ADD SWAP1 POP SWAP2 SWAP1 POP JUMP JUMPDEST PUSH1 0x0 PUSH2 0x270E DUP3 PUSH2 0x24D5 JUMP JUMPDEST PUSH2 0x2718 DUP2 DUP6 PUSH2 0x24E0 JUMP JUMPDEST SWAP4 POP DUP4 PUSH1 0x20 DUP3 MUL DUP6 ADD PUSH2 0x272A DUP6 PUSH2 0x24F1 JUMP JUMPDEST DUP1 PUSH1 0x0 JUMPDEST DUP6 DUP2 LT ISZERO PUSH2 0x2766 JUMPI DUP5 DUP5 SUB DUP10 MSTORE DUP2 MLOAD PUSH2 0x2747 DUP6 DUP3 PUSH2 0x26E2 JUMP JUMPDEST SWAP5 POP PUSH2 0x2752 DUP4 PUSH2 0x26F6 JUMP JUMPDEST SWAP3 POP PUSH1 0x20 DUP11 ADD SWAP10 POP POP PUSH1 0x1 DUP2 ADD SWAP1 POP PUSH2 0x272E JUMP JUMPDEST POP DUP3 SWAP8 POP DUP8 SWAP6 POP POP POP POP POP POP SWAP3 SWAP2 POP POP JUMP JUMPDEST PUSH1 0x0 PUSH1 0x20 DUP3 ADD SWAP1 POP DUP2 DUP2 SUB PUSH1 0x0 DUP4 ADD MSTORE PUSH2 0x2792 DUP2 DUP5 PUSH2 0x2703 JUMP JUMPDEST SWAP1 POP SWAP3 SWAP2 POP POP JUMP JUMPDEST PUSH1 0x0 PUSH1 0x40 MLOAD SWAP1 POP SWAP1 JUMP JUMPDEST PUSH1 0x0 DUP1 REVERT JUMPDEST PUSH1 0x0 DUP1 REVERT JUMPDEST PUSH1 0x0 DUP1 REVERT JUMPDEST PUSH32 0x4E487B7100000000000000000000000000000000000000000000000000000000 PUSH1 0x0 MSTORE PUSH1 0x41 PUSH1 0x4 MSTORE PUSH1 0x24 PUSH1 0x0 REVERT JUMPDEST PUSH2 0x27EB DUP3 PUSH2 0x2547 JUMP JUMPDEST DUP2 ADD DUP2 DUP2 LT PUSH8 0xFFFFFFFFFFFFFFFF DUP3 GT OR ISZERO PUSH2 0x280A JUMPI PUSH2 0x2809 PUSH2 0x27B3 JUMP JUMPDEST JUMPDEST DUP1 PUSH1 0x40 MSTORE POP POP POP JUMP JUMPDEST PUSH1 0x0 PUSH2 0x281D PUSH2 0x279A JUMP JUMPDEST SWAP1 POP PUSH2 0x2829 DUP3 DUP3 PUSH2 0x27E2 JUMP JUMPDEST SWAP2 SWAP1 POP JUMP JUMPDEST PUSH1 0x0 PUSH8 0xFFFFFFFFFFFFFFFF DUP3 GT ISZERO PUSH2 0x2849 JUMPI PUSH2 0x2848 PUSH2 0x27B3 JUMP JUMPDEST JUMPDEST PUSH1 0x20 DUP3 MUL SWAP1 POP PUSH1 0x20 DUP2 ADD SWAP1 POP SWAP2 SWAP1 POP JUMP JUMPDEST PUSH1 0x0 DUP1 REVERT JUMPDEST PUSH1 0x0 DUP1 REVERT JUMPDEST PUSH1 0x0 PUSH8 0xFFFFFFFFFFFFFFFF DUP3 GT ISZERO PUSH2 0x287F JUMPI PUSH2 0x287E PUSH2 0x27B3 JUMP JUMPDEST JUMPDEST PUSH2 0x2888 DUP3 PUSH2 0x2547 JUMP JUMPDEST SWAP1 POP PUSH1 0x20 DUP2 ADD SWAP1 POP SWAP2 SWAP1 POP JUMP JUMPDEST DUP3 DUP2 DUP4 CALLDATACOPY PUSH1 0x0 DUP4 DUP4 ADD MSTORE POP POP POP JUMP JUMPDEST PUSH1 0x0 PUSH2 0x28B7 PUSH2 0x28B2 DUP5 PUSH2 0x2864 JUMP JUMPDEST PUSH2 0x2813 JUMP JUMPDEST SWAP1 POP DUP3 DUP2 MSTORE PUSH1 0x20 DUP2 ADD DUP5 DUP5 DUP5 ADD GT ISZERO PUSH2 0x28D3 JUMPI PUSH2 0x28D2 PUSH2 0x285F JUMP JUMPDEST JUMPDEST PUSH2 0x28DE DUP5 DUP3 DUP6 PUSH2 0x2895 JUMP JUMPDEST POP SWAP4 SWAP3 POP POP POP JUMP JUMPDEST PUSH1 0x0 DUP3 PUSH1 0x1F DUP4 ADD SLT PUSH2 0x28FB JUMPI PUSH2 0x28FA PUSH2 0x27AE JUMP JUMPDEST JUMPDEST DUP2 CALLDATALOAD PUSH2 0x290B DUP5 DUP3 PUSH1 0x20 DUP7 ADD PUSH2 0x28A4 JUMP JUMPDEST SWAP2 POP POP SWAP3 SWAP2 POP POP JUMP JUMPDEST PUSH1 0x0 PUSH2 0x2927 PUSH2 0x2922 DUP5 PUSH2 0x282E JUMP JUMPDEST PUSH2 0x2813 JUMP JUMPDEST SWAP1 POP DUP1 DUP4 DUP3 MSTORE PUSH1 0x20 DUP3 ADD SWAP1 POP PUSH1 0x20 DUP5 MUL DUP4 ADD DUP6 DUP2 GT ISZERO PUSH2 0x294A JUMPI PUSH2 0x2949 PUSH2 0x285A JUMP JUMPDEST JUMPDEST DUP4 JUMPDEST DUP2 DUP2 LT ISZERO PUSH2 0x2991 JUMPI DUP1 CALLDATALOAD PUSH8 0xFFFFFFFFFFFFFFFF DUP2 GT ISZERO PUSH2 0x296F JUMPI PUSH2 0x296E PUSH2 0x27AE JUMP JUMPDEST JUMPDEST DUP1 DUP7 ADD PUSH2 0x297C DUP10 DUP3 PUSH2 0x28E6 JUMP JUMPDEST DUP6 MSTORE PUSH1 0x20 DUP6 ADD SWAP5 POP POP POP PUSH1 0x20 DUP2 ADD SWAP1 POP PUSH2 0x294C JUMP JUMPDEST POP POP POP SWAP4 SWAP3 POP POP POP JUMP JUMPDEST PUSH1 0x0 DUP3 PUSH1 0x1F DUP4 ADD SLT PUSH2 0x29B0 JUMPI PUSH2 0x29AF PUSH2 0x27AE JUMP JUMPDEST JUMPDEST DUP2 CALLDATALOAD PUSH2 0x29C0 DUP5 DUP3 PUSH1 0x20 DUP7 ADD PUSH2 0x2914 JUMP JUMPDEST SWAP2 POP POP SWAP3 SWAP2 POP POP JUMP JUMPDEST PUSH1 0x0 PUSH1 0x20 DUP3 DUP5 SUB SLT ISZERO PUSH2 0x29DF JUMPI PUSH2 0x29DE PUSH2 0x27A4 JUMP JUMPDEST JUMPDEST PUSH1 0x0 DUP3 ADD CALLDATALOAD PUSH8 0xFFFFFFFFFFFFFFFF DUP2 GT ISZERO PUSH2 0x29FD JUMPI PUSH2 0x29FC PUSH2 0x27A9 JUMP JUMPDEST JUMPDEST PUSH2 0x2A09 DUP5 DUP3 DUP6 ADD PUSH2 0x299B JUMP JUMPDEST SWAP2 POP POP SWAP3 SWAP2 POP POP JUMP JUMPDEST PUSH1 0x0 PUSH1 0x20 DUP3 DUP5 SUB SLT ISZERO PUSH2 0x2A28 JUMPI PUSH2 0x2A27 PUSH2 0x27A4 JUMP JUMPDEST JUMPDEST PUSH1 0x0 DUP3 ADD CALLDATALOAD PUSH8 0xFFFFFFFFFFFFFFFF DUP2 GT ISZERO PUSH2 0x2A46 JUMPI PUSH2 0x2A45 PUSH2 0x27A9 JUMP JUMPDEST JUMPDEST PUSH2 0x2A52 DUP5 DUP3 DUP6 ADD PUSH2 0x28E6 JUMP JUMPDEST SWAP2 POP POP SWAP3 SWAP2 POP POP JUMP JUMPDEST PUSH1 0x0 PUSH2 0x180 DUP4 ADD PUSH1 0x0 DUP4 ADD MLOAD DUP5 DUP3 SUB PUSH1 0x0 DUP7 ADD MSTORE PUSH2 0x2A79 DUP3 DUP3 PUSH2 0x2558 JUMP JUMPDEST SWAP2 POP POP PUSH1 0x20 DUP4 ADD MLOAD DUP5 DUP3 SUB PUSH1 0x20 DUP7 ADD MSTORE PUSH2 0x2A93 DUP3 DUP3 PUSH2 0x2558 JUMP JUMPDEST SWAP2 POP POP PUSH1 0x40 DUP4 ADD MLOAD DUP5 DUP3 SUB PUSH1 0x40 DUP7 ADD MSTORE PUSH2 0x2AAD DUP3 DUP3 PUSH2 0x2558 JUMP JUMPDEST SWAP2 POP POP PUSH1 0x60 DUP4 ADD MLOAD DUP5 DUP3 SUB PUSH1 0x60 DUP7 ADD MSTORE PUSH2 0x2AC7 DUP3 DUP3 PUSH2 0x2558 JUMP JUMPDEST SWAP2 POP POP PUSH1 0x80 DUP4 ADD MLOAD DUP5 DUP3 SUB PUSH1 0x80 DUP7 ADD MSTORE PUSH2 0x2AE1 DUP3 DUP3 PUSH2 0x2558 JUMP JUMPDEST SWAP2 POP POP PUSH1 0xA0 DUP4 ADD MLOAD DUP5 DUP3 SUB PUSH1 0xA0 DUP7 ADD MSTORE PUSH2 0x2AFB DUP3 DUP3 PUSH2 0x2558 JUMP JUMPDEST SWAP2 POP POP PUSH1 0xC0 DUP4 ADD MLOAD DUP5 DUP3 SUB PUSH1 0xC0 DUP7 ADD MSTORE PUSH2 0x2B15 DUP3 DUP3 PUSH2 0x2558 JUMP JUMPDEST SWAP2 POP POP PUSH1 0xE0 DUP4 ADD MLOAD DUP5 DUP3 SUB PUSH1 0xE0 DUP7 ADD MSTORE PUSH2 0x2B2F DUP3 DUP3 PUSH2 0x2558 JUMP JUMPDEST SWAP2 POP POP PUSH2 0x100 DUP4 ADD MLOAD DUP5 DUP3 SUB PUSH2 0x100 DUP7 ADD MSTORE PUSH2 0x2B4B DUP3 DUP3 PUSH2 0x2558 JUMP JUMPDEST SWAP2 POP POP PUSH2 0x120 DUP4 ADD MLOAD DUP5 DUP3 SUB PUSH2 0x120 DUP7 ADD MSTORE PUSH2 0x2B67 DUP3 DUP3 PUSH2 0x2558 JUMP JUMPDEST SWAP2 POP POP PUSH2 0x140 DUP4 ADD MLOAD DUP5 DUP3 SUB PUSH2 0x140 DUP7 ADD MSTORE PUSH2 0x2B83 DUP3 DUP3 PUSH2 0x2558 JUMP JUMPDEST SWAP2 POP POP PUSH2 0x160 DUP4 ADD MLOAD DUP5 DUP3 SUB PUSH2 0x160 DUP7 ADD MSTORE PUSH2 0x2B9F DUP3 DUP3 PUSH2 0x2558 JUMP JUMPDEST SWAP2 POP POP DUP1 SWAP2 POP POP SWAP3 SWAP2 POP POP JUMP JUMPDEST PUSH1 0x0 PUSH1 0x20 DUP3 ADD SWAP1 POP DUP2 DUP2 SUB PUSH1 0x0 DUP4 ADD MSTORE PUSH2 0x2BC6 DUP2 DUP5 PUSH2 0x2A5B JUMP JUMPDEST SWAP1 POP SWAP3 SWAP2 POP POP JUMP JUMPDEST PUSH1 0x0 DUP2 SWAP1 POP SWAP2 SWAP1 POP JUMP JUMPDEST PUSH2 0x2BE1 DUP2 PUSH2 0x2BCE JUMP JUMPDEST DUP2 EQ PUSH2 0x2BEC JUMPI PUSH1 0x0 DUP1 REVERT JUMPDEST POP JUMP JUMPDEST PUSH1 0x0 DUP2 CALLDATALOAD SWAP1 POP PUSH2 0x2BFE DUP2 PUSH2 0x2BD8 JUMP JUMPDEST SWAP3 SWAP2 POP POP JUMP JUMPDEST PUSH1 0x0 PUSH1 0x20 DUP3 DUP5 SUB SLT ISZERO PUSH2 0x2C1A JUMPI PUSH2 0x2C19 PUSH2 0x27A4 JUMP JUMPDEST JUMPDEST PUSH1 0x0 PUSH2 0x2C28 DUP5 DUP3 DUP6 ADD PUSH2 0x2BEF JUMP JUMPDEST SWAP2 POP POP SWAP3 SWAP2 POP POP JUMP JUMPDEST PUSH1 0x0 DUP3 DUP3 MSTORE PUSH1 0x20 DUP3 ADD SWAP1 POP SWAP3 SWAP2 POP POP JUMP JUMPDEST PUSH1 0x0 PUSH2 0x2C4D DUP3 PUSH2 0x2501 JUMP JUMPDEST PUSH2 0x2C57 DUP2 DUP6 PUSH2 0x2C31 JUMP JUMPDEST SWAP4 POP PUSH2 0x2C67 DUP2 DUP6 PUSH1 0x20 DUP7 ADD PUSH2 0x251D JUMP JUMPDEST PUSH2 0x2C70 DUP2 PUSH2 0x2547 JUMP JUMPDEST DUP5 ADD SWAP2 POP POP SWAP3 SWAP2 POP POP JUMP JUMPDEST PUSH1 0x0 PUSH2 0x180 DUP3 ADD SWAP1 POP DUP2 DUP2 SUB PUSH1 0x0 DUP4 ADD MSTORE PUSH2 0x2C96 DUP2 DUP16 PUSH2 0x2C42 JUMP JUMPDEST SWAP1 POP DUP2 DUP2 SUB PUSH1 0x20 DUP4 ADD MSTORE PUSH2 0x2CAA DUP2 DUP15 PUSH2 0x2C42 JUMP JUMPDEST SWAP1 POP DUP2 DUP2 SUB PUSH1 0x40 DUP4 ADD MSTORE PUSH2 0x2CBE DUP2 DUP14 PUSH2 0x2C42 JUMP JUMPDEST SWAP1 POP DUP2 DUP2 SUB PUSH1 0x60 DUP4 ADD MSTORE PUSH2 0x2CD2 DUP2 DUP13 PUSH2 0x2C42 JUMP JUMPDEST SWAP1 POP DUP2 DUP2 SUB PUSH1 0x80 DUP4 ADD MSTORE PUSH2 0x2CE6 DUP2 DUP12 PUSH2 0x2C42 JUMP JUMPDEST SWAP1 POP DUP2 DUP2 SUB PUSH1 0xA0 DUP4 ADD MSTORE PUSH2 0x2CFA DUP2 DUP11 PUSH2 0x2C42 JUMP JUMPDEST SWAP1 POP DUP2 DUP2 SUB PUSH1 0xC0 DUP4 ADD MSTORE PUSH2 0x2D0E DUP2 DUP10 PUSH2 0x2C42 JUMP JUMPDEST SWAP1 POP DUP2 DUP2 SUB PUSH1 0xE0 DUP4 ADD MSTORE PUSH2 0x2D22 DUP2 DUP9 PUSH2 0x2C42 JUMP JUMPDEST SWAP1 POP DUP2 DUP2 SUB PUSH2 0x100 DUP4 ADD MSTORE PUSH2 0x2D37 DUP2 DUP8 PUSH2 0x2C42 JUMP JUMPDEST SWAP1 POP DUP2 DUP2 SUB PUSH2 0x120 DUP4 ADD MSTORE PUSH2 0x2D4C DUP2 DUP7 PUSH2 0x2C42 JUMP JUMPDEST SWAP1 POP DUP2 DUP2 SUB PUSH2 0x140 DUP4 ADD MSTORE PUSH2 0x2D61 DUP2 DUP6 PUSH2 0x2C42 JUMP JUMPDEST SWAP1 POP DUP2 DUP2 SUB PUSH2 0x160 DUP4 ADD MSTORE PUSH2 0x2D76 DUP2 DUP5 PUSH2 0x2C42 JUMP JUMPDEST SWAP1 POP SWAP14 SWAP13 POP POP POP POP POP POP POP POP POP POP POP POP POP JUMP JUMPDEST PUSH32 0x4E487B7100000000000000000000000000000000000000000000000000000000 PUSH1 0x0 MSTORE PUSH1 0x22 PUSH1 0x4 MSTORE PUSH1 0x24 PUSH1 0x0 REVERT JUMPDEST PUSH1 0x0 PUSH1 0x2 DUP3 DIV SWAP1 POP PUSH1 0x1 DUP3 AND DUP1 PUSH2 0x2DD0 JUMPI PUSH1 0x7F DUP3 AND SWAP2 POP JUMPDEST PUSH1 0x20 DUP3 LT DUP2 SUB PUSH2 0x2DE3 JUMPI PUSH2 0x2DE2 PUSH2 0x2D89 JUMP JUMPDEST JUMPDEST POP SWAP2 SWAP1 POP JUMP JUMPDEST PUSH32 0x4572726F7220736F6D6520706172616D6574657273206D697373696E672E2053 PUSH1 0x0 DUP3 ADD MSTORE PUSH32 0x686F756C64206265206174206C6561737420313120706172616D657465722031 PUSH1 0x20 DUP3 ADD MSTORE PUSH32 0x3200000000000000000000000000000000000000000000000000000000000000 PUSH1 0x40 DUP3 ADD MSTORE POP JUMP JUMPDEST PUSH1 0x0 PUSH2 0x2E6B PUSH1 0x41 DUP4 PUSH2 0x2C31 JUMP JUMPDEST SWAP2 POP PUSH2 0x2E76 DUP3 PUSH2 0x2DE9 JUMP JUMPDEST PUSH1 0x60 DUP3 ADD SWAP1 POP SWAP2 SWAP1 POP JUMP JUMPDEST PUSH1 0x0 PUSH1 0x20 DUP3 ADD SWAP1 POP DUP2 DUP2 SUB PUSH1 0x0 DUP4 ADD MSTORE PUSH2 0x2E9A DUP2 PUSH2 0x2E5E JUMP JUMPDEST SWAP1 POP SWAP2 SWAP1 POP JUMP JUMPDEST PUSH32 0x4E487B7100000000000000000000000000000000000000000000000000000000 PUSH1 0x0 MSTORE PUSH1 0x32 PUSH1 0x4 MSTORE PUSH1 0x24 PUSH1 0x0 REVERT JUMPDEST PUSH1 0x0 DUP2 SWAP1 POP DUP2 PUSH1 0x0 MSTORE PUSH1 0x20 PUSH1 0x0 KECCAK256 SWAP1 POP SWAP2 SWAP1 POP JUMP JUMPDEST PUSH1 0x0 PUSH1 0x20 PUSH1 0x1F DUP4 ADD DIV SWAP1 POP SWAP2 SWAP1 POP JUMP JUMPDEST PUSH1 0x0 DUP3 DUP3 SHL SWAP1 POP SWAP3 SWAP2 POP POP JUMP JUMPDEST PUSH1 0x0 PUSH1 0x8 DUP4 MUL PUSH2 0x2F32 PUSH32 0xFFFFFFFFFFFFFFFFFFFFFFFFFFFFFFFFFFFFFFFFFFFFFFFFFFFFFFFFFFFFFFFF DUP3 PUSH2 0x2EF5 JUMP JUMPDEST PUSH2 0x2F3C DUP7 DUP4 PUSH2 0x2EF5 JUMP JUMPDEST SWAP6 POP DUP1 NOT DUP5 AND SWAP4 POP DUP1 DUP7 AND DUP5 OR SWAP3 POP POP POP SWAP4 SWAP3 POP POP POP JUMP JUMPDEST PUSH1 0x0 DUP2 SWAP1 POP SWAP2 SWAP1 POP JUMP JUMPDEST PUSH1 0x0 PUSH2 0x2F79 PUSH2 0x2F74 PUSH2 0x2F6F DUP5 PUSH2 0x2BCE JUMP JUMPDEST PUSH2 0x2F54 JUMP JUMPDEST PUSH2 0x2BCE JUMP JUMPDEST SWAP1 POP SWAP2 SWAP1 POP JUMP JUMPDEST PUSH1 0x0 DUP2 SWAP1 POP SWAP2 SWAP1 POP JUMP JUMPDEST PUSH2 0x2F93 DUP4 PUSH2 0x2F5E JUMP JUMPDEST PUSH2 0x2FA7 PUSH2 0x2F9F DUP3 PUSH2 0x2F80 JUMP JUMPDEST DUP5 DUP5 SLOAD PUSH2 0x2F02 JUMP JUMPDEST DUP3 SSTORE POP POP POP POP JUMP JUMPDEST PUSH1 0x0 SWAP1 JUMP JUMPDEST PUSH2 0x2FBC PUSH2 0x2FAF JUMP JUMPDEST PUSH2 0x2FC7 DUP2 DUP5 DUP5 PUSH2 0x2F8A JUMP JUMPDEST POP POP POP JUMP JUMPDEST JUMPDEST DUP2 DUP2 LT ISZERO PUSH2 0x2FEB JUMPI PUSH2 0x2FE0 PUSH1 0x0 DUP3 PUSH2 0x2FB4 JUMP JUMPDEST PUSH1 0x1 DUP2 ADD SWAP1 POP PUSH2 0x2FCD JUMP JUMPDEST POP POP JUMP JUMPDEST PUSH1 0x1F DUP3 GT ISZERO PUSH2 0x3030 JUMPI PUSH2 0x3001 DUP2 PUSH2 0x2ED0 JUMP JUMPDEST PUSH2 0x300A DUP5 PUSH2 0x2EE5 JUMP JUMPDEST DUP2 ADD PUSH1 0x20 DUP6 LT ISZERO PUSH2 0x3019 JUMPI DUP2 SWAP1 POP JUMPDEST PUSH2 0x302D PUSH2 0x3025 DUP6 PUSH2 0x2EE5 JUMP JUMPDEST DUP4 ADD DUP3 PUSH2 0x2FCC JUMP JUMPDEST POP POP JUMPDEST POP POP POP JUMP JUMPDEST PUSH1 0x0 DUP3 DUP3 SHR SWAP1 POP SWAP3 SWAP2 POP POP JUMP JUMPDEST PUSH1 0x0 PUSH2 0x3053 PUSH1 0x0 NOT DUP5 PUSH1 0x8 MUL PUSH2 0x3035 JUMP JUMPDEST NOT DUP1 DUP4 AND SWAP2 POP POP SWAP3 SWAP2 POP POP JUMP JUMPDEST PUSH1 0x0 PUSH2 0x306C DUP4 DUP4 PUSH2 0x3042 JUMP JUMPDEST SWAP2 POP DUP3 PUSH1 0x2 MUL DUP3 OR SWAP1 POP SWAP3 SWAP2 POP POP JUMP JUMPDEST PUSH2 0x3085 DUP3 PUSH2 0x2501 JUMP JUMPDEST PUSH8 0xFFFFFFFFFFFFFFFF DUP2 GT ISZERO PUSH2 0x309E JUMPI PUSH2 0x309D PUSH2 0x27B3 JUMP JUMPDEST JUMPDEST PUSH2 0x30A8 DUP3 SLOAD PUSH2 0x2DB8 JUMP JUMPDEST PUSH2 0x30B3 DUP3 DUP3 DUP6 PUSH2 0x2FEF JUMP JUMPDEST PUSH1 0x0 PUSH1 0x20 SWAP1 POP PUSH1 0x1F DUP4 GT PUSH1 0x1 DUP2 EQ PUSH2 0x30E6 JUMPI PUSH1 0x0 DUP5 ISZERO PUSH2 0x30D4 JUMPI DUP3 DUP8 ADD MLOAD SWAP1 POP JUMPDEST PUSH2 0x30DE DUP6 DUP3 PUSH2 0x3060 JUMP JUMPDEST DUP7 SSTORE POP PUSH2 0x3146 JUMP JUMPDEST PUSH1 0x1F NOT DUP5 AND PUSH2 0x30F4 DUP7 PUSH2 0x2ED0 JUMP JUMPDEST PUSH1 0x0 JUMPDEST DUP3 DUP2 LT ISZERO PUSH2 0x311C JUMPI DUP5 DUP10 ADD MLOAD DUP3 SSTORE PUSH1 0x1 DUP3 ADD SWAP2 POP PUSH1 0x20 DUP6 ADD SWAP5 POP PUSH1 0x20 DUP2 ADD SWAP1 POP PUSH2 0x30F7 JUMP JUMPDEST DUP7 DUP4 LT ISZERO PUSH2 0x3139 JUMPI DUP5 DUP10 ADD MLOAD PUSH2 0x3135 PUSH1 0x1F DUP10 AND DUP3 PUSH2 0x3042 JUMP JUMPDEST DUP4 SSTORE POP JUMPDEST PUSH1 0x1 PUSH1 0x2 DUP9 MUL ADD DUP9 SSTORE POP POP POP JUMPDEST POP POP POP POP POP POP JUMP JUMPDEST PUSH1 0x0 PUSH1 0x20 DUP3 ADD SWAP1 POP DUP2 DUP2 SUB PUSH1 0x0 DUP4 ADD MSTORE PUSH2 0x3168 DUP2 DUP5 PUSH2 0x2C42 JUMP JUMPDEST SWAP1 POP SWAP3 SWAP2 POP POP JUMP JUMPDEST PUSH32 0x4E487B7100000000000000000000000000000000000000000000000000000000 PUSH1 0x0 MSTORE PUSH1 0x31 PUSH1 0x4 MSTORE PUSH1 0x24 PUSH1 0x0 REVERT JUMPDEST PUSH1 0x0 DUP2 SWAP1 POP SWAP3 SWAP2 POP POP JUMP JUMPDEST PUSH1 0x0 DUP2 SWAP1 POP DUP2 PUSH1 0x0 MSTORE PUSH1 0x20 PUSH1 0x0 KECCAK256 SWAP1 POP SWAP2 SWAP1 POP JUMP JUMPDEST PUSH1 0x0 DUP2 SLOAD PUSH2 0x31CC DUP2 PUSH2 0x2DB8 JUMP JUMPDEST PUSH2 0x31D6 DUP2 DUP7 PUSH2 0x319F JUMP JUMPDEST SWAP5 POP PUSH1 0x1 DUP3 AND PUSH1 0x0 DUP2 EQ PUSH2 0x31F1 JUMPI PUSH1 0x1 DUP2 EQ PUSH2 0x3206 JUMPI PUSH2 0x3239 JUMP JUMPDEST PUSH1 0xFF NOT DUP4 AND DUP7 MSTORE DUP2 ISZERO ISZERO DUP3 MUL DUP7 ADD SWAP4 POP PUSH2 0x3239 JUMP JUMPDEST PUSH2 0x320F DUP6 PUSH2 0x31AA JUMP JUMPDEST PUSH1 0x0 JUMPDEST DUP4 DUP2 LT ISZERO PUSH2 0x3231 JUMPI DUP2 SLOAD DUP2 DUP10 ADD MSTORE PUSH1 0x1 DUP3 ADD SWAP2 POP PUSH1 0x20 DUP2 ADD SWAP1 POP PUSH2 0x3212 JUMP JUMPDEST DUP4 DUP9 ADD SWAP6 POP POP POP JUMPDEST POP POP POP SWAP3 SWAP2 POP POP JUMP JUMPDEST PUSH1 0x0 PUSH2 0x324E DUP3 DUP5 PUSH2 0x31BF JUMP JUMPDEST SWAP2 POP DUP2 SWAP1 POP SWAP3 SWAP2 POP POP JUMP JUMPDEST PUSH32 0x4E487B7100000000000000000000000000000000000000000000000000000000 PUSH1 0x0 MSTORE PUSH1 0x11 PUSH1 0x4 MSTORE PUSH1 0x24 PUSH1 0x0 REVERT JUMPDEST PUSH1 0x0 PUSH2 0x3293 DUP3 PUSH2 0x2BCE JUMP JUMPDEST SWAP2 POP PUSH32 0xFFFFFFFFFFFFFFFFFFFFFFFFFFFFFFFFFFFFFFFFFFFFFFFFFFFFFFFFFFFFFFFF DUP3 SUB PUSH2 0x32C5 JUMPI PUSH2 0x32C4 PUSH2 0x3259 JUMP JUMPDEST JUMPDEST PUSH1 0x1 DUP3 ADD SWAP1 POP SWAP2 SWAP1 POP JUMP JUMPDEST PUSH1 0x0 DUP2 SWAP1 POP SWAP3 SWAP2 POP POP JUMP JUMPDEST PUSH1 0x0 PUSH2 0x32E6 DUP3 PUSH2 0x2501 JUMP JUMPDEST PUSH2 0x32F0 DUP2 DUP6 PUSH2 0x32D0 JUMP JUMPDEST SWAP4 POP PUSH2 0x3300 DUP2 DUP6 PUSH1 0x20 DUP7 ADD PUSH2 0x251D JUMP JUMPDEST DUP1 DUP5 ADD SWAP2 POP POP SWAP3 SWAP2 POP POP JUMP JUMPDEST PUSH1 0x0 PUSH2 0x3318 DUP3 DUP5 PUSH2 0x32DB JUMP JUMPDEST SWAP2 POP DUP2 SWAP1 POP SWAP3 SWAP2 POP POP JUMP JUMPDEST PUSH1 0x0 DUP2 SLOAD PUSH2 0x3330 DUP2 PUSH2 0x2DB8 JUMP JUMPDEST PUSH2 0x333A DUP2 DUP7 PUSH2 0x32D0 JUMP JUMPDEST SWAP5 POP PUSH1 0x1 DUP3 AND PUSH1 0x0 DUP2 EQ PUSH2 0x3355 JUMPI PUSH1 0x1 DUP2 EQ PUSH2 0x336A JUMPI PUSH2 0x339D JUMP JUMPDEST PUSH1 0xFF NOT DUP4 AND DUP7 MSTORE DUP2 ISZERO ISZERO DUP3 MUL DUP7 ADD SWAP4 POP PUSH2 0x339D JUMP JUMPDEST PUSH2 0x3373 DUP6 PUSH2 0x2ED0 JUMP JUMPDEST PUSH1 0x0 JUMPDEST DUP4 DUP2 LT ISZERO PUSH2 0x3395 JUMPI DUP2 SLOAD DUP2 DUP10 ADD MSTORE PUSH1 0x1 DUP3 ADD SWAP2 POP PUSH1 0x20 DUP2 ADD SWAP1 POP PUSH2 0x3376 JUMP JUMPDEST DUP4 DUP9 ADD SWAP6 POP POP POP JUMPDEST POP POP POP SWAP3 SWAP2 POP POP JUMP JUMPDEST PUSH1 0x0 PUSH2 0x33B2 DUP3 DUP5 PUSH2 0x3323 JUMP JUMPDEST SWAP2 POP DUP2 SWAP1 POP SWAP3 SWAP2 POP POP JUMP INVALID LOG2 PUSH5 0x6970667358 0x22 SLT KECCAK256 0xD2 0xAD 0xAE 0xB2 JUMP AND 0xD9 CALLDATASIZE 0xCE 0xEC SWAP12 0x2F INVALID 0xCB DUP5 DUP9 0xAE CALLVALUE CALLDATALOAD 0xE1 0xCA DUP5 PUSH7 0x9B9CB975621AEF DUP15 0x49 PUSH5 0x736F6C6343 STOP ADDMOD GT STOP CALLER "
				},
				"gasEstimates": {
					"creation": {
						"codeDepositCost": "2659800",
						"executionCost": "2885",
						"totalCost": "2662685"
					},
					"external": {
						"createDiplome(string[])": "infinite",
						"deleteLastDiplome()": "infinite",
						"diplomes(uint256)": "infinite",
						"filterDiplomes(string)": "infinite",
						"getDiplome(string)": "infinite",
						"getDiplomes()": "infinite"
					}
				},
				"methodIdentifiers": {
					"createDiplome(string[])": "57a1cfb4",
					"deleteLastDiplome()": "589d157a",
					"diplomes(uint256)": "768ceb9a",
					"filterDiplomes(string)": "9e7ab31b",
					"getDiplome(string)": "6f593db5",
					"getDiplomes()": "376d83b9"
				}
			},
			"storageLayout": {
				"storage": [
					{
						"astId": 30,
						"contract": "Storage.sol:Storage",
						"label": "diplomes",
						"offset": 0,
						"slot": "0",
						"type": "t_array(t_struct(Diplome)26_storage)dyn_storage"
					}
				],
				"types": {
					"t_array(t_struct(Diplome)26_storage)dyn_storage": {
						"base": "t_struct(Diplome)26_storage",
						"encoding": "dynamic_array",
						"label": "struct Storage.Diplome[]",
						"numberOfBytes": "32"
					},
					"t_string_storage": {
						"encoding": "bytes",
						"label": "string",
						"numberOfBytes": "32"
					},
					"t_struct(Diplome)26_storage": {
						"encoding": "inplace",
						"label": "struct Storage.Diplome",
						"members": [
							{
								"astId": 3,
								"contract": "Storage.sol:Storage",
								"label": "CNE",
								"offset": 0,
								"slot": "0",
								"type": "t_string_storage"
							},
							{
								"astId": 5,
								"contract": "Storage.sol:Storage",
								"label": "CNI",
								"offset": 0,
								"slot": "1",
								"type": "t_string_storage"
							},
							{
								"astId": 7,
								"contract": "Storage.sol:Storage",
								"label": "firstName",
								"offset": 0,
								"slot": "2",
								"type": "t_string_storage"
							},
							{
								"astId": 9,
								"contract": "Storage.sol:Storage",
								"label": "lastName",
								"offset": 0,
								"slot": "3",
								"type": "t_string_storage"
							},
							{
								"astId": 11,
								"contract": "Storage.sol:Storage",
								"label": "birthDate",
								"offset": 0,
								"slot": "4",
								"type": "t_string_storage"
							},
							{
								"astId": 13,
								"contract": "Storage.sol:Storage",
								"label": "birthPlace",
								"offset": 0,
								"slot": "5",
								"type": "t_string_storage"
							},
							{
								"astId": 15,
								"contract": "Storage.sol:Storage",
								"label": "universityName",
								"offset": 0,
								"slot": "6",
								"type": "t_string_storage"
							},
							{
								"astId": 17,
								"contract": "Storage.sol:Storage",
								"label": "diplomeTitle",
								"offset": 0,
								"slot": "7",
								"type": "t_string_storage"
							},
							{
								"astId": 19,
								"contract": "Storage.sol:Storage",
								"label": "brancheName",
								"offset": 0,
								"slot": "8",
								"type": "t_string_storage"
							},
							{
								"astId": 21,
								"contract": "Storage.sol:Storage",
								"label": "brancheOption",
								"offset": 0,
								"slot": "9",
								"type": "t_string_storage"
							},
							{
								"astId": 23,
								"contract": "Storage.sol:Storage",
								"label": "note",
								"offset": 0,
								"slot": "10",
								"type": "t_string_storage"
							},
							{
								"astId": 25,
								"contract": "Storage.sol:Storage",
								"label": "date",
								"offset": 0,
								"slot": "11",
								"type": "t_string_storage"
							}
						],
						"numberOfBytes": "384"
					}
				}
			},
			"userdoc": {
				"kind": "user",
				"methods": {},
				"version": 1
			}
		}
	}
}